:100000006F100044000000008A0E00008E0E0000F9
:1000100000000000000000000000000000000000E0
:1000200000000000000000000000000000000000D0
:10003000D00B0000000000001014000000000000C1
:10004000121400001414000016140000181400000C
:10005000720C00001C1400001E140000201400008C
:1000600022140000241400002614000028140000AC
:100070002A1400002C1400002E140000301400007C
:10008000321400003414000036140000D8090000B7
:100090003A140000720A0000800A0000000000000C
:1000A000511126C022C206C4828282441244A24058
:1000B000310182802A86014593F6150091C232955E
:1000C00085810606F5F9828000000000634E050276
:1000D00063C305042E86AA857D5515C285466378BF
:1000E000B6006356C00006068606E36CB6FE014500
:1000F00063E4C500918D558D85820582F5FA828075
:100100008682C93F2E8582823305A04063D70500D1
:10011000B305B040C1B7B305B0408682653F330533
:10012000A0408282868263C70500634905005D376F
:100130002E858282B305B040E35B05FE3305A04007
:10014000513F3305B04082820000EFF27FF51C4141
:100150008297A1BF85476307F60089476306F600CB
:10016000014582800CC1EDBF9C411CC1D5BFEFF29F
:100170003FF3AE84B2853D3FEF10903E2A84268542
:10018000EF10103EA285EF10F02E635C050026856F
:10019000EF1070492A842285EF1090364205418580
:1001A00029B733059040EF10B03BA285AA84EF1029
:1001B0001024E352A0FE2684F9BFEFF27FEE711106
:1001C00013858185792E1387618314239387C182D8
:1001D00099CA228323A00700230007001385818585
:1001E000D5291101D9B594438965938585FEB695C6
:1001F00088219382818203940200130505F8620529
:1002000013862183935544406185831406000D8D28
:1002100083C50183058D36C0553D22954205418138
:10022000AA94C20493828182C1802390A200269561
:1002300013862183420506A293054006094641859F
:100240003D3705851305050837360140232AA6C228
:1002500003C5518383C541831386518382469387A7
:10026000C18213876183631FB500850694C3230091
:1002700006009305F02F63D7D5009306003094C392
:10028000230007001C2285071CA289BFB717024064
:10029000944F056713060782D18E94CFB71601409D
:1002A00003A6064013070780419A23A0C64003A671
:1002B00006401366960123A0C640D4470D66558FAD
:1002C000D8C7D847FD769386F67F758FD8C737375E
:1002D0000140231407C29306F00F2316D7C283569A
:1002E00047C193E61600231AD7C0835607C293E688
:1002F000C6002310D7C2835607C2D18E2310D7C29F
:10030000835687C1216693E60606231CD7C0930651
:100310000008232AD7C2835647C4D18E2312D7C4DC
:10032000835707C093E717002310F7C08280EFF2CE
:100330003FD74111A13FAD650946938545C413855B
:1003400081851521B70700009387A71B3EC0B7071B
:1003500000009387A7143EC6B70700009387471590
:100360008A85138581853EC4EF00805FA24789C7D7
:100370008A850D462E85829713858185A12E4101A0
:100380002DB3EFF2FFD10547930500050545238BFB
:10039000E182EF00007C2388A182A1450545EF00A2
:1003A000407B238AA1821305600AEF10204BF5B928
:1003B000EFF21FCFB7050040138581853923F5B1D2
:1003C000EFF21FCE138581850D21C5B101458280D5
:1003D00082807D558280EFF2BFCC1C417111CC81AF
:1003E000DC43930531000546829711017DB9EFF298
:1003F0003FCB7111930531004105EF10E04001E55D
:10040000888111015DB17D55EDBFEFF27FC92E8569
:10041000B285EF10202F51B913F7F50FC54763EDE3
:10042000E70089679387873A0A073E9793F7057035
:100430000C43CD8F5CD5828093F6050C1306000C1F
:10044000FD57E399C6FE9306700CE3E5E6FE93F7CD
:10045000F5030967130787388A07BA979C4309672A
:100460001307873A8A07BA9793F505709C43D1B76B
:1004700013F7F50FC54763EDE70089679387873A60
:100480000A073E9793F705700C43CD8F1CD58280E9
:1004900093F6050C1306000CFD57E399C6FE930670
:1004A000700CE3E5E6FE93F7F50309671307873859
:1004B0008A07BA979C4309671307873A8A07BA974E
:1004C00093F505709C43D1B7EFF29FBD9307803E33
:1004D0001CC589679387873F1CC10CC9232205006F
:1004E0009305600C2A840D3F9305500C22854937F3
:1004F00058541C546314F700FD575CD4FD571CD8A6
:100500005CD865B6EFF2DFB9B74501409385058049
:100510001385C18D553F51BEEFF29FB81C452A840B
:1005200081CB0D46AA85829723240400232604004C
:100530002285A5BEEFF2DFB631110A8502C002C2E4
:1005400002C402C602C8EF00B01412455101B1BE88
:100550001C4599C7EFF2DFB4AA850D468297B1B664
:100560008280EFF2FFB32A84084D0146FD45EF007B
:100570001026084C8145EF00102405BEFD152E9570
:100580001C2199CB89477D5563E7B7008605938782
:100590000181BE958A2182808D477D55E3EDB7FEAE
:1005A000860593878181F5B79387F5FF0D47636EC5
:1005B000F700EFF2FFAE51113EC02A84AE847D3FBA
:1005C0007D5782476314E50001A001A09204938443
:1005D0004403A29494441387C1803E97182385C690
:1005E00093860182BE969422084C3AC4B6853EC2D8
:1005F00036C0EF00D0248246084C0546B685EF0091
:10060000101D2247924793962700A296D442314666
:100610006369D60A09668A061306C641B2969442F1
:10062000084C8286A2979C2393150701C18199CF1C
:100630001146EF00D01E084C216783574504D98F1F
:100640002312F5048545EF001017A5A80546EF0015
:10065000101BD5B70546BA853EC0EF00501A824739
:1006600013874182BA97838707002285BE853EC0E3
:10067000313793150501084C0546C181EF0030184C
:10068000084CA166854503574504558F2312E504A0
:10069000EF007012984415C782470D47084CFD17AC
:1006A000FD546366F70093850182BE958421C204E0
:1006B000C180A685EF00B018084C0546A685EF005E
:1006C00010113101DDB20546BA8551B71E21858B67
:1006D000EDFB8DBFEFF2DF9C5C5D2A8491CF084D6E
:1006E0008545EF00D015084C85450546EF00300ED6
:1006F000084C8545EF00300C2285854575352285EF
:1007000089455D3522858D45453591452285693D73
:100710006FF0BF99EFF2DF98084D8545EF00500C60
:100720006FF0BF981C4D8A2305898280EFF25F9796
:100730002A84CD3F05E5084C5E25858B95C301468F
:100740008545EF00D0082285F137084C8545EF003C
:10075000100F084C05468545EF0070076FF0FF94B9
:1007600022854D3FE5BFEFF2BF938547AA842E84D3
:100770006301F60289476304F604814719C09307B1
:10078000F4FF8C4CC207C183DEB5268545376FF078
:10079000DF914D33B7450F0093850524EFF09F930C
:1007A000A285EFF03F91935505019C4C13970501ED
:1007B00041839AB78505EFF0FF912A847DBF9D3B69
:1007C000A285EFF03F91C5B7B7370140938707C0C7
:1007D0006308F500B70700406316F5000545828001
:1007E0000145828041657D158280EFF27F8B2A84EE
:1007F000084DD93FAA8413058401EF0090508A0464
:10080000138581832695232A04009304440823201A
:1008100005001304440363868400C11426850D3B40
:10082000DDBF6FF09F88EFF2BF8771112A84C1642A
:100830002E852EC0FD14493F82456313950001A00B
:100840001C4C91C301A093172500138581833E950D
:10085000930744011CC1930700085CD4930700046C
:100860001CD80CCC1305840140C8232E040023207F
:10087000040223120402EF00704513054403693992
:100880001305440451391305440579311305440611
:100890006131130544074931084C23200400232209
:1008A0000400232404002326040023280400232E0C
:1008B000040004D08545EF00E072084C9305C401A4
:1008C000EF00806A11016FF04FFEEFF26FFD232EF3
:1008D000050223260504232E050423260506232EC0
:1008E0000506232C05008137B7E700E0214723A246
:1008F000E7101307000223A2E7101307000423A246
:10090000E7106FF08FFA232405009C4589CFEFF2A2
:100910002FF909462A84AE848297DC445CC49C4447
:100920001CC46FF08FF88280EFF28FF721112A84B8
:100930002800D13FB24714402247280036C4544013
:100940005CC0C24718C018441CC4D2473AC85844B7
:100950005CC436C63ACAED3E228561016FF0EFF401
:10096000EFF20FF42A845C5C1305450381C76D3FE9
:100970006FF0AFF3AE844D3F9C44FDDB084C8545E2
:10098000EF00E06B084C054685459125D5B7EFF2A1
:100990002FF1184519E3EF00706E5C4582976FF0F8
:1009A000CFF011E101A0EFF2AFEF2A8408418545B5
:1009B000692D0DC11C40DE27858B89CF2285EF0074
:1009C000B03008415C5D81C713054503C937084055
:1009D0008545412D6FF06FED03A5818319C1110588
:1009E000C9377300203011E101A01C41DA27098BBF
:1009F00011EBDA27118B19E7DA27218B01E7DA27C8
:100A0000418B3DC7EFF2CFE92A8489453E85352DDC
:100A10001C4015C189453E85A92585442285EF00E6
:100A2000B02A084192049384440326951C4591C33F
:100A3000B93F6FF08FE73E859145012D1C4011C5F0
:100A400091453E85392D8944D1BF3E85A145F52B81
:100A50001C4011C5A1453E8529258D44C1B7C1451E
:100A60003E85E52345DD0840C1459144DD2B7DB73A
:100A7000828003A5818319C11105B5377300203029
:100A8000711122C013848183484011C51105113FA3
:100A900048401105893F0244110173002030EFF2F4
:100AA0002FE02A84EF00D05A48C41C402285DC4B3A
:100AB0008297635A0500EF00B0595C441D8D1C44B9
:100AC000E365F5FE7D556FF04FDEEFF26FDD6111EE
:100AD000AA8401442EC232C0630DC4002685C137EA
:100AE0006349050092450246B387850088A3050443
:100AF000D5B7228521016FF04FDBEFF26FDA51118C
:100B0000014495C6B684AA8701443E8532C42EC2EC
:100B10003EC07137634D05009245630AB500224619
:100B200082473307860008A30504E39084FE2285EC
:100B300031016FF08FD709CDEFF28FD671112AC036
:100B4000EF00906E8245EFF0EFDD11016FF0EFD511
:100B50008280EFF2EFD42A846356B5003385A54036
:100B6000D93F2A9422856FF04FD4EFF26FD3F12052
:100B70006FF0AFD3EFF2CFD285476301F50219C50D
:100B800089476303F50201456FF02FD21145854572
:100B9000712E3715014013050580FDB74145854588
:100BA000712637150140CDB7130500028545BD2ECE
:100BB0003715014013050540C1BF03A5018483A576
:100BC000418482808280EFF2AFCDC53F6FF0EFCDE0
:100BD0009387018403A3070083A34700130713002F
:100BE0003335670098C3B3067500D4C3E13FB7F748
:100BF00000E023A2070073002030EFF26FCA37F441
:100C000000E0232204002320040023240400B7076B
:100C1000002003A5C70F9305803EEFF0AFCB7D15F5
:100C200008C8BD471CC07D57B7E700E02386E740F2
:100C3000056723A0E7106FF04FC7EFF26FC6753F4F
:100C40006FF0AFC6814705476307E500850705815B
:100C500093F7F70FD5BF370700208E07130707005C
:100C6000BA97DC4391C7EFF2AFC382976FF0EFC33F
:100C70008280611122C226C00544A1442285A92098
:100C800019C522858D20131504014181653FFD148E
:100C90000604EDF41244824421017300203037072A
:100CA00000201307870F1C439386419B3E95636981
:100CB000D500938681D463E5A60008C33E85828073
:100CC000FD57EDBF82808280B70701401387074040
:100CD00083A70740584B698F09C77D8D3335A00026
:100CE000828001458280B707014023AAA740828005
:100CF0009C45611122C226C013F7070113F3F700C8
:100D000001C7D8413363E30092211377F60F29C757
:100D10008323050001471304800293048004854661
:100D2000B395E600B376B6006392D502931227001E
:100D3000BD46B396560093C6F6FFB3F37600B312E2
:100D40005300B3E37200639787064CC90507A146B9
:100D5000E317D7FC232075001307F00F6378C7044F
:100D600083234500A14613048002930480040547B1
:100D7000B312D700337756006394E202139726002C
:100D80000117BD45B395E50093C5F5FFB3F37500B5
:100D90003317E300B363770063928702232A550079
:100DA00085064147E395E6FC232275001244824400
:100DB00021018280E39C97F80CC949BFE39297FE1A
:100DC00023285500F1BF3703014003274300931741
:100DD000350063D00702B707C0FFF517F98F370753
:100DE0000007D98FD9CD370700F07D17798DC98FCE
:100DF00049A8635D0500B707E0FFED17F98F3707D6
:100E00000007D98FBDCD06050581D5B7B7073000DE
:100E1000931605013376F500C1826313F602370697
:100E200000F97D16B377C70003274300798E23228C
:100E3000C300A1C95581131745003395E60045BF8E
:100E40009317B50063D407029357050113F6F70013
:100E50008D47B397C70093C7F7FFF98F3707000790
:100E6000D98F85C1135755011207C1BF558112058E
:100E70003395A6009347F5FFF98F37070007D98F01
:100E8000BDF5370701405CC382807300203001A0AC
:100E9000EFF20FA1371702405C4391462A84B18BD1
:100EA0006385D700A146638DD706B7376E01938758
:100EB00007601CC0B7160240DC42918313F7F700AD
:100EC000B707002093874705BA978C23DC42184068
:100ED00093F5F50F93F707083355B70081E73A8587
:100EE000EFF04F9F48C008C448C4B7170240DC4326
:100EF000AD83FD8B13D737008A07F18BD98F93F61B
:100F000037010D476373D700D11737070020130748
:100F10000704BA978C23EFF0EF9B08C86FF0EF98A7
:100F20005C43B777DC02938707C061B799C5371771
:100F300002401C4F5D8D08CF8280B7170240984F4A
:100F40001345F5FF798D88CF828099C53717024008
:100F50005C4F5D8D48CF8280B7170240D84F134554
:100F6000F5FF798DC8CF82801E21373701401307E6
:100F700007C0C207C1836306E50037070040631658
:100F8000E500BA2193F7F7F8D98FFA2193F7F7CF55
:100F9000C207C183D98F1EA1DE215EB59E211EB579
:100FA000B7370140938707C06314F5009C251EB92D
:100FB00085475EA982801E2189C593E717001EA17F
:100FC0008280C207C183F99BC207C183CDBF5E2562
:100FD00001C6DD8D4EA5828093C5F5FFFD8DDDBF79
:100FE0004EA982801E2189C593E707081EA1828031
:100FF000C207C18393F7F7F7C207C183C5BF1A3190
:101000008547B397B70093C7F7FFF98F1EB11E311D
:10101000B315B600DD8DC205C1810EB182801A31D3
:101020009147B397B70093C7F7FFF98F1EB11E31F1
:10103000B315B600DD8DC205C1810EB1828093C5A6
:10104000F5FFC205C1810EA982801E294A25ED8FB8
:101050004205418189C76D8D3335A00082800145ED
:10106000828093C5F5FFC205C1810EA98280EFF28F
:101070002F831629F577FD17F58FF621DA25211133
:10108000D58F1EA95625FD779387379FF58FD621DB
:101090002A842EC0D58F9625D58FB625D58F5EA5EF
:1010A0005E29C207C18393F7F7CF5D8F5AA9480025
:1010B000C533B74701409387078082456312F40622
:1010C000C2475A24139517003E9542070E054187E3
:1010D0003E958C41635807048605EFE0BFFF9305FA
:1010E00040062AC0EFE01FFF824793144500930596
:1010F00040063E85EFF0CF805E24C207C18763D5EE
:1011000007020E059305400613052503EFE09FFC3B
:101110001D89C98CC204C18006A461016FE0FFF87B
:10112000B24745B78A0555BF12059305400613051A
:101130002503EFE03FFA3D89E9BF91C55E250967C8
:10114000D98F5EA582805A25F977FD17F98FD5BF13
:1011500093F5F51F4EA182804A211375F51F8280F9
:101160005E2989C593E787005EA98280C207C18393
:10117000DD9BC207C183CDBF0A216D8D3335A00031
:101180008280B71702409843B706FFFC1367170029
:1011900098C3D843758FD8C39843B706F7FEFD169A
:1011A000758F98C39843B706FCFFFD16758F98C3DB
:1011B000D44341777D17F98ED4C3B7069F0094C7F7
:1011C000B72602409042719A90C290421366160070
:1011D00090C2D443D4C3D443758FD8C3D843B70681
:1011E0000001D8C39843558F98C39843931667005E
:1011F000E3DD06FED843B7160240719BD8C3D8433F
:1012000013672700D8C32147DC42B18BE39EE7FE7A
:101210008280EFE2FFE8311102C402C602C8FD5726
:101220006313F50001A093D7854093F4F7079377F4
:10123000F5001397270089679387C74BBA979C439C
:1012400011813D892E843EC0EFF0DF922AC285C411
:1012500085450545E1399387F4FF6947636DF700DC
:1012600009678A0713070745BA979C438287854514
:101270000545EFF05FB593572440137734008D8B0D
:101280007DC73AC609476380E70E0D47638FE70CB9
:1012900005476388E70CC1473EC8EDA08145C9BF3B
:1012A0008545370500100905E9B785453705401024
:1012B000DDBF8145E5BF854537050080110555BF78
:1012C00085453705208075B7854537052080FDB7F2
:1012D0008145E5BF3705160085451305050451BF57
:1012E0008545370516001305050861B7854537059F
:1012F00016001305050CB5BF8145D5BF370518008D
:10130000854513050510B5B7370518008545130544
:10131000052085B78545370518001305053091BFB1
:101320008145D5BF85452165A9B78145EDBF854577
:10133000370520008DBF8145E5BF85453705200075
:10134000B5BF8145E5BF85453705200069BF8145AB
:10135000E5BF8545370530001305054019BF8145B8
:10136000D5BFD14715BFE14705BFF14735B70547A1
:101370006383E70299C789466381D7029307800296
:1013800021BF02C8824712452C007C84EFF05F9693
:1013900051016FE09FD1914701B711840D889307E8
:1013A0008004E31DE4FCCDBDFD577D57631CF500B3
:1013B00082806398A700EFE2BFCE8C45993D6FE035
:1013C000DFCEB1059C41E396E7FE01A07D579C412D
:1013D0006394E700014582806394A700C84182803E
:1013E000B105F5B7FD576307F500EFE27FCBF93F95
:1013F0006FE0BFCB014582806305B50019C181E56F
:10140000AA852E8582808145EDBF01A001A001A0A3
:1014100001A001A001A001A001A001A001A001A0C4
:1014200001A001A001A001A001A001A001A001A0B4
:1014300001A001A001A001A001A001A001A001A0A4
:1014400097F1FF1F9381814B138181F017150000E5
:101450001305C52097F5FF1F9385C5BA13868182B2
:1014600063FAC5008322050023A0550011059105EC
:10147000E3EAC5FE138581829385419B6377B500BE
:10148000232005001105E36DB5FE9302000873905B
:1014900002308D427390428097F2FFFF938282B6B2
:1014A00093E2320073905230170500001305253F78
:1014B000C5260D21EFF0FFCC970200009382623821
:1014C000739012347300203071158280EFE25FBD9B
:1014D0001841B7370140938707C02A846318F70083
:1014E0000565854513050580EFF05FA41840B70733
:1014F00000406316F70085450545EFF01FA56FE036
:10150000DFBAEFE2FFB91841B7370140938707C050
:101510002A846318F7000565814513050580EFF0FF
:10152000FFA01840B70700406316F7008145054546
:10153000EFF0BFA16FE07FB7EFE29FB61301C1FDEF
:10154000AA84084D32C609662EC4930506373ACAE6
:1015500036C8493D2AD0C84C8966938586355935A9
:101560002A848850896593850534AD3D2AC0C850CA
:10157000896593858532BD350257096689662AC219
:1015800032CC36CE6304070ED04CFD566304D60031
:10159000630E040C9050FD566305D60082476387A6
:1015A000070CD050FD566305D60092476380070CA8
:1015B0003A85A2859135824588C03D3D924588C0D7
:1015C000253D88C045C53747014013070780631B89
:1015D000E50085451165EFF07F951307000223862E
:1015E000040298D4E247884C93850737753B11C4B1
:1015F000F247C84C93858735453B8247814681CB6E
:1016000088508965938505344533930600109247C9
:1016100091CBC850896593E606209385853236C004
:1016200061338246A24703C7C40288409CC4B247C4
:1016300013162700DEA4D247138781843297FEA4B5
:10164000C2471386440010C33147C8C09EA8BAA839
:10165000D6A801E48545EFF0BFB0C840938584006B
:10166000EFF0FFA0C8408545EFF03FAD1301410208
:101670006FE0BFA3EFE2DFA2896783A7C7390967DD
:101680001307873A8A07BA97804389659385053798
:101690002285EFF03FD519CD37050020F16593077E
:1016A00045060147814601469385052013054506F9
:1016B00080CF59356FE07F9FEFE29F9E8347C50241
:1016C000930500021397270093878184BA979C4360
:1016D0008843EFF07FAA133515006FE01F9DEFE2FE
:1016E0003F9C8347C5029305000413972700938707
:1016F0008184BA979C438843EFF01FA813351500E7
:101700006FE0BF9AEFE2DF99411137040020AA840D
:101710002EC2EFF08FCA9307440683C7C7022AC4BC
:101720001304440685E70347C402938781840A07AC
:10173000BA979C43F1173EC0938781843EC6824787
:10174000D9EB02C2124541016FE03F96896783A73A
:10175000C73909671307873A8A07BA979C4389668E
:10176000938506373E853EC0EFF0DFC7896671D9A5
:1017700023060402138781841C4391EF8347C4022C
:10178000850793F7F70F2306F402FDD7E535834766
:10179000C402D1DB7DB7024593850637EFF09FC4C5
:1017A0000346C4021387818493172600BA979C438B
:1017B00089669C43E394A7FC3DD6C9BFEFF0EFBF19
:1017C000A247B307F5403335F500E39CA5F61307B0
:1017D000703EE368F7F6024519376DF19247A69718
:1017E0003EC4A247E380F4F60245D53D75FD83472C
:1017F000C402324785048A07BA979C4383C5F4FF25
:101800008843EFF0FF94F1BF11E57D5582807D554F
:101810006FE0BF89EFE2DF88AA842E84713D65F90D
:1018200083C7C4021397270093878184BA979C4388
:101830008843EFF07F9208A00145D9BF8280EFE294
:101840003F86EFF08FB2EFE09FAEEFE09FB3F5BFC2
:10185000EFE21F85EFF02FB76FE03F8519CDEFE284
:101860003F842A84EFF02FB6AA84C93FEFF0AFB5CA
:10187000058DE36C85FE6FE05F838280511106C4A5
:1018800009205111194506C4692C0545EF008075E2
:10189000AA85814601460145C1A451119717000050
:1018A000938787DB22C217140000130424DB1D8CEE
:1018B00026C006C40984BE8419E41244A2408244AE
:1018C00031016FF02FC07D1493172400A6979C431D
:1018D0008297DDB7511122C297170000938707D76F
:1018E00017140000130484D61D8C26C006C4098476
:1018F000814463968402EFF00FBD97170000938731
:10190000E7D417140000130424D51D8C09848144E6
:1019100063928402A2401244824431018280139770
:1019200024003E9718438504029797170000938779
:10193000E7D1C1B7139724003E9718438504029757
:1019400097170000938787D0E1B793878180AA8596
:10195000884309A0411126C293843500F19806C638
:1019600022C4A104B14763F5F404B14463E4B404B0
:101970002AC0A52C1387C18414438247368439E0DA
:1019800013870185184301EB3E8581453EC0212226
:1019900023A8A18482473E85A6853EC0ED287D57B9
:1019A00082476314E506314798C33E85812429A008
:1019B000E3DE04FAB1471CC10145B240224492441F
:1019C000410182801840058F634E07022D466376E1
:1019D000E60018C03A9404C031A0584063928602D1
:1019E00023A6E1843E8519241305B400130744009F
:1019F0006199B307E540F1D33E94098F18C075BFD4
:101A0000D8C2CDB7A28640409DBF1304350071985F
:101A1000E30385FCB305A4403E853EC0AD287D5759
:101A20008247E31AE5FA41B751119387818022C2B8
:101A3000804306C41C5C8DEB6145013FB737CDABDD
:101A400008DC9387E7301CC1B7176DE693874723FF
:101A50005CC1B7E705009387C7EE1CC5AD475EA51F
:101A60000547814718C95CC9005C97170000938738
:101A700067A7904308484C48D443AD299307150005
:101A800033B5A7002E9548C81CC8A24012440605CD
:101A9000058131018280511122C22A842E8523A81A
:101AA000019A06C4EFF0AF9FFD576317F5009387C7
:101AB000019B9C4391C31CC0A2401244310182800F
:101AC000FD4763F6B700D9471CC17D5582807C4134
:101AD000411122C406C62E862A8491C71397250079
:101AE000BA97984319EB228532C0B520AA85228582
:101AF00022440246B240410115A8854601456308CB
:101B0000D700FD566319D700D9471CC00545B24020
:101B10002244410182802E8523A0070002970145BF
:101B2000FDB793878180AA85884359BF511122C28E
:101B30002A842E85B28523A8019A06C47129FD57EF
:101B40006317F5009387019B9C4391C31CC0A2407F
:101B50001244310182809DA9938741859C43AA83C9
:101B600099EF1387419223AAE18417E5FFFF13053C
:101B70006549BA8709C51C4123A6F19ABA87D8439B
:101B80007D437D556346E304638D030203A3870809
:101B900063000304931227009A9223A0C200032536
:101BA000031005463316E600518D2320A31023A011
:101BB000D20889466397D30083264310558E23228B
:101BC000C310930617000A07D4C3BA978CC7014500
:101BD000828097E7FFFF9387E74299C717050000C8
:101BE0001305E5CB6FF0DFCA8280828082801357B5
:101BF0007501B7078000FD1793D675011377F70FAE
:101C00009302F00F33F3A7001356F501ED8F93F60F
:101C1000F60FFD8163015702638C56000DE391E2DC
:101C2000B1C3630E03026305B60405451DE6828059
:101C3000F5D779558280E31E03FE6389E60291E2BF
:101C4000EDD7E314B6FEE3C2E6FE6347D700E3EE4A
:101C500067FC0145E37DF3FC01E67D558280F5DDFF
:101C6000054582800145E31203FC8280F9DBD1B790
:101C70000147E1BF13567501B7078000FD1713D761
:101C800075011376F60F1303F00FB3F2A700935606
:101C9000F501ED8F1377F70FFD8163076602630986
:101CA000670005EA11EB89EB0145639B0200828026
:101CB0000945F5FF65DA31A8638C02026380B6043A
:101CC0000545F5D67D558280094563980202630477
:101CD000C70211E3F5D7E395B6FEE343C7FE6347BA
:101CE000E600E3EF57FC0145E3F3F2FC99E2D9BFCC
:101CF000F1D905458280E5D3828082800146C5B74F
:101D000037068000935775011307F6FF93F7F70F17
:101D10009305E007698F9356F50163FCF500930581
:101D2000D00963FAF500370500801345F5FF3695B5
:101D300082800145828093055009518F63CDF50063
:101D400013066009B307F640B357F7003305F040B8
:101D5000F5F23E8582809387A7F6B317F700FDB7AB
:101D6000511106C422C226C00DCD9357F54133C48C
:101D7000A7001D8CAA842285DD229307E009338702
:101D8000A74093076009FD8063CCE702A1469377E3
:101D9000F70F63D5A60061153314A400260425802F
:101DA00021A0814481470144260413559400A24098
:101DB0001244DE07FE045D8D458D82443101828030
:101DC0009307900963DDE7009307B5019546B317C4
:101DD000F400898EB356D4003334F000558C954707
:101DE00063D6A7009307B5FF3314F400B70600FCD1
:101DF000FD16937774003376D40085C39377F4008F
:101E00009145638CB70011069317560063D70700FE
:101E10009307F009758E3387A74013146600258059
:101E20009377F70F51B7511106C422C215CD2A84FA
:101E30003D229307E0093387A7409307600963C0F9
:101E4000E704A1469377F70F63D5A6006115331415
:101E5000A40026042580260413559400A2401244B1
:101E6000DE075D8D31018280014426041355940004
:101E7000A24012448147DE075D8D310182809307C5
:101E8000900963DDE7009306B5019547B316D400CA
:101E9000898FB336D0003354F400558C954763D600
:101EA000A7009307B5FF3314F400B70600FCFD1636
:101EB000937774003376D40085C39377F40091450B
:101EC000638CB70011069317560063D7070093077A
:101ED000F009758E3387A740131466002580260409
:101EE00013559400A24012449377F70FDE075D8DDF
:101EF0003101828021112AC236C006CAAA8622C8B0
:101F000026C6328732C481470145014333866600C5
:101F1000937317003304F50093D2F6010583B334AD
:101F20006600860763850300338584003283860656
:101F3000B3E7570061FFAA8789C52245EFE08F9775
:101F4000AA97024711C71245BA85EFE0AF96AA9744
:101F5000D2404244B2441A85BE8561018280C16785
:101F6000637CF5029307F00F1307000263EBA700F1
:101F7000970700009387875DAA9788233305A740BA
:101F800082802181970700009387475CAA97882366
:101F900061473305A7408280B7070001636DF500F4
:101FA0006181970700009387675AAA978823214782
:101FB0003305A74082804181970700009387075926
:101FC000AA97882341473305A7408280930780055D
:101FD00023A8F19A7D5582809307800523A8F19A62
:101FE0007D55828001A00000808181818182828371
:101FF000848489847E648CF94FA49090718E7D7264
:102000007B49744253374F3B433C463F4842565E00
:1020100065746B88B68D9EDFBAC7CFE3EDEFEFF046
:10202000EBDFC6C4BCB7ABA89C968D847C78696492
:10203000594B4746382E2C211D1D1C1916171617F3
:10204000191C202730333942474F57616970778018
:10205000868D979CA8A8BCB5C9C4E3DDEEEBEAEE7B
:10206000EEEBEAE5E0D4CFC1BCB8B1AAA59E978E4D
:10207000898079716C665F58544D4B4341393831D2
:10208000312C2B2A2224202325242128262B2A30D8
:10209000303436373F45464A5054595C62686B6F5E
:1020A000737778817B86898C909093969A989B9E83
:1020B0009DA29E9FA2A1A0A0A2A2A1A2A3A4A3A808
:1020C000A7A9A9ADABAEABB0B0B1AFB3B0AFAEAD39
:1020D000ACACA6A6A29E9C98948F8C86837D7975C5
:1020E000716C68645F5B5752504A4843403C3736D6
:1020F00033312E2A2C2B2B292A2B2D2E30313337FE
:102100003A3D42484C51565C646870747B80878CC1
:1021100091969BA0A3A8ABB0B2B4B6B9BBBCBDBEF0
:10212000BCBEBDBCBABCB7B8B4B3AFAEA9A8A5A07D
:102130009E9B9794918E8A8784817E7C7976747237
:10214000706E6D6A6A686867676666666667676804
:1021500069696A6A6C6D6F70717273747677797978
:102160007B7C7D7E7F808182838484858586868654
:102170008786868686868585858484848383828215
:1021800082818180808080807F7F7F7F7F7F7F7F53
:102190007F7F7F808080808181828282838384842C
:1021A00085858686878787888888888888888888BC
:1021B00088888888888787878786868686868685B2
:1021C00085858585858585858585848484848484C5
:1021D00084848383838383838282828282828181D7
:1021E00081818181818080808080808080808080EA
:1021F00080808080808080808080808080818181DC
:1022000081818182828282838383838384848484A4
:10221000848485858585858585858586868686866B
:10222000868686868686868686868686868686854F
:102230008585858585858585848484848484848456
:10224000848484848484848484848484848484844E
:10225000848484848383838383838383838383834A
:10226000838383838383838383838383838383833E
:10227000848484848484848484848484848484841E
:102280008484848484848484848484848484838310
:10229000838383838383838383838383838383830E
:1022A00083838383838383838383838383838383FE
:1022B00083838384848484848484848484848484E1
:1022C00084848383838383838383838383838383DC
:1022D00083838383838383838383838383838383CE
:1022E00083838383838383828282828282828282C7
:1022F00083838383838282828282828282828282B9
:1023000082828281818181818181818181818181BA
:1023100081818181818181818181818080808080B2
:102320008080808080808080230000000038014011
:1023300018000000FFFFFFFF000000000000000089
:1023400012000000003801400B000000FFFFFFFFFB
:1023500000000000000000002600000000380140DE
:1023600018000000FFFFFFFF000000000000000059
:1023700025000000003801400B000000FFFFFFFFB8
:10238000000000000000000001000000000000004C
:10239000060000000C0000000D0000000F0000000F
:1023A000100000000E00000001000000020000000C
:1023B00010000000110000001200000013000000D7
:1023C00014000000150000001600000017000000B7
:1023D0002000000021000000220000002300000077
:1023E0002400000025000000260000002700000057
:1023F0000000000000000000D60300000A040000F6
:10240000CC030000D0030000D2030000EE03000064
:10241000D2030000CA0A0000FA0A0000CC0600003D
:10242000CC0600002406000024060000240600005C
:1024300024060000240600002406000024060000F4
:10244000C6060000C6060000C606000054060000CE
:102450006E1200009C120000A0120000AA120000E0
:10246000B2120000B6120000C0120000C812000034
:10247000D0120000D4120000E0120000EC120000A4
:10248000F8120000FC1200000813000014130000F2
:1024900020130000241300002A1300002E13000054
:1024A000361300003A1300004213000046130000E8
:1024B0004E130000521300005E13000001000000E4
:1024C00002000000040000000800000010000000EE
:1024D000200000004000000080000000000000001C
:1024E0002D7F954C2DF45158000000000000000095
:1024F00000000000000000000000000000000000DC
:1025000000000000000000000000000000000000CB
:1025100000000000000000000000000000000000BB
:1025200000000000000000000000000000000000AB
:10253000000000000000000000000000000000009B
:10254000000000000000000000010202030303037A
:102550000404040404040404050505050505050533
:102560000505050505050505060606060606060613
:1025700006060606060606060606060606060606FB
:1025800006060606060606060707070707070707E3
:1025900007070707070707070707070707070707CB
:1025A00007070707070707070707070707070707BB
:1025B00007070707070707070707070707070707AB
:1025C0000707070707070707080808080808080893
:1025D000080808080808080808080808080808087B
:1025E000080808080808080808080808080808086B
:1025F000080808080808080808080808080808085B
:10260000080808080808080808080808080808084A
:10261000080808080808080808080808080808083A
:10262000080808080808080808080808080808082A
:10263000080808080808080808080808080808081A
:08264000080808080808080852
:0C264800D21B0000B003000004050000DD
:04265400C0030000BF
:10265800140000000000000014000000000000004A
:10266800140000000000000014000000000000003A
:10267800140000000000000014000000000000002A
:10268800140000000000000014000000000000001A
:102698000204060804080C10081018201020304006
:1026A80020406080010203040506070801020304B4
:1026B80005060708000000000000000000000000F8
:1026C800000000000000000000000000FFFFFFFF06
:1026D800FFFFFFFFFFFFFFFFFFFFFFFF00000000FE
:1026E8000100000000000000082500002825000067
:1026F800E8240000000000000000000000000000C6
:1027080000000000000000000000000000000000C1
:1027180000000000000000000000000000000000B1
:1027280000000000000000000000000000000000A1
:102738000000000000000000000000000000000091
:102748000000000000000000AC020020006CDC0269
:10275800940000200004080C04004000000400005D
:102768000100100000010010020408100201040317
:00000001FF
