:100000006F10C02C00000000160D00001A0D00003B
:1000100000000000000000000000000000000000E0
:1000200000000000000000000000000000000000D0
:10003000820A0000000000009C1200000000000086
:100040009E120000A0120000A2120000A4120000E4
:10005000240B0000A8120000AA120000AC1200003D
:10006000AE120000B0120000B2120000B412000084
:10007000B6120000B8120000BA120000BC12000054
:10008000BE120000C0120000C2120000BE08000034
:10009000C6120000580900006609000000000000B8
:1000A000511126C022C206C4828282441244A24058
:1000B000310182802A86014593F6150091C232955E
:1000C00085810606F5F9828000000000634E050276
:1000D00063C305042E86AA857D5515C285466378BF
:1000E000B6006356C00006068606E36CB6FE014500
:1000F00063E4C500918D558D85820582F5FA828075
:100100008682C93F2E8582823305A04063D70500D1
:10011000B305B040C1B7B305B0408682653F330533
:10012000A0408282868263C70500634905005D376F
:100130002E858282B305B040E35B05FE3305A04007
:10014000513F3305B04082820000EFF27FF51C4141
:100150008297A1BF85476307F60089476306F600CB
:10016000014582800CC1EDBF9C411CC1D5BFEFF29F
:100170003FF313858184D5249387818280431307BD
:10018000140098C3131524009357A440A2853D8DF5
:100190001537935794405D8C330485401374F40FE6
:1001A000B737014023AA87C2138581840521F5BD95
:1001B000B7170240944F056713060782D18E94CF7C
:1001C000B716014003A6064013070780419A23A0F3
:1001D000C64003A606401366960123A0C640D44736
:1001E0000D66558FD8C7D847FD769386F67F758FF5
:1001F000D8C737370140231407C29306F00F2316E0
:10020000D7C2835647C193E61600231AD7C0835638
:1002100007C293E6C6002310D7C2835607C2D18E09
:100220002310D7C2835687C1216693E60606231C96
:10023000D7C093060008232AD7C2835647C4D18E5D
:100240002312D7C4835707C093E717002310F7C0C2
:100250008280EFF2FFE44111A13F89650946938551
:1002600005F413858184CD2EB70700009387E71628
:100270003EC0B70700009387A7143EC6B70700002B
:10028000938747158A85138581843EC4EF00C05B40
:10029000A24789C78A850D462E858297138581845A
:1002A0003526410119B58280EFF29FDFB705004086
:1002B00013858184FD29D5BBEFF29FDE13858184F0
:1002C0000929E5B30145828082807D558280EFF265
:1002D0003FDD1C417111CC81DC43930531000546A3
:1002E00082971101D9B3EFF2BFDB71119305310091
:1002F0004105EF10003A01E5888111017DB37D557C
:10030000EDBFEFF2FFD92E85B285EF10402871BB0B
:1003100013F7F50FC54763EDE70089679387879764
:100320000A073E9793F705700C43CD8F5CD582800A
:1003300093F6050C1306000CFD57E399C6FE9306D1
:10034000700CE3E5E6FE93F7F5030967130787955D
:100350008A07BA979C430967130787978A07BA9752
:1003600093F505709C43D1B713F7F50FC54763EDBF
:10037000E7008967938787970A073E9793F7057089
:100380000C43CD8F1CD5828093F6050C1306000C10
:10039000FD57E399C6FE9306700CE3E5E6FE93F77E
:1003A000F5030967130787958A07BA979C4309677E
:1003B000130787978A07BA9793F505709C43D1B7BF
:1003C000EFF21FCE9307803E1CC589679387879CF9
:1003D0001CC10CC9232205009305600C2A840D3F23
:1003E0009305500C2285493758541C546314F70068
:1003F000FD575CD4FD571CD85CD845B9EFF25FCAF5
:10040000B7450140938505801385C18C553F71B96F
:10041000EFF21FC91C452A8481CB0D46AA8582971D
:100420002324040023260400228541B1EFF25FC794
:1004300031110A8502C002C202C402C602C8EF001E
:10044000F00D1245510195B11C4599C7EFF25FC5FA
:10045000AA850D46829791B98280EFF27FC42A84E3
:10046000084D0146FD45EF00501F084C8145EF0047
:10047000501D25B9FD152E951C2199CB89477D5519
:1004800063E7B70086059387C180BE958A21828085
:100490008D477D55E3EDB7FE860593874181F5B71E
:1004A0009387F5FF0D47636EF700EFF27FBF5111A1
:1004B0003EC02A84AE847D3F7D5782476314E500A9
:1004C00001A001A0920493844403A294944413874E
:1004D00081803E97182385C69386C181BE9694225B
:1004E000084C3AC4B6853EC236C0EF00101E8246A4
:1004F000084C0546B685EF00501622479247939662
:100500002700A296D44231466369D60A09668A0654
:100510001306C69EB2969442084C8286A2979C23EC
:1005200093150701C18199CF1146EF001018084CAF
:10053000216783574504D98F2312F5048545EF00C1
:100540005010A5A80546EF005014D5B70546BA854A
:100550003EC0EF009013824713870182BA978387CA
:1005600007002285BE853EC0313793150501084C32
:100570000546C181EF007011084CA16685450357FF
:100580004504558F2312E504EF00B00B984415C7BE
:1005900082470D47084CFD17FD546366F7009385AD
:1005A000C181BE958421C204C180A685EF00F011EF
:1005B000084C0546A685EF00500A3101FDB40546FA
:1005C000BA8551B71E21858BEDFB8DBFEFF25FAD74
:1005D0005C5D2A8491CF084D8545EF00100F084CD3
:1005E00085450546EF007007084C8545EF0070050E
:1005F000228585457535228589455D3522858D4560
:10060000453591452285693D4DB4EFF27FA9084DEE
:100610008545EF00B00551BC1C4D8A2305898280B9
:10062000EFF21FA82A84CD3F05E5084C5E25858B97
:100630008DC301468545EF0050022285F937084CED
:100640008545EF009008084C05468545EF00F00011
:10065000A9BC22855D3FEDBFEFF29FA48547AA8428
:100660002E846300F60289476300F604814719C0AF
:100670009307F4FF8C4CC207C183DEB526854D3746
:100680002DB46D33B7450F0093850524A134A285A1
:100690001534935505019C4C1397050141839AB776
:1006A00085050D3C2A84D9B75133A2852534D5B7A9
:1006B000B7370140938707C06308F500B7070040CC
:1006C0006316F500054582800145828041657D15F0
:1006D0008280EFF2FF9C2A84084DD93FAA8413053B
:1006E0008401EF00D04A8A041385C1822695232A0B
:1006F0000400930444082320050013044403638684
:100700008400C11426858933DDBF6FF01F9AEFF294
:100710003F9971112A84C1642E852EC0FD14493F72
:1007200082456313950001A01C4C91C301A093174F
:1007300025001385C1823E95930744011CC1930790
:1007400000085CD4930700041CD80CCC130584016A
:1007500040C8232E04002320040223120402EF00C9
:10076000B03F130544036D3113054404553113059F
:10077000440579391305440661391305440749399D
:10078000084C2320040023220400232404002326F1
:10079000040023280400232E040004D08545EF0024
:1007A000206D084C9305C401EF00C06411016FF087
:1007B000DF8FEFF2FF8E232E050223260504232E62
:1007C000050423260506232E0506232C0500813764
:1007D000B7E700E0214723A2E7101307000223A296
:1007E000E7101307000423A2E7106FF01F8C2324E7
:1007F00005009C4589CFEFF2BF8A09462A84AE8462
:100800008297DC445CC49C441CC46FF01F8A8280C5
:10081000EFF21F8921112A842800D13FB2471440EA
:100820002247280036C454405CC0C24718C0184450
:100830001CC4D2473AC858445CC436C63ACA2931A7
:10084000228561016FF07F86EFF29F852A845C5CD0
:100850001305450381C76D3F6FF03F85AE844D3F63
:100860009C44FDDB084C85458D25084C0546854597
:10087000ED23DDB7EFF2DF82184519E3EF00906654
:100880005C4582976FF07F8211E101A0EFF25F81FA
:100890002A840841854581250DC11C40DE27858BB2
:1008A00089CF2285EF00102B08415C5D81C71305BD
:1008B0004503C937084085451D2D6FF00FFF03A57F
:1008C000C18219C11105C9377300203011E101A09F
:1008D0001C41DA27098B11EBDA27118B19E7DA278C
:1008E000218B01E7DA27418B3DC7EFF26FFB2A84AA
:1008F00089453E85CD231C4015C189453E85C52BC4
:1009000085442285EF001025084192049384440316
:1009100026951C4591C3B93F6FF02FF93E8591454F
:100920005D2B1C4011C591453E85D1238944D1BF23
:100930003E85A1454D231C4011C5A1453E85452B53
:100940008D44C1B7C1453E85792345DD0840C14589
:100950009144712B7DB7828003A5C18219C1110515
:10096000B53773002030711122C01384C182484012
:1009700011C51105113F48401105893F024411017D
:1009800073002030EFF2CFF12A84EF00F05448C416
:100990001C402285DC4B8297635A0500EF00D05340
:1009A0005C441D8D1C44E365F5FE7D556FF0EFEF53
:1009B000EFF20FEF6111AA8401442EC232C0630D21
:1009C000C4002685C1376349050092450246B387B6
:1009D000850088A30504D5B7228521016FF0EFECCF
:1009E000EFF20FEC5111014495C6B684AA87014479
:1009F0003E8532C42EC23EC07137634D050092451C
:100A0000630AB500224682473307860008A305041F
:100A1000E39084FE228531016FF02FE9EFF24FE879
:100A2000F1206FF08FE8EFF2AFE785476301F50241
:100A300019C589476303F50201456FF00FE71145BA
:100A400085459D2E3715014013050580FDB74145AD
:100A500085459D2637150140CDB713050002854514
:100A6000A12E3715014013050540C1BF03A58183A1
:100A700083A5C18382808280EFF28FE2C53F6FF051
:100A8000CFE29387818303A3070083A34700130763
:100A900013003335670098C3B3067500D4C3E13F34
:100AA000B7F700E023A2070073002030EFF24FDF1A
:100AB00037F400E023220400232004002324040050
:100AC000B707002003A5870F9305803EEFF08FE066
:100AD0007D1508C8BD471CC07D57B7E700E02386D9
:100AE000E740056723A0E7106FF02FDCEFF24FDB44
:100AF000753F6FF08FDB814705476307E50085078A
:100B0000058193F7F70FD5BF370700208E0713072E
:100B10000700BA97DC4391C7EFF28FD882976FF046
:100B2000CFD88280611122C226C00544A14422850B
:100B3000152019C522853528131504014181653F0B
:100B4000FD140604EDF412448244210173002030A8
:100B500082808280B70701401387074083A7074040
:100B6000584B698F09C77D8D3335A00082800145C0
:100B70008280B707014023AAA74082809C4561116B
:100B800022C226C013F7070113F3F70001C7D841AB
:100B90003363E30092211377F60F29C783230500FF
:100BA000014713048002930480048546B395E60050
:100BB000B376B6006392D50293122700BD46B39672
:100BC000560093C6F6FFB3F37600B3125300B3E3B7
:100BD0007200639787064CC90507A146E317D7FC47
:100BE000232075001307F00F6378C70483234500A3
:100BF000A14613048002930480040547B312D70072
:100C0000337756006394E202139726000117BD451F
:100C1000B395E50093C5F5FFB3F375003317E30013
:100C2000B363770063928702232A55008506414704
:100C3000E395E6FC23227500124482442101828060
:100C4000E39C97F80CC949BFE39297FE232855000F
:100C5000F1BF37030140032743009317350063D0EA
:100C60000702B707C0FFF517F98F37070007D98FBD
:100C7000D9CD370700F07D17798DC98F49A8635DFD
:100C80000500B707E0FFED17F98F37070007D98F89
:100C9000BDCD06050581D5B7B70730009316050110
:100CA0003376F500C1826313F602370600F97D162C
:100CB000B377C70003274300798E2322C300A1C95D
:100CC0005581131745003395E60045BF9317B500CE
:100CD00063D407029357050113F6F7008D47B397C6
:100CE000C70093C7F7FFF98F37070007D98F85C172
:100CF000135755011207C1BF558112053395A60040
:100D00009347F5FFF98F37070007D98FBDF53707F0
:100D100001405CC382807300203001A0EFF24FB825
:100D2000371702405C4391462A84B18B6385D70014
:100D3000A146638DD706B7376E01938707601CC045
:100D4000B7160240DC42918313F7F700B707002083
:100D500093874705BA978C23DC42184093F5F50F2B
:100D600093F707083355B70081E73A85EFF08FB660
:100D700048C008C448C4B7170240DC43AD83FD8BAC
:100D800013D737008A07F18BD98F93F637010D47B8
:100D90006373D700D1173707002013070704BA97EA
:100DA0008C23EFF02FB308C86FF02FB05C43B777F8
:100DB000DC02938707C061B799C5371702401C4F03
:100DC0005D8D08CF8280B7170240984F1345F5FF1D
:100DD000798D88CF828099C5371702405C4F5D8D31
:100DE00048CF8280B7170240D84F1345F5FF798D61
:100DF000C8CF82801E2137370140130707C0C207C2
:100E0000C1836306E500370700406316E500BA2199
:100E100093F7F7F8D98FFA2193F7F7CFC207C18379
:100E2000D98F1EA1DE215EB59E211EB5B7370140C8
:100E3000938707C06314F5009C251EB985475EA9FA
:100E400082801E2189C593E717001EA18280C207F8
:100E5000C183F99BC207C183CDBF5E2501C6DD8D6D
:100E60004EA5828093C5F5FFFD8DDDBF4EA9828022
:100E70001E2189C593E707081EA18280C207C1838E
:100E800093F7F7F7C207C183C5BF1A318547B397F8
:100E9000B70093C7F7FFF98F1EB11E31B315B60027
:100EA000DD8DC205C1810EB182801A319147B397A1
:100EB000B70093C7F7FFF98F1EB11E31B315B60007
:100EC000DD8DC205C1810EB1828093C5F5FFC205DB
:100ED000C1810EA982801E294A25ED8F42054181DC
:100EE00089C76D8D3335A00082800145828093C50E
:100EF000F5FFC205C1810EA98280EFF26F9A162913
:100F0000F577FD17F58FF621DA252111D58F1EA96A
:100F10005625FD779387379FF58FD6212A842EC0DB
:100F2000D58F9625D58FB625D58F5EA55E29C207AC
:100F3000C18393F7F7CF5D8F5AA94800C533B747F0
:100F400001409387078082456312F406C2475A2402
:100F5000139517003E9542070E0541873E958C413B
:100F6000635807048605EFF0EF96930540062AC004
:100F7000EFF04F96824793144500930540063E8557
:100F8000EFF00F985E24C207C18763D507020E05F4
:100F90009305400613052503EFF0CF931D89C98CF7
:100FA000C204C18006A461016FF02F90B24745B71B
:100FB0008A0555BF12059305400613052503EFF07A
:100FC0006F913D89E9BF91C55E250967D98F5EA5FF
:100FD00082805A25F977FD17F98FD5BF93F5F51F54
:100FE0004EA182804A211375F51F82805E2989C532
:100FF00093E787005EA98280C207C183DD9BC20799
:10100000C183CDBF0A216D8D3335A0008280B71713
:1010100002409843B706FFFC1367170098C3D843F4
:10102000758FD8C39843B706F7FEFD16758F98C322
:101030009843B706FCFFFD16758F98C3D4434177DC
:101040007D17F98ED4C3B7069F0094C7B726024018
:101050009042719A90C290421366160090C2D44397
:10106000D4C3D443758FD8C3D843B7060001D8C3BF
:101070009843558F98C3984393166700E3DD06FEA7
:10108000D843B7160240719BD8C3D84313672700D3
:10109000D8C32147DC42B18BE39EE7FE8280EFF2AA
:1010A0002F80311102C402C602C8FD576313F50038
:1010B00001A093D7854093F4F7079377F500139732
:1010C000270089679387C7A8BA979C4311813D89F8
:1010D0002E843EC0EFF03F952AC285C48545054564
:1010E000E1399387F4FF6947636DF70009678A0761
:1010F000130707A2BA979C43828785450545EFF001
:101100005FB593572440137734008D8B7DC73AC663
:1011100009476380E70E0D47638FE70C0547638837
:10112000E70CC1473EC8EDA08145C9BF85453705DD
:1011300000100905E9B7854537054010DDBF814539
:10114000E5BF854537050080110555BF8545370545
:10115000208075B7854537052080FDB78145E5BFFF
:101160003705160085451305050451BF854537052C
:1011700016001305050861B78545370516001305E8
:10118000050CB5BF8145D5BF37051800854513054A
:101190000510B5B73705180085451305052085B737
:1011A0008545370518001305053091BF8145D5BF2A
:1011B00085452165A9B78145EDBF854537052000E7
:1011C0008DBF8145E5BF854537052000B5BF814509
:1011D000E5BF85453705200069BF8145E5BF8545E9
:1011E000370530001305054019BF8145D5BFD147EC
:1011F00015BFE14705BFF14735B705476383E702F0
:1012000099C789466381D7029307800221BF02C82C
:10121000824712452C007C84EFF05F9651016FE00D
:10122000DFE8914701B711840D8893078004E31D1F
:10123000E4FCCDBDFD577D57631CF50082806398AB
:10124000A700EFE2FFE58C45993D6FE01FE6B10591
:101250009C41E396E7FE01A07D579C416394E70023
:10126000014582806394A700C8418280B105F5B72B
:10127000FD576307F500EFE2BFE2F93F6FE0FFE2E1
:10128000014582806305B50019C181E5AA852E85D7
:1012900082808145EDBF01A001A001A001A001A0B5
:1012A00001A001A001A001A001A001A001A001A036
:1012B00001A001A001A001A001A001A001A001A026
:1012C00001A001A001A001A001A001A097F1FF1FB2
:1012D0009381C162138181F01715000013054584C5
:1012E00097F5FF1F938505D21386818263FAC500A7
:1012F0008322050023A0550011059105E3EAC5FEF0
:10130000138581829385419A6377B5002320050078
:101310001105E36DB5FE93020008739002308D4213
:101320007390428097F2FFFF9382C2CD93E2320026
:1013300073905230170500001305C53C6D2EF52E35
:10134000EFF0FFCC970200009382223873901234A2
:101350007300203071158280EFE29FD41841B737B7
:101360000140938707C02A846318F7000565854507
:1013700013050580EFF05FA41840B707004063161F
:10138000F70085450545EFF01FA56FE01FD2EFE29E
:101390003FD11841B7370140938707C02A846318AB
:1013A000F7000565814513050580EFF0FFA01840A3
:1013B000B70700406316F70081450545EFF0BFA170
:1013C0006FE0BFCEEFE2DFCD1301C1FDAA84084D6F
:1013D00032C609662EC4930506943ACA36C8493DFA
:1013E0002AD0C84C89669385869259352A848850BC
:1013F000896593850591AD3D2AC0C850896593855F
:10140000858FBD350257096689662AC232CC36CE31
:101410006304070ED04CFD566304D600630E040C23
:101420009050FD566305D60082476387070CD05065
:10143000FD566305D60092476380070C3A85A28566
:101440009135824588C03D3D924588C0253D88C084
:1014500045C53747014013070780631BE5008545F5
:101460001165EFF07F95130700022386040298D4DC
:10147000E247884C93850794753B11C4F247C84CEA
:1014800093858792453B8247814681CB8850896509
:1014900093850591453393060010924791CBC85030
:1014A000896593E606209385858F36C06133824631
:1014B000A24703C7C40288409CC4B2471316270042
:1014C000DEA4D247138701843297FEA4C247138655
:1014D000440010C33147C8C09EA8BAA8D6A801E4EA
:1014E0008545EFF0BFB0C84093858400EFF0FFA0C2
:1014F000C8408545EFF03FAD130141026FE0FFBAF0
:10150000EFE21FBA896783A7C79609671307879712
:101510008A07BA9780438965938505942285893B1C
:1015200019CD37050020F16593074506014781462F
:101530000146938505201305450680CF61356FE090
:10154000DFB6EFE2FFB58347C502930500021397AC
:10155000270093870184BA979C438843EFF09FAAA2
:10156000133515006FE07FB4EFE29FB38347C502E8
:10157000930500041397270093870184BA979C432F
:101580008843EFF03FA8133515006FE01FB2EFE27C
:101590003FB1411137040020AA842EC2EFF00FCDD5
:1015A0009307440683C7C7022AC41304440685E789
:1015B0000347C402938701840A07BA979C43F11733
:1015C0003EC0938701843EC68247D9EB02C21245D2
:1015D00041016FE09FAD896783A7C796096713072D
:1015E00087978A07BA979C438966938506943E85B8
:1015F0003EC0EFF0FFC7896671D923060402138746
:1016000001841C4391EF8347C402850793F7F70FCA
:101610002306F402FDD7ED358347C402D1DB7DB745
:10162000024593850694EFF0BFC40346C4021387B6
:10163000018493172600BA979C4389669C43E394E0
:10164000A7FC3DD6C9BFEFF06FC2A247B307F54074
:101650003335F500E39CA5F61307703EE368F7F613
:10166000024519376DF19247A6973EC4A247E38021
:10167000F4F60245D53D75FD8347C4023247850423
:101680008A07BA979C4383C5F4FF8843EFF01F9500
:10169000F1BF11E57D5582807D556FE01FA1EFE21E
:1016A0003FA0AA842E84713D65F983C7C4021397B5
:1016B000270093870184BA979C438843EFF09F9259
:1016C00008A00145D9BFEFE2BF9DEFF02FB5EFE0D5
:1016D0005FB8EFE05FBDF5BFEFE29F9CEFF0CFB9E1
:1016E0006FE0BF9C511106C409205111194506C471
:1016F0000D2205450124AA85814601460145B9A26E
:101700005111970700009387674122C21704000018
:10171000130404411D8C26C006C40984BE8419E448
:101720001244A240824431016FF08FC27D1493179E
:101730002400A6979C438297DDB7511122C29707D8
:1017400000009387E73C170400001304643C1D8CE1
:1017500026C006C40984814463968402EFF06FBFFB
:10176000970700009387C73A170400001304043B4F
:101770001D8C0984814463928402A24012448244F5
:1017800031018280139724003E9718438504029705
:10179000970700009387C737C1B7139724003E9778
:1017A0001843850402979707000093876736E1B7CF
:1017B000FD4763F6B700D9471CC17D5582807C4147
:1017C000411122C406C62E862A8491C7139725008C
:1017D000BA97984319EB228532C08528AA852285BD
:1017E00022440246B240410125A8854601456308CE
:1017F000D700FD566319D700D9471CC00545B24034
:101800002244410182802E8523A0070002970145D2
:10181000FDB797F7FF1F9387A78EAA85884349BF17
:10182000511122C22A842E85B28523A0019A06C4B2
:101830006528FD576317F5009387019A9C4391C370
:101840001CC0A24012443101828049A89387418480
:101850009C43AA8399EF1387419123A2E18417E562
:10186000FFFF1305257ABA8709C51C4123AEF198FD
:10187000BA87D8437D437D556346E304638D0302F5
:1018800003A3870863000304931227009A9223A0FE
:10189000C2000325031005463316E600518D2320B0
:1018A000A31023A0D20889466397D3008326431050
:1018B000558E2322C310930617000A07D4C3BA9784
:1018C0008CC70145828097E7FFFF9387A77391C775
:1018D00017050000130505E339BD828093078005D5
:1018E00023A0F19A7D5582809307800523A0F19A69
:1018F0007D55828001A000002300000000380140D7
:1019000018000000FFFFFFFF0000000000000000C3
:1019100012000000003801400B000000FFFFFFFF35
:101920000000000000000000260000000038014018
:1019300018000000FFFFFFFF000000000000000093
:1019400025000000003801400B000000FFFFFFFFF2
:101950000000000000000000010000000000000086
:10196000060000000C0000000D0000000F00000049
:10197000100000000E000000010000000200000046
:101980001000000011000000120000001300000011
:1019900014000000150000001600000017000000F1
:1019A00020000000210000002200000023000000B1
:1019B0002400000025000000260000002700000091
:1019C0000000000000000000CE0200000203000042
:1019D000C4020000C8020000CA020000E6020000C3
:1019E000CA020000B0090000E0090000C4050000C0
:1019F000C40500001C0500001C0500001C050000BB
:101A00001C0500001C0500001C0500001C05000052
:101A1000BE050000BE050000BE0500004C0500002C
:101A2000FA100000281100002C11000036110000EF
:101A30003E110000421100004C1100005411000042
:101A40005C110000601100006C11000078110000B2
:101A5000841100008811000094110000A011000002
:101A6000AC110000B0110000B6110000BA11000066
:101A7000C2110000C6110000CE110000D2110000FA
:101A8000DA110000DE110000EA1100000100000080
:101A90000200000004000000080000001000000028
:101AA0002000000040000000800000000000000056
:101AB0000000000000000000000000000000000026
:101AC0000000000000000000000000000000000016
:101AD0000000000000000000000000000000000006
:101AE00000000000000000000000000000000000F6
:101AF00000000000000000000000000000000000E6
:0C1B0000000000000000000000000000D9
:0C1B0C00C6180000A8020000FC03000046
:041B1800B80200000F
:101B1C001400000000000000140000000000000091
:101B2C001400000000000000140000000000000081
:101B3C001400000000000000140000000000000071
:101B4C001400000000000000140000000000000061
:101B5C000204060804080C1008101820102030404D
:101B6C0020406080010203040506070801020304FB
:101B7C00050607080000000000000000000000003F
:101B8C00000000000000000000000000FFFFFFFF4D
:101B9C00FFFFFFFFFFFFFFFFFFFFFFFF0000000045
:101BAC000100000000000000CC1A0000EC1A00003C
:101BBC00AC1A000000000000000000000000000053
:101BCC000000000000000000000000000000000009
:101BDC0000000000000000000000000000000000F9
:101BEC0000000000000000000000000000000000E9
:101BFC0000000000000000000000000000000000D9
:101C0C000000000000000000006CDC0294000020CA
:101C1C000004080C04004000000400000100100047
:101C2C00000100100204081002010403000000006F
:00000001FF
