:100000006F10A04500000000A40E0000A80E000024
:1000100000000000000000000000000000000000E0
:1000200000000000000000000000000000000000D0
:10003000F20B0000000000002A1400000000000085
:100040002C1400002E1400003014000032140000A4
:10005000900C000036140000381400003A14000020
:100060003C1400003E140000401400004214000044
:100070004414000046140000481400004A14000014
:100080004C1400004E14000050140000FA09000047
:1000900054140000940A0000A20A000000000000AE
:1000A000511126C022C206C4828282441244A24058
:1000B000310182802A86014593F6150091C232955E
:1000C00085810606F5F9828000000000634E050276
:1000D00063C305042E86AA857D5515C285466378BF
:1000E000B6006356C00006068606E36CB6FE014500
:1000F00063E4C500918D558D85820582F5FA828075
:100100008682C93F2E8582823305A04063D70500D1
:10011000B305B040C1B7B305B0408682653F330533
:10012000A0408282868263C70500634905005D376F
:100130002E858282B305B040E35B05FE3305A04007
:10014000513F3305B04082820000EFF27FF51C4141
:100150008297A1BF85476307F60089476306F600CB
:10016000014582800CC1EDBF9C411CC1D5BFEFF29F
:100170003FF3AE84B2853D3FEF1030402A842685A0
:10018000EF10B03FA285EF109030635C050026852C
:10019000EF10104B2A842285EF103038420541853C
:1001A00029B733059040EF10503DA285AA84EF1087
:1001B000B025E352A0FE2684F9BFEFF27FEE711165
:1001C00013850186C12683C6C1839DCAA167138496
:1001D000418EFD176175BE850505EF00B0190AA0B7
:1001E000A1679386419E0904FD171387C183E3939A
:1001F00086FE2300070013850186F529110175B5D8
:10020000138361838347030083D5A183138517007C
:100210001386418E8607B305B040B2978EA3B70709
:10022000002083C5870F1375F50F2300A300938665
:10023000A183938761836364B500238007009C23B7
:100240008607B297039707002399E182938741833A
:1002500003950700135617409AA3058532958AA285
:100260009386018383970600138781830314070015
:1002700013D64740118D018D3EC0893D824793863C
:100280000183AA97C207C1873E85214693050004D2
:100290009EA23EC0E93D1387818322958247420595
:1002A00041850AA33E951D8513050508B737014012
:1002B00023AAA7C289B7B7170240944F0567130650
:1002C0000782D18E94CFB716014003A606401307CC
:1002D0000780419A23A0C64003A6064013669601F4
:1002E00023A0C640D4470D66558FD8C7D847FD76A2
:1002F0009386F67F758FD8C737370140231407C21E
:100300009306F00F2316D7C2835647C193E6160013
:10031000231AD7C0835607C293E6C6002310D7C25C
:10032000835607C2D18E2310D7C2835687C1216658
:1003300093E60606231CD7C093060008232AD7C2DB
:10034000835647C4D18E2312D7C4835707C093E77F
:1003500017002310F7C08280EFF29FD44111A13F14
:100360009565094693852562138501863129B7076E
:1003700000009387A71B3EC0B70700009387A71410
:100380003EC6B7070000938747158A851385018607
:100390003EC4EF00005FA24789C78A850D462E85BF
:1003A000829713850186812E410101B3EFF25FCF61
:1003B0000547930500082145238EE182EF00807BED
:1003C000B7070020238CA70E1305600AEF10A04A80
:1003D000E9B9EFF2FFCCB705004013850186392358
:1003E000E9B1EFF2FFCB138501860D217DB90145FF
:1003F000828082807D558280EFF29FCA1C417111FC
:10040000CC81DC439305310005468297110171B917
:10041000EFF21FC97111930531004105EF106040E3
:1004200001E58881110151B17D55EDBFEFF25FC744
:100430002E85B285EF10A02E8DB913F7F50FC547A5
:1004400063EDE7008967938707080A073E9793F7EC
:1004500005700C43CD8F5CD5828093F6050C130696
:10046000000CFD57E399C6FE9306700CE3E5E6FE2B
:1004700093F7F5030967130707068A07BA979C43A2
:100480000967130707088A07BA9793F505709C4315
:10049000D1B713F7F50FC54763EDE7008967938779
:1004A00007080A073E9793F705700C43CD8F1CD5BC
:1004B000828093F6050C1306000CFD57E399C6FEE7
:1004C0009306700CE3E5E6FE93F7F503096713075F
:1004D00007068A07BA979C430967130707088A0724
:1004E000BA9793F505709C43D1B7EFF27FBB9307A2
:1004F000803E1CC589679387070D1CC10CC9232248
:1005000005009305600C2A840D3F9305500C22854D
:10051000493758541C546314F700FD575CD4FD57F9
:100520001CD85CD859B6EFF2BFB7B74501409385E8
:1005300005801385419E553F8DBEEFF27FB61C4569
:100540002A8481CB0D46AA85829723240400232682
:100550000400228599BEEFF2BFB431110A8502C0B2
:1005600002C202C402C602C8EF0030141245510193
:100570002DBE1C4599C7EFF2BFB2AA850D468297E2
:100580002DB68280EFF2DFB12A84084D0146FD4589
:10059000EF009025084C8145EF00902339B6FD15FA
:1005A0002E951C2199CB89477D5563E7B7008605B9
:1005B00093874181BE958A2182808D477D55E3EDE9
:1005C000B7FE86059387C181F5B79387F5FF0D4781
:1005D000636EF700EFF2DFAC51113EC02A84AE84A7
:1005E0007D3F7D5782476314E50001A001A092047E
:1005F00093844403A2949444138701813E97182363
:1006000085C693864182BE969422084C3AC4B6852C
:100610003EC236C0EF0050248246084C0546B685DF
:10062000EF00901C2247924793962700A296D4424F
:1006300031466369D60A09668A061306460FB296E2
:100640009442084C8286A2979C2393150701C1818E
:1006500099CF1146EF00501E084C2167835745047F
:10066000D98F2312F5048545EF009016A5A80546FD
:10067000EF00901AD5B70546BA853EC0EF00D019F5
:10068000824713878182BA97838707002285BE85B8
:100690003EC0313793150501084C0546C181EF0076
:1006A000B017084CA166854503574504558F2312A2
:1006B000E504EF00F011984415C782470D47084C38
:1006C000FD17FD546366F70093854182BE95842132
:1006D000C204C180A685EF003018084C0546A685E7
:1006E000EF0090103101D1B20546BA8551B71E21F5
:1006F000858BEDFB8DBFEFF2BF9A5C5D2A8491CFB5
:10070000084D8545EF005015084C85450546EF001E
:10071000B00D084C8545EF00B00B22858545753539
:10072000228589455D3522858D4545359145228552
:10073000693D6FF09F97EFF2BF96084D8545EF003A
:10074000D00B6FF09F961C4D8A2305898280EFF2B3
:100750003F952A84CD3F05E5084C5E25858B95C3E2
:1007600001468545EF0050082285F137084C854544
:10077000EF00900E084C05468545EF00F0066FF03F
:10078000DF9222854D3FE5BFEFF29F918547AA8416
:100790002E846301F60289476304F604814719C079
:1007A0009307F4FF8C4CC207C183DEB5268545371D
:1007B0006FF0BF8F4D33B7450F0093850524EFF0E1
:1007C0007F91A285EFF01F8F935505019C4C1397E5
:1007D000050141839AB78505EFF0DF8F2A847DBF3D
:1007E0009D3BA285EFF01F8FC5B7B73701409387B8
:1007F00007C06308F500B70700406316F50005451C
:1008000082800145828041657D158280EFF25F899B
:100810002A84084DD93FAA8413058401EF001050A3
:100820008A04138501842695232A0400930444082E
:10083000232005001304440363868400C114268525
:100840000D3BDDBF6FF07F86EFF29F8571112A842B
:10085000C1642E852EC0FD14493F82456313950067
:1008600001A01C4C91C301A093172500138501849E
:100870003E95930744011CC1930700085CD493077D
:1008800000041CD80CCC1305840140C8232E04009E
:100890002320040223120402EF00F0441305440352
:1008A0006939130544045139130544057931130599
:1008B00044066131130544074931084C23200400E4
:1008C00023220400232404002326040023280400F8
:1008D000232E040004D08545EF006072084C930578
:1008E000C401EF00006A11016FF02FFCEFF24FFB23
:1008F000232E050223260504232E050423260506A0
:10090000232E0506232C05008137B7E700E0214799
:1009100023A2E7101307000223A2E7101307000425
:1009200023A2E7106FF06FF8232405009C4589CFC0
:10093000EFF20FF709462A84AE848297DC445CC448
:100940009C441CC46FF06FF68280EFF26FF52111AA
:100950002A842800D13FB24714402247280036C4D9
:1009600054405CC0C24718C018441CC4D2473AC89F
:1009700058445CC436C63ACAED3E228561016FF028
:10098000CFF2EFF2EFF12A845C5C1305450381C7D7
:100990006D3F6FF08FF1AE844D3F9C44FDDB084C02
:1009A0008545EF00606B084C05468545352DD5B76C
:1009B000EFF20FEF184519E3EF00F06D5C458297F9
:1009C0006FF0AFEE11E101A0EFF28FED2A84084144
:1009D0008545492D0DC11C40DE27858B89CF228599
:1009E000EF00303008415C5D81C713054503C9370E
:1009F0000840854561256FF04FEB03A5018419C1BF
:100A00001105C9377300203011E101A01C41DA271C
:100A1000098B11EBDA27118B19E7DA27218B01E714
:100A2000DA27418B3DC7EFF2AFE72A8489453E853F
:100A3000152D1C4015C189453E8589258544228593
:100A4000EF00302A084192049384440326951C4504
:100A500091C3B93F6FF06FE53E85914521251C405C
:100A600011C591453E85192D8944D1BF3E85A145CB
:100A7000D52B1C4011C5A1453E8509258D44C1B724
:100A8000C1453E85C52345DD0840C1459144FD2350
:100A90007DB7828003A5018419C11105B5377300A4
:100AA0002030711122C013840184484011C5110502
:100AB000113F48401105893F024411017300203065
:100AC000EFF20FDE2A84EF00505A48C41C40228502
:100AD000DC4B8297635A0500EF0030595C441D8D52
:100AE0001C44E365F5FE7D556FF02FDCEFF24FDB24
:100AF0006111AA8401442EC232C0630DC400268550
:100B0000C1376349050092450246B387850088A333
:100B10000504D5B7228521016FF02FD9EFF24FD808
:100B20005111014495C6B684AA8701443E8532C45A
:100B30002EC23EC07137634D05009245630AB50071
:100B4000224682473307860008A30504E39084FE0B
:100B5000228531016FF06FD509CDEFF26FD471119D
:100B60002AC0EF00106E8245EFF0CFDB11016FF06D
:100B7000CFD38280EFF2CFD22A846356B50033857B
:100B8000A540D93F2A9422856FF02FD2EFF24FD1A2
:100B9000E1206FF08FD1EFF2AFD085476301F5020E
:100BA00019C589476303F50201456FF00FD0114560
:100BB0008545512E3715014013050580FDB7414588
:100BC0008545512637150140CDB7130500028545EF
:100BD0009D2E3715014013050540C1BF03A5818433
:100BE00083A5C18482808280EFF28FCBC53F6FF0F6
:100BF000CFCB9387818403A3070083A34700130708
:100C000013003335670098C3B3067500D4C3E13FC2
:100C1000B7F700E023A2070073002030EFF24FC8BF
:100C200037F400E0232204002320040023240400DE
:100C300003A581809305803EEFF0CFC97D1508C8DC
:100C4000BD471CC07D57B7E700E02386E740056736
:100C500023A0E7106FF06FC5EFF28FC4C1376FF0BC
:100C6000CFC4814705476307E5008507058193F7F2
:100C7000F70FD5BF370700208E0713070700BA9775
:100C8000DC4391C7EFF2CFC182976FF00FC2828031
:100C9000611122C226C00544A1442285992019C5AC
:100CA0002285B928131504014181653FFD1406040E
:100CB000EDF41244824421017300203013874180F7
:100CC0001C439386C1AB3E956369D500938681D45E
:100CD00063E5A60008C33E858280FD57EDBF828094
:100CE0008280B70701401387074083A70740584B0E
:100CF000698F09C77D8D3335A000828001458280D0
:100D0000B707014023AAA74082809C45611122C2F7
:100D100026C013F7070113F3F70001C7D841336367
:100D2000E30092211377F60F29C7832305000147BB
:100D300013048002930480048546B395E600B376DD
:100D4000B6006392D50293122700BD46B3965600B3
:100D500093C6F6FFB3F37600B3125300B3E3720009
:100D6000639787064CC90507A146E317D7FC2320E4
:100D700075001307F00F6378C70483234500A1466D
:100D800013048002930480040547B312D70033771D
:100D900056006394E202139726000117BD45B395F0
:100DA000E50093C5F5FFB3F375003317E300B363B4
:100DB000770063928702232A550085064147E39511
:100DC000E6FC232275001244824421018280E39CC8
:100DD00097F80CC949BFE39297FE23285500F1BF4D
:100DE00037030140032743009317350063D0070200
:100DF000B707C0FFF517F98F37070007D98FD9CD8F
:100E0000370700F07D17798DC98F49A8635D05000C
:100E1000B707E0FFED17F98F37070007D98FBDCD72
:100E200006050581D5B7B70730009316050133765F
:100E3000F500C1826313F602370600F97D16B37719
:100E4000C70003274300798E2322C300A1C955811F
:100E5000131745003395E60045BF9317B50063D4DB
:100E600007029357050113F6F7008D47B397C700A4
:100E700093C7F7FFF98F37070007D98F85C113573D
:100E800055011207C1BF558112053395A60093473E
:100E9000F5FFF98F37070007D98FBDF537070140F8
:100EA0005CC382807300203001A0EFF26F9F371780
:100EB00002405C4391462A84B18B6385D700A146EA
:100EC000638DD706B7376E01938707601CC0B716CE
:100ED0000240DC42918313F7F700B70700209387A5
:100EE0004705BA978C23DC42184093F5F50F93F72A
:100EF00007083355B70081E73A85EFF0AF9D48C04A
:100F000008C448C4B7170240DC43AD83FD8B13D738
:100F100037008A07F18BD98F93F637010D4763733A
:100F2000D700D1173707002013070704BA978C237F
:100F3000EFF04F9A08C86FF04F975C43B777DC0229
:100F4000938707C061B799C5371702401C4F5D8D65
:100F500008CF8280B7170240984F1345F5FF798D6F
:100F600088CF828099C5371702405C4F5D8D48CF8E
:100F70008280B7170240D84F1345F5FF798DC8CF4F
:100F800082801E2137370140130707C0C207C18383
:100F90006306E500370700406316E500BA2193F7C2
:100FA000F7F8D98FFA2193F7F7CFC207C183D98F0A
:100FB0001EA1DE215EB59E211EB5B7370140938785
:100FC00007C06314F5009C251EB985475EA9828081
:100FD0001E2189C593E717001EA18280C207C18325
:100FE000F99BC207C183CDBF5E2501C6DD8D4EA52D
:100FF000828093C5F5FFFD8DDDBF4EA982801E2145
:1010000089C593E707081EA18280C207C18393F7B1
:10101000F7F7C207C183C5BF1A318547B397B70039
:1010200093C7F7FFF98F1EB11E31B315B600DD8DE2
:10103000C205C1810EB182801A319147B397B700C2
:1010400093C7F7FFF98F1EB11E31B315B600DD8DC2
:10105000C205C1810EB1828093C5F5FFC205C18171
:101060000EA982801E294A25ED8F4205418189C73C
:101070006D8D3335A00082800145828093C5F5FFD8
:10108000C205C1810EA98280EFF28F811629F57702
:10109000FD17F58FF621DA252111D58F1EA95625CA
:1010A000FD779387379FF58FD6212A842EC0D58F61
:1010B0009625D58FB625D58F5EA55E29C207C1833B
:1010C00093F7F7CF5D8F5AA94800C533B747014062
:1010D0009387078082456312F406C2475A2413950A
:1010E00017003E9542070E0541873E958C41635897
:1010F00007048605EFE01FFE930540062AC0EFE0D7
:101100007FFD824793144500930540063E85EFE03E
:101110003FFF5E24C207C18763D507020E05930512
:10112000400613052503EFE0FFFA1D89C98CC204B0
:10113000C18006A461016FE05FF7B24745B78A0539
:1011400055BF12059305400613052503EFE09FF8F0
:101150003D89E9BF91C55E250967D98F5EA582806B
:101160005A25F977FD17F98FD5BF93F5F51F4EA1D5
:1011700082804A211375F51F82805E2989C593E715
:1011800087005EA98280C207C183DD9BC207C1833D
:10119000CDBF0A216D8D3335A0008280B717024084
:1011A0009843B706FFFC1367170098C3D843758FA1
:1011B000D8C39843B706F7FEFD16758F98C39843BA
:1011C000B706FCFFFD16758F98C3D44341777D1792
:1011D000F98ED4C3B7069F0094C7B7260240904249
:1011E000719A90C290421366160090C2D443D4C341
:1011F000D443758FD8C3D843B7060001D8C39843EA
:10120000558F98C3984393166700E3DD06FED843D5
:10121000B7160240719BD8C3D84313672700D8C3C1
:101220002147DC42B18BE39EE7FE8280EFE25FE77D
:10123000311102C402C602C8FD576313F50001A0B4
:1012400093D7854093F4F7079377F500139727001A
:10125000896793874719BA979C4311813D892E84EA
:101260003EC0EFF05F932AC285C485450545E1394C
:101270009387F4FF6947636DF70009678A071307CF
:101280008712BA979C43828785450545EFF05FB585
:1012900093572440137734008D8B7DC73AC6094796
:1012A0006380E70E0D47638FE70C05476388E70C03
:1012B000C1473EC8EDA08145C9BF8545370500102F
:1012C0000905E9B7854537054010DDBF8145E5BF14
:1012D000854537050080110555BF854537052080B8
:1012E00075B7854537052080FDB78145E5BF3705D2
:1012F000160085451305050451BF854537051600C1
:101300001305050861B78545370516001305050C5B
:10131000B5BF8145D5BF37051800854513050510B4
:10132000B5B73705180085451305052085B78545F0
:10133000370518001305053091BF8145D5BF854598
:101340002165A9B78145EDBF8545370520008DBFD3
:101350008145E5BF854537052000B5BF8145E5BF1F
:1013600085453705200069BF8145E5BF85453705BF
:1013700030001305054019BF8145D5BFD14715BFC2
:10138000E14705BFF14735B705476383E70299C7D2
:1013900089466381D7029307800221BF02C8824732
:1013A00012452C007C84EFF05F9651016FE0FFCF77
:1013B000914701B711840D8893078004E31DE4FC75
:1013C000CDBDFD577D57631CF50082806398A70053
:1013D000EFE21FCD8C45993D6FE03FCDB1059C41BB
:1013E000E396E7FE01A07D579C416394E700014529
:1013F00082806394A700C8418280B105F5B7FD578C
:101400006307F500EFE2DFC9F93F6FE01FCA01454E
:1014100082806305B50019C181E5AA852E85828089
:101420008145EDBF01A001A001A001A001A001A084
:1014300001A001A001A001A001A001A001A001A0A4
:1014400001A001A001A001A001A001A001A001A094
:1014500001A001A001A001A001A097F1FF1F9381AD
:10146000E149138181F0171500001305A5EC97F5EC
:10147000FF1F938525B91386018363FAC500832274
:10148000050023A0550011059105E3EAC5FE13856B
:1014900001839385C1AB6377B50023200500110557
:1014A000E36DB5FE93020008739002308D42739095
:1014B000428097F2FFFF9382E2B493E2320073908E
:1014C0005230170500001305253FC5260D21EFF00A
:1014D000FFCC97020000938262387390123473003D
:1014E000203071158280EFE2BFBB1841B737014051
:1014F000938707C02A846318F7000565854513059F
:101500000580EFF05FA41840B70700406316F700AE
:1015100085450545EFF01FA56FE03FB9EFE25FB8E5
:101520001841B7370140938707C02A846318F70032
:101530000565814513050580EFF0FFA01840B7074A
:1015400000406316F70081450545EFF0BFA16FE04D
:10155000DFB5EFE2FFB41301C1FDAA84084D32C626
:1015600009662EC4930586043ACA36C8493D2AD076
:10157000C84C89669385060359352A848850896545
:1015800093858501AD3D2AC0C850896593850500C6
:10159000BD350257096689662AC232CC36CE63044D
:1015A000070ED04CFD566304D600630E040C905019
:1015B000FD566305D60082476387070CD050FD5661
:1015C0006305D60092476380070C3A85A285913562
:1015D000824588C03D3D924588C0253D88C045C5AF
:1015E0003747014013070780631BE50085451165F8
:1015F000EFF07F95130700022386040298D4E24798
:10160000884C93858704753B11C4F247C84C938579
:101610000703453B8247814681CB88508965938586
:101620008501453393060010924791CBC8508965D8
:1016300093E606209385050036C061338246A247B3
:1016400003C7C40288409CC4B24713162700DEA417
:10165000D247138701853297FEA4C2471386440000
:1016600010C33147C8C09EA8BAA8D6A801E48545D2
:10167000EFF0BFB0C84093858400EFF0FFA0C840F2
:101680008545EFF03FAD130141026FE01FA2EFE28D
:101690003FA1896783A747070967130707088A07D8
:1016A000BA9780438965938585042285EFF03FD5FD
:1016B00019CD37050020F16593074506014781469E
:1016C0000146938505201305450680CF59356FE007
:1016D000DF9DEFE2FF9C8347C5029305000213974D
:1016E000270093870185BA979C438843EFF07FAA30
:1016F000133515006FE07F9BEFE29F9A8347C50289
:10170000930500041397270093870185BA979C439C
:101710008843EFF01FA8133515006FE01F99EFE223
:101720003F98411137040020AA842EC2EFF00FCB5E
:101730009307440683C7C7022AC41304440685E7F7
:101740000347C402938701850A07BA979C43F117A0
:101750003EC0938701853EC68247D9EB02C212453F
:1017600041016FE09F94896783A7470709671307C3
:1017700007088A07BA979C438966938586043E8545
:101780003EC0EFF0DFC7896671D9230604021387D4
:1017900001851C4391EF8347C402850793F7F70F38
:1017A0002306F402FDD7E5358347C402D1DB7DB7BC
:1017B000024593858604EFF09FC40346C402138755
:1017C000018593172600BA979C4389669C43E3944E
:1017D000A7FC3DD6C9BFEFF06FC0A247B307F540E5
:1017E0003335F500E39CA5F61307703EE368F7F682
:1017F000024519376DF19247A6973EC4A247E38090
:10180000F4F60245D53D75FD8347C4023247850491
:101810008A07BA979C4383C5F4FF8843EFF0FF948F
:10182000F1BF11E57D5582807D556FE01F88EFE2A5
:101830003F87AA842E84713D65F983C7C40213973C
:10184000270093870185BA979C438843EFF07F92E6
:1018500008A00145D9BF8280EFE29F84EFF00FB36B
:10186000EFE09FAFEFE09FB4F5BFEFE27F83EFF0D3
:10187000AFB76FE09F8319CDEFE29F822A84EFF02C
:10188000AFB6AA84C93FEFF02FB6058DE36C85FE95
:101890006FE0BF818280511106C4092051111945A2
:1018A00006C4692C0545EF008075AA85814601466E
:1018B0000145C1A4511197170000938767A722C261
:1018C00017140000130404A71D8C26C006C4098445
:1018D000BE8419E41244A240824431016FF02FC04B
:1018E0007D1493172400A6979C438297DDB751116E
:1018F00022C2971700009387E7A217140000130471
:1019000064A21D8C26C006C40984814463968402A7
:10191000EFF00FBD971700009387C7A017140000C2
:10192000130404A11D8C0984814463928402A240A3
:101930001244824431018280139724003E97184359
:1019400085040297971700009387C79DC1B7139727
:1019500024003E9718438504029797170000938749
:10196000679CE1B79387C180AA85884309A041118C
:1019700026C293843500F19806C622C4A104B1475B
:1019800063F5F404B14463E4B4042AC0A52C1387BE
:10199000418514438247368439E013878185184393
:1019A00001EB3E8581453EC0212223ACA1848247C4
:1019B0003E85A6853EC0ED287D5782476314E50627
:1019C000314798C33E85812429A0E3DE04FAB1475C
:1019D0001CC10145B240224492444101828018401A
:1019E000058F634E07022D466376E60018C03A94D1
:1019F00004C031A058406392860223AAE1843E8548
:101A000019241305B400130744006199B307E54096
:101A1000F1D33E94098F18C075BFD8C2CDB7A28646
:101A200040409DBF130435007198E30385FCB30566
:101A3000A4403E853EC0AD287D578247E31AE5FAB3
:101A400041B751119387C18022C2804306C41C5CF8
:101A50008DEB6145013FB737CDAB08DC9387E730AD
:101A60001CC1B7176DE6938747235CC1B7E7050034
:101A70009387C7EE1CC5AD475EA50547814718C9CA
:101A80005CC9005C97070000938747739043084840
:101A90004C48D443AD299307150033B5A7002E95C4
:101AA00048C81CC8A2401244060505813101828045
:101AB000511122C22A842E8523AC01AA06C4EFF05C
:101AC000EF9FFD576317F500938781AB9C4391C34C
:101AD0001CC0A240124431018280FD4763F6B7006A
:101AE000D9471CC17D5582807C41411122C406C664
:101AF0002E862A8491C713972500BA97984319EB2D
:101B0000228532C0B520AA85228522440246B240F1
:101B1000410115A8854601456308D700FD566319A4
:101B2000D700D9471CC00545B240224441018280FC
:101B30002E8523A0070002970145FDB79387C1803A
:101B4000AA85884359BF511122C22A842E85B285A5
:101B500023AC01AA06C47129FD576317F5009387CA
:101B600081AB9C4391C31CC0A240124431018280CE
:101B70009DA99387C1859C43AA8399EF1387C1A22E
:101B800023AEE18417E5FFFF1305C547BA8709C5F2
:101B90001C4123AAF1AABA87D8437D437D556346E9
:101BA000E304638D030203A3870863000304931215
:101BB00027009A9223A0C20003250310054633167E
:101BC000E600518D2320A31023A0D20889466397F5
:101BD000D30083264310558E2322C310930617008B
:101BE0000A07D4C3BA978CC70145828097E7FFFFE5
:101BF0009387474199C7170500001305E5CB6FF0A0
:101C0000DFCA82808280828013577501B707800007
:101C1000FD1793D675011377F70F9302F00F33F387
:101C2000A7001356F501ED8F93F6F60FFD816301C2
:101C30005702638C56000DE391E2B1C3630E0302B9
:101C40006305B60405451DE68280F5D77955828087
:101C5000E31E03FE6389E60291E2EDD7E314B6FECC
:101C6000E3C2E6FE6347D700E3EE67FC0145E37D90
:101C7000F3FC01E67D558280F5DD05458280014556
:101C8000E31203FC8280F9DBD1B70147E1BF1356B1
:101C90007501B7078000FD1713D775011376F60F8E
:101CA0001303F00FB3F2A7009356F501ED8F1377EE
:101CB000F70FFD81630766026309670005EA11EB10
:101CC00089EB0145639B020082800945F5FF65DAD7
:101CD00031A8638C02026380B6040545F5D67D55B4
:101CE00082800945639802026304C70211E3F5D7B5
:101CF000E395B6FEE343C7FE6347E600E3EF57FC18
:101D00000145E3F3F2FC99E2D9BFF1D905458280A0
:101D1000E5D3828082800146C5B73706800093579D
:101D200075011307F6FF93F7F70F9305E007698F27
:101D30009356F50163FCF5009305D00963FAF500AD
:101D4000370500801345F5FF369582800145828076
:101D500093055009518F63CDF50013066009B30751
:101D6000F640B357F7003305F040F5F23E85828028
:101D70009387A7F6B317F700FDB7511106C422C227
:101D800026C00DCD9357F54133C4A7001D8CAA84FE
:101D90002285DD229307E0093387A7409307600976
:101DA000FD8063CCE702A1469377F70F63D5A600C9
:101DB00061153314A4002604258021A081448147A5
:101DC0000144260413559400A2401244DE07FE0489
:101DD0005D8D458D8244310182809307900963DDDA
:101DE000E7009307B5019546B317F400898EB35603
:101DF000D4003334F000558C954763D6A700930781
:101E0000B5FF3314F400B70600FCFD169377740099
:101E10003376D40085C39377F4009145638CB70083
:101E200011069317560063D707009307F009758EC4
:101E30003387A7401314660025809377F70F51B7B7
:101E4000511106C422C215CD2A843D229307E00910
:101E50003387A7409307600963C0E704A1469377DF
:101E6000F70F63D5A60061153314A400260425805E
:101E7000260413559400A2401244DE075D8D310103
:101E800082800144260413559400A24012448147E5
:101E9000DE075D8D310182809307900963DDE700E5
:101EA0009306B5019547B316D400898FB336D00099
:101EB0003354F400558C954763D6A7009307B5FFBC
:101EC0003314F400B70600FCFD16937774003376E4
:101ED000D40085C39377F4009145638CB700110655
:101EE0009317560063D707009307F009758E338761
:101EF000A740131466002580260413559400A240C1
:101F000012449377F70FDE075D8D31018280211136
:101F10002AC236C006CAAA8622C826C6328732C45A
:101F200081470145014333866600937317003304EC
:101F3000F50093D2F6010583B33466008607638506
:101F400003003385840032838606B3E7570061FFC0
:101F5000AA8789C52245EFE0EF95AA97024711C7E6
:101F60001245BA85EFE00F95AA97D2404244B24499
:101F70001A85BE8561018280C167637CF502930783
:101F8000F00F1307000263EBA70097070000938789
:101F90006729AA9788233305A74082802181970764
:101FA000000093872728AA97882361473305A74015
:101FB0008280B7070001636DF5006181970700001B
:101FC00093874726AA97882321473305A740828015
:101FD0004181970700009387E724AA978823414708
:101FE0003305A74082809307800523ACF1AA7D5575
:101FF00082809307800523ACF1AA7D55828001A0E1
:10200000230000000038014018000000FFFFFFFF20
:102010000000000000000000120000000038014035
:102020000B000000FFFFFFFF0000000000000000A9
:10203000260000000038014018000000FFFFFFFFED
:1020400000000000000000002500000000380140F2
:102050000B000000FFFFFFFF000000000000000079
:102060000100000000000000060000000C0000005D
:102070000D0000000F000000100000000E00000026
:10208000010000000200000010000000110000002C
:1020900012000000130000001400000015000000F2
:1020A00016000000170000002000000021000000C2
:1020B0002200000023000000240000002500000092
:1020C00026000000270000000000000000000000C3
:1020D000F80300002C040000EE030000F2030000EF
:1020E000F403000010040000F4030000EC0A0000F8
:1020F0001C0B0000EE060000EE0600004606000085
:10210000460600004606000046060000460600009F
:102110004606000046060000E8060000E80600004B
:10212000E80600007606000088120000B6120000E3
:10213000BA120000C4120000CC120000D01200003D
:10214000DA120000E2120000EA120000EE120000B3
:10215000FA1200000613000012130000161300000C
:10216000221300002E1300003A1300003E1300005B
:1021700044130000481300005013000054130000E3
:102180005C13000060130000681300006C13000073
:1021900078130000010000000200000004000000AD
:1021A00008000000100000002000000040000000B7
:1021B00080000000000000002D7F954C2DF4515848
:1021C000000000000000000000000000000000000F
:1021D00000000000000000000000000000000000FF
:1021E00000000000000000000000000000000000EF
:1021F00000000000000000000000000000000000DF
:1022000000000000000000000000000000000000CE
:1022100000000000000000000000000000000000BE
:10222000000102020303030304040404040404047D
:10223000050505050505050505050505050505054E
:10224000060606060606060606060606060606062E
:10225000060606060606060606060606060606061E
:1022600007070707070707070707070707070707FE
:1022700007070707070707070707070707070707EE
:1022800007070707070707070707070707070707DE
:1022900007070707070707070707070707070707CE
:1022A00008080808080808080808080808080808AE
:1022B000080808080808080808080808080808089E
:1022C000080808080808080808080808080808088E
:1022D000080808080808080808080808080808087E
:1022E000080808080808080808080808080808086E
:1022F000080808080808080808080808080808085E
:10230000080808080808080808080808080808084D
:10231000080808080808080808080808080808083D
:0C232000EC1B0000D203000026050000AA
:04232C00E2030000C8
:102330001400000000000000140000000000000075
:102340001400000000000000140000000000000065
:102350001400000000000000140000000000000055
:102360001400000000000000140000000000000045
:102370000204060804080C10081018201020304031
:1023800020406080010203040506070801020304DF
:102390000506070800000000000000000000000023
:1023A000000000000000000000000000FFFFFFFF31
:1023B000FFFFFFFFFFFFFFFFFFFFFFFF0000000029
:1023C0000100000000000000E021000000220000E9
:1023D000C02100000000000000000000000000001C
:1023E00000000000000000000000000000000000ED
:1023F00000000000000000000000000000000000DD
:1024000000000000000000000000000000000000CC
:1024100000000000000000000000000000000000BC
:10242000000000000000000080000000B403002055
:10243000006CDC02940000200004080C0400400042
:102440000004000001001000000100100204081048
:0824500002010403000000007A
:00000001FF
