:100000006F10604000000000500E0000540E000011
:1000100000000000000000000000000000000000E0
:1000200000000000000000000000000000000000D0
:100030009E0B000000000000D6130000000000002E
:10004000D8130000DA130000DC130000DE130000F8
:100050003C0C0000E2130000E4130000E613000073
:10006000E8130000EA130000EC130000EE13000098
:10007000F0130000F2130000F4130000F613000068
:10008000F8130000FA130000FC130000A60900009A
:1000900000140000400A00004E0A000000000000AA
:1000A000511126C022C206C4828282441244A24058
:1000B000310182802A86014593F6150091C232955E
:1000C00085810606F5F9828000000000634E050276
:1000D00063C305042E86AA857D5515C285466378BF
:1000E000B6006356C00006068606E36CB6FE014500
:1000F00063E4C500918D558D85820582F5FA828075
:100100008682C93F2E8582823305A04063D70500D1
:10011000B305B040C1B7B305B0408682653F330533
:10012000A0408282868263C70500634905005D376F
:100130002E858282B305B040E35B05FE3305A04007
:10014000513F3305B04082820000EFF27FF51C4141
:100150008297A1BF85476307F60089476306F600CB
:10016000014582800CC1EDBF9C411CC1D5BFEFF29F
:100170003FF37111138501876D2E83C681849DCA5B
:10018000A1679384418FFD176175BE850505EF005A
:1001900030198AA0A1679386419F8904FD171387B0
:1001A0008184E39396FE2300070013850187DD29F0
:1001B0001101E5BD1383C1838347030083A54184F7
:1001C000138517001386418F8607B305B040B29799
:1001D0008EA3B707002083C5870F1375F50F230083
:1001E000A300938641849387C1836364B500238011
:1001F00007009C2386073E960317060023AAE18288
:1002000093878183884398C39387018384431356DC
:1002100017400585329588C283A6018413D64440D1
:10022000118D158D36C05D3526959387018388C362
:1002300093170501C1873D461387018482466341B8
:10024000F602455663D3C700C557B6973E951D8540
:100250001CC313050508B737014023AAA7C2B1B7CD
:10026000BD47E5B7B7170240944F056713060782ED
:10027000D18E94CFB716014003A60640130707801E
:10028000419A23A0C64003A606401366960123A008
:10029000C640D4470D66558FD8C7D847FD7693869C
:1002A000F67F758FD8C737370140231407C29306EE
:1002B000F00F2316D7C2835647C193E61600231AC0
:1002C000D7C0835607C293E6C6002310D7C2835611
:1002D00007C2D18E2310D7C2835687C1216693E609
:1002E0000606231CD7C093060008232AD7C28356CC
:1002F00047C4D18E2312D7C4835707C093E7170092
:100300002310F7C08280EFF2BFD94111A13F95655C
:10031000094693852562138501872929B7070000BF
:100320009387E7163EC0B70700009387A7143EC621
:10033000B7070000938747158A85138501873EC458
:10034000EF00E05EA24789C78A850D462E85829719
:1003500013850187812E410189BBEFF27FD40547C8
:100360009305000841452384E184EF00607BB707D3
:100370000020238CA70E1305600AEF10604A35B3E6
:10038000EFF21FD2B705004013850187312331BB3F
:10039000EFF21FD113850187052101BB0145828042
:1003A00082807D558280EFF2BFCF1C417111CC81DC
:1003B000DC4393053100054682971101FDB1EFF250
:1003C0003FCE7111930531004105EF10204001E54A
:1003D00088811101D9B97D55EDBFEFF27FCC2E8513
:1003E000B285EF10602ED1B113F7F50FC54763ED5D
:1003F000E7008967938747CB0A073E9793F7057015
:100400000C43CD8F5CD5828093F6050C1306000C4F
:10041000FD57E399C6FE9306700CE3E5E6FE93F7FD
:10042000F5030967130747C98A07BA979C43096709
:10043000130747CB8A07BA9793F505709C43D1B74A
:1004400013F7F50FC54763EDE7008967938747CB3F
:100450000A073E9793F705700C43CD8F1CD5828019
:1004600093F6050C1306000CFD57E399C6FE9306A0
:10047000700CE3E5E6FE93F7F5030967130747C938
:100480008A07BA979C430967130747CB8A07BA972D
:1004900093F505709C43D1B7EFF29FC09307803E60
:1004A0001CC58967938747D01CC10CC9232205004E
:1004B0009305600C2A840D3F9305500C2285493723
:1004C00058541C546314F700FD575CD4FD571CD8D6
:1004D0005CD8E1BEEFF2DFBCB745014093850580F3
:1004E0001385419F553FD1B6EFF29FBB1C452A842F
:1004F00081CB0D46AA85829723240400232604007D
:10050000228565B6EFF2DFB931110A8502C002C259
:1005100002C402C602C8EF0010141245510171B6A0
:100520001C4599C7EFF2DFB7AA850D468297B5BE85
:100530008280EFF2FFB62A84084D0146FD45EF00A8
:100540007025084C8145EF00702385B6FD152E956A
:100550001C2199CB89477D5563E7B70086059387B2
:100560004181BE958A2182808D477D55E3EDB7FE9E
:1005700086059387C181F5B79387F5FF0D47636EB5
:10058000F700EFF2FFB151113EC02A84AE847D3FE7
:100590007D5782476314E50001A001A09204938473
:1005A0004403A2949444138701813E97182385C67F
:1005B00093864182BE969422084C3AC4B6853EC2C8
:1005C00036C0EF0030248246084C0546B685EF0061
:1005D000701C2247924793962700A296D442314638
:1005E0006369D60A09668A06130686D2B2969442D1
:1005F000084C8286A2979C2393150701C18199CF4D
:100600001146EF00301E084C216783574504D98FEF
:100610002312F5048545EF007016A5A80546EF00E6
:10062000701AD5B70546BA853EC0EF00B0198247AB
:1006300013878182BA97838707002285BE853EC0D3
:10064000313793150501084C0546C181EF0090171D
:10065000084CA166854503574504558F2312E504D0
:10066000EF00D011984415C782470D47084CFD177D
:10067000FD546366F70093854182BE958421C204D0
:10068000C180A685EF001018084C0546A685EF002E
:100690007010310119BC0546BA8551B71E21858BF2
:1006A000EDFB8DBFEFF2DF9F5C5D2A8491CF084D9B
:1006B0008545EF003015084C85450546EF00900D47
:1006C000084C8545EF00900B2285854575352285C0
:1006D00089455D3522858D45453591452285693DA4
:1006E000E9B2EFF2FF9B084D8545EF00D00B6FF0AC
:1006F000DF9B1C4D8A2305898280EFF27F9A2A8432
:10070000CD3F05E5084C5E25858B95C301468545A3
:10071000EF0050082285F137084C8545EF00900E18
:10072000084C05468545EF00F0066FF01F982285BE
:100730004D3FE5BFEFF2DF968547AA842E84630123
:10074000F60289476304F604814719C09307F4FF52
:100750008C4CC207C183DEB5268545376FF0FF9408
:100760005533B7450F0093850524EFF0BF96A2855A
:10077000EFF05F94935505019C4C1397050141835D
:100780009AB78505EFF01F952A847DBFA53BA2850A
:10079000EFF05F94C5B7B7370140938707C0630890
:1007A000F500B70700406316F50005458280014556
:1007B000828041657D158280EFF29F8E2A84084DEC
:1007C000D93FAA8413058401EF0010508A041385D1
:1007D000C1842695232A040093044408232005009D
:1007E0001304440363868400C1142685153BDDBFD2
:1007F0006FF0BF8BEFF2DF8A71112A84C1642E85FE
:100800002EC0FD14493F82456313950001A01C4C86
:1008100091C301A0931725001385C1843E959307CA
:1008200044011CC1930700085CD4930700041CD842
:100830000CCC1305840140C8232E0400232004029D
:1008400023120402EF00F044130544037139130529
:1008500044045939130544054139130544066931E7
:10086000130544075131084C2320040023220400BF
:10087000232404002326040023280400232E04003C
:1008800004D08545EF006072084C9305C401EF0069
:10089000006A11016FF07F81EFF29F80232E050225
:1008A00023260504232E050423260506232E0506EC
:1008B000232C05008137B7E700E0214723A2E7108A
:1008C0001307000223A2E7101307000423A2E71076
:1008D0006FF0AFFD232405009C4589CFEFF24FFC5C
:1008E00009462A84AE848297DC445CC49C441CC4C0
:1008F0006FF0AFFB8280EFF2AFFA21112A8428005B
:10090000D13FB24714402247280036C454405CC04F
:10091000C24718C018441CC4D2473AC858445CC4E3
:1009200036C63ACAF53E228561016FF00FF8EFF244
:100930002FF72A845C5C1305450381C76D3F6FF078
:10094000CFF6AE844D3F9C44FDDB084C8545EF005F
:10095000606B084C05468545352DD5B7EFF24FF451
:10096000184519E3EF00D06D5C4582976FF0EFF307
:1009700011E101A0EFF2CFF22A8408418545492D0B
:100980000DC11C40DE27858B89CF2285EF003030DA
:1009900008415C5D81C713054503C937084085459B
:1009A00061256FF08FF003A5C18419C11105C93706
:1009B0007300203011E101A01C41DA27098B11EBF3
:1009C000DA27118B19E7DA27218B01E7DA27418B28
:1009D0003DC7EFF2EFEC2A8489453E85152D1C407A
:1009E00015C189453E85892585442285EF00302A39
:1009F000084192049384440326951C4591C3B93F52
:100A00006FF0AFEA3E85914521251C4011C5914507
:100A10003E85192D8944D1BF3E85A145D52B1C406B
:100A200011C5A1453E8509258D44C1B7C1453E8507
:100A3000C52345DD0840C1459144FD237DB7828033
:100A400003A5C18419C11105B53773002030711198
:100A500022C01384C184484011C51105113F48408C
:100A60001105893F0244110173002030EFF24FE37A
:100A70002A84EF00305A48C41C402285DC4B829700
:100A8000635A0500EF0010595C441D8D1C44E3655A
:100A9000F5FE7D556FF06FE1EFF28FE06111AA84F2
:100AA00001442EC232C0630DC4002685C13763499C
:100AB000050092450246B387850088A30504D5B793
:100AC000228521016FF06FDEEFF28FDD51110144BD
:100AD00095C6B684AA8701443E8532C42EC23EC064
:100AE0007137634D05009245630AB500224682477F
:100AF0003307860008A30504E39084FE22853101B4
:100B00006FF0AFDA09CDEFF2AFD971112AC0EF0063
:100B1000D06D8245EFF00FE111016FF00FD98280A7
:100B2000EFF20FD82A846356B5003385A540D93F2C
:100B30002A9422856FF06FD7EFF28FD6E1206FF005
:100B4000CFD6EFF2EFD585476301F50219C5894786
:100B50006303F50201456FF04FD511458545512ED0
:100B60003715014013050580FDB7414585455126E0
:100B700037150140CDB71305000285459D2E371569
:100B8000014013050540C1BF03A5818583A5C1852B
:100B900082808280EFF2CFD0C53F6FF00FD1938774
:100BA000818503A3070083A3470013071300333590
:100BB000670098C3B3067500D4C3E13FB7F700E000
:100BC00023A2070073002030EFF28FCD37F400E04E
:100BD00023220400232004002324040003A5818091
:100BE0009305803EEFF00FCF7D1508C8BD471CC0B0
:100BF0007D57B7E700E02386E740056723A0E710AD
:100C00006FF0AFCAEFF2CFC9C1376FF00FCA81479B
:100C100005476307E5008507058193F7F70FD5BF03
:100C2000370700208E0713070700BA97DC4391C7E8
:100C3000EFF20FC782976FF04FC78280611122C217
:100C400026C00544A1442285992019C52285B928CA
:100C5000131504014181653FFD140604EDF41244AF
:100C60008244210173002030138741801C43938606
:100C7000C1AC3E956369D500938681D463E5A60037
:100C800008C33E858280FD57EDBF82808280B70712
:100C900001401387074083A70740584B698F09C756
:100CA0007D8D3335A000828001458280B7070140E9
:100CB00023AAA74082809C45611122C226C013F757
:100CC000070113F3F70001C7D8413363E300922112
:100CD0001377F60F29C78323050001471304800209
:100CE000930480048546B395E600B376B60063921C
:100CF000D50293122700BD46B396560093C6F6FF61
:100D0000B3F37600B3125300B3E372006397870620
:100D10004CC90507A146E317D7FC2320750013072C
:100D2000F00F6378C70483234500A14613048002B3
:100D3000930480040547B312D700337756006394B9
:100D4000E202139726000117BD45B395E50093C550
:100D5000F5FFB3F375003317E300B36377006392D5
:100D60008702232A550085064147E395E6FC2322A6
:100D700075001244824421018280E39C97F80CC9DB
:100D800049BFE39297FE23285500F1BF3703014086
:100D9000032743009317350063D00702B707C0FF4E
:100DA000F517F98F37070007D98FD9CD370700F02E
:100DB0007D17798DC98F49A8635D0500B707E0FFEE
:100DC000ED17F98F37070007D98FBDCD06050581CF
:100DD000D5B7B7073000931605013376F500C18209
:100DE0006313F602370600F97D16B377C7000327B1
:100DF0004300798E2322C300A1C9558113174500F2
:100E00003395E60045BF9317B50063D407029357A7
:100E1000050113F6F7008D47B397C70093C7F7FF97
:100E2000F98F37070007D98F85C11357550112076E
:100E3000C1BF558112053395A6009347F5FFF98F81
:100E400037070007D98FBDF5370701405CC38280A3
:100E50007300203001A0EFF2AFA4371702405C43CB
:100E600091462A84B18B6385D700A146638DD7064E
:100E7000B7376E01938707601CC0B7160240DC428B
:100E8000918313F7F700B707002093874705BA97B8
:100E90008C23DC42184093F5F50F93F70708335580
:100EA000B70081E73A85EFF0EFA248C008C448C414
:100EB000B7170240DC43AD83FD8B13D737008A0799
:100EC000F18BD98F93F637010D476373D700D11794
:100ED0003707002013070704BA978C23EFF08F9F82
:100EE00008C86FF08F9C5C43B777DC02938707C01C
:100EF00061B799C5371702401C4F5D8D08CF8280BE
:100F0000B7170240984F1345F5FF798D88CF82803F
:100F100099C5371702405C4F5D8D48CF8280B71767
:100F20000240D84F1345F5FF798DC8CF82801E212E
:100F300037370140130707C0C207C1836306E500C6
:100F4000370700406316E500BA2193F7F7F8D98F09
:100F5000FA2193F7F7CFC207C183D98F1EA1DE21F3
:100F60005EB59E211EB5B7370140938707C0631455
:100F7000F5009C251EB985475EA982801E2189C582
:100F800093E717001EA18280C207C183F99BC207A5
:100F9000C183CDBF5E2501C6DD8D4EA5828093C580
:100FA000F5FFFD8DDDBF4EA982801E2189C593E727
:100FB00007081EA18280C207C18393F7F7F7C20713
:100FC000C183C5BF1A318547B397B70093C7F7FFF1
:100FD000F98F1EB11E31B315B600DD8DC205C1817A
:100FE0000EB182801A319147B397B70093C7F7FFCC
:100FF000F98F1EB11E31B315B600DD8DC205C1815A
:101000000EB1828093C5F5FFC205C1810EA9828011
:101010001E294A25ED8F4205418189C76D8D3335E3
:10102000A00082800145828093C5F5FFC205C18181
:101030000EA98280EFF2CF861629F577FD17F58F7E
:10104000F621DA252111D58F1EA95625FD77938724
:10105000379FF58FD6212A842EC0D58F9625D58F20
:10106000B625D58F5EA55E29C207C18393F7F7CF5A
:101070005D8F5AA94800C533B74701409387078061
:1010800082456312F406C2475A24139517003E9511
:1010900042070E0541873E958C416358070486053B
:1010A000EFF04F83930540062AC0EFF0AF828247EE
:1010B00093144500930540063E85EFF06F845E244F
:1010C000C207C18763D507020E05930540061305C5
:1010D0002503EFF02F801D89C98CC204C18006A4AE
:1010E00061016FE09FFCB24745B78A0555BF120505
:1010F0009305400613052503EFE0DFFD3D89E9BFB9
:1011000091C55E250967D98F5EA582805A25F9773A
:10111000FD17F98FD5BF93F5F51F4EA182804A21A7
:101120001375F51F82805E2989C593E787005EA944
:101130008280C207C183DD9BC207C183CDBF0A2164
:101140006D8D3335A0008280B71702409843B706F3
:10115000FFFC1367170098C3D843758FD8C3984313
:10116000B706F7FEFD16758F98C39843B706FCFFC8
:10117000FD16758F98C3D44341777D17F98ED4C37C
:10118000B7069F0094C7B72602409042719A90C25A
:1011900090421366160090C2D443D4C3D443758FD3
:1011A000D8C3D843B7060001D8C39843558F98C316
:1011B000984393166700E3DD06FED843B716024056
:1011C000719BD8C3D84313672700D8C32147DC429B
:1011D000B18BE39EE7FE8280EFE29FEC311102C407
:1011E00002C602C8FD576313F50001A093D78540DE
:1011F00093F4F7079377F500139727008967938790
:1012000087DCBA979C4311813D892E843EC0EFF064
:101210005F932AC285C485450545E1399387F4FF6C
:101220006947636DF70009678A071307C7D5BA973F
:101230009C43828785450545EFF05FB59357244071
:10124000137734008D8B7DC73AC609476380E70E5C
:101250000D47638FE70C05476388E70CC1473EC81D
:10126000EDA08145C9BF8545370500100905E9B7DF
:10127000854537054010DDBF8145E5BF854537050C
:101280000080110555BF85453705208075B7854518
:1012900037052080FDB78145E5BF37051600854538
:1012A0001305050451BF85453705160013050508CC
:1012B00061B78545370516001305050CB5BF814597
:1012C000D5BF37051800854513050510B5B7370597
:1012D000180085451305052085B785453705180095
:1012E0001305053091BF8145D5BF85452165A9B757
:1012F0008145EDBF8545370520008DBF8145E5BFA0
:10130000854537052000B5BF8145E5BF85453705D3
:10131000200069BF8145E5BF8545370530001305CD
:10132000054019BF8145D5BFD14715BFE14705BF6E
:10133000F14735B705476383E70299C7894663815B
:10134000D7029307800221BF02C8824712452C00B2
:101350007C84EFF05F9651016FE03FD5914701B774
:1013600011840D8893078004E31DE4FCCDBDFD5777
:101370007D57631CF50082806398A700EFE25FD27F
:101380008C45993D6FE07FD2B1059C41E396E7FE25
:1013900001A07D579C416394E700014582806394DE
:1013A000A700C8418280B105F5B7FD576307F50076
:1013B000EFE21FCFF93F6FE05FCF01458280630509
:1013C000B50019C181E5AA852E8582808145EDBFD2
:1013D00001A001A001A001A001A001A001A001A005
:1013E00001A001A001A001A001A001A001A001A0F5
:1013F00001A001A001A001A001A001A001A001A0E5
:1014000001A001A001A097F1FF1F9381214F13813B
:1014100081F0171500001305E5A497F5FF1F9385CC
:1014200065BE1386018363FAC5008322050023A0ED
:10143000550011059105E3EAC5FE138501839385E7
:10144000C1AC6377B500232005001105E36DB5FE3F
:1014500093020008739002308D427390428097F29D
:10146000FFFF938222BA93E2320073905230170545
:1014700000001305E53EF12E3929EFF0FFCC97026D
:10148000000093824238739012347300203071153B
:101490008280EFE2FFC01841B7370140938707C051
:1014A0002A846318F7000565854513050580EFF06C
:1014B0005FA41840B70700406316F700854505454F
:1014C000EFF01FA56FE07FBEEFE29FBD1841B73779
:1014D0000140938707C02A846318F700056581459A
:1014E00013050580EFF0FFA01840B7070040631612
:1014F000F70081450545EFF0BFA16FE01FBBEFE2AC
:101500003FBA1301C1FDAA84084D32C609662EC434
:101510009305C6C73ACA36C8493D2AD0C84C896621
:10152000938546C659352A84885089659385C5C4F4
:10153000AD3D2AC0C8508965938545C3BD35025766
:10154000096689662AC232CC36CE6304070ED04CB7
:10155000FD566304D600630E040C9050FD566305DF
:10156000D60082476387070CD050FD566305D6002E
:1015700092476380070C3A85A2859135824588C0E1
:101580003D3D924588C0253D88C045C5374701404F
:1015900013070780631BE50085451165EFF07F9514
:1015A000130700022386040298D4E247884C9385EF
:1015B000C7C7753B11C4F247C84C938547C6453B26
:1015C0008247814681CB885089659385C5C4453360
:1015D00093060010924791CBC850896593E6062088
:1015E000938545C336C061338246A24703C7C40210
:1015F00088409CC4B24713162700DEA4D247138745
:1016000001863297FEA4C2471386440010C33147B7
:10161000C8C09EA8BAA8D6A801E48545EFF0BFB01F
:10162000C84093858400EFF0FFA0C8408545EFF0E7
:101630003FAD130141026FE05FA7EFE27FA689672C
:1016400083A787CA0967130747CB8A07BA978043DE
:1016500089659385C5C72285893B19CD370500204B
:10166000F1659307450601478146014693850520AC
:101670001305450680CF61356FE03FA3EFE25FA21F
:101680008347C502930500021397270093870186BD
:10169000BA979C438843EFF09FAA133515006FE07B
:1016A000DFA0EFE2FF9F8347C50293050004139775
:1016B000270093870186BA979C438843EFF03FA8A1
:1016C000133515006FE07F9EEFE29F9D41113704B7
:1016D0000020AA842EC2EFF02FCB9307440683C7C5
:1016E000C7022AC41304440685E70347C40293874C
:1016F00001860A07BA979C43F1173EC0938701867B
:101700003EC68247D9EB02C2124541016FE0FF9904
:10171000896783A787CA0967130747CB8A07BA97E0
:101720009C4389669385C6C73E853EC0EFF0FFC7E0
:10173000896671D923060402138701861C4391EF41
:101740008347C402850793F7F70F2306F402FDD7FA
:10175000ED358347C402D1DB7DB702459385C6C70B
:10176000EFF0BFC40346C402138701869317260017
:10177000BA979C4389669C43E394A7FC3DD6C9BFB6
:10178000EFF08FC0A247B307F5403335F500E39C77
:10179000A5F61307703EE368F7F6024519376DF1B9
:1017A0009247A6973EC4A247E380F4F60245D53D92
:1017B00075FD8347C402324785048A07BA979C4364
:1017C00083C5F4FF8843EFF01F95F1BF11E57D5508
:1017D00082807D556FE07F8DEFE29F8CAA842E84FE
:1017E000713D65F983C7C40213972700938701866B
:1017F000BA979C438843EFF09F9208A00145D9BF58
:101800008280EFE2FF89EFF02FB3EFE0DFAFEFE090
:10181000DFB4F5BFEFE2DF88EFF0CFB76FE0FF880E
:1018200019CDEFE2FF872A84EFF0CFB6AA84C93F33
:10183000EFF04FB6058DE36C85FE6FE01F87828069
:10184000511106C409205111194506C4612C0545E2
:10185000CD26AA85814601460145C1A451119707AD
:1018600000009387E75F22C2170400001304845F1F
:101870001D8C26C006C40984BE8419E41244A2400B
:10188000824431016FF06FC07D1493172400A69736
:101890009C438297DDB7511122C2970700009387BE
:1018A000675B170400001304E45A1D8C26C006C4AD
:1018B0000984814463968402EFF04FBD97070000CE
:1018C0009387475917040000130484591D8C098419
:1018D000814463928402A240124482443101828096
:1018E000139724003E97184385040297970700003A
:1018F00093874756C1B7139724003E971843850432
:101900000297970700009387E754E1B79387C18058
:10191000AA85884309A0411126C293843500F19815
:1019200006C622C4A104B14763F5F404B14463E4DC
:10193000B4042AC0A52C13874186144382473684F9
:1019400039E013878186184301EB3E8581453EC00F
:10195000212223A4A18682473E85A6853EC0ED288C
:101960007D5782476314E506314798C33E8581243D
:1019700029A0E3DE04FAB1471CC10145B24022446C
:101980009244410182801840058F634E07022D4624
:101990006376E60018C03A9404C031A058406392C0
:1019A000860223A2E1863E8519241305B40013079D
:1019B00044006199B307E540F1D33E94098F18C004
:1019C00075BFD8C2CDB7A28640409DBF1304350075
:1019D0007198E30385FCB305A4403E853EC0AD2865
:1019E0007D578247E31AE5FA41B751119387C180C9
:1019F00022C2804306C41C5C8DEB6145013FB737B2
:101A0000CDAB08DC9387E7301CC1B7176DE6938731
:101A100047235CC1B7E705009387C7EE1CC5AD47F8
:101A20005EA50547814718C95CC9005C970700009F
:101A30009387C73B904308484C48D443952A930763
:101A4000150033B5A7002E9548C81CC8A240124403
:101A50000605058131018280511122C22A842E851A
:101A600023A401AC06C4EFF02FA0FD576317F500C7
:101A7000938781AC9C4391C31CC0A24012443101A6
:101A80008280FD4763F6B700D9471CC17D5582802F
:101A90007C41411122C406C62E862A8491C7139721
:101AA0002500BA97984319EB228532C0B520AA8544
:101AB000228522440246B240410115A885460145CF
:101AC0006308D700FD566319D700D9471CC00545E8
:101AD000B2402244410182802E8523A00700029754
:101AE0000145FDB79387C180AA85884359BF51112D
:101AF00022C22A842E85B28523A401AC06C42522E5
:101B0000FD576317F500938781AC9C4391C31CC0BC
:101B1000A24012443101828009A29387C1869C436E
:101B2000AA8399EF1387C1A323A6E18617E5FFFFD8
:101B30001305454DBA8709C51C4123A2F1ACBA87EC
:101B4000D8437D437D556346E304638D030203A3BD
:101B5000870863000304931227009A9223A0C2000F
:101B60000325031005463316E600518D2320A310EC
:101B700023A0D20889466397D30083264310558E4D
:101B80002322C310930617000A07D4C3BA978CC741
:101B90000145828097E7FFFF9387C74699C71705DE
:101BA00000001305E5CB6FF0DFCA8280828082805F
:101BB00021112AC236C006CAAA8622C826C6328782
:101BC00032C4814701450143338666009373170091
:101BD0003304F50093D2F6010583B334660086071B
:101BE000638503003385840032838606B3E757009C
:101BF00061FFAA8789C52245EFE0CFCBAA970247AC
:101C000011C71245BA85EFE0EFCAAA97D240424405
:101C1000B2441A85BE85610182809307800523A4A2
:101C2000F1AC7D5582809307800523A4F1AC7D55EE
:101C3000828001A02300000000380140180000004D
:101C4000FFFFFFFF00000000000000001200000086
:101C5000003801400B000000FFFFFFFF0000000004
:101C600000000000260000000038014018000000BD
:101C7000FFFFFFFF00000000000000002500000043
:101C8000003801400B000000FFFFFFFF00000000D4
:101C9000000000000100000000000000060000003D
:101CA0000C0000000D0000000F00000010000000FC
:101CB0000E00000001000000020000001000000003
:101CC00011000000120000001300000014000000CA
:101CD00015000000160000001700000020000000A2
:101CE000210000002200000023000000240000006A
:101CF0002500000026000000270000000000000072
:101D000000000000A6030000DA0300009C030000AE
:101D1000A0030000A2030000BE030000A203000015
:101D2000980A0000C80A00009C0600009C060000FB
:101D3000F4050000F4050000F4050000F4050000BF
:101D4000F4050000F4050000F4050000960600000C
:101D500096060000960600002406000034120000DB
:101D6000621200006612000070120000781200007B
:101D70007C120000861200008E12000096120000F5
:101D80009A120000A6120000B2120000BE1200005B
:101D9000C2120000CE120000DA120000E6120000AB
:101DA000EA120000F0120000F4120000FC12000021
:101DB00000130000081300000C13000014130000AF
:101DC00018130000241300000100000002000000AE
:101DD00004000000080000001000000020000000C7
:101DE00040000000800000002D7F954C2DF45158DC
:101DF00000000000000000000000000000000000E3
:101E000000000000000000000000000000000000D2
:101E100000000000000000000000000000000000C2
:101E200000000000000000000000000000000000B2
:101E300000000000000000000000000000000000A2
:101E40000000000000000000000000000000000092
:0C1E5000941B000080030000D40400007C
:041E5C0090030000EF
:101E6000140000000000000014000000000000004A
:101E7000140000000000000014000000000000003A
:101E8000140000000000000014000000000000002A
:101E9000140000000000000014000000000000001A
:101EA0000204060804080C10081018201020304006
:101EB00020406080010203040506070801020304B4
:101EC00005060708000000000000000000000000F8
:101ED000000000000000000000000000FFFFFFFF06
:101EE000FFFFFFFFFFFFFFFFFFFFFFFF00000000FE
:101EF0000100000000000000101E0000301E000065
:101F0000F01D0000000000000000000000000000C4
:101F100000000000000000000000000000000000C1
:101F200000000000000000000000000000000000B1
:101F300000000000000000000000000000000000A1
:101F40000000000000000000000000000000000091
:101F5000000000000000000080000000C40300201A
:101F6000006CDC02940000200004080C0400400017
:101F7000000400000100100000010010020408101D
:081F800002010403000000004F
:00000001FF
