:100000006F10203D000000001C0E0000200E0000BC
:1000100000000000000000000000000000000000E0
:1000200000000000000000000000000000000000D0
:10003000620B000000000000A2130000000000009E
:10004000A4130000A6130000A8130000AA130000C8
:10005000040C0000AE130000B0130000B213000047
:10006000B4130000B6130000B8130000BA13000068
:10007000BC130000BE130000C0130000C213000038
:10008000C4130000C6130000C81300006A09000072
:10009000CC130000040A0000120A00000000000057
:1000A000511126C022C206C4828282441244A24058
:1000B000310182802A86014593F6150091C232955E
:1000C00085810606F5F9828000000000634E050276
:1000D00063C305042E86AA857D5515C285466378BF
:1000E000B6006356C00006068606E36CB6FE014500
:1000F00063E4C500918D558D85820582F5FA828075
:100100008682C93F2E8582823305A04063D70500D1
:10011000B305B040C1B7B305B0408682653F330533
:10012000A0408282868263C70500634905005D376F
:100130002E858282B305B040E35B05FE3305A04007
:10014000513F3305B04082820000EFF27FF51C4141
:100150008297A1BF85476307F60089476306F600CB
:10016000014582800CC1EDBF9C411CC1D5BFEFF29F
:100170003FF3711113858186412683C64184138420
:10018000C18E8DCA8144EF101003B3069400A6857A
:1001900036C0493F8246850488A293060010138723
:1001A0004184E392D4FE23000700138581867529DC
:1001B0001101E5BD03C5C18213838183834603001A
:1001C00003A60184138716001377F70FA296298ED2
:1001D00090A22300E300A682938601849387818303
:1001E0006364A700238007009C23138681823E94CA
:1001F00008200C4223A8A18203A7C18313531540F2
:1002000033D7E54098C2938641839C42998D88C23A
:1002100085879A97AE971CC2B737014023AAE7C2D9
:1002200069B7B7170240944F056713060782D18E4E
:1002300094CFB716014003A6064013070780419AE2
:1002400023A0C64003A606401366960123A0C6401D
:10025000D4470D66558FD8C7D847FD769386F67F6D
:10026000758FD8C737370140231407C29306F00FA4
:100270002316D7C2835647C193E61600231AD7C068
:10028000835607C293E6C6002310D7C2835607C21F
:10029000D18E2310D7C2835687C1216693E6060606
:1002A000231CD7C093060008232AD7C2835647C40D
:1002B000D18E2312D7C4835707C093E717002310AA
:1002C000F7C08280EFF2DFDD4111A13F956509465D
:1002D00093852562138581860521B70700009387E2
:1002E000E7163EC0B70700009387A7143EC6B707BE
:1002F0000000938747158A85138581863EC4EF00E9
:10030000405FA24789C78A850D462E85829713854F
:100310008186A12E410151BBEFF29FD8054793057D
:10032000001041452382E184EF00C07B2386A18237
:1003300089450145EF00007B23AEA1821305A00F84
:10034000EF10C04A9DB3EFF2BFD5B705004013854B
:100350008186292399BBEFF2BFD413858186392981
:10036000A9B30145828082807D558280EFF25FD300
:100370001C417111CC81DC43930531000546829705
:10038000110125B3EFF2DFD1711193053100410561
:10039000EF10804001E58881110101BB7D55EDBF63
:1003A000EFF21FD02E85B285EF10C02EFDB913F7E6
:1003B000F50FC54763EDE7008967938707C80A070C
:1003C0003E9793F705700C43CD8F5CD5828093F6F2
:1003D000050C1306000CFD57E399C6FE9306700C3E
:1003E000E3E5E6FE93F7F5030967130707C68A07F7
:1003F000BA979C430967130707C88A07BA9793F50A
:1004000005709C43D1B713F7F50FC54763EDE700BF
:100410008967938707C80A073E9793F705700C43CF
:10042000CD8F1CD5828093F6050C1306000CFD576A
:10043000E399C6FE9306700CE3E5E6FE93F7F50339
:100440000967130707C68A07BA979C43096713070A
:1004500007C88A07BA9793F505709C43D1B7EFF2A6
:100460003FC49307803E1CC58967938707CD1CC195
:100470000CC9232205009305600C2A840D3F9305C7
:10048000500C2285493758541C546314F700FD570B
:100490005CD4FD571CD85CD809B9EFF27FC0B745D2
:1004A0000140938505801385C19E553FFDBEEFF247
:1004B0003FBF1C452A8481CB0D46AA858297232401
:1004C0000400232604002285CDB6EFF27FBD311152
:1004D0000A8502C002C202C402C602C8EF0070143C
:1004E00012455101D9B61C4599C7EFF27FBBAA85C9
:1004F0000D4682975DBE8280EFF29FBA2A84084D36
:100500000146FD45EF00D025084C8145EF00D02382
:1005100069BEFD152E951C2199CB89477D5563E752
:10052000B700860593870181BE958A2182808D4719
:100530007D55E3EDB7FE860593878181F5B79387F7
:10054000F5FF0D47636EF700EFF29FB551113EC006
:100550002A84AE847D3F7D5782476314E50001A065
:1005600001A0920493844403A29494441387C1800D
:100570003E97182385C693860182BE969422084C26
:100580003AC4B6853EC236C0EF0090248246084C7D
:100590000546B685EF00D01C224792479396270068
:1005A000A296D44231466369D60A09668A061306C2
:1005B00046CFB2969442084C8286A2979C2393150C
:1005C0000701C18199CF1146EF00901E084C2167A9
:1005D00083574504D98F2312F5048545EF00D016C3
:1005E000A5A80546EF00D01AD5B70546BA853EC086
:1005F000EF00101A824713874182BA97838707005A
:100600002285BE853EC0313793150501084C05464D
:10061000C181EF00F017084CA166854503574504DA
:10062000558F2312E504EF003012984415C7824716
:100630000D47084CFD17FD546366F7009385018252
:10064000BE958421C204C180A685EF007018084CB5
:100650000546A685EF00D010310181BC0546BA855C
:1006600051B71E21858BEDFB8DBFEFF27FA35C5D43
:100670002A8491CF084D8545EF009015084C85459B
:100680000546EF00F00D084C8545EF00F00B228584
:1006900085457535228589455D3522858D454535EC
:1006A00091452285693D11B4EFF29F9F084D854524
:1006B000EF00300CDDBA1C4D8A2305898280EFF2F1
:1006C0003F9E2A84CD3F05E5084C5E25858B95C36A
:1006D00001468545EF00D0082285F937084C85454D
:1006E000EF00100F084C05468545EF0070076FF0CE
:1006F000DF9B2285553FE5BFEFF29F9A8547AA848D
:100700002E846301F60289476304F604814719C009
:100710009307F4FF8C4CC207C183DEB526854537AD
:100720006FF0BF985D33B7450F0093850524EFF058
:100730007F9AA285EFF01F98935505019C4C139763
:10074000050141839AB78505EFF0DF982A847DBFC4
:10075000AD3BA285EFF01F98C5B7B737014093872F
:1007600007C06308F500B70700406316F5000545AC
:1007700082800145828041657D158280EFF25F9223
:100780002A84084DD93FAA8413058401EF009050B4
:100790008A04138581842695232A0400930444083F
:1007A000232005001304440363868400C1142685B6
:1007B0001D3BDDBF6FF07F8FEFF29F8E71112A849A
:1007C000C1642E852EC0FD14493F824563139500F8
:1007D00001A01C4C91C301A09317250013858184AF
:1007E0003E95930744011CC1930700085CD493070E
:1007F00000041CD80CCC1305840140C8232E04002F
:100800002320040223120402EF0070451305440361
:100810007939130544046139130544054939130531
:1008200044067131130544075931084C2320040054
:100830002322040023240400232604002328040088
:10084000232E040004D08545EF00E072084C930588
:10085000C401EF00806A11016FF03F85EFF25F8401
:10086000232E050223260504232E05042326050630
:10087000232E0506232C05008137B7E700E021472A
:1008800023A2E7101307000223A2E71013070004B6
:1008900023A2E7106FF07F81232405009C4589CFB8
:1008A000EFF21F8009462A84AE848297DC445CC440
:1008B0009C441CC46FF06FFF8280EFF26FFE211129
:1008C0002A842800D13FB24714402247280036C46A
:1008D00054405CC0C24718C018441CC4D2473AC830
:1008E00058445CC436C63ACAFD3E228561016FF0A9
:1008F000CFFBEFF2EFFA2A845C5C1305450381C756
:100900006D3F6FF08FFAAE844D3F9C44FDDB084C89
:100910008545EF00E06B084C054685459125D5B728
:10092000EFF20FF8184519E3EF00506E5C4582971F
:100930006FF0AFF711E101A0EFF28FF62A840841C2
:100940008545692D0DC11C40DE27858B89CF228509
:10095000EF00B03008415C5D81C713054503C9371E
:1009600008408545412D6FF04FF403A5818419C1DE
:100970001105C9377300203011E101A01C41DA27AD
:10098000098B11EBDA27118B19E7DA27218B01E7A5
:10099000DA27418B3DC7EFF2AFF02A8489453E85C7
:1009A000352D1C4015C189453E85A92585442285E4
:1009B000EF00B02A084192049384440326951C4515
:1009C00091C3B93F6FF06FEE3E859145012D1C40FC
:1009D00011C591453E85392D8944D1BF3E85A1453C
:1009E000F52B1C4011C5A1453E8529258D44C1B775
:1009F000C1453E85E52345DD0840C1459144DD2BD9
:100A00007DB7828003A5818419C11105B5377300B4
:100A10002030711122C013848184484011C5110512
:100A2000113F48401105893F0244110173002030F5
:100A3000EFF20FE72A84EF00B05A48C41C40228529
:100A4000DC4B8297635A0500EF0090595C441D8D82
:100A50001C44E365F5FE7D556FF02FE5EFF24FE4A2
:100A60006111AA8401442EC232C0630DC4002685E0
:100A7000C1376349050092450246B387850088A3C4
:100A80000504D5B7228521016FF02FE2EFF24FE187
:100A90005111014495C6B684AA8701443E8532C4EB
:100AA0002EC23EC07137634D05009245630AB50002
:100AB000224682473307860008A30504E39084FE9C
:100AC000228531016FF06FDE09CDEFF26FDD71111C
:100AD0002AC0EF00506E8245EFF0CFE411016FF0B5
:100AE000CFDC8280EFF2CFDB2A846356B5003385FA
:100AF000A540D93F2A9422856FF02FDBEFF24FDA21
:100B0000F1206FF08FDAEFF2AFD985476301F5027C
:100B100019C589476303F50201456FF00FD91145E7
:100B20008545712E3715014013050580FDB74145F8
:100B30008545712637150140CDB71305000285455F
:100B4000BD2E3715014013050540C1BF03A5018522
:100B500083A5418582808280EFF28FD4C53F6FF0FC
:100B6000CFD49387018503A3070083A3470013070E
:100B700013003335670098C3B3067500D4C3E13F53
:100B8000B7F700E023A2070073002030EFF24FD147
:100B900037F400E02322040023200400232404006F
:100BA000B707002003A5C70F9305803EEFF08FD253
:100BB0007D1508C8BD471CC07D57B7E700E02386F8
:100BC000E740056723A0E7106FF02FCEEFF24FCD7F
:100BD000753F6FF08FCD814705476307E5008507B7
:100BE000058193F7F70FD5BF370700208E0713074E
:100BF0000700BA97DC4391C7EFF28FCA82976FF074
:100C0000CFCA8280611122C226C00544A144228538
:100C1000A92019C522858D20131504014181653F46
:100C2000FD140604EDF412448244210173002030C7
:100C3000370700201307870F1C43938641AC3E956E
:100C40006369D500938681D463E5A60008C33E8519
:100C50008280FD57EDBF82808280B70701401387F5
:100C6000074083A70740584B698F09C77D8D3335EF
:100C7000A000828001458280B707014023AAA740D7
:100C800082809C45611122C226C013F7070113F32D
:100C9000F70001C7D8413363E30092211377F60FC1
:100CA00029C78323050001471304800293048004AD
:100CB0008546B395E600B376B6006392D5029312EB
:100CC0002700BD46B396560093C6F6FFB3F37600F1
:100CD000B3125300B3E37200639787064CC905074C
:100CE000A146E317D7FC232075001307F00F6378A4
:100CF000C70483234500A1461304800293048004A3
:100D00000547B312D700337756006394E202139776
:100D100026000117BD45B395E50093C5F5FFB3F374
:100D200075003317E300B363770063928702232AC9
:100D3000550085064147E395E6FC232275001244E1
:100D4000824421018280E39C97F80CC949BFE39259
:100D500097FE23285500F1BF3703014003274300C6
:100D60009317350063D00702B707C0FFF517F98F57
:100D700037070007D98FD9CD370700F07D17798D58
:100D8000C98F49A8635D0500B707E0FFED17F98F2C
:100D900037070007D98FBDCD06050581D5B7B70741
:100DA0003000931605013376F500C1826313F60215
:100DB000370600F97D16B377C70003274300798E05
:100DC0002322C300A1C95581131745003395E600BE
:100DD00045BF9317B50063D407029357050113F677
:100DE000F7008D47B397C70093C7F7FFF98F370711
:100DF0000007D98F85C1135755011207C1BF55810F
:100E000012053395A6009347F5FFF98F37070007C2
:100E1000D98FBDF5370701405CC382807300203055
:100E200001A0EFF2EFA7371702405C4391462A84F6
:100E3000B18B6385D700A146638DD706B7376E01A6
:100E4000938707601CC0B7160240DC42918313F7FA
:100E5000F700B707002093874705BA978C23DC4239
:100E6000184093F5F50F93F707083355B70081E75E
:100E70003A85EFF02FA648C008C448C4B71702400F
:100E8000DC43AD83FD8B13D737008A07F18BD98FF5
:100E900093F637010D476373D700D117370700204A
:100EA00013070704BA978C23EFF0CFA208C86FF09E
:100EB000CF9F5C43B777DC02938707C061B799C5C2
:100EC000371702401C4F5D8D08CF8280B717024054
:100ED000984F1345F5FF798D88CF828099C53717D4
:100EE00002405C4F5D8D48CF8280B7170240D84FDB
:100EF0001345F5FF798DC8CF82801E213737014019
:100F0000130707C0C207C1836306E5003707004027
:100F10006316E500BA2193F7F7F8D98FFA2193F712
:100F2000F7CFC207C183D98F1EA1DE215EB59E21F6
:100F30001EB5B7370140938707C06314F5009C25A1
:100F40001EB985475EA982801E2189C593E71700D7
:100F50001EA18280C207C183F99BC207C183CDBF96
:100F60005E2501C6DD8D4EA5828093C5F5FFFD8D02
:100F7000DDBF4EA982801E2189C593E707081EA107
:100F80008280C207C18393F7F7F7C207C183C5BF49
:100F90001A318547B397B70093C7F7FFF98F1EB192
:100FA0001E31B315B600DD8DC205C1810EB1828040
:100FB0001A319147B397B70093C7F7FFF98F1EB166
:100FC0001E31B315B600DD8DC205C1810EB1828020
:100FD00093C5F5FFC205C1810EA982801E294A254D
:100FE000ED8F4205418189C76D8D3335A000828028
:100FF0000145828093C5F5FFC205C1810EA982809B
:10100000EFF20F8A1629F577FD17F58FF621DA250D
:101010002111D58F1EA95625FD779387379FF58F10
:10102000D6212A842EC0D58F9625D58FB625D58F6B
:101030005EA55E29C207C18393F7F7CF5D8F5AA9DA
:101040004800C533B7470140938707808245631244
:10105000F406C2475A24139517003E9542070E0521
:1010600041873E958C41635807048605EFF08F86D3
:10107000930540062AC0EFF0EF85824793144500A0
:10108000930540063E85EFF0AF875E24C207C18717
:1010900063D507020E059305400613052503EFF0FF
:1010A0006F831D89C98CC204C18006A461016FE0F1
:1010B000DFFFB24745B78A0555BF120593054006C5
:1010C00013052503EFF00F813D89E9BF91C55E252A
:1010D0000967D98F5EA582805A25F977FD17F98FA8
:1010E000D5BF93F5F51F4EA182804A211375F51FD8
:1010F00082805E2989C593E787005EA98280C20746
:10110000C183DD9BC207C183CDBF0A216D8D3335FD
:10111000A0008280B71702409843B706FFFC136710
:10112000170098C3D843758FD8C39843B706F7FE06
:10113000FD16758F98C39843B706FCFFFD16758F93
:1011400098C3D44341777D17F98ED4C3B7069F0067
:1011500094C7B72602409042719A90C2904213669B
:10116000160090C2D443D4C3D443758FD8C3D84398
:10117000B7060001D8C39843558F98C39843931678
:101180006700E3DD06FED843B7160240719BD8C363
:10119000D84313672700D8C32147DC42B18BE39EB5
:1011A000E7FE8280EFE2DFEF311102C402C602C81F
:1011B000FD576313F50001A093D7854093F4F7071B
:1011C0009377F500139727008967938747D9BA97D4
:1011D0009C4311813D892E843EC0EFF0DF922AC2EC
:1011E00085C485450545E1399387F4FF6947636DFB
:1011F000F70009678A07130787D2BA979C4382874B
:1012000085450545EFF05FB59357244013773400CB
:101210008D8B7DC73AC609476380E70E0D47638F04
:10122000E70C05476388E70CC1473EC8EDA0814540
:10123000C9BF8545370500100905E9B7854537055C
:101240004010DDBF8145E5BF8545370500801105AC
:1012500055BF85453705208075B785453705208002
:10126000FDB78145E5BF3705160085451305050423
:1012700051BF8545370516001305050861B785453B
:10128000370516001305050CB5BF8145D5BF3705D9
:101290001800854513050510B5B7370518008545B5
:1012A0001305052085B7854537051800130505305A
:1012B00091BF8145D5BF85452165A9B78145EDBF62
:1012C0008545370520008DBF8145E5BF854537053C
:1012D0002000B5BF8145E5BF85453705200069BFC2
:1012E0008145E5BF8545370530001305054019BF29
:1012F0008145D5BFD14715BFE14705BFF14735B798
:1013000005476383E70299C789466381D70293073C
:10131000800221BF02C8824712452C007C84EFF076
:101320005F9651016FE07FD8914701B711840D8816
:1013300093078004E31DE4FCCDBDFD577D57631C7E
:10134000F50082806398A700EFE29FD58C45993D18
:101350006FE0BFD5B1059C41E396E7FE01A07D5744
:101360009C416394E700014582806394A700C841D3
:101370008280B105F5B7FD576307F500EFE25FD254
:10138000F93F6FE09FD2014582806305B50019C126
:1013900081E5AA852E8582808145EDBF01A001A04F
:1013A00001A001A001A001A001A001A001A001A035
:1013B00001A001A001A001A001A001A001A001A025
:1013C00001A001A001A001A001A001A001A001A015
:1013D00001A097F1FF1F93816152138181F01715CE
:1013E0000000130525A597F5FF1F9385A5C113865A
:1013F000818263FAC5008322050023A055001105F0
:101400009105E3EAC5FE13858182938541AC63773C
:10141000B500232005001105E36DB5FE9302000819
:10142000739002308D427390428097F2FFFF938257
:1014300062BD93E23200739052301705000013052D
:10144000E53EF12E3929EFF0FFCC970200009382A0
:101450004238739012347300203071158280EFE2AD
:101460003FC41841B7370140938707C02A846318E7
:10147000F7000565854513050580EFF05FA418406A
:10148000B70700406316F70085450545EFF01FA537
:101490006FE0BFC1EFE2DFC01841B737014093876B
:1014A00007C02A846318F700056581451305058088
:1014B000EFF0FFA01840B70700406316F700814522
:1014C0000545EFF0BFA16FE05FBEEFE27FBD130106
:1014D000C1FDAA84084D32C609662EC4930586C490
:1014E0003ACA36C8493D2AD0C84C8966938506C396
:1014F00059352A8488508965938585C1AD3D2AC0B8
:10150000C8508965938505C0BD350257096689664F
:101510002AC232CC36CE6304070ED04CFD5663048B
:10152000D600630E040C9050FD566305D60082472A
:101530006387070CD050FD566305D6009247638041
:10154000070C3A85A2859135824588C03D3D92457C
:1015500088C0253D88C045C537470140130707802F
:10156000631BE50085451165EFF07F9513070002C9
:101570002386040298D4E247884C938587C4753B40
:1015800011C4F247C84C938507C3453B8247814647
:1015900081CB88508965938585C1453393060010BA
:1015A000924791CBC850896593E60620938505C084
:1015B00036C061338246A24703C7C40288409CC438
:1015C000B24713162700DEA4D247138781853297CE
:1015D000FEA4C2471386440010C33147C8C09EA86A
:1015E000BAA8D6A801E48545EFF0BFB0C8409385FE
:1015F0008400EFF0FFA0C8408545EFF03FAD130138
:1016000041026FE09FAAEFE2BFA9896783A747C79E
:101610000967130707C88A07BA97804389659385C6
:1016200085C42285893B19CD37050020F1659307D4
:101630004506014781460146938505201305450669
:1016400080CF61356FE07FA6EFE29FA58347C5029B
:10165000930500021397270093878185BA979C43CF
:101660008843EFF09FAA133515006FE01FA4EFE247
:101670003FA38347C5029305000413972700938770
:101680008185BA979C438843EFF03FA81335150036
:101690006FE0BFA1EFE2DFA0411137040020AA8470
:1016A0002EC2EFF0AFCA9307440683C7C7022AC40D
:1016B0001304440685E70347C402938781850A071C
:1016C000BA979C43F1173EC0938781853EC68247F7
:1016D000D9EB02C2124541016FE03F9D896783A7A4
:1016E00047C70967130707C88A07BA979C438966E3
:1016F000938586C43E853EC0EFF0FFC7896671D9E9
:1017000023060402138781851C4391EF8347C4029B
:10171000850793F7F70F2306F402FDD7ED358347CE
:10172000C402D1DB7DB70245938586C4EFF0BFC408
:101730000346C4021387818593172600BA979C43FA
:1017400089669C43E394A7FC3DD6C9BFEFF00FC068
:10175000A247B307F5403335F500E39CA5F6130720
:10176000703EE368F7F6024519376DF19247A69788
:101770003EC4A247E380F4F60245D53D75FD83479C
:10178000C402324785048A07BA979C4383C5F4FF95
:101790008843EFF01F95F1BF11E57D5582807D559F
:1017A0006FE0BF90EFE2DF8FAA842E84713D65F970
:1017B00083C7C4021397270093878185BA979C43F8
:1017C0008843EFF09F9208A00145D9BF8280EFE2E5
:1017D0003F8DEFF0AFB2EFE0FFAEEFE0FFB3F5BF4C
:1017E000EFE21F8CEFF04FB76FE03F8C19CDEFE2C7
:1017F0003F8B2A84EFF04FB6AA84C93FEFF0CFB5F4
:10180000058DE36C85FE6FE05F8A8280511106C40E
:1018100009205111194506C4612C0545CD26AA851C
:10182000814601460145C1A45111970700009387E5
:10183000276022C2170400001304C45F1D8C26C059
:1018400006C40984BE8419E41244A24082443101D2
:101850006FF06FC07D1493172400A6979C43829766
:10186000DDB7511122C2970700009387A75B1704C9
:1018700000001304245B1D8C26C006C40984814427
:1018800063968402EFF04FBD970700009387875956
:10189000170400001304C4591D8C09848144639209
:1018A0008402A240124482443101828013972400B2
:1018B0003E97184385040297970700009387875641
:1018C000C1B7139724003E971843850402979707E2
:1018D000000093872755E1B793878180AA858843C5
:1018E00009A0411126C293843500F19806C622C48E
:1018F000A104B14763F5F404B14463E4B4042AC01D
:10190000A52C1387C18514438247368439E0138799
:101910000186184301EB3E8581453EC0212223A06C
:10192000A18682473E85A6853EC0ED287D57824729
:101930006314E506314798C33E85812429A0E3DE80
:1019400004FAB1471CC10145B2402244924441010E
:1019500082801840058F634E07022D466376E600AD
:1019600018C03A9404C031A058406392860223AE56
:10197000E1843E8519241305B400130744006199DE
:10198000B307E540F1D33E94098F18C075BFD8C2A4
:10199000CDB7A28640409DBF130435007198E30384
:1019A00085FCB305A4403E853EC0AD287D578247E7
:1019B000E31AE5FA41B751119387818022C280432F
:1019C00006C41C5C8DEB6145013FB737CDAB08DC2D
:1019D0009387E7301CC1B7176DE6938747235CC137
:1019E000B7E705009387C7EE1CC5AD475EA5054761
:1019F000814718C95CC9005C970700009387073CC2
:101A0000904308484C48D443952A9307150033B5B2
:101A1000A7002E9548C81CC8A2401244060505819F
:101A200031018280511122C22A842E8523A001AC6B
:101A300006C4EFF0EF9FFD576317F500938701ACE5
:101A40009C4391C31CC0A240124431018280FD47D7
:101A500063F6B700D9471CC17D5582807C41411196
:101A600022C406C62E862A8491C713972500BA97EA
:101A7000984319EB228532C0B520AA8522852244DD
:101A80000246B240410115A8854601456308D700CA
:101A9000FD566319D700D9471CC00545B240224402
:101AA000410182802E8523A0070002970145FDB7E2
:101AB00093878180AA85884359BF511122C22A8405
:101AC0002E85B28523A001AC06C42522FD576317DD
:101AD000F500938701AC9C4391C31CC0A240124403
:101AE0003101828009A2938741869C43AA8399EFA2
:101AF000138741A323A2E18617E5FFFF1305855055
:101B0000BA8709C51C4123AEF1AABA87D8437D43E1
:101B10007D556346E304638D030203A387086300D6
:101B20000304931227009A9223A0C20003250310F6
:101B300005463316E600518D2320A31023A0D208BA
:101B400089466397D30083264310558E2322C31002
:101B5000930617000A07D4C3BA978CC70145828041
:101B600097E7FFFF9387074A99C7170500001305FA
:101B7000E5CB6FF0DFCA82808280828021112AC289
:101B800036C006CAAA8622C826C6328732C4814712
:101B90000145014333866600937317003304F50053
:101BA00093D2F6010583B33466008607638503008C
:101BB0003385840032838606B3E7570061FFAA8726
:101BC00089C52245EFE00FCFAA97024711C71245FA
:101BD000BA85EFE02FCEAA97D2404244B2441A858C
:101BE000BE85610182809307800523A0F1AC7D55FD
:101BF00082809307800523A0F1AC7D55828001A0EF
:101C0000230000000038014018000000FFFFFFFF24
:101C10000000000000000000120000000038014039
:101C20000B000000FFFFFFFF0000000000000000AD
:101C3000260000000038014018000000FFFFFFFFF1
:101C400000000000000000002500000000380140F6
:101C50000B000000FFFFFFFF00000000000000007D
:101C60000100000000000000060000000C00000061
:101C70000D0000000F000000100000000E0000002A
:101C80000100000002000000100000001100000030
:101C900012000000130000001400000015000000F6
:101CA00016000000170000002000000021000000C6
:101CB0002200000023000000240000002500000096
:101CC00026000000270000000000000000000000C7
:101CD0006C030000A0030000620300006603000024
:101CE0006803000084030000680300005C0A000031
:101CF0008C0A00006206000062060000BA050000BF
:101D0000BA050000BA050000BA050000BA050000D7
:101D1000BA050000BA0500005C0600005C06000081
:101D20005C060000EA050000001200002E12000010
:101D3000321200003C120000441200004812000061
:101D4000521200005A1200006212000066120000D7
:101D5000721200007E1200008A1200008E12000033
:101D60009A120000A6120000B2120000B612000083
:101D7000BC120000C0120000C8120000CC1200000B
:101D8000D4120000D8120000E0120000E41200009B
:101D9000F01200000100000002000000040000003A
:101DA00008000000100000002000000040000000BB
:101DB00080000000000000002D7F954C2DF451584C
:101DC0000000000000000000000000000000000013
:101DD0000000000000000000000000000000000003
:101DE00000000000000000000000000000000000F3
:101DF00000000000000000000000000000000000E3
:101E000000000000000000000000000000000000D2
:101E100000000000000000000000000000000000C2
:0C1E2000601B0000460300009A04000054
:041E2C005603000059
:101E3000140000000000000014000000000000007A
:101E4000140000000000000014000000000000006A
:101E5000140000000000000014000000000000005A
:101E6000140000000000000014000000000000004A
:101E70000204060804080C10081018201020304036
:101E800020406080010203040506070801020304E4
:101E90000506070800000000000000000000000028
:101EA000000000000000000000000000FFFFFFFF36
:101EB000FFFFFFFFFFFFFFFFFFFFFFFF000000002E
:101EC0000100000000000000E01D0000001E0000F6
:101ED000C01D000000000000000000000000000025
:101EE00000000000000000000000000000000000F2
:101EF00000000000000000000000000000000000E2
:101F000000000000000000000000000000000000D1
:101F100000000000000000000000000000000000C1
:101F20000000000000000000BC030020006CDC0288
:101F3000940000200004080C04004000000400008D
:101F40000100100000010010020408100201040347
:00000001FF
