:100000006F10A02F00000000440D0000480D0000FC
:1000100000000000000000000000000000000000E0
:1000200000000000000000000000000000000000D0
:10003000B00A000000000000CA120000000000002A
:10004000CC120000CE120000D0120000D21200002C
:10005000520B0000D6120000D8120000DA12000085
:10006000DC120000DE120000E0120000E2120000CC
:10007000E4120000E6120000E8120000EA1200009C
:10008000EC120000EE120000F0120000EC0800007C
:10009000F41200008609000094090000000000002E
:1000A000511126C022C206C4828282441244A24058
:1000B000310182802A86014593F6150091C232955E
:1000C00085810606F5F9828000000000634E050276
:1000D00063C305042E86AA857D5515C285466378BF
:1000E000B6006356C00006068606E36CB6FE014500
:1000F00063E4C500918D558D85820582F5FA828075
:100100008682C93F2E8582823305A04063D70500D1
:10011000B305B040C1B7B305B0408682653F330533
:10012000A0408282868263C70500634905005D376F
:100130002E858282B305B040E35B05FE3305A04007
:10014000513F3305B04082820000EFF27FF51C4141
:100150008297A1BF85476307F60089476306F600CB
:10016000014582800CC1EDBF9C411CC1D5BFEFF29F
:100170003FF313858184092E83D781820966130694
:1001800016F49386C182B3B7C7009A2203C6E182F0
:1001900093C71700138581843356C740B18FC207B8
:1001A000C1832395F1820607858BD98FC207C1834E
:1001B0009EA23737014093F7F70F232AF7C235295C
:1001C000EDB5B7170240944F056713060782D18E2D
:1001D00094CFB716014003A6064013070780419A43
:1001E00023A0C64003A606401366960123A0C6407E
:1001F000D4470D66558FD8C7D847FD769386F67FCE
:10020000758FD8C737370140231407C29306F00F04
:100210002316D7C2835647C193E61600231AD7C0C8
:10022000835607C293E6C6002310D7C2835607C27F
:10023000D18E2310D7C2835687C1216693E6060666
:10024000231CD7C093060008232AD7C2835647C46D
:10025000D18E2312D7C4835707C093E7170023100A
:10026000F7C08280EFF2DFE34111A13F89650946C3
:10027000938505F4138581843921B707000093879E
:10028000E7163EC0B70700009387A7143EC6B7071E
:100290000000938747158A85138581843EC4EF004B
:1002A000805DA24789C78A850D462E858297138572
:1002B0008184A1264101D5BBEFF29FDE9387818225
:1002C0009A23E1761D4536979AA329472387E18231
:1002D000EF104044D9BBEFF2BFDCB70500401385F7
:1002E0008184FD29D9B3EFF2BFDB1385818409290D
:1002F0006DBB0145828082807D558280EFF25FDA9E
:100300001C417111CC81DC43930531000546829775
:10031000110161BBEFF2DFD8711193053100410586
:10032000EF10003A01E58881110141B37D55EDBF21
:10033000EFF21FD72E85B285EF104028BDB313F71B
:10034000F50FC54763EDE70089679387879C0A0728
:100350003E9793F705700C43CD8F5CD5828093F662
:10036000050C1306000CFD57E399C6FE9306700CAE
:10037000E3E5E6FE93F7F50309671307879A8A0713
:10038000BA979C4309671307879C8A07BA9793F526
:1003900005709C43D1B713F7F50FC54763EDE70030
:1003A00089679387879C0A073E9793F705700C43EC
:1003B000CD8F1CD5828093F6050C1306000CFD57DB
:1003C000E399C6FE9306700CE3E5E6FE93F7F503AA
:1003D00009671307879A8A07BA979C430967130727
:1003E000879C8A07BA9793F505709C43D1B7EFF2C3
:1003F0003FCB9307803E1CC58967938787A11CC1AB
:100400000CC9232205009305600C2A840D3F930537
:10041000500C2285493758541C546314F700FD577B
:100420005CD4FD571CD85CD849B1EFF27FC7B74503
:100430000140938505801385C18C553FBDB1EFF216
:100440003FC61C452A8481CB0D46AA85829723246A
:10045000040023260400228589B9EFF27FC43111FC
:100460000A8502C002C202C402C602C8EF00F00D33
:10047000124551011DB91C4599C7EFF27FC2AA85EB
:100480000D4682971DB18280EFF29FC12A84084DEC
:100490000146FD45EF00501F084C8145EF00501DFF
:1004A00029B1FD152E951C2199CB89477D5563E710
:1004B000B70086059387C180BE958A2182808D47CB
:1004C0007D55E3EDB7FE860593874181F5B79387A8
:1004D000F5FF0D47636EF700EFF29FBC51113EC070
:1004E0002A84AE847D3F7D5782476314E50001A0D6
:1004F00001A0920493844403A294944413878180BE
:100500003E97182385C69386C181BE969422084CD7
:100510003AC4B6853EC236C0EF00101E8246084C73
:100520000546B685EF00501622479247939627005E
:10053000A296D44231466369D60A09668A06130632
:10054000C6A3B2969442084C8286A2979C23931528
:100550000701C18199CF1146EF001018084C21679F
:1005600083574504D98F2312F5048545EF005010B9
:10057000A5A80546EF005014D5B70546BA853EC07C
:10058000EF009013824713870182BA978387070091
:100590002285BE853EC0313793150501084C0546BE
:1005A000C181EF007011084CA166854503574504D1
:1005B000558F2312E504EF00B00B984415C782470E
:1005C0000D47084CFD17FD546366F7009385C18104
:1005D000BE958421C204C180A685EF00F011084CAD
:1005E0000546A685EF00500A3101C1B40546BA851B
:1005F00051B71E21858BEDFB8DBFEFF27FAA5C5DAD
:100600002A8491CF084D8545EF00100F084C854591
:100610000546EF007007084C8545EF007005228500
:1006200085457535228589455D3522858D4545355C
:1006300091452285693D95BCEFF29FA6084D854501
:10064000EF00B0059DB41C4D8A2305898280EFF22E
:100650003FA52A84CD3F05E5084C5E25858B8DC3DB
:1006600001468545EF0050022285F937084C854543
:10067000EF009008084C05468545EF00F00035B4C2
:1006800022855D3FEDBFEFF2BFA18547AA842E848E
:100690006300F60289476300F604814719C0930797
:1006A000F4FF8C4CC207C183DEB526854D37F5BA01
:1006B0006D33B7450F0093850524293CA285DD3AAB
:1006C000935505019C4C1397050141839AB7850505
:1006D00011342A84D9B75133A285ED3AD5B7B7374B
:1006E0000140938707C06308F500B7070040631611
:1006F000F500054582800145828041657D15828037
:10070000EFF21F9A2A84084DD93FAA841305840169
:10071000EF00D04A8A04138501832695232A04001A
:1007200093044408232005001304440363868400D3
:10073000C11426858933DDBF6FF03F97EFF25F96D6
:1007400071112A84C1642E852EC0FD14493F824553
:100750006313950001A01C4C91C301A093172500C1
:10076000138501833E95930744011CC1930700083C
:100770005CD4930700041CD80CCC1305840140C83A
:10078000232E04002320040223120402EF00B03FB2
:10079000130544036D311305440455311305440515
:1007A0007939130544066139130544074939084C62
:1007B0002320040023220400232404002326040011
:1007C00023280400232E040004D08545EF00206D6B
:1007D000084C9305C401EF00C06411016FF0FF8C59
:1007E000EFF21F8C232E050223260504232E050479
:1007F00023260506232E0506232C05008137B7E79F
:1008000000E0214723A2E7101307000223A2E7100C
:100810001307000423A2E7106FF03F89232405008B
:100820009C4589CFEFF2DF8709462A84AE84829700
:10083000DC445CC49C441CC46FF03F878280EFF2B0
:100840003F8621112A842800D13FB2471440224715
:10085000280036C454405CC0C24718C018441CC4A9
:10086000D2473AC858445CC436C63ACA29312285B0
:1008700061016FF09F83EFF2BF822A845C5C1305F5
:10088000450381C76D3F6FF05F82AE844D3F9C444E
:10089000FDDB084C85458D25084C05468545ED2337
:1008A000DDB7EFF2EFFF184519E3EF00B0685C45E4
:1008B00082976FF08FFF11E101A0EFF26FFE2A84A3
:1008C0000841854581250DC11C40DE27858B89CFD8
:1008D0002285EF00102B08415C5D81C7130545039D
:1008E000C937084085451D2D6FF02FFC03A50183F6
:1008F00019C11105C9377300203011E101A01C4155
:10090000DA27098B11EBDA27118B19E7DA27218B0C
:1009100001E7DA27418B3DC7EFF28FF82A8489453A
:100920003E85CD231C4015C189453E85C52B854498
:100930002285EF00102508419204938444032695F4
:100940001C4591C3B93F6FF04FF63E8591455D2B35
:100950001C4011C591453E85D1238944D1BF3E85B8
:10096000A1454D231C4011C5A1453E85452B8D4415
:10097000C1B7C1453E85792345DD0840C145914455
:10098000712B7DB7828003A5018319C11105B5378D
:1009900073002030711122C013840183484011C5B7
:1009A0001105113F48401105893F024411017300B0
:1009B0002030EFF2EFEE2A84EF00105548C41C40BF
:1009C0002285DC4B8297635A0500EF00F0535C44AC
:1009D0001D8D1C44E365F5FE7D556FF00FEDEFF2C4
:1009E0002FEC6111AA8401442EC232C0630DC400F1
:1009F0002685C1376349050092450246B3878500C5
:100A000088A30504D5B7228521016FF00FEAEFF224
:100A10002FE95111014495C6B684AA8701443E8549
:100A200032C42EC23EC07137634D05009245630A41
:100A3000B500224682473307860008A30504E390E9
:100A400084FE228531016FF04FE6EFF26FE5F12071
:100A50006FF0AFE5EFF2CFE485476301F50219C50A
:100A600089476303F50201456FF02FE41145854581
:100A70009D2E3715014013050580FDB7414585457D
:100A80009D2637150140CDB7130500028545A12EDF
:100A90003715014013050540C1BF03A5818383A518
:100AA000C18382808280EFF2AFDFC53F6FF0EFDF5E
:100AB0009387818303A3070083A3470013071300D1
:100AC0003335670098C3B3067500D4C3E13FB7F769
:100AD00000E023A2070073002030EFF26FDC37F450
:100AE00000E0232204002320040023240400B7078D
:100AF000002003A5870F9305803EEFF0AFDD7D1545
:100B000008C8BD471CC07D57B7E700E02386E74013
:100B1000056723A0E7106FF04FD9EFF26FD8753F4C
:100B20006FF0AFD8814705476307E500850705816A
:100B300093F7F70FD5BF370700208E07130707007D
:100B4000BA97DC4391C7EFF2AFD582976FF0EFD53C
:100B50008280611122C226C00544A144228515204D
:100B600019C522853528131504014181653FFD14FF
:100B70000604EDF412448244210173002030828087
:100B80008280B70701401387074083A70740584B6F
:100B9000698F09C77D8D3335A00082800145828031
:100BA000B707014023AAA74082809C45611122C259
:100BB00026C013F7070113F3F70001C7D8413363C9
:100BC000E30092211377F60F29C78323050001471D
:100BD00013048002930480048546B395E600B3763F
:100BE000B6006392D50293122700BD46B396560015
:100BF00093C6F6FFB3F37600B3125300B3E372006B
:100C0000639787064CC90507A146E317D7FC232045
:100C100075001307F00F6378C70483234500A146CE
:100C200013048002930480040547B312D70033777E
:100C300056006394E202139726000117BD45B39551
:100C4000E50093C5F5FFB3F375003317E300B36315
:100C5000770063928702232A550085064147E39572
:100C6000E6FC232275001244824421018280E39C29
:100C700097F80CC949BFE39297FE23285500F1BFAE
:100C800037030140032743009317350063D0070261
:100C9000B707C0FFF517F98F37070007D98FD9CDF0
:100CA000370700F07D17798DC98F49A8635D05006E
:100CB000B707E0FFED17F98F37070007D98FBDCDD4
:100CC00006050581D5B7B7073000931605013376C1
:100CD000F500C1826313F602370600F97D16B3777B
:100CE000C70003274300798E2322C300A1C9558181
:100CF000131745003395E60045BF9317B50063D43D
:100D000007029357050113F6F7008D47B397C70005
:100D100093C7F7FFF98F37070007D98F85C113579E
:100D200055011207C1BF558112053395A60093479F
:100D3000F5FFF98F37070007D98FBDF53707014059
:100D40005CC382807300203001A0EFF26FB53717CB
:100D500002405C4391462A84B18B6385D700A1464B
:100D6000638DD706B7376E01938707601CC0B7162F
:100D70000240DC42918313F7F700B7070020938706
:100D80004705BA978C23DC42184093F5F50F93F78B
:100D900007083355B70081E73A85EFF0AFB348C095
:100DA00008C448C4B7170240DC43AD83FD8B13D79A
:100DB00037008A07F18BD98F93F637010D4763739C
:100DC000D700D1173707002013070704BA978C23E1
:100DD000EFF04FB008C86FF04FAD5C43B777DC025F
:100DE000938707C061B799C5371702401C4F5D8DC7
:100DF00008CF8280B7170240984F1345F5FF798DD1
:100E000088CF828099C5371702405C4F5D8D48CFEF
:100E10008280B7170240D84F1345F5FF798DC8CFB0
:100E200082801E2137370140130707C0C207C183E4
:100E30006306E500370700406316E500BA2193F723
:100E4000F7F8D98FFA2193F7F7CFC207C183D98F6B
:100E50001EA1DE215EB59E211EB5B73701409387E6
:100E600007C06314F5009C251EB985475EA98280E2
:100E70001E2189C593E717001EA18280C207C18386
:100E8000F99BC207C183CDBF5E2501C6DD8D4EA58E
:100E9000828093C5F5FFFD8DDDBF4EA982801E21A6
:100EA00089C593E707081EA18280C207C18393F713
:100EB000F7F7C207C183C5BF1A318547B397B7009B
:100EC00093C7F7FFF98F1EB11E31B315B600DD8D44
:100ED000C205C1810EB182801A319147B397B70024
:100EE00093C7F7FFF98F1EB11E31B315B600DD8D24
:100EF000C205C1810EB1828093C5F5FFC205C181D3
:100F00000EA982801E294A25ED8F4205418189C79D
:100F10006D8D3335A00082800145828093C5F5FF39
:100F2000C205C1810EA98280EFF28F971629F5774D
:100F3000FD17F58FF621DA252111D58F1EA956252B
:100F4000FD779387379FF58FD6212A842EC0D58FC2
:100F50009625D58FB625D58F5EA55E29C207C1839C
:100F600093F7F7CF5D8F5AA94800C533B7470140C3
:100F70009387078082456312F406C2475A2413956B
:100F800017003E9542070E0541873E958C416358F8
:100F900007048605EFF00F94930540062AC0EFF092
:100FA0006F93824793144500930540063E85EFF00A
:100FB0002F955E24C207C18763D507020E059305EE
:100FC000400613052503EFF0EF901D89C98CC2047C
:100FD000C18006A461016FF04F8DB24745B78A0505
:100FE00055BF12059305400613052503EFF08F8EBC
:100FF0003D89E9BF91C55E250967D98F5EA58280CD
:101000005A25F977FD17F98FD5BF93F5F51F4EA136
:1010100082804A211375F51F82805E2989C593E776
:1010200087005EA98280C207C183DD9BC207C1839E
:10103000CDBF0A216D8D3335A0008280B7170240E5
:101040009843B706FFFC1367170098C3D843758F02
:10105000D8C39843B706F7FEFD16758F98C398431B
:10106000B706FCFFFD16758F98C3D44341777D17F3
:10107000F98ED4C3B7069F0094C7B72602409042AA
:10108000719A90C290421366160090C2D443D4C3A2
:10109000D443758FD8C3D843B7060001D8C398434B
:1010A000558F98C3984393166700E3DD06FED84337
:1010B000B7160240719BD8C3D84313672700D8C323
:1010C0002147DC42B18BE39EE7FE8280EFE25FFDC9
:1010D000311102C402C602C8FD576313F50001A016
:1010E00093D7854093F4F7079377F500139727007C
:1010F00089679387C7ADBA979C4311813D892E8438
:101100003EC0EFF03F952AC285C485450545E139CB
:101110009387F4FF6947636DF70009678A07130730
:1011200007A7BA979C43828785450545EFF05FB5D1
:1011300093572440137734008D8B7DC73AC60947F7
:101140006380E70E0D47638FE70C05476388E70C64
:10115000C1473EC8EDA08145C9BF85453705001090
:101160000905E9B7854537054010DDBF8145E5BF75
:10117000854537050080110555BF85453705208019
:1011800075B7854537052080FDB78145E5BF370533
:10119000160085451305050451BF85453705160022
:1011A0001305050861B78545370516001305050CBD
:1011B000B5BF8145D5BF3705180085451305051016
:1011C000B5B73705180085451305052085B7854552
:1011D000370518001305053091BF8145D5BF8545FA
:1011E0002165A9B78145EDBF8545370520008DBF35
:1011F0008145E5BF854537052000B5BF8145E5BF81
:1012000085453705200069BF8145E5BF8545370520
:1012100030001305054019BF8145D5BFD14715BF23
:10122000E14705BFF14735B705476383E70299C733
:1012300089466381D7029307800221BF02C8824793
:1012400012452C007C84EFF05F9651016FE0FFE5C2
:10125000914701B711840D8893078004E31DE4FCD6
:10126000CDBDFD577D57631CF50082806398A700B4
:10127000EFE21FE38C45993D6FE03FE3B1059C41F0
:10128000E396E7FE01A07D579C416394E70001458A
:1012900082806394A700C8418280B105F5B7FD57ED
:1012A0006307F500EFE2DFDFF93F6FE01FE0014584
:1012B00082806305B50019C181E5AA852E858280EB
:1012C0008145EDBF01A001A001A001A001A001A0E6
:1012D00001A001A001A001A001A001A001A001A006
:1012E00001A001A001A001A001A001A001A001A0F6
:1012F00001A001A001A001A001A097F1FF1F93810F
:10130000E15F138181F0171500001305658697F5DD
:10131000FF1F938525CF1386818263FAC500832240
:10132000050023A0550011059105E3EAC5FE1385CC
:1013300081829385419A6377B500232005001105CA
:10134000E36DB5FE93020008739002308D427390F6
:10135000428097F2FFFF9382E2CA93E232007390D9
:101360005230170500001305E53EF12E3929EFF044
:10137000FFCC9702000093824238739012347300BE
:10138000203071158280EFE2BFD11841B73701409C
:10139000938707C02A846318F70005658545130500
:1013A0000580EFF05FA41840B70700406316F70010
:1013B00085450545EFF01FA56FE03FCFEFE25FCE1B
:1013C0001841B7370140938707C02A846318F70094
:1013D0000565814513050580EFF0FFA01840B707AC
:1013E00000406316F70081450545EFF0BFA16FE0AF
:1013F000DFCBEFE2FFCA1301C1FDAA84084D32C65C
:1014000009662EC4930506993ACA36C8493D2AD0C2
:10141000C84C89669385869759352A848850896592
:1014200093850596AD3D2AC0C850896593858594FE
:10143000BD350257096689662AC232CC36CE6304AE
:10144000070ED04CFD566304D600630E040C90507A
:10145000FD566305D60082476387070CD050FD56C2
:101460006305D60092476380070C3A85A2859135C3
:10147000824588C03D3D924588C0253D88C045C510
:101480003747014013070780631BE5008545116559
:10149000EFF07F95130700022386040298D4E247F9
:1014A000884C93850799753B11C4F247C84C9385C6
:1014B0008797453B8247814681CB885089659385D4
:1014C0000596453393060010924791CBC850896525
:1014D00093E606209385859436C061338246A24701
:1014E00003C7C40288409CC4B24713162700DEA479
:1014F000D247138701843297FEA4C2471386440063
:1015000010C33147C8C09EA8BAA8D6A801E4854533
:10151000EFF0BFB0C84093858400EFF0FFA0C84053
:101520008545EFF03FAD130141026FE01FB8EFE2D8
:101530003FB7896783A7C79B09671307879C8A07FB
:10154000BA9780438965938505992285893B19CD92
:1015500037050020F165930745060147814601469E
:10156000938505201305450680CF61356FE0FFB3F5
:10157000EFE21FB38347C5029305000213972700CC
:1015800093870184BA979C438843EFF09FAA133551
:1015900015006FE09FB1EFE2BFB08347C50293052E
:1015A00000041397270093870184BA979C438843CC
:1015B000EFF03FA8133515006FE03FAFEFE25FAEED
:1015C000411137040020AA842EC2EFF00FCD9307FB
:1015D000440683C7C7022AC41304440685E70347A9
:1015E000C402938701840A07BA979C43F1173EC04F
:1015F000938701843EC68247D9EB02C2124541015E
:101600006FE0BFAA896783A7C79B09671307879CF9
:101610008A07BA979C438966938506993E853EC0A2
:10162000EFF0FFC7896671D923060402138701848E
:101630001C4391EF8347C402850793F7F70F2306F6
:10164000F402FDD7ED358347C402D1DB7DB70245F7
:1016500093850699EFF0BFC40346C4021387018443
:1016600093172600BA979C4389669C43E394A7FC92
:101670003DD6C9BFEFF06FC2A247B307F54033357F
:10168000F500E39CA5F61307703EE368F7F6024504
:1016900019376DF19247A6973EC4A247E380F4F64E
:1016A0000245D53D75FD8347C402324785048A074C
:1016B000BA979C4383C5F4FF8843EFF01F95F1BFB1
:1016C00011E57D5582807D556FE03F9EEFE25F9D85
:1016D000AA842E84713D65F983C7C402139727003D
:1016E00093870184BA979C438843EFF09F9208A0A8
:1016F0000145D9BF8280EFE2BF9AEFF00FB5EFE06E
:101700007FB6EFE07FBBF5BFEFE29F99EFF0AFB997
:101710006FE0BF9919CDEFE2BF982A84EFF0AFB820
:10172000AA84C93FEFF02FB8058DE36C85FE6FE00A
:10173000DF978280511106C409205111194506C452
:101740000D2205450124AA85814601460145B9A21D
:101750005111970700009387674122C217040000C8
:10176000130404411D8C26C006C40984BE8419E4F8
:101770001244A240824431016FF06FC07D14931770
:101780002400A6979C438297DDB7511122C2970788
:1017900000009387E73C170400001304643C1D8C91
:1017A00026C006C40984814463968402EFF04FBDCD
:1017B000970700009387C73A170400001304043BFF
:1017C0001D8C0984814463928402A24012448244A5
:1017D00031018280139724003E97184385040297B5
:1017E000970700009387C737C1B7139724003E9728
:1017F0001843850402979707000093876736E1B77F
:10180000FD4763F6B700D9471CC17D5582807C41F6
:10181000411122C406C62E862A8491C7139725003B
:10182000BA97984319EB228532C08528AA8522856C
:1018300022440246B240410125A88546014563087D
:10184000D700FD566319D700D9471CC00545B240E3
:101850002244410182802E8523A007000297014582
:10186000FDB797F7FF1F9387A789AA85884349BFCC
:10187000511122C22A842E85B28523A0019A06C462
:101880006528FD576317F5009387019A9C4391C320
:101890001CC0A24012443101828049A89387418430
:1018A0009C43AA8399EF1387419123A2E18417E512
:1018B000FFFF13052575BA8709C51C4123AEF198B2
:1018C000BA87D8437D437D556346E304638D0302A5
:1018D00003A3870863000304931227009A9223A0AE
:1018E000C2000325031005463316E600518D232060
:1018F000A31023A0D20889466397D3008326431000
:10190000558E2322C310930617000A07D4C3BA9733
:101910008CC70145828097E7FFFF9387A76E91C729
:1019200017050000130505E339BD82809307800584
:1019300023A0F19A7D5582809307800523A0F19A18
:101940007D55828001A00000230000000038014086
:1019500018000000FFFFFFFF000000000000000073
:1019600012000000003801400B000000FFFFFFFFE5
:1019700000000000000000002600000000380140C8
:1019800018000000FFFFFFFF000000000000000043
:1019900025000000003801400B000000FFFFFFFFA2
:1019A0000000000000000000010000000000000036
:1019B000060000000C0000000D0000000F000000F9
:1019C000100000000E0000000100000002000000F6
:1019D00010000000110000001200000013000000C1
:1019E00014000000150000001600000017000000A1
:1019F0002000000021000000220000002300000061
:101A00002400000025000000260000002700000040
:101A10000000000000000000FC0200003003000095
:101A2000F2020000F6020000F802000014030000B9
:101A3000F8020000DE0900000E0A0000F2050000B6
:101A4000F20500004A0500004A0500004A050000B2
:101A50004A0500004A0500004A0500004A0500004A
:101A6000EC050000EC050000EC0500007A05000024
:101A700028110000561100005A11000064110000E6
:101A80006C110000701100007A110000821100003A
:101A90008A1100008E1100009A110000A6110000AA
:101AA000B2110000B6110000C2110000CE110000FA
:101AB000DA110000DE110000E4110000E81100005E
:101AC000F0110000F4110000FC11000000120000F1
:101AD000081200000C1200001812000001000000A3
:101AE00002000000040000000800000010000000D8
:101AF0002000000040000000800000000000000006
:101B000000000000000000000000000000000000D5
:101B100000000000000000000000000000000000C5
:101B200000000000000000000000000000000000B5
:101B300000000000000000000000000000000000A5
:101B40000000000000000000000000000000000095
:0C1B500000000000000000000000000089
:0C1B5C0016190000D60200002A04000048
:041B6800E602000091
:101B6C001400000000000000140000000000000041
:101B7C001400000000000000140000000000000031
:101B8C001400000000000000140000000000000021
:101B9C001400000000000000140000000000000011
:101BAC000204060804080C100810182010203040FD
:101BBC0020406080010203040506070801020304AB
:101BCC0005060708000000000000000000000000EF
:101BDC00000000000000000000000000FFFFFFFFFD
:101BEC00FFFFFFFFFFFFFFFFFFFFFFFF00000000F5
:101BFC0001000000000000001C1B00003C1B00004A
:101C0C00FC1A0000000000000000000000000000B2
:101C1C0000000000000000000000000000000000B8
:101C2C0000000000000000000000000000000000A8
:101C3C000000000000000000000000000000000098
:101C4C000000000000000000000000000000000088
:101C5C000000000000000000006CDC02940000207A
:101C6C000004080C040040000004000001001000F7
:101C7C00000100100204081002010403000000001F
:00000001FF
