:100000006F10A04000000000540E0000580E0000C9
:1000100000000000000000000000000000000000E0
:1000200000000000000000000000000000000000D0
:100030009A0B000000000000DA130000000000002E
:10004000DC130000DE130000E0130000E2130000E8
:100050003C0C0000E6130000E8130000EA13000067
:10006000EC130000EE130000F0130000F213000088
:10007000F4130000F6130000F8130000FA13000058
:10008000FC130000FE13000000140000A209000091
:10009000041400003C0A00004A0A000000000000AE
:1000A000511126C022C206C4828282441244A24058
:1000B000310182802A86014593F6150091C232955E
:1000C00085810606F5F9828000000000634E050276
:1000D00063C305042E86AA857D5515C285466378BF
:1000E000B6006356C00006068606E36CB6FE014500
:1000F00063E4C500918D558D85820582F5FA828075
:100100008682C93F2E8582823305A04063D70500D1
:10011000B305B040C1B7B305B0408682653F330533
:10012000A0408282868263C70500634905005D376F
:100130002E858282B305B040E35B05FE3305A04007
:10014000513F3305B04082820000EFF27FF51C4141
:100150008297A1BF85476307F60089476306F600CB
:10016000014582800CC1EDBF9C411CC1D5BF1C451F
:100170003307F040931617001396170063D5B700A6
:10018000B305B640E5BF63D5E500B385B640FDB71E
:100190002E858280EFF2DFF01C2171112A84B9CB09
:1001A000B727000083A707062326050023000500C4
:1001B0001CC9444458481305000493971400A2979F
:1001C00083954718198D3EC0F5358247850483977E
:1001D000C70144C49A073E9548C0EF10D04C0C4864
:1001E000EF10701DEF103046935585402285413742
:1001F000110165BD0C4958459307300B2EC0E3DA59
:10020000E7FA23260500084D13050504EF10B04951
:100210008245EF10501AB727000083A54706EF105C
:10022000901908C879B7EFF2BFE7138581840126DA
:100230003705002013050500B13FB737014013050E
:10024000050823AAA7C2138581849929B9BDB717C8
:100250000240944F056713060782D18E94CFB716DC
:10026000014003A6064013070780419A23A0C64019
:1002700003A606401366960123A0C640D4470D6628
:10028000558FD8C7D847FD769386F67F758FD8C728
:1002900037370140231407C29306F00F2316D7C245
:1002A000835647C193E61600231AD7C0835607C268
:1002B00093E6C6002310D7C2835607C2D18E2310FF
:1002C000D7C2835687C1216693E60606231CD7C092
:1002D00093060008232AD7C2835647C4D18E23121F
:1002E000D7C4835707C093E717002310F7C0828055
:1002F000EFF21FDB4111A13F956509469385256209
:10030000138581843521B7070000938767223EC09B
:10031000B70700009387A7143EC6B707000093876E
:1003200047158A85138581843EC4EF000060A2478B
:1003300089C78A850D462E858297138581848D26EF
:100340004101A5B3EFF2DFD5370400201304040008
:1003500085479305F00321451CA0EF00207C08CCC5
:100360009305F0030545EF00607B48C89307C00381
:100370001305A00F1CC4EF10E04A05BBEFF25FD2DB
:10038000B705004013858184312305B3EFF25FD1B7
:1003900013858184052111BB0145828082807D55B2
:1003A0008280EFF2FFCF1C417111CC81DC439305B9
:1003B0003100054682971101CDB9EFF27FCE711160
:1003C000930531004105EF10A04001E5888111013E
:1003D000E9B97D55EDBFEFF2BFCC2E85B285EF10A8
:1003E000E02EE1B113F7F50FC54763EDE70089672C
:1003F0009387870E0A073E9793F705700C43CD8FBE
:100400005CD5828093F6050C1306000CFD57E3992A
:10041000C6FE9306700CE3E5E6FE93F7F503096765
:100420001307870C8A07BA979C4309671307870E3F
:100430008A07BA9793F505709C43D1B713F7F50F68
:10044000C54763EDE70089679387870E0A073E97E4
:1004500093F705700C43CD8F1CD5828093F6050C65
:100460001306000CFD57E399C6FE9306700CE3E5F6
:10047000E6FE93F7F50309671307870C8A07BA9717
:100480009C4309671307870E8A07BA9793F505708F
:100490009C43D1B7EFF2DFC09307803E1CC589674C
:1004A000938787131CC10CC9232205009305600C98
:1004B0002A840D3F9305500C2285493758541C540B
:1004C0006314F700FD575CD4FD571CD85CD8F1BE0F
:1004D000EFF21FBDB7450140938505801385C18CA0
:1004E000553FE1B6EFF2DFBB1C452A8481CB0D46B8
:1004F000AA8582972324040023260400228575B64A
:10050000EFF21FBA31110A8502C002C202C402C64C
:1005100002C8EF0090141245510141BE1C4599C715
:10052000EFF21FB8AA850D46829741B68280EFF29E
:100530003FB72A84084D0146FD45EF00F025084CE1
:100540008145EF00F02395B6FD152E951C2199CB22
:1005500089477D5563E7B700860593870181BE957E
:100560008A2182808D477D55E3EDB7FE860593870E
:100570008181F5B79387F5FF0D47636EF700EFF2C2
:100580003FB251113EC02A84AE847D3F7D578247E1
:100590006314E50001A001A0920493844403A29493
:1005A00094441387C1803E97182385C693860182A1
:1005B000BE969422084C3AC4B6853EC236C0EF00BF
:1005C000B0248246084C0546B685EF00F01C224751
:1005D000924793962700A296D44231466369D60A81
:1005E00009668A061306C615B2969442084C82869E
:1005F000A2979C2393150701C18199CF1146EF0063
:10060000B01E084C216783574504D98F2312F50487
:100610008545EF00F016A5A80546EF00F01AD5B7FE
:100620000546BA853EC0EF00301A824713874182E3
:10063000BA97838707002285BE853EC03137931560
:100640000501084C0546C181EF001018084CA16651
:10065000854503574504558F2312E504EF005012DA
:10066000984415C782470D47084CFD17FD54636633
:10067000F70093850182BE958421C204C180A685BE
:10068000EF009018084C0546A685EF00F0103101E8
:1006900029BC0546BA8551B71E21858BEDFB8DBF60
:1006A000EFF21FA05C5D2A8491CF084D8545EF00D5
:1006B000B015084C85450546EF00100E084C8545E1
:1006C000EF00100C228585457535228589455D35FD
:1006D00022858D45453591452285693DF9B2EFF278
:1006E0003F9C084D8545EF00500C6FF01F9C1C4D42
:1006F0008A2305898280EFF2BF9A2A84CD3F05E5DF
:10070000084C5E25858B95C301468545EF00D008D2
:100710002285F137084C8545EF00100F084C05463F
:100720008545EF0070076FF05F9822854D3FE5BF6C
:10073000EFF21F978547AA842E846301F60289474A
:100740006304F604814719C09307F4FF8C4CC20779
:10075000C183DEB5268545376FF03F955533B745E4
:100760000F0093850524EFF0FF96A285EFF09F948C
:10077000935505019C4C1397050141839AB7850554
:10078000EFF05F952A847DBFA53BA285EFF09F9493
:10079000C5B7B7370140938707C06308F500B707AF
:1007A00000406316F5000545828001458280416561
:1007B0007D158280EFF2DF8E2A84084DD93FAA840E
:1007C00013058401EF0090508A04138581822695D9
:1007D000232A04009304440823200500130444033F
:1007E00063868400C1142685153BDDBF6FF0FF8B47
:1007F000EFF21F8B71112A84C1642E852EC0FD1467
:10080000493F82456313950001A01C4C91C301A090
:1008100093172500138581823E95930744011CC1DF
:10082000930700085CD4930700041CD80CCC130574
:10083000840140C8232E0400232004022312040252
:10084000EF00704513054403713913054404593909
:10085000130544054139130544066931130544075E
:100860005131084C232004002322040023240400D7
:100870002326040023280400232E040004D08545E9
:10088000EF00E072084C9305C401EF00806A11018B
:100890006FF0BF81EFF2DF80232E050223260504CF
:1008A000232E050423260506232E0506232C0500EA
:1008B0008137B7E700E0214723A2E71013070002C2
:1008C00023A2E7101307000423A2E7106FF0EFFD47
:1008D000232405009C4589CFEFF28FFC09462A842A
:1008E000AE848297DC445CC49C441CC46FF0EFFB74
:1008F0008280EFF2EFFA21112A842800D13FB2471B
:1009000014402247280036C454405CC0C24718C077
:1009100018441CC4D2473AC858445CC436C63ACAC4
:10092000F53E228561016FF04FF8EFF26FF72A84F0
:100930005C5C1305450381C76D3F6FF00FF7AE8414
:100940004D3F9C44FDDB084C8545EF00E06B084CB7
:10095000054685459125D5B7EFF28FF4184519E383
:10096000EF00506E5C4582976FF02FF411E101A00B
:10097000EFF20FF32A8408418545692D0DC11C4013
:10098000DE27858B89CF2285EF00B03008415C5D82
:1009900081C713054503C93708408545412D6FF0D0
:1009A000CFF003A5818219C11105C937730020302A
:1009B00011E101A01C41DA27098B11EBDA27118B19
:1009C00019E7DA27218B01E7DA27418B3DC7EFF2E0
:1009D0002FED2A8489453E85352D1C4015C189455A
:1009E0003E85A92585442285EF00B02A084192045E
:1009F0009384440326951C4591C3B93F6FF0EFEAF9
:100A00003E859145012D1C4011C591453E85392DEE
:100A10008944D1BF3E85A145F52B1C4011C5A14598
:100A20003E8529258D44C1B7C1453E85E52345DD79
:100A30000840C1459144DD2B7DB7828003A58182AA
:100A400019C11105B53773002030711122C013840C
:100A50008182484011C51105113F48401105893F69
:100A60000244110173002030EFF28FE32A84EF007B
:100A7000B05A48C41C402285DC4B8297635A05005B
:100A8000EF0090595C441D8D1C44E365F5FE7D55D7
:100A90006FF0AFE1EFF2CFE06111AA8401442EC202
:100AA00032C0630DC4002685C137634905009245F5
:100AB0000246B387850088A30504D5B722852101A6
:100AC0006FF0AFDEEFF2CFDD5111014495C6B68471
:100AD000AA8701443E8532C42EC23EC07137634DA1
:100AE00005009245630AB500224682473307860017
:100AF00008A30504E39084FE228531016FF0EFDA4C
:100B000009CDEFF2EFD971112AC0EF00706E824566
:100B1000EFF04FE111016FF04FD98280EFF24FD823
:100B20002A846356B5003385A540D93F2A9422858F
:100B30006FF0AFD7EFF2CFD6F1206FF00FD7EFF213
:100B40002FD685476301F50219C589476303F5026E
:100B500001456FF08FD511458545712E3715014040
:100B600013050580FDB741458545712637150140C0
:100B7000CDB7130500028545BD2E3715014013057D
:100B80000540C1BF03A5018383A541838280828084
:100B9000EFF20FD1C53F6FF04FD19387018303A3CD
:100BA000070083A34700130713003335670098C37A
:100BB000B3067500D4C3E13FB7F700E023A20700F6
:100BC00073002030EFF2CFCD37F400E02322040091
:100BD0002320040023240400B707002003A5473E78
:100BE0009305803EEFF00FCF7D1508C8BD471CC0B0
:100BF0007D57B7E700E02386E740056723A0E710AD
:100C00006FF0AFCAEFF2CFC9753F6FF00FCA8147DF
:100C100005476307E5008507058193F7F70FD5BF03
:100C2000370700208E071307C72EBA97DC4391C7FA
:100C3000EFF20FC782976FF04FC78280611122C217
:100C400026C00544A1442285A92019C522858D20EE
:100C5000131504014181653FFD140604EDF41244AF
:100C60008244210173002030370700201307073E1C
:100C70001C439386419A3E956369D500938601A6ED
:100C800063E5A60008C33E858280FD57EDBF8280E4
:100C90008280B70701401387074083A70740584B5E
:100CA000698F09C77D8D3335A00082800145828020
:100CB000B707014023AAA74082809C45611122C248
:100CC00026C013F7070113F3F70001C7D8413363B8
:100CD000E30092211377F60F29C78323050001470C
:100CE00013048002930480048546B395E600B3762E
:100CF000B6006392D50293122700BD46B396560004
:100D000093C6F6FFB3F37600B3125300B3E3720059
:100D1000639787064CC90507A146E317D7FC232034
:100D200075001307F00F6378C70483234500A146BD
:100D300013048002930480040547B312D70033776D
:100D400056006394E202139726000117BD45B39540
:100D5000E50093C5F5FFB3F375003317E300B36304
:100D6000770063928702232A550085064147E39561
:100D7000E6FC232275001244824421018280E39C18
:100D800097F80CC949BFE39297FE23285500F1BF9D
:100D900037030140032743009317350063D0070250
:100DA000B707C0FFF517F98F37070007D98FD9CDDF
:100DB000370700F07D17798DC98F49A8635D05005D
:100DC000B707E0FFED17F98F37070007D98FBDCDC3
:100DD00006050581D5B7B7073000931605013376B0
:100DE000F500C1826313F602370600F97D16B3776A
:100DF000C70003274300798E2322C300A1C9558170
:100E0000131745003395E60045BF9317B50063D42B
:100E100007029357050113F6F7008D47B397C700F4
:100E200093C7F7FFF98F37070007D98F85C113578D
:100E300055011207C1BF558112053395A60093478E
:100E4000F5FFF98F37070007D98FBDF53707014048
:100E50005CC382807300203001A0EFF26FA43717CB
:100E600002405C4391462A84B18B6385D700A1463A
:100E7000638DD706B7376E01938707601CC0B7161E
:100E80000240DC42918313F7F700B70700209387F5
:100E90000734BA978C23DC42184093F5F50F93F78B
:100EA00007083355B70081E73A85EFF0AFA248C095
:100EB00008C448C4B7170240DC43AD83FD8B13D789
:100EC00037008A07F18BD98F93F637010D4763738B
:100ED000D700D117370700201307C732BA978C23E2
:100EE000EFF04F9F08C86FF04F9C5C43B777DC0270
:100EF000938707C061B799C5371702401C4F5D8DB6
:100F000008CF8280B7170240984F1345F5FF798DBF
:100F100088CF828099C5371702405C4F5D8D48CFDE
:100F20008280B7170240D84F1345F5FF798DC8CF9F
:100F300082801E2137370140130707C0C207C183D3
:100F40006306E500370700406316E500BA2193F712
:100F5000F7F8D98FFA2193F7F7CFC207C183D98F5A
:100F60001EA1DE215EB59E211EB5B73701409387D5
:100F700007C06314F5009C251EB985475EA98280D1
:100F80001E2189C593E717001EA18280C207C18375
:100F9000F99BC207C183CDBF5E2501C6DD8D4EA57D
:100FA000828093C5F5FFFD8DDDBF4EA982801E2195
:100FB00089C593E707081EA18280C207C18393F702
:100FC000F7F7C207C183C5BF1A318547B397B7008A
:100FD00093C7F7FFF98F1EB11E31B315B600DD8D33
:100FE000C205C1810EB182801A319147B397B70013
:100FF00093C7F7FFF98F1EB11E31B315B600DD8D13
:10100000C205C1810EB1828093C5F5FFC205C181C1
:101010000EA982801E294A25ED8F4205418189C78C
:101020006D8D3335A00082800145828093C5F5FF28
:10103000C205C1810EA98280EFF28F861629F5774D
:10104000FD17F58FF621DA252111D58F1EA956251A
:10105000FD779387379FF58FD6212A842EC0D58FB1
:101060009625D58FB625D58F5EA55E29C207C1838B
:1010700093F7F7CF5D8F5AA94800C533B7470140B2
:101080009387078082456312F406C2475A2413955A
:1010900017003E9542070E0541873E958C416358E7
:1010A00007048605EFF00F83930540062AC0EFF092
:1010B0006F82824793144500930540063E85EFF00A
:1010C0002F845E24C207C18763D507020E059305EE
:1010D000400613052503EFE0FFFF1D89C98CC204FC
:1010E000C18006A461016FE05FFCB24745B78A0585
:1010F00055BF12059305400613052503EFE09FFD3C
:101100003D89E9BF91C55E250967D98F5EA58280BB
:101110005A25F977FD17F98FD5BF93F5F51F4EA125
:1011200082804A211375F51F82805E2989C593E765
:1011300087005EA98280C207C183DD9BC207C1838D
:10114000CDBF0A216D8D3335A0008280B7170240D4
:101150009843B706FFFC1367170098C3D843758FF1
:10116000D8C39843B706F7FEFD16758F98C398430A
:10117000B706FCFFFD16758F98C3D44341777D17E2
:10118000F98ED4C3B7069F0094C7B7260240904299
:10119000719A90C290421366160090C2D443D4C391
:1011A000D443758FD8C3D843B7060001D8C398433A
:1011B000558F98C3984393166700E3DD06FED84326
:1011C000B7160240719BD8C3D84313672700D8C312
:1011D0002147DC42B18BE39EE7FE8280EFE25FECC9
:1011E000311102C402C602C8FD576313F50001A005
:1011F00093D7854093F4F7079377F500139727006B
:1012000089679387C71FBA979C4311813D892E84B4
:101210003EC0EFF0DF922AC285C485450545E1391D
:101220009387F4FF6947636DF70009678A0713071F
:101230000719BA979C43828785450545EFF05FB54E
:1012400093572440137734008D8B7DC73AC60947E6
:101250006380E70E0D47638FE70C05476388E70C53
:10126000C1473EC8EDA08145C9BF8545370500107F
:101270000905E9B7854537054010DDBF8145E5BF64
:10128000854537050080110555BF85453705208008
:1012900075B7854537052080FDB78145E5BF370522
:1012A000160085451305050451BF85453705160011
:1012B0001305050861B78545370516001305050CAC
:1012C000B5BF8145D5BF3705180085451305051005
:1012D000B5B73705180085451305052085B7854541
:1012E000370518001305053091BF8145D5BF8545E9
:1012F0002165A9B78145EDBF8545370520008DBF24
:101300008145E5BF854537052000B5BF8145E5BF6F
:1013100085453705200069BF8145E5BF854537050F
:1013200030001305054019BF8145D5BFD14715BF12
:10133000E14705BFF14735B705476383E70299C722
:1013400089466381D7029307800221BF02C8824782
:1013500012452C007C84EFF05F9651016FE0FFD4C2
:10136000914701B711840D8893078004E31DE4FCC5
:10137000CDBDFD577D57631CF50082806398A700A3
:10138000EFE21FD28C45993D6FE03FD2B1059C4101
:10139000E396E7FE01A07D579C416394E700014579
:1013A00082806394A700C8418280B105F5B7FD57DC
:1013B0006307F500EFE2DFCEF93F6FE01FCF014595
:1013C00082806305B50019C181E5AA852E858280DA
:1013D0008145EDBF01A001A001A001A001A001A0D5
:1013E00001A001A001A001A001A001A001A001A0F5
:1013F00001A001A001A001A001A001A001A001A0E5
:1014000001A001A001A001A001A097F1FF1F9381FD
:10141000617D138101C217150000130525FC97F5A6
:10142000FF1F938525BE1386818263FAC500832240
:10143000050023A0550011059105E3EAC5FE1385BB
:1014400081829385419A6377B500232005001105B9
:10145000E36DB5FE93020008739002308D427390E5
:10146000428097F2FFFF9382E2B993E232007390D9
:101470005230170500001305053FF92E0521EFF046
:10148000FFCC9702000093824238739012347300AD
:10149000203071158280EFE2BFC01841B73701409C
:1014A000938707C02A846318F700056585451305EF
:1014B0000580EFF05FA41840B70700406316F700FF
:1014C00085450545EFF01FA56FE03FBEEFE25FBD2C
:1014D0001841B7370140938707C02A846318F70083
:1014E0000565814513050580EFF0FFA01840B7079B
:1014F00000406316F70081450545EFF0BFA16FE09E
:10150000DFBAEFE2FFB91301C1FDAA84084D32C66C
:1015100009662EC49305060B3ACA36C8493D2AD03F
:10152000C84C89669385860959352A84885089650F
:1015300093850508AD3D2AC0C85089659385850609
:10154000BD350257096689662AC232CC36CE63049D
:10155000070ED04CFD566304D600630E040C905069
:10156000FD566305D60082476387070CD050FD56B1
:101570006305D60092476380070C3A85A2859135B2
:10158000824588C03D3D924588C0253D88C045C5FF
:101590003747014013070780631BE5008545116548
:1015A000EFF07F95130700022386040298D4E247E8
:1015B000884C9385070B753B11C4F247C84C938543
:1015C0008709453B8247814681CB88508965938551
:1015D0000508453393060010924791CBC8508965A2
:1015E00093E606209385850636C061338246A2477E
:1015F00003C7C40288409CC4B24713162700DEA468
:10160000D247138781833297FEA4C24713864400D2
:1016100010C33147C8C09EA8BAA8D6A801E4854522
:10162000EFF0BFB0C84093858400EFF0FFA0C84042
:101630008545EFF03FAD130141026FE01FA7EFE2D8
:101640003FA6896783A7C70D09671307870E8A0717
:10165000BA97804389659385050B2285893B19CD0F
:1016600037050020F165930705350147814601469E
:10167000938505201305053580CF61356FE0FFA206
:10168000EFE21FA28347C5029305000213972700CC
:1016900093878183BA979C438843EFF09FAA1335C1
:1016A00015006FE09FA0EFE2BF9F8347C50293053F
:1016B00000041397270093878183BA979C4388433C
:1016C000EFF03FA8133515006FE03F9EEFE25F9DFE
:1016D000411137040020AA842EC2EFF0AFCA93074D
:1016E000043583C7C7022AC41304043585E70347BA
:1016F000C402938781830A07BA979C43F1173EC0BF
:10170000938781833EC68247D9EB02C212454101CD
:101710006FE0BF99896783A7C70D09671307870E15
:101720008A07BA979C4389669385060B3E853EC01F
:10173000EFF0FFC7896671D92306040213878183FE
:101740001C4391EF8347C402850793F7F70F2306E5
:10175000F402FDD7ED358347C402D1DB7DB70245E6
:101760009385060BEFF0BFC40346C4021387818341
:1017700093172600BA979C4389669C43E394A7FC81
:101780003DD6C9BFEFF00FC0A247B307F5403335D0
:10179000F500E39CA5F61307703EE368F7F60245F3
:1017A00019376DF19247A6973EC4A247E380F4F63D
:1017B0000245D53D75FD8347C402324785048A073B
:1017C000BA979C4383C5F4FF8843EFF01F95F1BFA0
:1017D00011E57D5582807D556FE03F8DEFE25F8C96
:1017E000AA842E84713D65F983C7C402139727002C
:1017F00093878183BA979C438843EFF09F9208A018
:101800000145D9BF8280EFE2BF89EFF0AFB2EFE0D0
:101810003FAEEFE03FB3F5BFEFE29F88EFF04FB789
:101820006FE0BF8819CDEFE2BF872A84EFF04FB693
:10183000AA84C93FEFF0CFB5058DE36C85FE6FE05C
:10184000DF868280511106C409205111194506C452
:10185000692C0545EF009000AA85814601460145A7
:10186000C1A4511197170000938707B722C217141C
:1018700000001304A4B61D8C26C006C40984BE84CF
:1018800019E41244A240824431016FF04FC07D142C
:1018900093172400A6979C438297DDB7511122C26B
:1018A00097170000938787B217140000130404B23F
:1018B0001D8C26C006C40984814463968402EFF01F
:1018C0002FBD97170000938767B01714000013040B
:1018D000A4B01D8C0984814463928402A240124406
:1018E000824431018280139724003E971843850477
:1018F000029797170000938767ADC1B7139724002D
:101900003E9718438504029797170000938707AC0A
:10191000E1B793878180AA85884309A0411126C237
:1019200093843500F19806C622C4A104B14763F53B
:10193000F404B14463E4B4042AC0A52C1387C18322
:1019400014438247368439E013870184184301EB3E
:101950003E8581453EC0212223A0A18482473E8549
:10196000A6853EC0ED287D5782476314E5063147C2
:1019700098C33E85812429A0E3DE04FAB1471CC147
:101980000145B24022449244410182801840058FB3
:10199000634E07022D466376E60018C03A9404C0F1
:1019A00031A058406392860223AEE1823E8519241D
:1019B0001305B400130744006199B307E540F1D360
:1019C0003E94098F18C075BFD8C2CDB7A2864040DB
:1019D0009DBF130435007198E30385FCB305A44053
:1019E0003E853EC0AD287D578247E31AE5FA41B7F0
:1019F00051119387818022C2804306C41C5C8DEB09
:101A00006145013FB737CDAB08DC9387E7301CC198
:101A1000B7176DE6938747235CC1B7E70500938747
:101A2000C7EE1CC5AD475EA50547814718C95CC90F
:101A3000005C970700009387E77E904308484C4876
:101A4000D4432D239307150033B5A7002E9548C81E
:101A50001CC8A24012440605058131018280511143
:101A600022C22A842E8523A0019A06C4EFF0CF9FBC
:101A7000FD576317F5009387019A9C4391C31CC0DF
:101A8000A240124431018280FD4763F6B700D94776
:101A90001CC17D5582807C41411122C406C62E8620
:101AA0002A8491C713972500BA97984319EB22858A
:101AB00032C0B520AA85228522440246B2404101A7
:101AC00015A8854601456308D700FD566319D70060
:101AD000D9471CC00545B2402244410182802E8571
:101AE00023A0070002970145FDB793878180AA854F
:101AF000884359BF511122C22A842E85B28523A062
:101B0000019A06C4B123FD576317F5009387019A24
:101B10009C4391C31CC0A2401244310182801DA38A
:101B2000938741849C43AA8399EF1387419123A211
:101B3000E18417E5FFFF1305E54CBA8709C51C4191
:101B400023AEF198BA87D8437D437D556346E304BD
:101B5000638D030203A38708630003049312270025
:101B60009A9223A0C2000325031005463316E6000F
:101B7000518D2320A31023A0D20889466397D30058
:101B800083264310558E2322C310930617000A079D
:101B9000D4C3BA978CC70145828097E7FFFF93872C
:101BA000674699C7170500001305E5CB6FF0DFCA3C
:101BB000828082808280011122CC1354750126CA52
:101BC00006CE931495001374F40FA5809356F50177
:101BD0004DCC9307F00F630CF40CB70700048E0490
:101BE000DD8C130414F88147014613D57501139752
:101BF00095001375F50F2583FD814DC51303F00F77
:101C0000630D65020E07130515F8370300043367EB
:101C100067002A9481431305140033C3B6002AC019
:101C20003D459A826362F5101705000013050566AD
:101C30008A07AA979C433E9502851304F40F61EB33
:101C400093E727008943C1BF01431307F00FB7078C
:101C50004000F2406244A6075E07A5831315F30116
:101C6000D98FD2445D8D05618280AE82BA841E8692
:101C700089476306F60A8D47E308F6FC8547168315
:101C8000631EF61A01478147E9B7B5E013D5750120
:101C9000139795001375F50F914701440546258369
:101CA000FD8129FD19EB93E717008543ADB79DE84A
:101CB000A1471304F00F09460DBF3A8532C83EC64E
:101CC0002EC436C23AC0012E02471303B5FF098C59
:101CD000331767001304A4F881439246A245B24724
:101CE000424615BFB1471304F00F0D46FDBD2685D2
:101CF0002EC236C0CD249307B5FF1304A0F8B394C9
:101D0000F400098C8147014682469245F9BD93E76C
:101D100037008D4309B78947B682E31EF6F4168370
:101D20001307F00F814735B7C167FD17B3F3F40010
:101D3000F98FC18041831E85BE85EFE0AFB7AA82CF
:101D4000BA851E85EFE00FB7AA83BE852685EFE032
:101D50006FB6AA87BA852685EFE0CFB513D7020103
:101D6000BE93BA9363F4F300C1673E95C167FD1754
:101D7000B3F4F300C204B3F2F200A69293946200AB
:101D800093D30301B334900093D2A201AA93B3E298
:101D9000540093946300B3E454009397440063D7D2
:101DA0000700024493D714008588DD8C1307F407DD
:101DB000635FE00293F7740099C793F7F4009146CC
:101DC0006383D70091049397440063D80700B70753
:101DD00000F8FD17FD8C130704089307E00F63CB91
:101DE000E70493976400A5831377F70F9DB58547A4
:101DF000B386E74011C76D4601478147E34BD6E400
:101E00001304E40933948400B3D7D400B3348000BE
:101E1000C58F13F7770019C713F7F70091466303CF
:101E2000D700910713975700634C07009A07A583C3
:101E3000014705B51307F00F814721BD0244BDB727
:101E40000547814739B53706800093577501130759
:101E5000F6FF93F7F70F9305E007698F9356F501A7
:101E600063FCF5009305D00963FAF500370500809F
:101E70001345F5FF36958280014582809305500910
:101E8000518F63CDF50013066009B307F640B357D1
:101E9000F7003305F040F5F23E8582809387A7F680
:101EA000B317F700FDB7511106C422C226C00DCDED
:101EB0009357F54133C4A7001D8CAA842285212A9B
:101EC0009307E0093387A74093076009FD8063CC3F
:101ED000E702A1469377F70F63D5A6006115331487
:101EE000A4002604258021A08144814701442604C2
:101EF00013559400A2401244DE07FE045D8D458D0B
:101F00008244310182809307900963DDE7009307E3
:101F1000B5019546B317F400898EB356D400333417
:101F2000F000558C954763D6A7009307B5FF33148F
:101F3000F400B70600FCFD16937774003376D400E6
:101F400085C39377F4009145638CB700110693170E
:101F5000560063D707009307F009758E3387A740B3
:101F60001314660025809377F70F51B721112AC209
:101F700036C006CAAA8622C826C6328732C481471E
:101F80000145014333866600937317003304F5005F
:101F900093D2F6010583B334660086076385030098
:101FA0003385840032838606B3E7570061FFAA8732
:101FB00089C52245EFE00F90AA97024711C7124545
:101FC000BA85EFE02F8FAA97D2404244B2441A85D7
:101FD000BE8561018280C167637CF5029307F00FC3
:101FE0001307000263EBA700970700009387072EF3
:101FF000AA9788233305A740828021819707000094
:102000009387C72CAA97882361473305A74082800E
:10201000B7070001636DF5006181970700009387A2
:10202000E72AAA97882321473305A7408280418168
:102030009707000093878729AA978823414733058C
:10204000A74082809307800523A0F19A7D55828066
:102050009307800523A0F19A7D55828001A000009E
:102060000000803F0000003C2300000000380140D9
:1020700018000000FFFFFFFF00000000000000004C
:1020800012000000003801400B000000FFFFFFFFBE
:1020900000000000000000002600000000380140A1
:1020A00018000000FFFFFFFF00000000000000001C
:1020B00025000000003801400B000000FFFFFFFF7B
:1020C000000000000000000001000000000000000F
:1020D000060000000C0000000D0000000F000000D2
:1020E000100000000E0000000100000002000000CF
:1020F000100000001100000012000000130000009A
:102100001400000015000000160000001700000079
:102110002000000021000000220000002300000039
:102120002400000025000000260000002700000019
:102130000000000000000000A2030000D603000021
:10214000980300009C0300009E030000BA030000F7
:102150009E030000940A0000C40A000098060000D4
:1021600098060000F0050000F0050000F0050000F2
:10217000F0050000F0050000F0050000F00500008B
:102180009206000092060000920600002006000061
:1021900038120000661200006A120000741200007B
:1021A0007C120000801200008A12000092120000CF
:1021B0009A1200009E120000AA120000B61200003F
:1021C000C2120000C6120000D2120000DE1200008F
:1021D000EA120000EE120000F4120000F8120000F3
:1021E00000130000041300000C1300001013000083
:1021F000181300001C130000281300000100000049
:1022000002000000040000000800000010000000B0
:1022100020000000400000008000000000000000DE
:102220002D7F954C2DF45158000000000000000057
:10223000000000000000000000000000000000009E
:10224000000000000000000000000000000000008E
:10225000000000000000000000000000000000007E
:10226000000000000000000000000000000000006E
:10227000000000000000000000000000000000005E
:102280000000000000000000A0FAFFFFE4F9FFFFDB
:10229000E4F9FFFFE2F9FFFFE8F9FFFFE8F9FFFFCC
:1022A000C0F9FFFFE2F9FFFFE8F9FFFFC0F9FFFF08
:1022B000E8F9FFFFE2F9FFFF8EFAFFFF8EFAFFFF5A
:1022C0008EFAFFFFC0F9FFFF0001020203030303C0
:1022D00004040404040404040505050505050505B6
:1022E0000505050505050505060606060606060696
:1022F000060606060606060606060606060606067E
:102300000606060606060606070707070707070765
:10231000070707070707070707070707070707074D
:10232000070707070707070707070707070707073D
:10233000070707070707070707070707070707072D
:102340000707070707070707080808080808080815
:1023500008080808080808080808080808080808FD
:1023600008080808080808080808080808080808ED
:1023700008080808080808080808080808080808DD
:1023800008080808080808080808080808080808CD
:1023900008080808080808080808080808080808BD
:1023A00008080808080808080808080808080808AD
:1023B000080808080808080808080808080808089D
:0823C0000808080808080808D5
:0C23C8009A1B00007C030000D004000001
:0423D4008C03000076
:1023D8000000000000000000800000000000000075
:1023E8000000803F00000000000000000000110015
:1023F80022003400450056006700780089009A00E2
:10240800AB00BB00CB00DB00EA00FA0008011701B3
:102418002501330141014E015B01670173017F0111
:102428008A0194019E01A801B101B901C101C80145
:10243800CF01D501DB01E001E501E901EC01EF0184
:10244800F101F201F301F401F301F201F101EF01ED
:10245800EC01E901E501E001DB01D501CF01C8018B
:10246800C101B901B101A8019E0194018A017F014E
:10247800730167015B014E01410133012501170119
:102488000801FA00EA00DB00CB00BB00AB009A00B1
:1024980089007800670056004500340022001100CA
:1024A8000000EEFFDDFFCBFFBAFFA9FF98FF87FF13
:1024B80076FF65FF54FF44FF34FF24FF15FF06FF36
:1024C800F7FEE8FEDAFECCFEBEFEB1FEA4FE98FEE4
:1024D8008CFE80FE75FE6BFE61FE57FE4EFE46FECC
:1024E8003EFE37FE30FE2AFE24FE1FFE1AFE16FEB2
:1024F80013FE10FE0EFE0DFE0CFE0CFE0CFE0DFE75
:102508000EFE10FE13FE16FE1AFE1FFE24FE2AFE05
:1025180030FE37FE3EFE46FE4EFE57FE61FE6BFE67
:1025280075FE80FE8CFE98FEA4FEB1FEBEFECCFEBB
:10253800DAFEE8FEF7FE06FF15FF24FF34FF44FF2E
:1025480054FF65FF76FF87FF98FFA9FFBAFFCBFF0F
:10255800DDFFEEFF0000A0016D0141014E013301D6
:1025680017011701FE00E800E300CB00B900B20034
:102578009B008C0083006E00610058004400390005
:1025880030001E0015000B00FCFFF5FFEBFFDEFF1F
:10259800D8FFD0FFC4FFC1FFB9FFB0FFAEFFA8FF4F
:1025A800A1FFA1FF9BFF98FF99FF95FF93FF96FF5F
:1025B80093FF95FF99FF98FF9BFFA1FFA1FFA8FF3D
:1025C800AEFFB0FFB9FFC1FFC4FFD0FFD8FFDEFFE9
:1025D800EBFFF5FFFCFF0B0015001E003000390073
:1025E8004400580061006E0083008C009B00B2001C
:1025F800B900CB00E300E800FE0017011701330122
:102608004E0141016D01A00100005FFE92FEBEFE79
:10261800B1FECCFEE8FEE8FE01FF17FF1CFF34FF09
:1026280046FF4DFF64FF73FF7CFF91FF9EFFA7FFEE
:10263800BBFFC6FFCFFFE1FFEAFFF4FF03000A007C
:102648001400210027002F003B003E0046004F00E9
:10265800510057005E005E006400670066006A0073
:102668006C0069006C006A006600670064005E0028
:102678005E00570051004F0046003E003B002F000F
:102688002700210014000A000300F4FFEAFFE1FF1D
:10269800CFFFC6FFBBFFA7FF9EFF91FF7CFF73FF25
:1026A80064FF4DFF46FF34FF1CFF17FF01FFE8FEE4
:1026B800E8FECCFEB1FEBEFE92FE5FFE14000000F6
:1026C80000000000140000000000000014000000DA
:1026D80000000000140000000000000014000000CA
:1026E80000000000140000000000000014000000BA
:1026F80000000000140000000000000002040608AA
:1027080004080C1008101820102030402040608069
:102718000102030405060708010203040506070869
:1027280000000000000000000000000000000000A1
:102738000000000000000000FFFFFFFFFFFFFFFF99
:10274800FFFFFFFFFFFFFFFF000000000100000088
:102758000000000048220000682200002822000033
:102768000000000000000000000000000000000061
:102778000000000000000000000000000000000051
:102788000000000000000000000000000000000041
:102798000000000000000000000000000000000031
:1027A8000000000000000000000000000000000021
:1027B80084050020006CDC02800300200004080C63
:1027C8000400400000040000010010000001001097
:0827D8000204081002010403D1
:00000001FF
