:100000006F10805500000000A20F0000A60F000036
:1000100000000000000000000000000000000000E0
:1000200000000000000000000000000000000000D0
:10003000E80C00000000000028150000000000008F
:100040002A1500002C1500002E15000030150000A8
:100050008A0D000034150000361500003815000028
:100060003A1500003C1500003E1500004015000048
:100070004215000044150000461500004815000018
:100080004A1500004C1500004E150000240B00001E
:1000900052150000BE0B0000CC0B00000000000059
:1000A000511126C022C206C4828282441244A24058
:1000B000310182802A86014593F6150091C232955E
:1000C00085810606F5F9828000000000634E050276
:1000D00063C305042E86AA857D5515C285466378BF
:1000E000B6006356C00006068606E36CB6FE014500
:1000F00063E4C500918D558D85820582F5FA828075
:100100008682C93F2E8582823305A04063D70500D1
:10011000B305B040C1B7B305B0408682653F330533
:10012000A0408282868263C70500634905005D376F
:100130002E858282B305B040E35B05FE3305A04007
:10014000513F3305B04082820000EFF27FF51C4141
:100150008297A1BF85476307F60089476306F600CB
:10016000014582800CC1EDBF9C411CC1D5BFEFF29F
:100170003FF33971138501861D2B938781829A2362
:1001800093061700C206C18296A38967938787D812
:10019000BA979C2336C03ECE9387A1829A2393823E
:1001A000818293061700C206C18296A3896793874E
:1001B000870CBA979C2336C21383A1823ED09387C3
:1001C000C1829A231385C18293061700C206C18299
:1001D00096A3896793870741BA979C231387E18287
:1001E00036C43ED21E239385E18293861700C20651
:1001F000C18216A30D671307879CBA979C231387A8
:10020000018336C63ED41E231386018393861700CE
:10021000C206C18216A30D67130747D9BA979C235C
:1002200036C83ED6938721839A23938621839303EE
:10023000170093940301C18086A38D67938787FF7E
:10024000BA979C2326CA3ED89387418383D307005D
:10025000138741839380130093940001C18026CCBF
:1002600086A38D679387C7099E979C2336DE32DC71
:100270003EDA9380618383D3000093876183938404
:100280001300C204C180239090008D60938080226F
:10029000869383C0030083A3C1839386818363997C
:1002A0000300724690A21546639EC30042563DA8C5
:1002B00005466394C3000256F5B709466399C30027
:1002C000125690A219466399C300525605A00D46D6
:1002D000639AC300225690A21D46639AC3002380EE
:1002E000160031A01146E390C3FC325690A2902232
:1002F000B736014023AAC6C202469306F03363F61E
:10030000C600930600342390D20012469306703440
:1003100063F6C600930680342310D300224693066A
:10032000505B63F5C6009306605B16A132469306E8
:10033000B03C63F5C6009306C03C96A142469306C6
:10034000102663F6C60062569306202616A2524671
:100350009306100A63F6C60072569306200A16A288
:1003600062469306901863F5C6009306A01816A37C
:100370001307303063759700130740309AA3138535
:1003800001864521216115B3B7170240944F0567D7
:1003900013060782D18E94CFB716014003A60640FC
:1003A00013070780419A23A0C64003A606401366A0
:1003B000960123A0C640D4470D66558FD8C7D847AD
:1003C000FD769386F67F758FD8C7373701402314A3
:1003D00007C29306F00F2316D7C2835647C193E690
:1003E0001600231AD7C0835607C293E6C60023100F
:1003F000D7C2835607C2D18E2310D7C2835687C176
:10040000216693E60606231CD7C093060008232A1C
:10041000D7C2835647C4D18E2312D7C4835707C08F
:1004200093E717002310F7C08280EFF27FC74111D6
:10043000A13F89650946938505F4138501869D29A9
:10044000B70700009387E7163EC0B7070000938701
:10045000A7143EC6B7070000938747158A85138502
:1004600001863EC4EF00A064A24789C78A850D4675
:100470002E858297138501866D2641013DB1EFF2ED
:100480003FC2EF10A06BB70700809D077D8D6356BC
:1004900005007D15136585FF050523AEA18209E9D9
:1004A0002394018295476310F5022399018291A05C
:1004B00085476315F50023950182EDB78947631AD7
:1004C000F500239601829947631AF500239A018269
:1004D0000DA08D47631AF500239701829D47631A8B
:1004E000F500239B018231A09147E31DF5FA239883
:1004F00001821305600AEF10C04745BEEFF25FBAF4
:10050000B705004013850186012B45B6EFF25FB9B0
:1005100013850186152151BE0145828082807D555B
:100520008280EFF2FFB71C417111CC81DC4393054F
:1005300031000546829711018DBEEFF27FB6711131
:10054000930531004105EF10803D01E588811101DF
:10055000A9BE7D55EDBFEFF2BFB42E85B285EF1079
:10056000C02BA1B613F7F50FC54763EDE7008D6704
:100570009387C75A0A073E9793F705700C43CD8FB0
:100580005CD5828093F6050C1306000CFD57E399A9
:10059000C6FE9306700CE3E5E6FE93F7F5030D67E0
:1005A0001307C7588A07BA979C430D671307C75AA2
:1005B0008A07BA9793F505709C43D1B713F7F50FE7
:1005C000C54763EDE7008D679387C75A0A073E97D3
:1005D00093F705700C43CD8F1CD5828093F6050CE4
:1005E0001306000CFD57E399C6FE9306700CE3E575
:1005F000E6FE93F7F5030D671307C7588A07BA9706
:100600009C430D671307C75A8A07BA9793F505707D
:100610009C43D1B7EFF2DFA89307803E1CC58D67DE
:100620009387C75F1CC10CC9232205009305600C8A
:100630002A840D3F9305500C2285493758541C5489
:100640006314F700FD575CD4FD571CD85CD8B1BCCF
:10065000EFF21FA5B7450140938505801385418EB4
:10066000553FA1B4EFF2DFA31C452A8481CB0D4690
:10067000AA8582972324040023260400228535B40A
:10068000EFF21FA231110A8502C002C202C402C6E3
:1006900002C8EF0070111245510101BC1C4599C7F9
:1006A000EFF21FA0AA850D46829701B48280EFF277
:1006B0003F9F2A84084D0146FD45EF00D022084C9B
:1006C0008145EF00D020D5B2FD152E951C2199CB88
:1006D00089477D5563E7B700860593870181BE95FD
:1006E0008A2182808D477D55E3EDB7FE860593878D
:1006F0008181F5B79387F5FF0D47636EF700EFF241
:100700003F9A51113EC02A84AE847D3F7D57824777
:100710006314E50001A001A0920493844403A29411
:1007200094441387C1803E97182385C6938601821F
:10073000BE969422084C3AC4B6853EC236C0EF003D
:1007400090218246084C0546B685EF00D019224715
:10075000924793962700A296D44231466369D60AFF
:100760000D668A0613060662B2969442084C82868B
:10077000A2979C2393150701C18199CF1146EF00E1
:10078000901B084C216783574504D98F2312F50429
:100790008545EF00D013A5A80546EF00D017D5B7C3
:1007A0000546BA853EC0EF00101782471387418285
:1007B000BA97838707002285BE853EC031379315DF
:1007C0000501084C0546C181EF00F014084CA166F4
:1007D000854503574504558F2312E504EF00300F7C
:1007E000984415C782470D47084CFD17FD546366B2
:1007F000F70093850182BE958421C204C180A6853D
:10080000EF007015084C0546A685EF00D00D3101AC
:100810006FF0BF890546BA8549B71E21858BE5FB78
:1008200085BFEFF2FF875C5D2A8491CF084D854537
:10083000EF007012084C85450546EF00D00A084CC1
:100840008545EF00D008228585456D35228589458F
:10085000553522858D45793D91452285613D6FF065
:10086000DF84EFF2FF83084D8545EF00F0086FF05D
:10087000DF831C4D8A2305898280EFF27F822A84E0
:10088000CD3F05E5084C5E25858B95C30146854522
:10089000EF0070052285F137084C8545EF00B00B5D
:1008A000084C05468545EF0010046FF01F80228537
:1008B0004D3FE5BFEFF2CFFE8547AA842E8463014A
:1008C000F60289476304F604814719C09307F4FFD1
:1008D0008C4CC207C183DEB5268545376FF0EFFC2F
:1008E0004533B7450F0093850524EFF0AFFEA28591
:1008F000EFF04FFC935505019C4C13970501418384
:100900009AB78505EFF00FFD2A847DBF953BA28540
:10091000EFF04FFCC5B7B7370140938707C06308B6
:10092000F500B70700406316F500054582800145D4
:10093000828041657D158280EFF28FF62A84084D12
:10094000D93FAA8413058401EF00304D8A04138532
:1009500001842695232A04009304440823200500DB
:100960001304440363868400C1142685053BDDBF60
:100970006FF0AFF3EFF2CFF271112A84C1642E85CC
:100980002EC0FD14493F82456313950001A01C4C05
:1009900091C301A093172500138501843E95930709
:1009A00044011CC1930700085CD4930700041CD8C1
:1009B0000CCC1305840140C8232E0400232004021C
:1009C00023120402EF00104213054403613913059A
:1009D000440449391305440571311305440659315E
:1009E000130544074131084C23200400232204004E
:1009F000232404002326040023280400232E0400BB
:100A000004D08545EF00806F084C9305C401EF00CA
:100A1000206711016FF06FE9EFF28FE8232E0502D6
:100A200023260504232E050423260506232E05066A
:100A3000232C05008137B7E700E0214723A2E71008
:100A40001307000223A2E7101307000423A2E710F4
:100A50006FF0AFE5232405009C4589CFEFF24FE40A
:100A600009462A84AE848297DC445CC49C441CC43E
:100A70006FF0AFE38280EFF2AFE221112A84280009
:100A8000D13FB24714402247280036C454405CC0CE
:100A9000C24718C018441CC4D2473AC858445CC462
:100AA00036C63ACAE53E228561016FF00FE0EFF2EB
:100AB0002FDF2A845C5C1305450381C76D3F6FF00F
:100AC000CFDEAE844D3F9C44FDDB084C854561255F
:100AD000084C05468545012DDDB7EFF26FDC184562
:100AE00019E3EF00106B5C4582976FF00FDC11E1AA
:100AF00001A0EFF2EFDA2A84084185459D250DC15A
:100B00001C40DE27858B89CF2285EF00702D0841A0
:100B10005C5D81C713054503C93708408545B12D84
:100B20006FF0AFD803A5018419C11105C93773004F
:100B3000203011E101A01C41DA27098B11EBDA27E3
:100B4000118B19E7DA27218B01E7DA27418B3DC7A3
:100B5000EFF20FD52A8489453E8521251C4015C119
:100B600089453E85192D85442285EF00702708416F
:100B700092049384440326951C4591C3B93F6FF0BA
:100B8000CFD23E859145F12B1C4011C591453E8544
:100B9000ED238944D1BF3E85A145E1231C4011C509
:100BA000A1453E85D92B8D44C1B7C1453E85552B06
:100BB00045DD0840C1459144C9237DB7828003A526
:100BC000018419C11105B53773002030711122C09D
:100BD00013840184484011C51105113F4840110597
:100BE000893F0244110173002030EFF26FCB2A8459
:100BF000EF00705748C41C402285DC4B8297635A33
:100C00000500EF0050565C441D8D1C44E365F5FE65
:100C10007D556FF08FC9EFF2AFC86111AA8401440E
:100C20002EC232C0630DC4002685C137634905005A
:100C300092450246B387850088A30504D5B722856F
:100C400021016FF08FC6EFF2AFC55111014495C677
:100C5000B684AA8701443E8532C42EC23EC0713795
:100C6000634D05009245630AB5002246824733076B
:100C7000860008A30504E39084FE228531016FF00D
:100C8000CFC2EFF2EFC1F1206FF02FC2EFF24FC1F0
:100C900085476301F50219C589476303F5020145DC
:100CA0006FF0AFC011458545712E37150140130512
:100CB0000580FDB741458545712637150140CDB703
:100CC000130500028545BD2E37150140130505406B
:100CD000C1BF03A5818483A5C18482808280EFF295
:100CE0002FBCC53F6FF06FBC9387818403A30700BF
:100CF00083A34700130713003335670098C3B30677
:100D00007500D4C3E13FB7F700E023A207007300EA
:100D10002030EFF2EFB837F400E023220400232064
:100D2000040023240400B707002003A5C70F930580
:100D3000803EEFF02FBA7D1508C8BD471CC07D5717
:100D4000B7E700E02386E740056723A0E7106FF0D0
:100D5000CFB5EFF2EFB4753F6FF02FB58147054780
:100D60006307E5008507058193F7F70FD5BF3707C0
:100D700000208E0713070700BA97DC4391C7EFF2F4
:100D80002FB282976FF06FB28280611122C226C0AB
:100D90000544A1442285A92019C522858D2013155B
:100DA00004014181653FFD140604EDF412448244C0
:100DB000210173002030370700201307870F1C43E1
:100DC0009386C19B3E956369D500938681D463E584
:100DD000A60008C33E858280FD57EDBF82808280D9
:100DE000B70701401387074083A70740584B698F17
:100DF00009C77D8D3335A000828001458280B70709
:100E0000014023AAA74082809C45611122C226C0CE
:100E100013F7070113F3F70001C7D8413363E30069
:100E200092211377F60F29C7832305000147130486
:100E30008002930480048546B395E600B376B6003D
:100E40006392D50293122700BD46B396560093C60F
:100E5000F6FFB3F37600B3125300B3E37200639767
:100E600087064CC90507A146E317D7FC2320750068
:100E70001307F00F6378C70483234500A1461304CA
:100E80008002930480040547B312D70033775600DD
:100E90006394E202139726000117BD45B395E50060
:100EA00093C5F5FFB3F375003317E300B363770021
:100EB00063928702232A550085064147E395E6FCA5
:100EC000232275001244824421018280E39C97F81A
:100ED0000CC949BFE39297FE23285500F1BF3703A1
:100EE0000140032743009317350063D00702B7077B
:100EF000C0FFF517F98F37070007D98FD9CD37070E
:100F000000F07D17798DC98F49A8635D0500B7078B
:100F1000E0FFED17F98F37070007D98FBDCD060524
:100F20000581D5B7B7073000931605013376F50074
:100F3000C1826313F602370600F97D16B377C70046
:100F400003274300798E2322C300A1C955811317BB
:100F500045003395E60045BF9317B50063D40702FB
:100F60009357050113F6F7008D47B397C70093C752
:100F7000F7FFF98F37070007D98F85C11357550140
:100F80001207C1BF558112053395A6009347F5FF9F
:100F9000F98F37070007D98FBDF5370701405CC3CC
:100FA00082807300203001A0EFF28F8F371702404C
:100FB0005C4391462A84B18B6385D700A146638D3B
:100FC000D706B7376E01938707601CC0B71602407B
:100FD000DC42918313F7F700B7070020938747059A
:100FE000BA978C23DC42184093F5F50F93F7070866
:100FF0003355B70081E73A85EFF0CF8D48C008C47C
:1010000048C4B7170240DC43AD83FD8B13D73700CC
:101010008A07F18BD98F93F637010D476373D70099
:10102000D1173707002013070704BA978C23EFF076
:101030006F8A08C86FF06F875C43B777DC029387CD
:1010400007C061B799C5371702401C4F5D8D08CFA7
:101050008280B7170240984F1345F5FF798D88CFEE
:10106000828099C5371702405C4F5D8D48CF8280E2
:10107000B7170240D84F1345F5FF798DC8CF82804E
:101080001E2137370140130707C0C207C18363061B
:10109000E500370700406316E500BA2193F7F7F83B
:1010A000D98FFA2193F7F7CFC207C183D98F1EA139
:1010B000DE215EB59E211EB5B7370140938707C07C
:1010C0006314F5009C251EB985475EA982801E2108
:1010D00089C593E717001EA18280C207C183F99BCF
:1010E000C207C183CDBF5E2501C6DD8D4EA58280BE
:1010F00093C5F5FFFD8DDDBF4EA982801E2189C5F8
:1011000093E707081EA18280C207C18393F7F7F710
:10111000C207C183C5BF1A318547B397B70093C7CC
:10112000F7FFF98F1EB11E31B315B600DD8DC20574
:10113000C1810EB182801A319147B397B70093C72E
:10114000F7FFF98F1EB11E31B315B600DD8DC20554
:10115000C1810EB1828093C5F5FFC205C1810EA980
:1011600082801E294A25ED8F4205418189C76D8DF8
:101170003335A00082800145828093C5F5FFC2050A
:10118000C1810EA98280EFE2BFF11629F577FD1724
:10119000F58FF621DA252111D58F1EA95625FD7769
:1011A0009387379FF58FD6212A842EC0D58F962519
:1011B000D58FB625D58F5EA55E29C207C18393F76B
:1011C000F7CF5D8F5AA94800C533B74701409387D1
:1011D000078082456312F406C2475A24139517000C
:1011E0003E9542070E0541873E958C4163580704A2
:1011F0008605EFE03FEE930540062AC0EFE09FED45
:10120000824793144500930540063E85EFE05FEF6B
:101210005E24C207C18763D507020E059305400609
:1012200013052503EFE01FEB1D89C98CC204C180A3
:1012300006A461016FE07FE7B24745B78A0555BF55
:1012400012059305400613052503EFE0BFE83D892D
:10125000E9BF91C55E250967D98F5EA582805A25B1
:10126000F977FD17F98FD5BF93F5F51F4EA1828051
:101270004A211375F51F82805E2989C593E787008F
:101280005EA98280C207C183DD9BC207C183CDBF37
:101290000A216D8D3335A0008280B7170240984334
:1012A000B706FFFC1367170098C3D843758FD8C3E0
:1012B0009843B706F7FEFD16758F98C39843B70697
:1012C000FCFFFD16758F98C3D44341777D17F98EC7
:1012D000D4C3B7069F0094C7B72602409042719AC4
:1012E00090C290421366160090C2D443D4C3D44334
:1012F000758FD8C3D843B7060001D8C39843558F1C
:1013000098C3984393166700E3DD06FED843B716EB
:101310000240719BD8C3D84313672700D8C3214725
:10132000DC42B18BE39EE7FE8280EFE27FD7311192
:1013300002C402C602C8FD576313F50001A093D78B
:10134000854093F4F7079377F500139727008D678F
:101350009387076CBA979C4311813D892E843EC0C8
:10136000EFF0DF922AC285C485450545E1399387B0
:10137000F4FF6947636DF7000D678A071307476538
:10138000BA979C43828785450545EFF05FB5935733
:101390002440137734008D8B7DC73AC6094763809C
:1013A000E70E0D47638FE70C05476388E70CC147DD
:1013B0003EC8EDA08145C9BF854537050010090528
:1013C000E9B7854537054010DDBF8145E5BF854557
:1013D00037050080110555BF85453705208075B755
:1013E000854537052080FDB78145E5BF37051600E7
:1013F00085451305050451BF8545370516001305BE
:10140000050861B78545370516001305050CB5BFFE
:101410008145D5BF37051800854513050510B5B7BB
:101420003705180085451305052085B7854537051F
:1014300018001305053091BF8145D5BF854521654D
:10144000A9B78145EDBF8545370520008DBF814592
:10145000E5BF854537052000B5BF8145E5BF85451A
:101460003705200069BF8145E5BF85453705300058
:101470001305054019BF8145D5BFD14715BFE147C9
:1014800005BFF14735B705476383E70299C789462A
:101490006381D7029307800221BF02C882471245A9
:1014A0002C007C84EFF05F9651016FE01FC09147E4
:1014B00001B711840D8893078004E31DE4FCCDBDC2
:1014C000FD577D57631CF50082806398A700EFE20B
:1014D0003FBD8C45993D6FE05FBDB1059C41E396F2
:1014E000E7FE01A07D579C416394E700014582809F
:1014F0006394A700C8418280B105F5B7FD57630723
:10150000F500EFE2FFB9F93F6FE03FBA0145828095
:101510006305B50019C181E5AA852E8582808145C4
:10152000EDBF01A001A001A001A001A001A001A0A8
:1015300001A001A001A001A001A001A001A001A0A3
:1015400001A001A001A001A001A001A001A001A093
:1015500001A001A001A001A097F1FF1F9381013A12
:10156000138181F0172500001305451F97F5FF1F14
:10157000938545A91386818263FAC50083220500FD
:1015800023A0550011059105E3EAC5FE138581826C
:101590009385C19B6377B500232005001105E36D9A
:1015A000B5FE93020008739002308D427390428022
:1015B00097F2FFFF938202A593E2320073905230BC
:1015C000170500001305E53EF12E3929EFF0FFCC99
:1015D00097020000938242387390123473002030D7
:1015E00071158280EFE2DFAB1841B7370140938776
:1015F00007C02A846318F700056585451305058033
:10160000EFF05FA41840B70700406316F700854568
:101610000545EFF01FA56FE05FA9EFE27FA8184135
:10162000B7370140938707C02A846318F700056520
:10163000814513050580EFF0FFA01840B707004073
:101640006316F70081450545EFF0BFA16FE0FFA5E8
:10165000EFE21FA51301C1FDAA84084D32C60D6635
:101660002EC4930546573ACA36C8493D2AD0C84CBD
:101670008D669385C65559352A8488508D65938526
:101680004554AD3D2AC0C8508D659385C552BD35C2
:1016900002570D668D662AC232CC36CE6304070E21
:1016A000D04CFD566304D600630E040C9050FD56DA
:1016B0006305D60082476387070CD050FD5663054B
:1016C000D60092476380070C3A85A2859135824502
:1016D00088C03D3D924588C0253D88C045C53747F7
:1016E000014013070780631BE50085451165EFF096
:1016F0007F95130700022386040298D4E247884CA2
:1017000093854757753B11C4F247C84C9385C7551D
:10171000453B8247814681CB88508D6593854554F2
:10172000453393060010924791CBC8508D6593E6E0
:1017300006209385C55236C061338246A24703C74F
:10174000C40288409CC4B24713162700DEA4D247C7
:10175000138701853297FEA4C2471386440010C345
:101760003147C8C09EA8BAA8D6A801E48545EFF0C5
:10177000BFB0C84093858400EFF0FFA0C840854506
:10178000EFF03FAD130141026FE03F92EFE25F9156
:101790008D6783A7075A0D671307C75A8A07BA9739
:1017A00080438D65938545572285893B19CD370543
:1017B0000020F16593074506014781460146938560
:1017C00005201305450680CF61356FE01F8EEFE2DF
:1017D0003F8D8347C5029305000213972700938727
:1017E0000185BA979C438843EFF09FAA13351500F3
:1017F0006FE0BF8BEFE2DF8A8347C50293050004E9
:101800001397270093870185BA979C438843EFF08D
:101810003FA8133515006FE05F89EFE27F88411123
:1018200037040020AA842EC2EFF0AFCA9307440603
:1018300083C7C7022AC41304440685E70347C402CA
:10184000938701850A07BA979C43F1173EC0938797
:1018500001853EC68247D9EB02C2124541016FE0C5
:10186000DF848D6783A7075A0D671307C75A8A0756
:10187000BA979C438D66938546573E853EC0EFF0F0
:10188000FFC78D6671D923060402138701851C43A7
:1018900091EF8347C402850793F7F70F2306F402FD
:1018A000FDD7ED358347C402D1DB7DB70245938573
:1018B0004657EFF0BFC40346C40213870185931750
:1018C0002600BA979C438D669C43E394A7FC3DD6C3
:1018D000C9BFEFF00FC0A247B307F5403335F5009D
:1018E000E39CA5F61307703EE368F7F60245193747
:1018F0006DF19247A6973EC4A247E380F4F60245F5
:10190000D53D75FD8347C402324785048A07BA97DF
:101910009C4383C5F4FF8843EFF01F95F1BF11E5A9
:101920007D5582807D556FE04FF8EFE26FF7AA8416
:101930002E84713D65F983C7C402139727009387EE
:101940000185BA979C438843EFF09F9208A0014518
:10195000D9BF8280EFE2CFF4EFF0AFB2EFE0FFAC9F
:10196000EFE0FFB1F5BFEFE2AFF3EFF04FB76FE09D
:10197000CFF319CDEFE2CFF22A84EFF04FB6AA846D
:10198000C93FEFF0CFB5058DE36C85FE6FE0EFF159
:101990008280511106C409205111194506C4612CD9
:1019A0000545CD26AA85814601460145C1A45111B0
:1019B00097270000938747DA22C2172400001304F8
:1019C000E4D91D8C26C006C40984BE8419E41244DF
:1019D000A240824431016FF06FC07D149317240040
:1019E000A6979C438297DDB7511122C2972700002A
:1019F0009387C7D517240000130444D51D8C26C037
:101A000006C40984814463968402EFF04FBD972792
:101A100000009387A7D3172400001304E4D31D8C80
:101A20000984814463928402A240124482443101B9
:101A30008280139724003E971843850402979727C6
:101A400000009387A7D0C1B7139724003E9718438F
:101A50008504029797270000938747CFE1B79387C4
:101A60008180AA85884309A0411126C2938435004C
:101A7000F19806C622C4A104B14763F5F404B14449
:101A800063E4B4042AC0A52C13874185144382471C
:101A9000368439E013878185184301EB3E85814503
:101AA0003EC0212223ACA18482473E85A6853EC04C
:101AB000ED287D5782476314E506314798C33E857C
:101AC000812429A0E3DE04FAB1471CC10145B240DC
:101AD00022449244410182801840058F634E0702E0
:101AE0002D466376E60018C03A9404C031A05840F1
:101AF0006392860223AAE1843E8519241305B4006B
:101B0000130744006199B307E540F1D33E94098F70
:101B100018C075BFD8C2CDB7A28640409DBF130480
:101B200035007198E30385FCB305A4403E853EC0B3
:101B3000AD287D578247E31AE5FA41B751119387E3
:101B4000818022C2804306C41C5C8DEB6145013F4D
:101B5000B737CDAB08DC9387E7301CC1B7176DE60C
:101B6000938747235CC1B7E705009387C7EE1CC581
:101B7000AD475EA50547814718C95CC9005C97273A
:101B80000000938727B6904308484C48D443952AD1
:101B90009307150033B5A7002E9548C81CC8A2406E
:101BA00012440605058131018280511122C22A8426
:101BB0002E8523AC019A06C4EFF0EF9FFD57631703
:101BC000F5009387819B9C4391C31CC0A2401244A3
:101BD00031018280FD4763F6B700D9471CC17D55AE
:101BE00082807C41411122C406C62E862A8491C778
:101BF00013972500BA97984319EB228532C0B52078
:101C0000AA85228522440246B240410115A8854694
:101C100001456308D700FD566319D700D9471CC09A
:101C20000545B2402244410182802E8523A0070051
:101C300002970145FDB793878180AA85884359BFE4
:101C4000511122C22A842E85B28523AC019A06C482
:101C50002522FD576317F5009387819B9C4391C311
:101C60001CC0A24012443101828009A29387C18521
:101C70009C43AA8399EF1387C19223AEE18417E5B1
:101C8000FFFF13052538BA8709C51C4123AAF19A1D
:101C9000BA87D8437D437D556346E304638D0302D1
:101CA00003A3870863000304931227009A9223A0DA
:101CB000C2000325031005463316E600518D23208C
:101CC000A31023A0D20889466397D300832643102C
:101CD000558E2322C310930617000A07D4C3BA9760
:101CE0008CC70145828097E7FFFF9387A73199C78B
:101CF000170500001305E5CB6FF0DFCA82808280F4
:101D0000828021112AC236C006CAAA8622C826C6E7
:101D1000328732C48147014501433386660093739D
:101D200017003304F50093D2F6010583B33466003F
:101D30008607638503003385840032838606B3E714
:101D4000570061FFAA8789C52245EFE0AFB6AA9781
:101D5000024711C71245BA85EFE0CFB5AA97D24026
:101D60004244B2441A85BE85610182809307800592
:101D700023ACF19A7D5582809307800523ACF19ABC
:101D80007D55828001A000008081818181828283D3
:101D9000848489847E648CF94FA49090718E7D72C6
:101DA0007B49744253374F3B433C463F4842565E63
:101DB00065746B88B68D9EDFBAC7CFE3EDEFEFF0A9
:101DC000EBDFC6C4BCB7ABA89C968D847C786964F5
:101DD000594B4746382E2C211D1D1C191617161756
:101DE000191C202730333942474F5761697077807B
:101DF000868D979CA8A8BCB5C9C4E3DDEEEBEAEEDE
:101E0000EEEBEAE5E0D4CFC1BCB8B1AAA59E978EAF
:101E1000898079716C665F58544D4B434139383134
:101E2000312C2B2A2224202325242128262B2A303A
:101E3000303436373F45464A5054595C62686B6FC0
:101E4000737778817B86898C909093969A989B9EE5
:101E50009DA29E9FA2A1A0A0A2A2A1A2A3A4A3A86A
:101E6000A7A9A9ADABAEABB0B0B1AFB3B0AFAEAD9B
:101E7000ACACA6A6A29E9C98948F8C86837D797527
:101E8000716C68645F5B5752504A4843403C373638
:101E900033312E2A2C2B2B292A2B2D2E3031333760
:101EA0003A3D42484C51565C646870747B80878C24
:101EB00091969BA0A3A8ABB0B2B4B6B9BBBCBDBE53
:101EC000BCBEBDBCBABCB7B8B4B3AFAEA9A8A5A0E0
:101ED0009E9B9794918E8A8784817E7C797674729A
:101EE000706E6D6A6A686867676666666667676867
:101EF00069696A6A6C6D6F707172737476777979DB
:101F00007B7C7D7E7F8081828384848585868686B6
:101F10008786868686868585858484848383828277
:101F200082818180808080807F7F7F7F7F7F7F7FB5
:101F30007F7F7F808080808181828282838384848E
:101F4000858586868787878888888888888888881E
:101F50008888888888878787878686868686868514
:101F60008585858585858585858584848484848427
:101F70008484838383838383828282828282818139
:101F8000818181818180808080808080808080804C
:101F9000808080808080808080808080808181813E
:101FA0008181818282828283838383838484848407
:101FB00084848585858585858585858686868686CE
:101FC00086868686868686868686868686868685B2
:101FD00085858585858585858484848484848484B9
:101FE00084848484848484848484848484848484B1
:101FF00084848484838383838383838383838383AD
:1020000083838383838383838383838383838383A0
:102010008484848484848484848484848484848480
:102020008484848484848484848484848484838372
:102030008383838383838383838383838383838370
:102040008383838383838383838383838383838360
:102050008383838484848484848484848484848443
:10206000848483838383838383838383838383833E
:102070008383838383838383838383838383838330
:102080008383838383838382828282828282828229
:10209000838383838382828282828282828282821B
:1020A000828282818181818181818181818181811D
:1020B0008181818181818181818181808080808015
:1020C000808080808080808080A4A8A8A38E914B8F
:1020D00018271927334C4E5A678195A3C2CFD5B123
:1020E000B5B2C2B9E7DCE3E1D2A1969785776E5726
:1020F0004B3E3116140A2312101513151F3C42498A
:10210000576C75869BA9EAEDFFF2EEF3F0E7DEAFC0
:10211000B6A3937A6860574E3A250D1A141B12190C
:10212000121F2C586F6D7298C2AB96C2EFD5EEE8B5
:10213000D8E1ECD097A4817D616451514930132CD2
:1021400039162816291C3B3155485D7881868097C1
:10215000A9B8A5AAACAFAC9D948E91AF8D898C7AAD
:10216000777060634932471D2C291E1C3A3C535F2F
:102170007167616E76839AA09796B1A3BABBC4D0FB
:10218000E9C3DAA4909082807259445D442C4929B5
:102190001E3D2F4A5F506C5A86708B7E89A5A19D8B
:1021A000B0AEAD9D96B3AB919E8F958F687A6A6005
:1021B00059636C614B41676A5D5D7D6872706974DB
:1021C000847EA2816A81898C829180978691AFA654
:1021D000AEA8A999919A9480826E6F60644C594D13
:1021E0004B515952655C71657D899089A09993998D
:1021F0009595C5B6A79FB0A1929393838280647290
:1022000075646D52685A4C496561606B74807F9447
:10221000958DA49BA4989D9C9A949498819A8E885D
:1022200093847E8C80837E76787469786F70736D0A
:10223000766F6F6A8170817F7B7D847F818C8B83D9
:102240008C889A8E879296979498938A8E9086819E
:1022500083807171756F6C68626A636D65727B767D
:102260008E85858A9093898E9A8E8E9F8A91969478
:102270008B888580767A7D7A7870736F73706372DD
:102280006D7E7D787D8C88889087858E92929286EF
:102290009184858683837F867F817C8884808C84FB
:1022A00083838085817C7F79827E7D7A7C7F80803C
:1022B0007C7F828281807F88838B8F8E8D8A8D91B7
:1022C0008D8D8D8B8C83837E807B797D7675787503
:1022D00078757279798279848083848C888C8A91EC
:1022E000898A8B8A87868480817D7D7D7E7B7E78CE
:1022F0007C78837C7C8083848182878490888986B3
:102300008D888485888882807F817B84807E83819C
:102310008180848284868583868482868683858282
:10232000867E8180848081807A7F817A80838184A7
:1023300086868787888A898A8B8E8B86878685831F
:10234000857F7C7F7E7B7B7E787B7F7D7F808182AB
:1023500085848B8689878686878284838381808231
:102360007E7F7C7F7E7D80817F7E8081838386846B
:102370008583868687828683838683838280818025
:102380007F807C7E7F808081808483858784868A2D
:102390008988868686868482828381817F7F808009
:1023A0007E81828080818383828385858586868302
:1023B00085848282818281807F807E7E7D7F7F7E18
:1023C0007F808181838283838483848383828282EA
:1023D000818181807E80807F7F7F7F7F7F80808002
:1023E00080808081818182828282828282818180DA
:1023F000808080808080807F8080808080808080DE
:1024000080808080808080808080808080808080CC
:1024100080BB8476917067AC5F6A2589726D859404
:1024200067946B873A9A72755CAEB57798AF7A828B
:10243000926C60796E6B424A6F3D6E698655798DFC
:102440007D88CB828D7C9FA5AB956E99636C68B8B7
:10245000731C575E1B2B7382945E89946186967FF2
:1024600053B46BC87370579F61902C945480468806
:102470006C7286509B6E67967F884665488C926D1D
:10248000576E188E6D63A09862BA47A074A613D3D6
:10249000719353B573825480657F8374628B438FCD
:1024A000948E8C7D67A67B725B748992406851C65E
:1024B0005D866E5D7E9A80956C74828174747B7F7C
:1024C000AD6D6372717892785290237869787C89C7
:1024D0004A9262797A629A786372914D7D983A480D
:1024E0006A4091B2705954718363888F78C2768440
:1024F000827F76524D86298A60AA14826E966995EB
:10250000A4746C8F706B586F626C5198556B7EAB76
:10251000437EA1A48A794F9C66BC259147AC43AA0F
:102520003A7B63A87CAD66AA738A606554795A5772
:102530006384528E55B8209275C36D77A0717E71F9
:10254000527D8DBA7A865252B9736E9D7F827F9B7F
:10255000A085696F7E592EA168926C6C66A164A0FB
:102560007D98C77E5E8067B8564F7441878E6793AB
:10257000678C706C6F906E74847C5D70736882720F
:1025800067ACAB8762855C895A797189C56E6C6866
:10259000758080556F95687A5F91AC822C916EBA88
:1025A0008C9A7F2C707C508E7772427A8CD1597BBA
:1025B000848C569762808A71678C9B766883B75E3D
:1025C00088806D744B88A1665280728586A94B8D78
:1025D000916E5AC756CF5C6B7D70A781734B569531
:1025E0008E7C6A63567EA9776E879B82668F7F7B1F
:1025F0006A41744F8F97BA5A8E8B499DA08A757A1B
:102600005B9B31A34E57767AB67F6D709E4F9B874A
:102610007A9DA276838A888F768F644C99888040D1
:102620007856A17AA4D472759A6B99789552697785
:10263000816B9B568356826C9E9374626B636D9123
:10264000876C84596D8F616D7A8B829D7FA2987A99
:102650005E87A68599835F7C84786780847ED95F56
:102660008678806C7EB98A7E6A548D6C84897364A6
:1026700068B8B365C068739D9277815B8378699F02
:102680008C4F8B4E8883A48F7079968A8697935847
:10269000797C8C6A5C857757BC729A687D93818B54
:1026A0009D92896879887078874773709A6F76579A
:1026B000AB5EC87F89519A9C5C759085935AAF63D5
:1026C00074A1984F6178927E9884857FBD9EA25FA9
:1026D000C875785C8D538576C14283A481699E7EDE
:1026E000816D6F8C6A9A84835875948F6C938E7801
:1026F000628D755C777EC27D9885975E7A6A8D74EF
:10270000896F4A77A78581A0877A79D15267577CEC
:102710009661A1905E8DAF6B8D94A3516D8A8D5B98
:102720008B779C71859B725689649769B57067A495
:102730008D6B844693588F6C885C81658270AD9AEE
:10274000836A9486775F6F379D669777A08AA25BCE
:10275000B394906E9B6A7C62D05C8543A072728653
:10276000813E997F909294969E6D8292929C7A700F
:1027700047588570828A74769E9E8160B36E7A6FA8
:1027800078838F39A17D6D9ECE80766F8D869286FF
:102790008A5E8B9BA39A737F446482A0738FA77F0A
:1027A00071AFA9747C808B6F7486844A7D83737249
:1027B000BF7B948B947A978E845E756D9A528775E1
:1027C0006E87BD9B797490688271948A9991A16992
:1027D0007378924E89815B6B927F668892837F7655
:1027E000A1967579735B72B59160AF9D797F906E9C
:1027F0008A728997898A99615B84A28881808739E6
:102800009174567771929D808DB25D8698768480A2
:1028100081785C8B7885977E72729E9476779F9490
:1028200049A0A2956895ACA95F937E5A788B937462
:1028300073A0868391AC7593AD618179858F329752
:10284000A47D83A5718578917A6193996C927B922E
:10285000959BD5916BB8A27B9197816164799853D0
:10286000A78E5F7D81A5897FAB9365A9988D7398AD
:10287000887D86B4835A8756857689948997967B16
:1028800087A2966F9C948374717A677E958C768903
:10289000938A848E8A8B658F8F80885E74826B8525
:1028A0008D6F6F758B93708F728494A38EB27E9BA5
:1028B0007C667D847682957581996983549FA28513
:1028C0009086848369906A9E808B7A999F8D7F70B1
:1028D000658F78977690998490849A956C9A698997
:1028E0008492615D7C8086977C9C7D8F7F7C8D8FC0
:1028F000958A7D8C7E737F8D709D8E889D688B926E
:102900006C9789899079909E6C8E6D7879A5857683
:102910007D7F907F898C83997F8B5C777F7C7881AA
:102920007386908D82867E887486A27598717E8962
:102930007689817F817D738483827E98839A79A151
:10294000887E808F77837D717976718271899175A8
:10295000A18194877F7C8382837F827C77897D823B
:102960007E7F7B8C7189897D818C78858B807A7C58
:102970007F7D7E7981767E8386897E8C8581838347
:102980007E80817E758B797F7B85808284867F883F
:102990007E86827E7F807E82877D7E8279857D8233
:1029A00080838180828480847F827D827F807E7F1D
:1029B0007E827F817E828182808083808080808011
:1029C0007F80808080800000808E3E3B5F3C4F5B3C
:1029D000A67B87A1EEF6A5BD889AB7593F605E2D0C
:1029E000533B3B4E4A54635F6F6C8B8282B0B6BAE6
:1029F000DADEF99EA2D6EDD6DFC9AEB26A9C836C50
:102A000054771E152611282C6228313947565D6EE1
:102A100067919DA28FB0A1B6C8D6C6CEB29FA9912C
:102A2000877481586551360F1A120A1D291E2F3ED0
:102A30004057585E69787AA2A2F3BAC3BED1C4BF28
:102A4000ACADA59F92826F58607A4C2227311A1C38
:102A50001F242C3A42535E657D8782A1B7BABEC05F
:102A6000DBC5BEB9BDB9B1A6A0918D6C6B5F493B0A
:102A7000172A3226292A3841475766657688928E6A
:102A8000A6B1BCDCF2D4E8E9C2BBB8B0A99C938A79
:102A9000786F3A443B2E251F2A2631354047536034
:102AA000617282888F9FA6B5B6C6DDDAE4D7BEBA5A
:102AB000B3AD9F968D7C6C5C5A4136302E27292B06
:102AC000343B4449555E6C707D869094A3B7B8B78B
:102AD000BDD6C2C8C7BAB2ACA1998B7C7B684C4C3E
:102AE000432F2C2D2D2C323B404A525A646A75825A
:102AF0008F949DA8B8BAB7BBD1BFBCB8B7ADA89CDE
:102B000090857A7157474A423B323534373A4348C9
:102B1000535A626E747A859495A6ABA5B5B6B7C4C0
:102B2000BEBAB9B8B3AB9E8F8D7C6E645B4F484D17
:102B3000433B3B393E444953586469727C83888FD8
:102B400097A2ABB2B5BABDC5BCB8BBB6ADA39B9698
:102B50008C7E6F6A5D594B4740413F42424950531A
:102B60005D6770767B828E939BA0A8B2B8B5C2BE1B
:102B7000C0B6B6B2AEA5A09490817369665E584C9B
:102B80005147434446474E545C646C747C878A9139
:102B90009BA1A5A8B0B0BBBCB9B9B3B4B2AAA09B65
:102BA000938984776C645F554B4B474F48494D542C
:102BB0005B606870747C848C93989CA1ACAAAFB263
:102BC000B3B5B5B5B3AFAA9E9C958F867B7168648B
:102BD0005D51554E4C4D4E5056595F646C747D801E
:102BE0008A8F91989AA0A6ABACB0B4AEB0B0AAA8A8
:102BF000A59C99908A827B716F65605A5758535291
:102C00005353555A62686E747A7F868C929499A257
:102C1000A4A5ABA8ABADACABAAA9A5A19893898894
:102C200080776F6765605B5856565655585B61668E
:102C30006B71777B82888C94989B9DA1A6A7A8A88E
:102C4000A8A9A7A3A4A09D97908B857E7A74686499
:102C5000655C5D59585754585C61676C70757A842F
:102C600086889094999B9FA0A2A6A6A5A4A4A3A0A1
:102C70009E9996918B867F7A76726B6C68616260A2
:102C80005F61606266686D7076787D81878B8E90FB
:102C900093979899989C9E9D9E9C9A989895918CB4
:102CA0008886827C7976706D69686969666768680C
:102CB0006B6C6F72777B7D8186888B8D8E90919403
:102CC000959494959493939492908E8C8985828018
:102CD0007C7A7774706F6F6E6E6D6D6D70717275DA
:102CE000787B7D7F818386868B8B8C8D8E8F8F907A
:102CF0008F8E8E8E8D8D8C8B888684817F7D7A7869
:102D0000767674747474757474747576787A7C7D60
:102D10007E80828385868888888A898A898A8A894A
:102D2000898988888786848382807E7E7D7C7B7A81
:102D3000797A78797979797A7A7B7C7D7E7F8081DE
:102D40008182838383848484858585858585848445
:102D50008484838382818180807F7E7E7E7E7D7D70
:102D60007D7D7D7D7D7D7D7E7E7F7F7F808080817E
:102D70008181818181818181818181818181818143
:102D80008181808080808080808080808080808041
:102D900080808080807AA4797B312265FAF6983C25
:102DA000316F3AA7F37E67448A6B71798760938AA3
:102DB000726E735A7D55355BA5F68F5B5946613649
:102DC00081F16667A7715A83939575516F70235E81
:102DD000C4679EA8702C78388AE26C6B3D6393526E
:102DE00036810D65FAB8528C51B338515093C66292
:102DF0008D122E38BDFEA824424F3590FDC0590AD1
:102E00008CA7354DA3CAA4491D62A577125B5459FE
:102E100062D1C03D49198EEDA6DB87614A1698B490
:102E2000544F126C91B26429929EC6855C5D8349B1
:102E30003A838E9E46525BBC9C885136AFAC40A50F
:102E4000590F47DBAE567F9F43547997FA91602C18
:102E50004B84804A85B86B8AD1948A3E877818451E
:102E6000C0CC701D7A568086AC85917A556C976F70
:102E7000485258C8A36A3478C4C4822E67BB9C38B1
:102E80006E74B47463768E8C6E66A2AF803E68B743
:102E90008F3D9AAF8E33A0977B47767EB06E90AA17
:102EA00099957F3135A5AC669E9F7673628C585E8E
:102EB0007C8F6DE79234689DAC9964597F8F936ED7
:102EC0009982577F6B8BB6757E767E7A7284807915
:102ED0008393797B73AA794E82757A809E84718EF2
:102EE000879A7A65667865639AB2936C7D7D8E8CDD
:102EF0006D7A8989845D75A3877C5D7E91A26A7BEA
:102F000064928A7B869B8582738B8782628A9866AD
:102F100078817E997F787D8885888A93848A867C6B
:102F2000647B87897D8992958A7A73747D8888937A
:102F3000797E888F90836E8478828EAA7F70727873
:102F4000888F888C886E79988D9573738189909C11
:102F50007C718486927F7C837F888785897B7B9246
:102F6000908E81757F778A96817C837E8196818021
:102F700079747F92918481869588827B8284797E20
:102F80008E898280858C7F7C7E7D88887C7B8B8A05
:102F900089818B83707C8A84817D898B7D7D877A12
:102FA0007E87878484848086857E7F817F818384F9
:102FB0007A7E85857D7C878885817E8382828280FA
:102FC0008182828280808382818180807F808183F0
:102FD000828081808281818281817F8181807F80E6
:102FE00080818080818181818180808080818080DA
:102FF0008080808080800000809575558DB9702B11
:1030000085DA740A7DFB80026DED8F0F65DF941900
:103010005ED3A31F58CDA4354AC6B13747B7B74AC8
:103020003EA7BF5D30A4C15E3F91C3713589C775AE
:103030003B7EBC8B3B6AC4943F61BAA64B4BB4B891
:10304000533EA3C160379CC067438ABF774285BCAB
:103050007B447CB9834776B58E486FB48E506EAA98
:1030600091586BA3955F679B9A626699966A6A907E
:103070009171708791766F898F7872868B7A73845D
:103080008C7C74818A7F7681887F797D8783797E45
:1030900085827C7E84817F80828100008081706C4B
:1030A00056729D7C9FCE9F79605D2E29A7ACA4B2FD
:1030B000E3B2A57426084F7C8594BAFFE6A3602787
:1030C00008123B557DF1F8F3C98053040626345CA1
:1030D000ACF3F7E5A54C0D08071D428EEEF7F2C2E2
:1030E0007B30060B092167A4F7F4EEA05C310D09D3
:1030F000113A86D8F6F1C28B49230C0C1D5BA3F262
:10310000EDE3A27A4F100D11437EAFE6ECB79D6858
:10311000481513295F94B2DBD4A9966C3422285049
:103120006E92ACB6B9A67F613C34475D7F8CA6AE8B
:10313000B09975574C4B5A637D8E9FAF9A8B7261D5
:10314000585C606B76919CA0947F766E685E616C33
:103150007E8F99908F837E746866627281888F8D6E
:10316000898C817867676B747F81888E8F8C82767B
:103170006D6973747B808690928B7F7473717074A9
:1031800075828A918E87807875736F7279838F8E3E
:103190008D82817D76716E747F868C8C8988807D2E
:1031A0007270707881888A8B89888278736F767B59
:1031B0008386898C8C8680757374777E8088898DF0
:1031C0008B837C767478797E81878D8B89807B79FF
:1031D00079797B7D84878A8883807D7C7A7B7B7FFD
:1031E0008487868681817F7D7C7B7E8183848483C6
:1031F0008280807D7D7D7F818282828282807F7ECF
:103200007E7F80818181828281807F7F7F808080BC
:1032100081818181818080808080808080818080A8
:10322000808080808080000080808181818080809B
:1032300081808080807F807F828181828080807F8A
:103240008181817B827F7F7E83807F80827D817F81
:103250007D837C7E7E807C7C807D81858279827A84
:10326000877E787F7B758981778A7A7D87818E7169
:103270008C7970946B8E876C9769897C728D8E7255
:10328000828A717E7F96767F6E8F73897C827A7E4A
:1032900079787C7B7881757F858A8282688587775B
:1032A0009481778E7E7E808F758477808A807A86FF
:1032B0007E8A8E7C9C6A70968476BD65767F6A96DF
:1032C000757683718C80837367AB67927494686F33
:1032D0007CA34B7F90947C7665AA7C8F85858180CA
:1032E0007D8F987462998C64736FA05D6F9D9D8AC9
:1032F000A8619E71749D8FB86384B7469B85766F75
:103300006D64586F867DA34F86703CAE807B907451
:10331000A67293841F903978A679727F4DAB763070
:10332000BF3E938F9F698684D0545ADD589D9C433D
:1033300063B353B18B966B67B54E7AA26AD6877A20
:10334000587BB34F8FB237A973849F4285E058AF43
:103350005FA27C39B1787D978C46E05FF6623C8253
:103360006E589666764586766C986A465B906AD506
:103370008A585996AAB35590605A6A7CB154A86E7F
:10338000919445B74B7E897F715A4EAE495CC157C7
:1033900083A161929E7C8B9D569E785D5069689852
:1033A00051B129A4B28F5B808F6F387E896A727B9E
:1033B000848F6B98819F89584F72B13DA874804C5F
:1033C0007B95AB53A0A0738C6571909A93866187AF
:1033D0007886717970B54D9F7C9B49A89B897087D1
:1033E0005F989E648F847B809675747F8D66719ED6
:1033F0007979916864708A7B8584787D7E7F76791F
:1034000077875D817880857F767F80838385747FF1
:103410008C78827A847A8080807F7B827D7C7A88B7
:103420007982827F787B857E7A7D847B827D817BB9
:10343000857D7E7F827D7F817F7F7C7E7E817D7F9B
:103440007987807B827B807E7D7D8079827B7B7E9D
:103450007D807B7E7C7F7A817B7D817D7E7C817E91
:10346000807E827B807F7F807F817F7F807F7E8266
:103470007D807F817D807E7F80817F7F817D818057
:10348000807E7F7F7F7F7F7E807E7D7F7D807E7D53
:103490007F807D7E7F7F7D7F7E7E7F7E7E7F7F7E45
:1034A0007E7E7F7F7F7F7F7F7E80807E80807F7F2C
:1034B0007F817F7F807F80807F80807F80817F7F12
:1034C000807F7F807F807F80807E7F7F7F7F7F7F08
:1034D0007E7F7F7F807F7F7F7F807F807F7F7F7FFA
:1034E0007F80807F7F7F7F807F808080807F8080E3
:1034F0007F80807F7F80807F807F808080807F80D2
:1035000080807F7F807F80808080808080808080BE
:1035100080808080808080808080808080808080AB
:103520008080808080808080808080802300000078
:103530000038014018000000FFFFFFFF00000000FE
:103540000000000012000000003801400B000000E5
:10355000FFFFFFFF00000000000000002600000049
:103560000038014018000000FFFFFFFF00000000CE
:103570000000000025000000003801400B000000A2
:10358000FFFFFFFF0000000000000000010000003E
:1035900000000000060000000C0000000D0000000C
:1035A0000F000000100000000E00000001000000ED
:1035B00002000000100000001100000012000000D6
:1035C00013000000140000001500000016000000A9
:1035D0001700000020000000210000002200000071
:1035E0002300000024000000250000002600000049
:1035F000270000000000000000000000220500007D
:1036000056050000180500001C0500001E050000FE
:103610003A0500001E050000160C0000460C0000D4
:103620001A0800001A080000700700007007000068
:1036300070070000700700007007000070070000AE
:1036400070070000140800001408000014080000AF
:10365000A007000086130000B4130000B813000098
:10366000C2130000CA130000CE130000D8130000DC
:10367000E0130000E8130000EC130000F813000052
:1036800004140000101400001414000020140000A2
:103690002C140000381400003C14000042140000F8
:1036A000461400004E140000521400005A1400008A
:1036B0005E140000661400006A1400007614000016
:1036C00001000000020000000400000008000000EB
:1036D00010000000200000004000000080000000FA
:1036E0002D7F954C2DF45158000000000000000083
:1036F00000000000000000000000000000000000CA
:1037000000000000000000000000000000000000B9
:1037100000000000000000000000000000000000A9
:103720000000000000000000000000000000000099
:103730000000000000000000000000000000000089
:08374000000000000000000081
:0C374800E61C0000FC040000500600001D
:043754000C05000060
:103758001400000000000000140000000000000039
:103768001400000000000000140000000000000029
:103778001400000000000000140000000000000019
:103788001400000000000000140000000000000009
:103798000204060804080C100810182010203040F5
:1037A80020406080010203040506070801020304A3
:1037B80005060708000000000000000000000000E7
:1037C800000000000000000000000000FFFFFFFFF5
:1037D800FFFFFFFFFFFFFFFFFFFFFFFF00000000ED
:1037E8000100000000000000083700002837000032
:1037F800E8360000000000000000000000000000A3
:1038080000000000000000000000000000000000B0
:1038180000000000000000000000000000000000A0
:103828000000000000000000000000000000000090
:103838000000000000000000000000000000000080
:103848000000000000000000B4020020006CDC0250
:10385800940000200004080C04004000000400004C
:103868000100100000010010020408100201040306
:00000001FF
