:100000006F10204800000000CC0E0000D00E000051
:1000100000000000000000000000000000000000E0
:1000200000000000000000000000000000000000D0
:100030001A0C000000000000521400000000000034
:100040005414000056140000581400005A14000004
:10005000B80C00005E140000601400006214000080
:100060006414000066140000681400006A140000A4
:100070006C1400006E140000701400007214000074
:10008000741400007614000078140000220A0000A6
:100090007C140000BC0A0000CA0A00000000000036
:1000A000511126C022C206C4828282441244A24058
:1000B000310182802A86014593F6150091C232955E
:1000C00085810606F5F9828000000000634E050276
:1000D00063C305042E86AA857D5515C285466378BF
:1000E000B6006356C00006068606E36CB6FE014500
:1000F00063E4C500918D558D85820582F5FA828075
:100100008682C93F2E8582823305A04063D70500D1
:10011000B305B040C1B7B305B0408682653F330533
:10012000A0408282868263C70500634905005D376F
:100130002E858282B305B040E35B05FE3305A04007
:10014000513F3305B04082820000EFF27FF51C4141
:100150008297A1BF85476307F60089476306F600CB
:10016000014582800CC1EDBF9C411CC1D5BFEFF29F
:100170003FF371112A84370500802EC0EF00502014
:10018000EF20E04A8247AA84A2853E85EF20600CDA
:10019000AA852685EF10F062B727000083A5877F28
:1001A000EF103062A285EF1010291101FDBDEFF2B2
:1001B0003FEF611113850187CD2E03C7818426C0CF
:1001C0001DCFB726000003A6867E93848184138406
:1001D000418FB726000003A5C67EB28532C2413FDB
:1001E00008C0138741A811041246E31487FE238038
:1001F00004008247138501871D2321017DB51385E6
:10020000818318211386418F83A4018493051700ED
:1002100093F5F50F0CA10A07370500803297258D5D
:1002200008C3370700200347870F1384018493878F
:10023000818363E4E500238007009823930517007A
:100240000A073A9618428CA323A8E1829387418338
:100250008C433A853AC2EF10101E372600008325E2
:10026000067FEF10105612479387418323A2A18483
:1002700098C3AA852685EF10D07D83A5C183EF1092
:100280005054AA852685EF10D07C08C02AC203A549
:10029000C184EF20C0399245EF10B052B72700005B
:1002A00083A5477FEF103019EF200033B7370140A7
:1002B00023AAA7C23DBFB7170240944F0567130694
:1002C0000782D18E94CFB716014003A606401307CC
:1002D0000780419A23A0C64003A6064013669601F4
:1002E00023A0C640D4470D66558FD8C7D847FD76A2
:1002F0009386F67F758FD8C737370140231407C21E
:100300009306F00F2316D7C2835647C193E6160013
:10031000231AD7C0835607C293E6C6002310D7C25C
:10032000835607C2D18E2310D7C2835687C1216658
:1003300093E60606231CD7C093060008232AD7C2DB
:10034000835647C4D18E2312D7C4835707C093E77F
:1003500017002310F7C08280EFF29FD44111A13F14
:10036000AD650946938545C4138501879121B7077B
:1003700000009387E71A3EC0B70700009387A714D1
:100380003EC6B7070000938747158A851385018706
:100390003EC4EF008061A24789C78A850D462E853D
:1003A000829713850187A52E410101B3EFF25FCF3C
:1003B00005479305400611452384E184EF00007E44
:1003C000B7070020238CA70E9305F0071305200321
:1003D000EF00C07C23A6A184B727000083A5877EF9
:1003E000B727000003A5C77F593323AEA1821305A9
:1003F000600AEF10C04A55B9EFF29FCAB705004036
:1004000013850187012B55B1EFF29FC91385018731
:10041000152161B90145828082807D558280EFF28D
:100420003FC81C417111CC81DC4393053100054666
:10043000829711019DB9EFF2BFC67111930531008A
:100440004105EF10804001E588811101B9B97D5562
:10045000EDBFEFF2FFC42E85B285EF10C02EB1B113
:1004600013F7F50FC54763EDE7008D67938707889E
:100470000A073E9793F705700C43CD8F5CD58280B9
:1004800093F6050C1306000CFD57E399C6FE930680
:10049000700CE3E5E6FE93F7F5030D671307078697
:1004A0008A07BA979C430D67130707888A07BA978C
:1004B00093F505709C43D1B713F7F50FC54763ED6E
:1004C000E7008D67938707880A073E9793F70570C3
:1004D0000C43CD8F1CD5828093F6050C1306000CBF
:1004E000FD57E399C6FE9306700CE3E5E6FE93F72D
:1004F000F5030D67130707868A07BA979C430D67B4
:10050000130707888A07BA9793F505709C43D1B7FC
:10051000EFF21FB99307803E1CC58D679387078D47
:100520001CC10CC9232205009305600C2A840D3FD1
:100530009305500C2285493758541C546314F70016
:10054000FD575CD4FD571CD85CD885B6EFF25FB57B
:10055000B745014093850580138541A8553FB1B645
:10056000EFF21FB41C452A8481CB0D46AA858297E1
:100570002324040023260400228505BEEFF25FB287
:1005800031110A8502C002C202C402C602C8EF00CD
:1005900050141245510111BE1C4599C7EFF25FB0CE
:1005A000AA850D46829711B68280EFF27FAF2A842A
:1005B000084D0146FD45EF00B025084C8145EF0090
:1005C000B023E5B4FD152E951C2199CB89477D55A7
:1005D00063E7B700860593874181BE958A218280B3
:1005E0008D477D55E3EDB7FE86059387C181F5B74D
:1005F0009387F5FF0D47636EF700EFF27FAA511165
:100600003EC02A84AE847D3F7D5782476314E50057
:1006100001A001A0920493844403A29494441387FC
:1006200001813E97182385C693864182BE96942207
:10063000084C3AC4B6853EC236C0EF0070248246EC
:10064000084C0546B685EF00B01C224792479396AA
:100650002700A296D44231466369D60A0D668A06FF
:100660001306468FB2969442084C8286A2979C232A
:1006700093150701C18199CF1146EF00701E084CF8
:10068000216783574504D98F2312F5048545EF0070
:10069000B016A5A80546EF00B01AD5B70546BA852D
:1006A0003EC0EF00F019824713878182BA97838793
:1006B00007002285BE853EC0313793150501084CE1
:1006C0000546C181EF00D017084CA1668545035748
:1006D0004504558F2312E504EF001012984415C706
:1006E00082470D47084CFD17FD546366F70093855C
:1006F0004182BE958421C204C180A685EF005018B6
:10070000084C0546A685EF00B01031016FF0FF9947
:100710000546BA8549B71E21858BE5FB85BFEFF2FB
:100720003F985C5D2A8491CF084D8545EF005015B8
:10073000084C85450546EF00B00D084C8545EF0097
:10074000B00B228585456D35228589455535228535
:100750008D45793D91452285613D6FF01F95EFF202
:100760003F94084D8545EF00D00B6FF01F941C4D52
:100770008A2305898280EFF2BF922A84CD3F05E566
:10078000084C5E25858B95C301468545EF005008D2
:100790002285F137084C8545EF00900E084C054640
:1007A0008545EF00F0066FF05F9022854D3FE5BF75
:1007B000EFF21F8F8547AA842E846301F6028947D2
:1007C0006304F604814719C09307F4FF8C4CC207F9
:1007D000C183DEB5268545376FF03F8D4533B7457C
:1007E0000F0093850524EFF0FF8EA285EFF09F8C1C
:1007F000935505019C4C1397050141839AB78505D4
:10080000EFF05F8D2A847DBF953BA285EFF09F8C32
:10081000C5B7B7370140938707C06308F500B7072E
:1008200000406316F50005458280014582804165E0
:100830007D158280EFF2DF862A84084DD93FAA8495
:1008400013058401EF0010508A0413850185269555
:10085000232A0400930444082320050013044403BE
:1008600063868400C1142685053BDDBF6FF0FF83DE
:10087000EFF21F8371112A84C1642E852EC0FD14EE
:10088000493F82456313950001A01C4C91C301A010
:1008900093172500138501853E95930744011CC1DC
:1008A000930700085CD4930700041CD80CCC1305F4
:1008B000840140C8232E04002320040223120402D2
:1008C000EF00F0441305440361391305440449392A
:1008D00013054405713113054406593113054407C6
:1008E0004131084C23200400232204002324040067
:1008F0002326040023280400232E040004D0854569
:10090000EF006072084C9305C401EF00006A11010A
:100910006FF0AFF9EFF2CFF8232E0502232605047E
:10092000232E050423260506232E0506232C050069
:100930008137B7E700E0214723A2E7101307000241
:1009400023A2E7101307000423A2E7106FF0EFF5CE
:10095000232405009C4589CFEFF28FF409462A84B1
:10096000AE848297DC445CC49C441CC46FF0EFF3FB
:100970008280EFF2EFF221112A842800D13FB247A2
:1009800014402247280036C454405CC0C24718C0F7
:1009900018441CC4D2473AC858445CC436C63ACA44
:1009A000E53E228561016FF04FF0EFF26FEF2A8490
:1009B0005C5C1305450381C76D3F6FF00FEFAE849C
:1009C0004D3F9C44FDDB084C8545EF00606B084CB7
:1009D00005468545352DD5B7EFF28FEC184519E35F
:1009E000EF00F06D5C4582976FF02FEC11E101A0F4
:1009F000EFF20FEB2A8408418545492D0DC11C40BB
:100A0000DE27858B89CF2285EF00303008415C5D81
:100A100081C713054503C9370840854561256FF037
:100A2000CFE803A5018519C11105C937730020302E
:100A300011E101A01C41DA27098B11EBDA27118B98
:100A400019E7DA27218B01E7DA27418B3DC7EFF25F
:100A50002FE52A8489453E85152D1C4015C1894501
:100A60003E85892585442285EF00302A084192047D
:100A70009384440326951C4591C3B93F6FF0EFE280
:100A80003E85914521251C4011C591453E85192D76
:100A90008944D1BF3E85A145D52B1C4011C5A14538
:100AA0003E8509258D44C1B7C1453E85C52345DD39
:100AB0000840C1459144FD237DB7828003A501858F
:100AC00019C11105B53773002030711122C013848C
:100AD0000185484011C51105113F48401105893F66
:100AE0000244110173002030EFF28FDB2A84EF0003
:100AF000505A48C41C402285DC4B8297635A05003B
:100B0000EF0030595C441D8D1C44E365F5FE7D55B6
:100B10006FF0AFD9EFF2CFD86111AA8401442EC291
:100B200032C0630DC4002685C13763490500924574
:100B30000246B387850088A30504D5B72285210125
:100B40006FF0AFD6EFF2CFD55111014495C6B68400
:100B5000AA8701443E8532C42EC23EC07137634D20
:100B600005009245630AB500224682473307860096
:100B700008A30504E39084FE228531016FF0EFD2D3
:100B800009CDEFF2EFD171112AC0EF00106E82454E
:100B9000EFF04FD911016FF04FD18280EFF24FD0BB
:100BA0002A846356B5003385A540D93F2A9422850F
:100BB0006FF0AFCFEFF2CFCEE1206FF00FCFEFF2BB
:100BC0002FCE85476301F50219C589476303F502F6
:100BD00001456FF08FCD11458545512E37150140E8
:100BE00013050580FDB74145854551263715014060
:100BF000CDB71305000285459D2E3715014013051D
:100C00000540C1BF03A5818583A5C18582808280FF
:100C1000EFF20FC9C53F6FF04FC99387818503A3DA
:100C2000070083A34700130713003335670098C3F9
:100C3000B3067500D4C3E13FB7F700E023A2070075
:100C400073002030EFF2CFC537F400E02322040018
:100C5000232004002324040003A581809305803E03
:100C6000EFF04FC77D1508C8BD471CC07D57B7E7DB
:100C700000E02386E740056723A0E7106FF0EFC28E
:100C8000EFF20FC2C1376FF04FC2814705476307CC
:100C9000E5008507058193F7F70FD5BF37070020DB
:100CA0008E0713070700BA97DC4391C7EFF24FBFD7
:100CB00082976FF08FBF8280611122C226C00544E7
:100CC000A1442285992019C52285B928131504014C
:100CD0004181653FFD140604EDF412448244210174
:100CE00073002030138741801C439386C1B53E9525
:100CF0006369D500938681D463E5A60008C33E8569
:100D00008280FD57EDBF82808280B7070140138744
:100D1000074083A70740584B698F09C77D8D33353E
:100D2000A000828001458280B707014023AAA74026
:100D300082809C45611122C226C013F7070113F37C
:100D4000F70001C7D8413363E30092211377F60F10
:100D500029C78323050001471304800293048004FC
:100D60008546B395E600B376B6006392D50293123A
:100D70002700BD46B396560093C6F6FFB3F3760040
:100D8000B3125300B3E37200639787064CC905079B
:100D9000A146E317D7FC232075001307F00F6378F3
:100DA000C70483234500A1461304800293048004F2
:100DB0000547B312D700337756006394E2021397C6
:100DC00026000117BD45B395E50093C5F5FFB3F3C4
:100DD00075003317E300B363770063928702232A19
:100DE000550085064147E395E6FC23227500124431
:100DF000824421018280E39C97F80CC949BFE392A9
:100E000097FE23285500F1BF370301400327430015
:100E10009317350063D00702B707C0FFF517F98FA6
:100E200037070007D98FD9CD370700F07D17798DA7
:100E3000C98F49A8635D0500B707E0FFED17F98F7B
:100E400037070007D98FBDCD06050581D5B7B70790
:100E50003000931605013376F500C1826313F60264
:100E6000370600F97D16B377C70003274300798E54
:100E70002322C300A1C95581131745003395E6000D
:100E800045BF9317B50063D407029357050113F6C6
:100E9000F7008D47B397C70093C7F7FFF98F370760
:100EA0000007D98F85C1135755011207C1BF55815E
:100EB00012053395A6009347F5FFF98F3707000712
:100EC000D98FBDF5370701405CC3828073002030A5
:100ED00001A0EFF2EF9C371702405C4391462A8451
:100EE000B18B6385D700A146638DD706B7376E01F6
:100EF000938707601CC0B7160240DC42918313F74A
:100F0000F700B707002093874705BA978C23DC4288
:100F1000184093F5F50F93F707083355B70081E7AD
:100F20003A85EFF02F9B48C008C448C4B717024069
:100F3000DC43AD83FD8B13D737008A07F18BD98F44
:100F400093F637010D476373D700D1173707002099
:100F500013070704BA978C23EFF0CF9708C86FF0F8
:100F6000CF945C43B777DC02938707C061B799C51C
:100F7000371702401C4F5D8D08CF8280B7170240A3
:100F8000984F1345F5FF798D88CF828099C5371723
:100F900002405C4F5D8D48CF8280B7170240D84F2A
:100FA0001345F5FF798DC8CF82801E213737014068
:100FB000130707C0C207C1836306E5003707004077
:100FC0006316E500BA2193F7F7F8D98FFA2193F762
:100FD000F7CFC207C183D98F1EA1DE215EB59E2146
:100FE0001EB5B7370140938707C06314F5009C25F1
:100FF0001EB985475EA982801E2189C593E7170027
:101000001EA18280C207C183F99BC207C183CDBFE5
:101010005E2501C6DD8D4EA5828093C5F5FFFD8D51
:10102000DDBF4EA982801E2189C593E707081EA156
:101030008280C207C18393F7F7F7C207C183C5BF98
:101040001A318547B397B70093C7F7FFF98F1EB1E1
:101050001E31B315B600DD8DC205C1810EB182808F
:101060001A319147B397B70093C7F7FFF98F1EB1B5
:101070001E31B315B600DD8DC205C1810EB182806F
:1010800093C5F5FFC205C1810EA982801E294A259C
:10109000ED8F4205418189C76D8D3335A000828077
:1010A0000145828093C5F5FFC205C1810EA98280EA
:1010B000EFE21FFF1629F577FD17F58FF621DA25E8
:1010C0002111D58F1EA95625FD779387379FF58F60
:1010D000D6212A842EC0D58F9625D58FB625D58FBB
:1010E0005EA55E29C207C18393F7F7CF5D8F5AA92A
:1010F0004800C533B7470140938707808245631294
:10110000F406C2475A24139517003E9542070E0570
:1011100041873E958C41635807048605EFE09FFBAD
:10112000930540062AC0EFE0FFFA8247931445007A
:10113000930540063E85EFE0BFFC5E24C207C187F1
:1011400063D507020E059305400613052503EFE05E
:101150007FF81D89C98CC204C18006A461016FE0BB
:10116000DFF4B24745B78A0555BF1205930540061F
:1011700013052503EFE01FF63D89E9BF91C55E2504
:101180000967D98F5EA582805A25F977FD17F98FF7
:10119000D5BF93F5F51F4EA182804A211375F51F27
:1011A00082805E2989C593E787005EA98280C20795
:1011B000C183DD9BC207C183CDBF0A216D8D33354D
:1011C000A0008280B71702409843B706FFFC136760
:1011D000170098C3D843758FD8C39843B706F7FE56
:1011E000FD16758F98C39843B706FCFFFD16758FE3
:1011F00098C3D44341777D17F98ED4C3B7069F00B7
:1012000094C7B72602409042719A90C290421366EA
:10121000160090C2D443D4C3D443758FD8C3D843E7
:10122000B7060001D8C39843558F98C398439316C7
:101230006700E3DD06FED843B7160240719BD8C3B2
:10124000D84313672700D8C32147DC42B18BE39E04
:10125000E7FE8280EFE2DFE4311102C402C602C879
:10126000FD576313F50001A093D7854093F4F7076A
:101270009377F500139727008D6793874799BA975F
:101280009C4311813D892E843EC0EFF05F932AC2BA
:1012900085C485450545E1399387F4FF6947636D4A
:1012A000F7000D678A0713078792BA979C438287D6
:1012B00085450545EFF05FB593572440137734001B
:1012C0008D8B7DC73AC609476380E70E0D47638F54
:1012D000E70C05476388E70CC1473EC8EDA0814590
:1012E000C9BF8545370500100905E9B785453705AC
:1012F0004010DDBF8145E5BF8545370500801105FC
:1013000055BF85453705208075B785453705208051
:10131000FDB78145E5BF3705160085451305050472
:1013200051BF8545370516001305050861B785458A
:10133000370516001305050CB5BF8145D5BF370528
:101340001800854513050510B5B737051800854504
:101350001305052085B785453705180013050530A9
:1013600091BF8145D5BF85452165A9B78145EDBFB1
:101370008545370520008DBF8145E5BF854537058B
:101380002000B5BF8145E5BF85453705200069BF11
:101390008145E5BF8545370530001305054019BF78
:1013A0008145D5BFD14715BFE14705BFF14735B7E7
:1013B00005476383E70299C789466381D70293078C
:1013C000800221BF02C8824712452C007C84EFF0C6
:1013D0005F9651016FE07FCD914701B711840D8871
:1013E00093078004E31DE4FCCDBDFD577D57631CCE
:1013F000F50082806398A700EFE29FCA8C45993D73
:101400006FE0BFCAB1059C41E396E7FE01A07D579E
:101410009C416394E700014582806394A700C84122
:101420008280B105F5B7FD576307F500EFE25FC7AE
:10143000F93F6FE09FC7014582806305B50019C180
:1014400081E5AA852E8582808145EDBF01A001A09E
:1014500001A001A001A001A001A001A001A001A084
:1014600001A001A001A001A001A001A001A001A074
:1014700001A001A001A001A001A001A001A001A064
:1014800001A097F1FF1F93816147138181F0171528
:1014900000001305256E97F5FF1F9385A5B61386EB
:1014A000018363FAC5008322050023A055001105BE
:1014B0009105E3EAC5FE138501839385C1B5637782
:1014C000B500232005001105E36DB5FE9302000869
:1014D000739002308D427390428097F2FFFF9382A7
:1014E00062B293E232007390523017050000130588
:1014F000253FC5260D21EFF0FFCC97020000938217
:101500006238739012347300203071158280EFE2DC
:101510003FB91841B7370140938707C02A84631841
:10152000F7000565854513050580EFF05FA41840B9
:10153000B70700406316F70085450545EFF01FA586
:101540006FE0BFB6EFE2DFB51841B73701409387D0
:1015500007C02A846318F7000565814513050580D7
:10156000EFF0FFA01840B70700406316F700814571
:101570000545EFF0BFA16FE05FB3EFE27FB213016B
:10158000C1FDAA84084D32C60D662EC4930586841B
:101590003ACA36C8493D2AD0C84C8D669385068321
:1015A00059352A8488508D6593858581AD3D2AC043
:1015B000C8508D6593850580BD3502570D668D66D3
:1015C0002AC232CC36CE6304070ED04CFD566304DB
:1015D000D600630E040C9050FD566305D60082477A
:1015E0006387070CD050FD566305D6009247638091
:1015F000070C3A85A2859135824588C03D3D9245CC
:1016000088C0253D88C045C537470140130707807E
:10161000631BE50085451165EFF07F951307000218
:101620002386040298D4E247884C93858784753BCF
:1016300011C4F247C84C93850783453B82478146D6
:1016400081CB88508D659385858145339306001045
:10165000924791CBC8508D6593E60620938505800F
:1016600036C061338246A24703C7C40288409CC487
:10167000B24713162700DEA4D2471387018632979C
:10168000FEA4C2471386440010C33147C8C09EA8B9
:10169000BAA8D6A801E48545EFF0BFB0C84093854D
:1016A0008400EFF0FFA0C8408545EFF03FAD130187
:1016B00041026FE09F9FEFE2BF9E8D6783A7478740
:1016C0000D67130707888A07BA9780438D6593854E
:1016D00085842285EFF03FD519CD37050020F165CF
:1016E000930745060147814601469385052013056A
:1016F000450680CF59356FE05F9BEFE27F9A8347C5
:10170000C502930500021397270093870186BA97B5
:101710009C438843EFF07FAA133515006FE0FF98D4
:10172000EFE21F988347C502930500041397270033
:1017300093870186BA979C438843EFF01FA813351F
:1017400015006FE09F96EFE2BF954111370400202E
:10175000AA842EC2EFF00FCB9307440683C7C702BB
:101760002AC41304440685E70347C402938701860D
:101770000A07BA979C43F1173EC0938701863EC67D
:101780008247D9EB02C2124541016FE01F928D677B
:1017900083A747870D67130707888A07BA979C4373
:1017A0008D66938586843E853EC0EFF0DFC78D66EB
:1017B00071D923060402138701861C4391EF8347E6
:1017C000C402850793F7F70F2306F402FDD7E5352A
:1017D0008347C402D1DB7DB7024593858684EFF051
:1017E0009FC40346C4021387018693172600BA9745
:1017F0009C438D669C43E394A7FC3DD6C9BFEFF0A4
:101800006FC0A247B307F5403335F500E39CA5F65A
:101810001307703EE368F7F6024519376DF19247FA
:10182000A6973EC4A247E380F4F60245D53D75FD78
:101830008347C402324785048A07BA979C4383C50D
:10184000F4FF8843EFF0FF94F1BF11E57D558280EE
:101850007D556FE09F85EFE2BF84AA842E84713DA1
:1018600065F983C7C4021397270093870186BA9747
:101870009C438843EFF07F9208A00145D9BF828046
:10188000EFE21F82EFF00FB3EFE01FADEFE01FB20A
:10189000F5BFEFE2FF80EFF0AFB76FE01F8119CD2A
:1018A000EFE21F802A84EFF0AFB6AA84C93FEFF0C1
:1018B0002FB6058DE36C85FE6FE02FFF82805111FE
:1018C00006C409205111194506C4712C0545EF00C5
:1018D0007071AA85814601460145D9A45111971717
:1018E00000009387E72822C21714000013048428FD
:1018F0001D8C26C006C40984BE8419E41244A2408B
:10190000824431016FF02FC07D1493172400A697F5
:101910009C438297DDB7511122C29717000093872D
:101920006724171400001304E4231D8C26C006C48A
:101930000984814463968402EFF00FBD971700007D
:101940009387472217140000130484221D8C0984F6
:10195000814463928402A240124482443101828015
:10196000139724003E9718438504029797170000A9
:101970009387471FC1B7139724003E9718438504E8
:101980000297971700009387E71DE1B79387C180FF
:10199000AA85884309A0411126C293843500F19895
:1019A00006C622C4A104B14763F5F404B14463E45C
:1019B000B4042AC0BD2C1387418614438247368461
:1019C00039E013878186184301EB3E8581453EC08F
:1019D000292223A4A18682473E85A6853EC0F528FC
:1019E0007D5782476314E506314798C33E859924A5
:1019F00029A0E3DE04FAB1471CC10145B2402244EC
:101A00009244410182801840058F634E07022D46A3
:101A10006376E60018C03A9404C031A0584063923F
:101A2000860223A2E1863E8531241305B400130704
:101A300044006199B307E540F1D33E94098F18C083
:101A400075BFD8C2CDB7A28640409DBF13043500F4
:101A50007198E30385FCB305A4403E853EC0B528DC
:101A60007D578247E31AE5FA41B751119387C18048
:101A700022C2804306C41C5C8DEB6145013FB73731
:101A8000CDAB08DC9387E7301CC1B7176DE69387B1
:101A900047235CC1B7E705009387C7EE1CC5AD4778
:101AA0005EA50547814718C95CC9005C971700000F
:101AB0009387C7F0904308484C48D443EF009043C5
:101AC0009307150033B5A7002E9548C81CC8A2403F
:101AD00012440605058131018280511122C22A84F7
:101AE0002E8523AC01B406C4EFF0CF9FFD576317DA
:101AF000F500938781B59C4391C31CC0A24012445A
:101B000031018280FD4763F6B700D9471CC17D557E
:101B100082807C41411122C406C62E862A8491C748
:101B200013972500BA97984319EB228532C0BD2040
:101B3000AA85228522440246B240410115A8854665
:101B400001456308D700FD566319D700D9471CC06B
:101B50000545B2402244410182802E8523A0070022
:101B600002970145FDB79387C180AA85884359BF75
:101B7000511122C22A842E85B28523AC01B406C439
:101B8000EF009045FD576317F500938781B59C439F
:101B900091C31CC0A2401244310182806F001043E7
:101BA0009387C1869C43AA8399EF1387C1AC23A670
:101BB000E18617E5FFFF1305E544BA8709C51C4117
:101BC00023AAF1B4BA87D8437D437D556346E30425
:101BD000638D030203A387086300030493122700A5
:101BE0009A9223A0C2000325031005463316E6008F
:101BF000518D2320A31023A0D20889466397D300D8
:101C000083264310558E2322C310930617000A071C
:101C1000D4C3BA978CC70145828097E7FFFF9387AB
:101C2000673E99C717050000130585CB6FF07FCA83
:101C3000828082808280370780007D174111337354
:101C4000A70013D675019312330022C413547501F3
:101C50001374F40F6D8F26C21376F60F9354F501AB
:101C600016C006C6FD819A87A28626859313370083
:101C7000B302C440638EB40E6352500C6308061462
:101C80009307F00F630DF414B7070004B3E3F300F8
:101C9000ED4763C8572893070002B3875740B397AF
:101CA000F300B3D25300B337F000B3E7F2000247BA
:101CB000B307F74013975700635F07183703000413
:101CC0007D13B3F767003E853EC0EF005029824781
:101CD0006D15B397A7006346851A018D050513039B
:101CE00000023303A3403393670033336000B3D75C
:101CF000A700B3E76700014413F7770019C713F78C
:101D0000F70091466303D700910713975700635874
:101D1000071405041307F00F26856300E4169A07DD
:101D2000A5839376F40FB2402244A607DE06A5836E
:101D30007E05DD8E9244558D410182806399020AB1
:101D4000130614001376E60F6318061463160422B4
:101D5000024663020620E38803FC0247B30777408C
:101D600013965700635A0622B387E340AE8469B7DF
:101D70006359500A49CE9307F00F6302F406B70780
:101D80000004B3E3F300ED4763C457209307000258
:101D9000B3875740B397F300B3D25300B337F00083
:101DA000B3E7F2000247BA97139757006355070A43
:101DB00005041307F00F6302E40CB706007E13D787
:101DC0001700FD16858B758FD98F3DB7638B030880
:101DD000FD12638702189307F00FE31BF4EA630D0B
:101DE000030801459306F00FB70740002DBFB30766
:101DF000864065EC824663850614FD176383071AE7
:101E00009306F00F631CD60EAE843A83C9BF638A73
:101E10000304FD12638302129307F00FE315F4F637
:101E20007DBF6398020805041376E40F631E061253
:101E3000639C06100246630B0616E38603EEB307A7
:101E4000760013975700014463570700370700FCDB
:101E50007D17F98F054413F77700E31207EA13D3D0
:101E600037009307F00FE30CF4F693179300A58364
:101E70009376F40F268545BD26859306F00F81479E
:101E80005DB5370300FC7D13B3F7670013F77700E8
:101E9000098CE31607E6E1B78247B38777401397CB
:101EA00057006342070EE39007E2014581468147F0
:101EB0009DBDB307864025E88246FDCAFD17F5CFD4
:101EC0009306F00FE303D6F46D476346F70E8246A0
:101ED000130700021D8F3397E600B3D7F6003337A0
:101EE000E000D98F9E973284C1B59306F00FE30DC1
:101EF000D6F0824637070004558F3AC06D47634BD2
:101F0000F7088246130700021D8F3397E600B3D708
:101F1000F6003337E000D98FB387F3403284AE84C4
:101F200051BB854769B39306F00FE300D6EE8246B6
:101F300037070004558F3AC041BF82479E97ADB521
:101F40003A833284AE8431BF93173300E38F07EABC
:101F5000E38703E879B5638303042E85BA87E1B389
:101F60008247B3877740B9B39307F00FE307F4F0E4
:101F700082479E978583C5B593173300F1FBE382B3
:101F800003E6AE8459B58247AE84B387F34025BBE0
:101F9000854709BD854749B7E39F07EA0145814762
:101FA00059B3B387D3403284AE8429B3BA87A5BB73
:101FB0003A8332847DB5854735B7B387760032845E
:101FC000E5B3011122CC1354750126CA06CE931431
:101FD00095001374F40FA5809356F5014DCC93072B
:101FE000F00F630CF40CB70700048E04DD8C1304AF
:101FF00014F88147014613D57501139795001375A1
:10200000F50F2583FD814DC51303F00F630D6502A8
:102010000E07130515F837030004336767002A9489
:1020200081431305140033C3B6002AC03D459A828C
:102030006362F510171500001305C59E8A07AA975D
:102040009C433E9502851304F40F61EB93E7270050
:102050008943C1BF01431307F00FB7074000F240A7
:102060006244A6075E07A5831315F301D98FD244F6
:102070005D8D05618280AE82BA841E8689476306C3
:10208000F60A8D47E308F6FC85471683631EF61AA9
:1020900001478147E9B7B5E013D57501139795005E
:1020A0001375F50F9147014405462583FD8129FDF0
:1020B00019EB93E717008543ADB79DE8A1471304DB
:1020C000F00F09460DBF3A8532C83EC62EC436C24F
:1020D0003AC0712502471303B5FF098C3317670017
:1020E0001304A4F881439246A245B247424615BF65
:1020F000B1471304F00F0D46FDBD26852EC236C034
:10210000B92D9307B5FF1304A0F8B394F400098C1C
:102110008147014682469245F9BD93E737008D43DA
:1021200009B78947B682E31EF6F416831307F00F4A
:10213000814735B7C167FD17B3F3F400F98FC1804C
:1021400041831E85BE85EFD0FFF6AA82BA851E8523
:10215000EFD05FF6AA83BE852685EFD0BFF5AA87AC
:10216000BA852685EFD01FF513D70201BE93BA9327
:1021700063F4F300C1673E95C167FD17B3F4F30044
:10218000C204B3F2F200A6929394620093D30301C7
:10219000B334900093D2A201AA93B3E25400939473
:1021A0006300B3E454009397440063D707000244EC
:1021B00093D714008588DD8C1307F407635FE00272
:1021C00093F7740099C793F7F40091466383D7009F
:1021D00091049397440063D80700B70700F8FD17F0
:1021E000FD8C130704089307E00F63CBE704939774
:1021F0006400A5831377F70F9DB58547B386E74045
:1022000011C76D4601478147E34BD6E41304E40947
:1022100033948400B3D7D400B3348000C58F13F750
:10222000770019C713F7F70091466303D7009107AA
:1022300013975700634C07009A07A583014705B51C
:102240001307F00F814721BD0244BDB70547814701
:1022500039B5B7068000FD163111B3F7A600135744
:10226000750113D675017D811377F70FED8E22C6A8
:1022700026C41376F60F06C89303F00F3EC22AC099
:102280003A8493943700FD81939236003303C7401C
:102290006303761093C51500630EB5106354600C8C
:1022A000631106106388021E7D13B38754406307D1
:1022B00003029307F00F630BF716ED4763CA672815
:1022C00093070002B3876740B397F20033D36200ED
:1022D000B337F000B367F300B387F44013975700A8
:1022E0006354071AB7040004FD14E58F3E853EC20F
:1022F000BD2192476D15B397A7006341851C018DE1
:10230000050593020002B382A240B3925700B33294
:102310005000B3D7A700B3E75700014413F7770085
:1023200019C713F7F70091466303D7009107139776
:102330005700635F0714824605041307F00F13F577
:1023400016006309E4169A07A5831377F40FC240B9
:102350003244A6075E07A5837E055D8FA244598D92
:10236000510182806315030A130617001376E60FE6
:10237000631106166313072263800420E38902FCBD
:10238000B38754409396570063D20622B387924096
:1023900001442EC061B7E38F02EE630DB50AE3532B
:1023A00060FC9307F00F6303F708B7070004B3E27C
:1023B000F20021B76350600A51C29307F00F630720
:1023C000F706B7070004B3E2F200ED4763CC671CE1
:1023D00093070002B3876740B397F20033D36200DC
:1023E000B337F000B367F300A69713975700635D08
:1023F000070805041307F00F630EE40AB706007E12
:1024000013D71700FD16858B758FD98F01BFB307C2
:10241000E6406316071063880414FD17638E0718DF
:102420001307F00F6314E6102EC036C29247C1C3E3
:1024300001451307F00FB707400011BF638C02047A
:102440007D13B3875400E30203FA9307F00FE31EF2
:10245000F7F6E9BF631B0308130417001376E40FB4
:102460006311061263150710638D0414E38102EEF5
:10247000B387540013975700014463570700370789
:1024800000FC7D17F98F054413F77700E31B07E87D
:102490008D833EC29307F00FE30AF4F89247824619
:1024A0001377F40FA607A58313F516004DB58247E1
:1024B00013F517001307F00F814751BDB70200FC59
:1024C000FD12B3F7570013F77700098CE31B07E4FD
:1024D000C1B7B387544013975700634C070AE3977B
:1024E00007E00145014781479DB5B307E6403DC37D
:1024F0001307F00FE30BE6F237070004D98C6D47A2
:102500006346F70C130700021D8F3397E400B3D71F
:10251000F4003337E000D98F96973284F9B513076A
:10252000F00FE303E6F037070004D98C6D47634DE5
:10253000F706130700021D8F3397E400B3D7F400AA
:102540003337E000D98FB387F24032842EC079B39D
:10255000854759B3ADC8FD17A5CF1307F00FE3109A
:10256000E6FA36C2E1B536C232842EC025B7E38E14
:1025700004EAE38D02EA6DBD638D02022E85B68703
:10258000F9B39307F00FE307F4F2B38754008583A0
:10259000E5BDB38792402EC091BBE1FCE38A02E81F
:1025A0002EC061B5854789B5854771BF0144E39D5C
:1025B00007EC0145814761BBB387924032842EC04E
:1025C00031BBB68769B336C23284E9B58547A9B74E
:1025D000B3875400328411BD13577501370680004C
:1025E0009307F6FF1377F70F9305E007B3F6A700FD
:1025F0009357F501014563F4E50099C38280828019
:102600009307E0097D55E3EBE7FE93055009B3E737
:10261000C60063D7E5001307A7F63395E70082806D
:10262000130560093307E54033D5E7008280511177
:1026300006C422C226C00DCD9357F54133C4A7006E
:102640001D8CAA842285212A9307E0093387A7409D
:1026500093076009FD8063CCE702A1469377F70FEB
:1026600063D5A60061153314A4002604258021A09B
:10267000814481470144260413559400A24012442A
:10268000DE07FE045D8D458D824431018280930713
:10269000900963DDE7009307B5019546B317F40091
:1026A000898EB356D4003334F000558C954763D6E9
:1026B000A7009307B5FF3314F400B70600FCFD161E
:1026C000937774003376D40085C39377F4009145F3
:1026D000638CB70011069317560063D70700930762
:1026E000F009758E3387A740131466002580937711
:1026F000F70F51B721112AC236C006CAAA8622C8CE
:1027000026C6328732C481470145014333866600BD
:10271000937317003304F50093D2F6010583B334A5
:10272000660086076385030033858400328386064E
:10273000B3E7570061FFAA8789C52245EFD09F976D
:10274000AA97024711C71245BA85EFD0BF96AA973C
:10275000D2404244B2441A85BE8561018280C1677D
:10276000637CF5029307F00F1307000263EBA700E9
:10277000970700009387072FAA9788233305A74060
:1027800082802181970700009387C72DAA9788230D
:1027900061473305A7408280B7070001636DF500EC
:1027A0006181970700009387E72BAA978823214729
:1027B0003305A74082804181970700009387872ACD
:1027C000AA97882341473305A74082809307800555
:1027D00023ACF1B47D5582809307800523ACF1B41E
:1027E0007D55828001A00000A4707D3FA4707DBF54
:1027F0000000003F000000430000003039B4483DB5
:10280000230000000038014018000000FFFFFFFF18
:10281000000000000000000012000000003801402D
:102820000B000000FFFFFFFF0000000000000000A1
:10283000260000000038014018000000FFFFFFFFE5
:1028400000000000000000002500000000380140EA
:102850000B000000FFFFFFFF000000000000000071
:102860000100000000000000060000000C00000055
:102870000D0000000F000000100000000E0000001E
:102880000100000002000000100000001100000024
:1028900012000000130000001400000015000000EA
:1028A00016000000170000002000000021000000BA
:1028B000220000002300000024000000250000008A
:1028C00026000000270000000000000000000000BB
:1028D0001E0400005204000014040000180400004C
:1028E0001A040000360400001A040000140B000053
:1028F000440B000016070000160700006C060000DD
:102900006C0600006C0600006C0600006C060000FF
:102910006C0600006C0600001007000010070000A5
:10292000100700009C060000B0120000DE1200003C
:10293000E2120000EC120000F4120000F812000095
:10294000021300000A130000121300001613000007
:10295000221300002E1300003A1300003E13000063
:102960004A130000561300006213000066130000B3
:102970006C13000070130000781300007C1300003B
:1029800084130000881300009013000094130000CB
:10299000A01300000100000002000000040000007D
:1029A00008000000100000002000000040000000AF
:1029B00080000000000000002D7F954C2DF4515840
:1029C0000000000000000000000000000000000007
:1029D00000000000000000000000000000000000F7
:1029E00000000000000000000000000000000000E7
:1029F00000000000000000000000000000000000D7
:102A000000000000000000000000000000000000C6
:102A100000000000000000000000000000000000B6
:102A200014F7FFFF58F6FFFF58F6FFFF56F6FFFFBB
:102A30005CF6FFFF5CF6FFFF34F6FFFF56F6FFFF84
:102A40005CF6FFFF34F6FFFF5CF6FFFF56F6FFFF74
:102A500002F7FFFF02F7FFFF02F7FFFF34F6FFFF69
:102A60000001020203030303040404040404040435
:102A70000505050505050505050505050505050506
:102A800006060606060606060606060606060606E6
:102A900006060606060606060606060606060606D6
:102AA00007070707070707070707070707070707B6
:102AB00007070707070707070707070707070707A6
:102AC0000707070707070707070707070707070796
:102AD0000707070707070707070707070707070786
:102AE0000808080808080808080808080808080866
:102AF0000808080808080808080808080808080856
:102B00000808080808080808080808080808080845
:102B10000808080808080808080808080808080835
:102B20000808080808080808080808080808080825
:102B30000808080808080808080808080808080815
:102B40000808080808080808080808080808080805
:102B500008080808080808080808080808080808F5
:0C2B60001A1C0000F80300004C050000E7
:042B6C000804000059
:102B7000140000000000000014000000000000002D
:102B8000140000000000000014000000000000001D
:102B9000140000000000000014000000000000000D
:102BA00014000000000000001400000000000000FD
:102BB0000204060804080C100810182010203040E9
:102BC0002040608001020304050607080102030497
:102BD00005060708000000000000000000000000DB
:102BE000000000000000000000000000FFFFFFFFE9
:102BF000FFFFFFFFFFFFFFFFFFFFFFFF00000000E1
:102C00000100000000000000E0290000002A000090
:102C1000C0290000000000000000000000000000CB
:102C200000000000000000000000000000000000A4
:102C30000000000000000000000000000000000094
:102C40000000000000000000000000000000000084
:102C50000000000000000000000000000000000074
:102C60000000000000000000640000005404002088
:102C7000006CDC02940000200004080C04004000FA
:102C80000004000001001000000100100204081000
:082C9000020104030000000032
:00000001FF
