:100000006F10604300000000800E0000840E0000AE
:1000100000000000000000000000000000000000E0
:1000200000000000000000000000000000000000D0
:10003000C60B0000000000000614000000000000D5
:10004000081400000A1400000C1400000E14000034
:10005000680C0000121400001414000016140000B4
:10006000181400001A1400001C1400001E140000D4
:1000700020140000221400002414000026140000A4
:10008000281400002A1400002C140000020A0000AA
:10009000301400009C0A0000AA0A000000000000C2
:1000A000511126C022C206C4828282441244A24058
:1000B000310182802A86014593F6150091C232955E
:1000C00085810606F5F9828000000000634E050276
:1000D00063C305042E86AA857D5515C285466378BF
:1000E000B6006356C00006068606E36CB6FE014500
:1000F00063E4C500918D558D85820582F5FA828075
:100100008682C93F2E8582823305A04063D70500D1
:10011000B305B040C1B7B305B0408682653F330533
:10012000A0408282868263C70500634905005D376F
:100130002E858282B305B040E35B05FE3305A04007
:10014000513F3305B04082820000EFF27FF51C4141
:100150008297A1BF85476307F60089476306F600CB
:10016000014582800CC1EDBF9C411CC1D5BFEFF29F
:100170003FF3AA84EF20A078EF20607E2A849305C5
:1001800000002685EF20E00D6356A0002285EF20B9
:10019000007721BFB737000083A547B22285EF2043
:1001A000A03DF5B7EFF2DFEF2A841D89AE84EF2082
:1001B000007BB737000083A547B22188EF10D0201D
:1001C00001C4B70700803D8DA685EF20E011F1BD89
:1001D000EFF21FED51112A84593F2AC0EF202078F9
:1001E000AA852285EF204039B737000083A547B2A2
:1001F0002AC237040020EF2020381246AA841304B4
:100200000400B285328532C4EF20000EB7370000FB
:10021000AA8503A547B2EF202036AA85EF20C00C9F
:10022000AA85EF20600C824722462AC293F6F70F78
:10023000A2968822B285BD371243AA851A85EF207F
:10024000A00A2AC4A6852685EF20000AB737000039
:10025000AA8503A547B2EF202032AA85EF20C00867
:10026000AA85EF20600882472AC2A685850793F7F2
:10027000F70F3E9408203D371246AA853285EF20BD
:10028000A006A246B685EF103014B737000083A54C
:1002900007B2EF206005310109BDEFF27FE0138561
:1002A0008184F524EF108075EF20606BB737000074
:1002B00083A587B1B7340000EF10D049113F83A563
:1002C000C4B1EF20600283A5C4B1EF10F00F453533
:1002D000B73701401375F50F23AAA7C21385818490
:1002E0000521E1B3B7170240944F05671306078253
:1002F000D18E94CFB716014003A60640130707809E
:10030000419A23A0C64003A606401366960123A087
:10031000C640D4470D66558FD8C7D847FD7693861B
:10032000F67F758FD8C737370140231407C293066D
:10033000F00F2316D7C2835647C193E61600231A3F
:10034000D7C0835607C293E6C6002310D7C2835690
:1003500007C2D18E2310D7C2835687C1216693E688
:100360000606231CD7C093060008232AD7C283564B
:1003700047C4D18E2312D7C4835707C093E7170011
:100380002310F7C08280EFF2BFD14111A13FAD65CC
:100390000946938545C413858184E52EB70700007F
:1003A0009387A7293EC0B70700009387A7143EC6CE
:1003B000B7070000938747158A85138581843EC45B
:1003C000EF00C05CA24789C78A850D462E858297BB
:1003D0001385818435264101C9B98280EFF25FCC53
:1003E000B7050040138581843923C1B1EFF25FCB9B
:1003F000138581840D2155B90145828082807D5508
:100400008280EFF2FFC91C417111CC81DC4393055E
:10041000310005468297110149B9EFF27FC8711189
:10042000930531004105EF10803D01E58881110100
:10043000ADB97D55EDBFEFF2BFC62E85B285EF1089
:10044000C02BA5B113F7F50FC54763EDE7008D6726
:10045000938787BA0A073E9793F705700C43CD8FB1
:100460005CD5828093F6050C1306000CFD57E399CA
:10047000C6FE9306700CE3E5E6FE93F7F5030D6701
:10048000130787B88A07BA979C430D67130787BA83
:100490008A07BA9793F505709C43D1B713F7F50F08
:1004A000C54763EDE7008D67938787BA0A073E97D4
:1004B00093F705700C43CD8F1CD5828093F6050C05
:1004C0001306000CFD57E399C6FE9306700CE3E596
:1004D000E6FE93F7F5030D67130787B88A07BA9707
:1004E0009C430D67130787BA8A07BA9793F505707F
:1004F0009C43D1B7EFF2DFBA9307803E1CC58D67EE
:10050000938787BF1CC10CC9232205009305600C8B
:100510002A840D3F9305500C2285493758541C54AA
:100520006314F700FD575CD4FD571CD85CD8B5BEEA
:10053000EFF21FB7B7450140938505801385C18C45
:10054000553FA5B6EFF2DFB51C452A8481CB0D4699
:10055000AA85829723240400232604002285B1B6AD
:10056000EFF21FB431110A8502C002C202C402C6F2
:1005700002C8EF0050111245510105BE1C4599C734
:10058000EFF21FB2AA850D46829705B68280EFF280
:100590003FB12A84084D0146FD45EF00B022084CCA
:1005A0008145EF00B02011B6FD152E951C2199CB89
:1005B00089477D5563E7B700860593870181BE951E
:1005C0008A2182808D477D55E3EDB7FE86059387AE
:1005D0008181F5B79387F5FF0D47636EF700EFF262
:1005E0003FAC51113EC02A84AE847D3F7D57824787
:1005F0006314E50001A001A0920493844403A29433
:1006000094441387C1803E97182385C69386018240
:10061000BE969422084C3AC4B6853EC236C0EF005E
:1006200070218246084C0546B685EF00B019224776
:10063000924793962700A296D44231466369D60A20
:100640000D668A061306C6C1B2969442084C82868D
:10065000A2979C2393150701C18199CF1146EF0002
:10066000701B084C216783574504D98F2312F5046A
:100670008545EF00B013A5A80546EF00B017D5B724
:100680000546BA853EC0EF00F016824713874182C7
:10069000BA97838707002285BE853EC03137931500
:1006A0000501084C0546C181EF00D014084CA16635
:1006B000854503574504558F2312E504EF00100FBD
:1006C000984415C782470D47084CFD17FD546366D3
:1006D000F70093850182BE958421C204C180A6855E
:1006E000EF005015084C0546A685EF00B00D31010E
:1006F0006DBA0546BA8551B71E21858BEDFB8DBFBE
:10070000EFF21F9A5C5D2A8491CF084D8545EF007A
:100710007012084C85450546EF00D00A084C854507
:10072000EF00D008228585457535228589455D35E0
:1007300022858D45453591452285693D6FF0FF96AF
:10074000EFF21F96084D8545EF00F0086FF0FF951A
:100750001C4D8A2305898280EFF29F942A84CD3F25
:1007600005E5084C5E25858B95C301468545EF0060
:1007700070052285F137084C8545EF00B00B084C19
:1007800005468545EF0010046FF03F9222854D3FEE
:10079000E5BFEFF2FF908547AA842E846301F6023D
:1007A00089476304F604814719C09307F4FF8C4C12
:1007B000C207C183DEB5268545376FF01F8F4D33E5
:1007C000B7450F0093850524EFF0DF90A285EFF089
:1007D0007F8E935505019C4C1397050141839AB771
:1007E0008505EFF03F8F2A847DBF9D3BA285EFF00A
:1007F0007F8EC5B7B7370140938707C06308F50000
:10080000B70700406316F5000545828001458280E8
:1008100041657D158280EFF2BF882A84084DD93F5B
:10082000AA8413058401EF00304D8A041385818268
:100830002695232A0400930444082320050013046A
:10084000440363868400C11426850D3BDDBF6FF031
:10085000DF85EFF2FF8471112A84C1642E852EC0DA
:10086000FD14493F82456313950001A01C4C91C3C0
:1008700001A093172500138581823E9593074401BB
:100880001CC1930700085CD4930700041CD80CCC4F
:100890001305840140C8232E0400232004022312E0
:1008A0000402EF00104213054403693913054404A0
:1008B0005139130544057931130544066131130597
:1008C00044074931084C2320040023220400232438
:1008D00004002326040023280400232E040004D04F
:1008E0008545EF00806F084C9305C401EF00206739
:1008F00011016FF08FFBEFF2AFFA232E05022326D2
:100900000504232E050423260506232E0506232C85
:1009100005008137B7E700E0214723A2E71013075E
:10092000000223A2E7101307000423A2E7106FF0D0
:10093000CFF7232405009C4589CFEFF26FF60946D7
:100940002A84AE848297DC445CC49C441CC46FF04F
:10095000CFF58280EFF2CFF421112A842800D13F15
:10096000B24714402247280036C454405CC0C247F6
:1009700018C018441CC4D2473AC858445CC436C690
:100980003ACAED3E228561016FF02FF2EFF24FF18E
:100990002A845C5C1305450381C76D3F6FF0EFF05F
:1009A000AE844D3F9C44FDDB084C85456125084CD9
:1009B00005468545012DDDB7EFF28FEE184519E3A9
:1009C000EF0010695C4582976FF02FEE11E101A0F6
:1009D000EFF20FED2A84084185459D250DC11C408D
:1009E000DE27858B89CF2285EF00702D08415C5D65
:1009F00081C713054503C93708408545B12D6FF000
:100A0000CFEA03A5818219C11105C93773002030CF
:100A100011E101A01C41DA27098B11EBDA27118BB8
:100A200019E7DA27218B01E7DA27418B3DC7EFF27F
:100A30002FE72A8489453E8521251C4015C189451B
:100A40003E85192D85442285EF00702708419204C8
:100A50009384440326951C4591C3B93F6FF0EFE49E
:100A60003E859145F12B1C4011C591453E85ED23F6
:100A70008944D1BF3E85A145E1231C4011C5A14554
:100A80003E85D92B8D44C1B7C1453E85552B45DDEB
:100A90000840C1459144C9237DB7828003A5818266
:100AA00019C11105B53773002030711122C01384AC
:100AB0008182484011C51105113F48401105893F09
:100AC0000244110173002030EFF28FDD2A84EF0021
:100AD000705748C41C402285DC4B8297635A05003E
:100AE000EF0050565C441D8D1C44E365F5FE7D55BA
:100AF0006FF0AFDBEFF2CFDA6111AA8401442EC2AE
:100B000032C0630DC4002685C13763490500924594
:100B10000246B387850088A30504D5B72285210145
:100B20006FF0AFD8EFF2CFD75111014495C6B6841C
:100B3000AA8701443E8532C42EC23EC07137634D40
:100B400005009245630AB5002246824733078600B6
:100B500008A30504E39084FE228531016FF0EFD4F1
:100B6000EFF20FD4F1206FF04FD4EFF26FD385473F
:100B70006301F50219C589476303F50201456FF06A
:100B8000CFD211458545712E3715014013050580DB
:100B9000FDB741458545712637150140CDB7130591
:100BA00000028545BD2E3715014013050540C1BF24
:100BB00003A5018383A5418382808280EFF24FCE1B
:100BC000C53F6FF08FCE9387018303A3070083A3F4
:100BD0004700130713003335670098C3B306750049
:100BE000D4C3E13FB7F700E023A207007300203031
:100BF000EFF20FCB37F400E023220400232004009F
:100C000023240400B707002003A5C71F9305803ED7
:100C1000EFF04FCC7D1508C8BD471CC07D57B7E726
:100C200000E02386E740056723A0E7106FF0EFC7D9
:100C3000EFF20FC7753F6FF04FC781470547630756
:100C4000E5008507058193F7F70FD5BF370700202B
:100C50008E0713070710BA97DC4391C7EFF24FC412
:100C600082976FF08FC48280611122C226C0054432
:100C7000A1442285A92019C522858D2013150401C0
:100C80004181653FFD140604EDF4124482442101C4
:100C900073002030370700201307871F1C439386FB
:100CA000419A3E956369D500938681C463E5A600A9
:100CB00008C33E858280FD57EDBF82808280B707E2
:100CC00001401387074083A70740584B698F09C726
:100CD0007D8D3335A000828001458280B7070140B9
:100CE00023AAA74082809C45611122C226C013F727
:100CF000070113F3F70001C7D8413363E3009221E2
:100D00001377F60F29C783230500014713048002D8
:100D1000930480048546B395E600B376B6006392EB
:100D2000D50293122700BD46B396560093C6F6FF30
:100D3000B3F37600B3125300B3E3720063978706F0
:100D40004CC90507A146E317D7FC232075001307FC
:100D5000F00F6378C70483234500A1461304800283
:100D6000930480040547B312D70033775600639489
:100D7000E202139726000117BD45B395E50093C520
:100D8000F5FFB3F375003317E300B36377006392A5
:100D90008702232A550085064147E395E6FC232276
:100DA00075001244824421018280E39C97F80CC9AB
:100DB00049BFE39297FE23285500F1BF3703014056
:100DC000032743009317350063D00702B707C0FF1E
:100DD000F517F98F37070007D98FD9CD370700F0FE
:100DE0007D17798DC98F49A8635D0500B707E0FFBE
:100DF000ED17F98F37070007D98FBDCD060505819F
:100E0000D5B7B7073000931605013376F500C182D8
:100E10006313F602370600F97D16B377C700032780
:100E20004300798E2322C300A1C9558113174500C1
:100E30003395E60045BF9317B50063D40702935777
:100E4000050113F6F7008D47B397C70093C7F7FF67
:100E5000F98F37070007D98F85C11357550112073E
:100E6000C1BF558112053395A6009347F5FFF98F51
:100E700037070007D98FBDF5370701405CC3828073
:100E80007300203001A0EFF2AFA1371702405C439E
:100E900091462A84B18B6385D700A146638DD7061E
:100EA000B7376E01938707601CC0B7160240DC425B
:100EB000918313F7F700B707002093874715BA9778
:100EC0008C23DC42184093F5F50F93F70708335550
:100ED000B70081E73A85EFF0EF9F48C008C448C4E7
:100EE000B7170240DC43AD83FD8B13D737008A0769
:100EF000F18BD98F93F637010D476373D700D11764
:100F00003707002013070714BA978C23EFF08F9C44
:100F100008C86FF08F995C43B777DC02938707C0EE
:100F200061B799C5371702401C4F5D8D08CF82808D
:100F3000B7170240984F1345F5FF798D88CF82800F
:100F400099C5371702405C4F5D8D48CF8280B71737
:100F50000240D84F1345F5FF798DC8CF82801E21FE
:100F600037370140130707C0C207C1836306E50096
:100F7000370700406316E500BA2193F7F7F8D98FD9
:100F8000FA2193F7F7CFC207C183D98F1EA1DE21C3
:100F90005EB59E211EB5B7370140938707C0631425
:100FA000F5009C251EB985475EA982801E2189C552
:100FB00093E717001EA18280C207C183F99BC20775
:100FC000C183CDBF5E2501C6DD8D4EA5828093C550
:100FD000F5FFFD8DDDBF4EA982801E2189C593E7F7
:100FE00007081EA18280C207C18393F7F7F7C207E3
:100FF000C183C5BF1A318547B397B70093C7F7FFC1
:10100000F98F1EB11E31B315B600DD8DC205C18149
:101010000EB182801A319147B397B70093C7F7FF9B
:10102000F98F1EB11E31B315B600DD8DC205C18129
:101030000EB1828093C5F5FFC205C1810EA98280E1
:101040001E294A25ED8F4205418189C76D8D3335B3
:10105000A00082800145828093C5F5FFC205C18151
:101060000EA98280EFF2CF831629F577FD17F58F51
:10107000F621DA252111D58F1EA95625FD779387F4
:10108000379FF58FD6212A842EC0D58F9625D58FF0
:10109000B625D58F5EA55E29C207C18393F7F7CF2A
:1010A0005D8F5AA94800C533B74701409387078031
:1010B00082456312F406C2475A24139517003E95E1
:1010C00042070E0541873E958C416358070486050B
:1010D000EFF04F80930540062AC0EFE0BFFF824744
:1010E00093144500930540063E85EFF06F815E2422
:1010F000C207C18763D507020E0593054006130595
:101100002503EFE03FFD1D89C98CC204C18006A400
:1011100061016FE09FF9B24745B78A0555BF1205D7
:101120009305400613052503EFE0DFFA3D89E9BF8B
:1011300091C55E250967D98F5EA582805A25F9770A
:10114000FD17F98FD5BF93F5F51F4EA182804A2177
:101150001375F51F82805E2989C593E787005EA914
:101160008280C207C183DD9BC207C183CDBF0A2134
:101170006D8D3335A0008280B71702409843B706C3
:10118000FFFC1367170098C3D843758FD8C39843E3
:10119000B706F7FEFD16758F98C39843B706FCFF98
:1011A000FD16758F98C3D44341777D17F98ED4C34C
:1011B000B7069F0094C7B72602409042719A90C22A
:1011C00090421366160090C2D443D4C3D443758FA3
:1011D000D8C3D843B7060001D8C39843558F98C3E6
:1011E000984393166700E3DD06FED843B716024026
:1011F000719BD8C3D84313672700D8C32147DC426B
:10120000B18BE39EE7FE8280EFE29FE9311102C4D9
:1012100002C602C8FD576313F50001A093D78540AD
:1012200093F4F7079377F500139727008D6793875B
:10123000C7CBBA979C4311813D892E843EC0EFF005
:10124000DF922AC285C485450545E1399387F4FFBD
:101250006947636DF7000D678A07130707C5BA97DB
:101260009C43828785450545EFF05FB59357244041
:10127000137734008D8B7DC73AC609476380E70E2C
:101280000D47638FE70C05476388E70CC1473EC8ED
:10129000EDA08145C9BF8545370500100905E9B7AF
:1012A000854537054010DDBF8145E5BF85453705DC
:1012B0000080110555BF85453705208075B78545E8
:1012C00037052080FDB78145E5BF37051600854508
:1012D0001305050451BF854537051600130505089C
:1012E00061B78545370516001305050CB5BF814567
:1012F000D5BF37051800854513050510B5B7370567
:10130000180085451305052085B785453705180064
:101310001305053091BF8145D5BF85452165A9B726
:101320008145EDBF8545370520008DBF8145E5BF6F
:10133000854537052000B5BF8145E5BF85453705A3
:10134000200069BF8145E5BF85453705300013059D
:10135000054019BF8145D5BFD14715BFE14705BF3E
:10136000F14735B705476383E70299C7894663812B
:10137000D7029307800221BF02C8824712452C0082
:101380007C84EFF05F9651016FE03FD2914701B747
:1013900011840D8893078004E31DE4FCCDBDFD5747
:1013A0007D57631CF50082806398A700EFE25FCF52
:1013B0008C45993D6FE07FCFB1059C41E396E7FEF8
:1013C00001A07D579C416394E700014582806394AE
:1013D000A700C8418280B105F5B7FD576307F50046
:1013E000EFE21FCCF93F6FE05FCC014582806305DF
:1013F000B50019C181E5AA852E8582808145EDBFA2
:1014000001A001A001A001A001A001A001A001A0D4
:1014100001A001A001A001A001A001A001A001A0C4
:1014200001A001A001A001A001A001A001A001A0B4
:1014300001A001A001A097F1FF1F9381215C1381FE
:1014400081E017250000130565AD97F5FF1F938513
:1014500065BB1386818263FAC5008322050023A041
:10146000550011059105E3EAC5FE13858182938538
:10147000419A6377B500232005001105E36DB5FEA1
:1014800093020008739002308D427390428097F26D
:10149000FFFF938222B793E2320073905230170518
:1014A00000001305053D7D2E0121EFF0FFCC9702D2
:1014B000000093824238739012347300203071150B
:1014C0008280EFE2FFBD1841B7370140938707C024
:1014D0002A846318F7000565854513050580EFF03C
:1014E0005FA41840B70700406316F700854505451F
:1014F000EFF01FA56FE07FBBEFE29FBA1841B7374F
:101500000140938707C02A846318F7000565814569
:1015100013050580EFF0FFA01840B70700406316E1
:10152000F70081450545EFF0BFA16FE01FB8EFE27E
:101530003FB71301C1FDAA84084D32C60D662EC403
:10154000930506B73ACA36C8493D2AD0C84C8D66BD
:10155000938586B559352A8488508D65938505B461
:10156000AD3D2AC0C8508D65938585B2BD35025703
:101570000D668D662AC232CC36CE6304070ED04C7F
:10158000FD566304D600630E040C9050FD566305AF
:10159000D60082476387070CD050FD566305D600FE
:1015A00092476380070C3A85A2859135824588C0B1
:1015B0003D3D924588C0253D88C045C5374701401F
:1015C00013070780631BE50085451165EFF07F95E4
:1015D000130700022386040298D4E247884C9385BF
:1015E00007B7753B11C4F247C84C938587B5453B97
:1015F0008247814681CB88508D65938505B44533FC
:1016000093060010924791CBC8508D6593E6062053
:10161000938585B236C061338246A24703C7C402B0
:1016200088409CC4B24713162700DEA4D247138714
:1016300081833297FEA4C2471386440010C331470A
:10164000C8C09EA8BAA8D6A801E48545EFF0BFB0EF
:10165000C84093858400EFF0FFA0C8408545EFF0B7
:101660003FAD130141026FE05FA4EFE27FA38D67FE
:1016700083A7C7B90D67130787BA8A07BA9780434C
:101680008D65938505B72285EFF03FD519CD3705D8
:101690000020F16593074516014781460146938571
:1016A00005201305451680CF59356FE01FA0EFE2E6
:1016B0003F9F8347C5029305000213972700938736
:1016C0008183BA979C438843EFF07FAA13351500B6
:1016D0006FE0BF9DEFE2DF9C8347C50293050004E6
:1016E0001397270093878183BA979C438843EFF031
:1016F0001FA8133515006FE05F9BEFE27F9A411141
:1017000037040020AA842EC2EFF08FCA9307441634
:1017100083C7C7022AC41304441685E70347C402DB
:10172000938781830A07BA979C43F1173EC093873A
:1017300081833EC68247D9EB02C2124541016FE068
:10174000DF968D6783A7C7B90D67130787BA8A0726
:10175000BA979C438D66938506B73E853EC0EFF0F1
:10176000DFC78D6671D923060402138781831C436A
:1017700091EF8347C402850793F7F70F2306F4021E
:10178000FDD7E5358347C402D1DB7DB7024593859C
:1017900006B7EFF09FC40346C402138781839317F3
:1017A0002600BA979C438D669C43E394A7FC3DD6E4
:1017B000C9BFEFF0EFBFA247B307F5403335F500DF
:1017C000E39CA5F61307703EE368F7F60245193768
:1017D0006DF19247A6973EC4A247E380F4F6024516
:1017E000D53D75FD8347C402324785048A07BA9701
:1017F0009C4383C5F4FF8843EFF0FF94F1BF11E5EC
:101800007D5582807D556FE05F8AEFE27F89AA84F3
:101810002E84713D65F983C7C4021397270093870F
:101820008183BA979C438843EFF07F9208A00145DB
:10183000D9BFEFE2FF86EFF0AFB2EFE0DFB4EFE049
:10184000DFB9F5BFEFE2DF85EFF04FB76FE0FF855F
:10185000511106C409205111194506C4712C0545C2
:10186000EF10402BAA85814601460145D9A45111AC
:10187000971700009387476A22C2171400001304C9
:10188000E4691D8C26C006C40984BE8419E4124490
:10189000A240824431016FF04FC27D14931724009F
:1018A000A6979C438297DDB7511122C2971700007B
:1018B0009387C76517140000130444651D8C26C068
:1018C00006C40984814463968402EFF02FBF971702
:1018D00000009387A763171400001304E4631D8CB2
:1018E0000984814463928402A240124482443101FB
:1018F0008280139724003E97184385040297971718
:1019000000009387A760C1B7139724003E97184340
:1019100085040297971700009387475FE1B7938785
:101920008180AA85884309A0411126C2938435008D
:10193000F19806C622C4A104B14763F5F404B1448A
:1019400063E4B4042AC0BD2C1387C18314438247C7
:10195000368439E013870184184301EB3E858145C5
:101960003EC0292223A0A18482473E85A6853EC091
:10197000F5287D5782476314E506314798C33E85B5
:10198000992429A0E3DE04FAB1471CC10145B24005
:1019900022449244410182801840058F634E070221
:1019A0002D466376E60018C03A9404C031A0584032
:1019B0006392860223AEE1823E8531241305B40092
:1019C000130744006199B307E540F1D33E94098FB2
:1019D00018C075BFD8C2CDB7A28640409DBF1304C2
:1019E00035007198E30385FCB305A4403E853EC0F5
:1019F000B5287D578247E31AE5FA41B7511193871D
:101A0000818022C2804306C41C5C8DEB6145013F8E
:101A1000B737CDAB08DC9387E7301CC1B7176DE64D
:101A2000938747235CC1B7E705009387C7EE1CC5C2
:101A3000AD475EA50547814718C95CC9005C97178B
:101A400000009387272A904308484C48D443EF006E
:101A5000707D9307150033B5A7002E9548C81CC8A4
:101A6000A24012440605058131018280511122C233
:101A70002A842E8523A0019A06C4EFF0AFA1FD575A
:101A80006317F5009387019A9C4391C31CC0A24041
:101A9000124431018280FD4763F6B700D9471CC16B
:101AA0007D5582807C41411122C406C62E862A843F
:101AB00091C713972500BA97984319EB228532C036
:101AC000BD20AA85228522440246B240410115A8C4
:101AD000854601456308D700FD566319D700D947ED
:101AE0001CC00545B2402244410182802E8523A0BE
:101AF000070002970145FDB793878180AA85884337
:101B000059BF511122C22A842E85B28523A0019A81
:101B100006C4EF00707FFD576317F5009387019AA5
:101B20009C4391C31CC0A2401244310182806F00CB
:101B3000F07C938741849C43AA8399EF138741915A
:101B400023A2E18417E5FFFF1305C54BBA8709C53A
:101B50001C4123AEF198BA87D8437D437D55634637
:101B6000E304638D030203A3870863000304931255
:101B700027009A9223A0C2000325031005463316BE
:101B8000E600518D2320A31023A0D2088946639735
:101B9000D30083264310558E2322C31093061700CB
:101BA0000A07D4C3BA978CC70145828097E7FFFF25
:101BB0009387474599C717050000130585CB6FF03C
:101BC0007FCA828082808280370780007D17411122
:101BD0003373A70013D675019312330022C4135434
:101BE00075011374F40F6D8F26C21376F60F93549C
:101BF000F50116C006C6FD819A87A2862685931335
:101C00003700B302C440638EB40E6352500C6308B5
:101C100006149307F00F630DF414B7070004B3E341
:101C2000F300ED4763C8572893070002B387574076
:101C3000B397F300B3D25300B337F000B3E7F20029
:101C40000247B307F74013975700635F071837033E
:101C500000047D13B3F767003E853EC0EF0030639C
:101C600082476D15B397A7006346851A018D050558
:101C7000130300023303A340339367003333600040
:101C8000B3D7A700B3E76700014413F7770019C77C
:101C900013F7F70091466303D70091071397570096
:101CA0006358071405041307F00F26856300E41634
:101CB0009A07A5839376F40FB2402244A607DE0666
:101CC000A5837E05DD8E9244558D41018280639906
:101CD000020A130614001376E60F6318061463163F
:101CE0000422024663020620E38803FC0247B3078E
:101CF000774013965700635A0622B387E340AE84B9
:101D000069B76359500A49CE9307F00F6302F4068E
:101D1000B7070004B3E3F300ED4763C4572093070C
:101D20000002B3875740B397F300B3D25300B337E1
:101D3000F000B3E7F2000247BA97139757006355D4
:101D4000070A05041307F00F6302E40CB706007ED0
:101D500013D71700FD16858B758FD98F3DB7638B11
:101D60000308FD12638702189307F00FE31BF4EAE0
:101D7000630D030801459306F00FB70740002DBF20
:101D8000B307864065EC824663850614FD176383BE
:101D9000071A9306F00F631CD60EAE843A83C9BFB0
:101DA000638A0304FD12638302129307F00FE315A5
:101DB000F4F67DBF6398020805041376E40F631EF2
:101DC0000612639C06100246630B0616E38603EEBA
:101DD000B30776001397570001446357070037078E
:101DE00000FC7D17F98F054413F77700E31207EA2B
:101DF00013D337009307F00FE30CF4F69317930017
:101E0000A5839376F40F268545BD26859306F00FAE
:101E100081475DB5370300FC7D13B3F7670013F707
:101E20007700098CE31607E6E1B78247B38777406E
:101E3000139757006342070EE39007E2014581467E
:101E400081479DBDB307864025E88246FDCAFD1740
:101E5000F5CF9306F00FE303D6F46D476346F70E14
:101E60008246130700021D8F3397E600B3D7F600B2
:101E70003337E000D98F9E973284C1B59306F00FB7
:101E8000E30DD6F0824637070004558F3AC06D4700
:101E9000634BF7088246130700021D8F3397E60055
:101EA000B3D7F6003337E000D98FB387F3403284DD
:101EB000AE8451BB854769B39306F00FE300D6EEBD
:101EC000824637070004558F3AC041BF82479E972C
:101ED000ADB53A833284AE8431BF93173300E38FBC
:101EE00007EAE38703E879B5638303042E85BA879D
:101EF000E1B38247B3877740B9B39307F00FE307A5
:101F0000F4F082479E978583C5B593173300F1FBA4
:101F1000E38203E6AE8459B58247AE84B387F340CB
:101F200025BB854709BD854749B7E39F07EA0145BA
:101F3000814759B3B387D3403284AE8429B3BA877B
:101F4000A5BB3A8332847DB5854735B7B387760024
:101F50003284E5B31301C1FD9356750126CC1316E7
:101F600095009354F50106D022CE93F6F60F258204
:101F7000A682638B06109307F00F638CF6100E0693
:101F8000B70700045D8E938616F80144814393D70A
:101F900075011393950093F7F70F13539300FD8189
:101FA000E5C31307F00F6386E702938717F80E0364
:101FB000370700049D8E3363E30081475D8C17155E
:101FC00000001305A5D80A042A940040AD8C229580
:101FD0000285938616F06314030C89475D8C1715F0
:101FE00000001305A5DA0A042A9403230400AD8C2B
:101FF0001A95028581449305F00FB70740001395A9
:10200000970082507244939775012581FE045D8D7F
:10201000458DE2441301410282809305F00F814710
:10202000F9BF1A86AE82BE8389476386F3228D4745
:10203000E382F3FC85476386F30C9385F60793F4FC
:1020400012006358B0189377760099C79377F6001B
:1020500011456383A70011069317460063D8070054
:10206000B70700F8FD177D8E938506089307E00FEC
:10207000E3C5B7FA93176600A58393F5F50F41B74B
:1020800063190304854799BF15E2114481468543CE
:10209000FDBD01EA21449306F00F8943CDBD8D4774
:1020A00031BF31449306F00F8D43D5B532852EC430
:1020B00032C026C2EF00B01D02469307B5FF93065B
:1020C000A0F83316F600898E014481439242A2455E
:1020D0007DBD1A8536CA16C832C61EC42EC21AC0A5
:1020E000EF00F01AD24602439307B5FFAA963313C6
:1020F000F3009386660781479245A2433246C24267
:1021000075BD93F4120081458147D5BDC167131792
:102110005300FD17F98F3ACA3EC213540701637D7D
:10212000660E3285A28536C632C4EFD0BFFA92451C
:102130002AC0EFD03FF82246B246AA873283FD1666
:102140000146A2851A8536C83EC632C4EFD05FFB71
:102150002246B2474205518DC246637FF500524781
:1021600082453A951386F5FF6362E50E6370F50EBE
:102170001386E5FF32C03A95B307F5403E85A28548
:1021800036C83EC6EFD01FF592452AC4EFD09FF265
:10219000B2472AC2A2853E85EFD09FF6124642057D
:1021A0002243C246637CC50052479307F3FF3A952A
:1021B000636CE508637AC50879133A95824733065C
:1021C000C5403336C000C207B3E767005D8EA68204
:1021D000ADB505433303B34091C56D458145814796
:1021E000E34F65E09386E609B316D600B357660061
:1021F0003336D000D18F93F6770099C693F6F70067
:1022000011466383C6009107139757006342070482
:102210009A07A5838145E5B3135316001A85A28555
:1022200036C832C61AC4EFD0FFEA92452AC0EFD0B2
:102230007FE83246AA87C2467E064182224311B712
:10224000AE82BE830146CDB33E838DBF32C02DB773
:10225000854581476DB393F412009305F00F8147D4
:1022600079BB13577501B7078000FD1793D6750129
:102270001377F70F9302F00F33F3A7001356F5010E
:10228000ED8F93F6F60FFD8163015702638C5600C4
:102290000DE391E2B1C3630E03026305B604054585
:1022A0001DE68280F5D779558280E31E03FE63899F
:1022B000E60291E2EDD7E314B6FEE3C2E6FE634721
:1022C000D700E3EE67FC0145E37DF3FC01E67D55B5
:1022D0008280F5DD054582800145E31203FC8280A2
:1022E000F9DBD1B70147E1BF011122CC13547501CD
:1022F00026CA06CE931495001374F40FA580935646
:10230000F5014DCC9307F00F630CF40CB7070004F4
:102310008E04DD8C130414F88147014613D5750132
:10232000139795001375F50F2583FD814DC5130394
:10233000F00F630D65020E07130515F8370300044F
:10234000336767002A9481431305140033C3B60032
:102350002AC03D459A826362F510171500001305E7
:10236000E5A68A07AA979C433E9502851304F40FBD
:1023700061EB93E727008943C1BF01431307F00FC7
:10238000B7074000F2406244A6075E07A583131515
:10239000F301D98FD2445D8D05618280AE82BA840B
:1023A0001E8689476306F60A8D47E308F6FC8547D3
:1023B0001683631EF61A01478147E9B7B5E013D5C6
:1023C0007501139795001375F50F91470144054664
:1023D0002583FD8129FD19EB93E717008543ADB7F0
:1023E0009DE8A1471304F00F09460DBF3A8532C896
:1023F0003EC62EC436C23AC0592D02471303B5FF5C
:10240000098C331767001304A4F881439246A24550
:10241000B247424615BFB1471304F00F0D46FDBD4C
:1024200026852EC236C0A5259307B5FF1304A0F854
:10243000B394F400098C8147014682469245F9BD68
:1024400093E737008D4309B78947B682E31EF6F458
:1024500016831307F00F814735B7C167FD17B3F334
:10246000F400F98FC18041831E85BE85EFD09FC4E3
:10247000AA82BA851E85EFD0FFC3AA83BE852685B2
:10248000EFD05FC3AA87BA852685EFD0BFC213D726
:102490000201BE93BA9363F4F300C1673E95C1672E
:1024A000FD17B3F4F300C204B3F2F200A6929394C2
:1024B000620093D30301B334900093D2A201AA9394
:1024C000B3E2540093946300B3E454009397440040
:1024D00063D70700024493D714008588DD8C130767
:1024E000F407635FE00293F7740099C793F7F40071
:1024F00091466383D70091049397440063D8070003
:10250000B70700F8FD17FD8C130704089307E00FC9
:1025100063CBE70493976400A5831377F70F9DB50A
:102520008547B386E74011C76D4601478147E34BB6
:10253000D6E41304E40933948400B3D7D400B3344D
:102540008000C58F13F7770019C713F7F70091467E
:102550006303D700910713975700634C07009A074E
:10256000A583014705B51307F00F814721BD02443C
:10257000BDB70547814739B5B7068000FD16311153
:10258000B3F7A6001357750113D675017D81137734
:10259000F70FED8E22C626C41376F60F06C89303F6
:1025A000F00F3EC22AC03A8493943700FD81939283
:1025B00036003303C7406303761093C51500630EDE
:1025C000B5106354600C631106106388021E7D13FE
:1025D000B3875440630703029307F00F630BF716AA
:1025E000ED4763CA672893070002B3876740B39734
:1025F000F20033D36200B337F000B367F300B38760
:10260000F440139757006354071AB7040004FD14ED
:10261000E58F3E853EC2A52992476D15B397A70069
:102620006341851C018D050593020002B382A2401F
:10263000B3925700B3325000B3D7A700B3E75700A7
:10264000014413F7770019C713F7F70091466303A6
:10265000D700910713975700635F0714824605045C
:102660001307F00F13F516006309E4169A07A58304
:102670001377F40FC2403244A6075E07A5837E0598
:102680005D8FA244598D510182806315030A1306A0
:1026900017001376E60F6311061663130722638093
:1026A0000420E38902FCB38754409396570063D219
:1026B0000622B387924001442EC061B7E38F02EE39
:1026C000630DB50AE35360FC9307F00F6303F7084B
:1026D000B7070004B3E2F20021B76350600A51C2A9
:1026E0009307F00F6307F706B7070004B3E2F200A1
:1026F000ED4763CC671C93070002B3876740B3972D
:10270000F20033D36200B337F000B367F300A6974B
:1027100013975700635D070805041307F00F630E56
:10272000E40AB706007E13D71700FD16858B758F58
:10273000D98F01BFB307E6406316071063880414FE
:10274000FD17638E07181307F00F6314E6102EC0F1
:1027500036C29247C1C301451307F00FB7074000C7
:1027600011BF638C02047D13B3875400E30203FAA4
:102770009307F00FE31EF7F6E9BF631B030813048A
:1027800017001376E40F6311061263150710638DAB
:102790000414E38102EEB3875400139757000144F9
:1027A00063570700370700FC7D17F98F054413F7BF
:1027B0007700E31B07E88D833EC29307F00FE30A1F
:1027C000F4F8924782461377F40FA607A58313F512
:1027D00016004DB5824713F517001307F00F814718
:1027E00051BDB70200FCFD12B3F7570013F7770095
:1027F000098CE31B07E4C1B7B38754401397570014
:10280000634C070AE39707E00145014781479DB5FF
:10281000B307E6403DC31307F00FE30BE6F23707BB
:102820000004D98C6D476346F70C130700021D8F17
:102830003397E400B3D7F4003337E000D98F96978D
:102840003284F9B51307F00FE303E6F0370700040D
:10285000D98C6D47634DF706130700021D8F339720
:10286000E400B3D7F4003337E000D98FB387F240E8
:1028700032842EC079B3854759B3ADC8FD17A5CFB3
:102880001307F00FE310E6FA36C2E1B536C2328420
:102890002EC025B7E38E04EAE38D02EA6DBD638D99
:1028A00002022E85B687F9B39307F00FE307F4F21F
:1028B000B38754008583E5BDB38792402EC091BB9A
:1028C000E1FCE38A02E82EC061B5854789B58547FA
:1028D00071BF0144E39D07EC0145814761BBB387AC
:1028E000924032842EC031BBB68769B336C232847F
:1028F000E9B58547A9B7B3875400328411BD3706BF
:102900008000935775011307F6FF93F7F70F9305B0
:10291000E007698F9356F50163FCF5009305D00934
:1029200063FAF500370500801345F5FF3695828080
:102930000145828093055009518F63CDF500130640
:102940006009B307F640B357F7003305F040F5F2DE
:102950003E8582809387A7F6B317F700FDB7511124
:1029600006C422C226C00DCD9357F54133C4A7003B
:102970001D8CAA842285212A9307E0093387A7406A
:1029800093076009FD8063CCE702A1469377F70FB8
:1029900063D5A60061153314A4002604258021A068
:1029A000814481470144260413559400A2401244F7
:1029B000DE07FE045D8D458D8244310182809307E0
:1029C000900963DDE7009307B5019546B317F4005E
:1029D000898EB356D4003334F000558C954763D6B6
:1029E000A7009307B5FF3314F400B70600FCFD16EB
:1029F000937774003376D40085C39377F4009145C0
:102A0000638CB70011069317560063D7070093072E
:102A1000F009758E3387A7401314660025809377DD
:102A2000F70F51B721112AC236C006CAAA8622C89A
:102A300026C6328732C4814701450143338666008A
:102A4000937317003304F50093D2F6010583B33472
:102A5000660086076385030033858400328386061B
:102A6000B3E7570061FFAA8789C52245EFD08FE4FD
:102A7000AA97024711C71245BA85EFD0AFE3AA97CC
:102A8000D2404244B2441A85BE8561018280C1674A
:102A9000637CF5029307F00F1307000263EBA700B6
:102AA0009707000093878736AA9788233305A740A6
:102AB000828021819707000093874735AA97882352
:102AC00061473305A7408280B7070001636DF500B9
:102AD00061819707000093876733AA97882321476E
:102AE0003305A74082804181970700009387073212
:102AF000AA97882341473305A74082809307800522
:102B000023A0F19A7D5582809307800523A0F19A36
:102B10007D55828001A0000000007A44000000433F
:102B2000713DCA3E0000803F230000000038014094
:102B300018000000FFFFFFFF000000000000000081
:102B400012000000003801400B000000FFFFFFFFF3
:102B500000000000000000002600000000380140D6
:102B600018000000FFFFFFFF000000000000000051
:102B700025000000003801400B000000FFFFFFFFB0
:102B80000000000000000000010000000000000044
:102B9000060000000C0000000D0000000F00000007
:102BA000100000000E000000010000000200000004
:102BB00010000000110000001200000013000000CF
:102BC00014000000150000001600000017000000AF
:102BD000200000002100000022000000230000006F
:102BE000240000002500000026000000270000004F
:102BF0000000000000000000020400003604000095
:102C0000F8030000FC030000FE0300001A040000AB
:102C1000FE030000F40A0000240B0000F806000088
:102C2000F8060000500600005006000050060000A4
:102C3000500600005006000050060000500600003C
:102C4000F2060000F2060000F20600008006000016
:102C5000641200009212000096120000A012000000
:102C6000A8120000AC120000B6120000BE12000054
:102C7000C6120000CA120000D6120000E2120000C4
:102C8000EE120000F2120000FE1200000A13000013
:102C9000161300001A130000201300002413000074
:102CA0002C13000030130000381300003C13000008
:102CB00044130000481300005413000001000000FA
:102CC00002000000040000000800000010000000E6
:102CD0002000000040000000800000000000000014
:102CE0002D7F954C2DF4515800000000000000008D
:102CF00000000000000000000000000000000000D4
:102D000000000000000000000000000000000000C3
:102D100000000000000000000000000000000000B3
:102D200000000000000000000000000000000000A3
:102D30000000000000000000000000000000000093
:102D40000000000000000000C4F3FFFFD2F2FFFF0C
:102D5000BEF3FFFFDAF2FFFFBEF3FFFFACF2FFFFAF
:102D6000BEF3FFFFDAF2FFFFD2F2FFFFD2F2FFFF66
:102D7000ACF2FFFFDAF2FFFFE0F2FFFFE0F2FFFF4D
:102D8000E0F2FFFFACF2FFFF92F2FFFF92F2FFFFD3
:102D90007EF3FFFFB8F4FFFF7EF3FFFF6CF2FFFF4F
:102DA0007EF3FFFFB8F4FFFF92F2FFFF92F2FFFF06
:102DB0006CF2FFFFB8F4FFFFA0F2FFFFA0F2FFFFED
:102DC000A0F2FFFF6CF2FFFF92F6FFFFD6F5FFFFC8
:102DD000D6F5FFFFD4F5FFFFDAF5FFFFDAF5FFFFC9
:102DE000B2F5FFFFD4F5FFFFDAF5FFFFB2F5FFFF05
:102DF000DAF5FFFFD4F5FFFF80F6FFFF80F6FFFF57
:102E000080F6FFFFB2F5FFFF000102020303030398
:102E1000040404040404040405050505050505056A
:102E2000050505050505050506060606060606064A
:102E30000606060606060606060606060606060632
:102E4000060606060606060607070707070707071A
:102E50000707070707070707070707070707070702
:102E600007070707070707070707070707070707F2
:102E700007070707070707070707070707070707E2
:102E800007070707070707070808080808080808CA
:102E900008080808080808080808080808080808B2
:102EA00008080808080808080808080808080808A2
:102EB0000808080808080808080808080808080892
:102EC0000808080808080808080808080808080882
:102ED0000808080808080808080808080808080872
:102EE0000808080808080808080808080808080862
:102EF0000808080808080808080808080808080852
:082F0000080808080808080889
:0C2F0800AC1B0000DC03000030050000E2
:042F1400EC030000CA
:102F180097A0895B5A0F830DC95F6035C2E907E145
:102F28008C24671E458E086325F0150A17BE069483
:102F3800F778EA4B001AC53E5EFCDBCB75230B2005
:102F480039B12158ED953857AE147D88ABA844AFF8
:102F58004AA547868B301BA64D929EE7536FE57AAC
:102F68003CD385E6DC695C29372EF528F4668F3674
:102F780041193FA101D85049D14C84BBD05912A95D
:102F8800C8C4878274BC9F56A4646DC6ADBA03409A
:102F980034D9E2FA7C7B05CA2693767EFF5255D453
:102FA800CFCE3BE32F103A11B6BD1C2ADFB7AAD506
:102FB80077F898022C9AA346DD99659BA72BAC0954
:102FC800811627FD13626C6E4F71E0E8B2B9706824
:102FD800DAF661E4FB22F2C1EED2900CBFB3A2F1A3
:102FE800513391EBF90EEF6B31C0D61FB5C76A9D0F
:102FF800B854CCB07379322D7F0496FE8AECCD5D3F
:10300800DE72431D1848F38D80C34E42D73D9CB4F1
:103018001400000000000000140000000000000080
:103028001400000000000000140000000000000070
:103038001400000000000000140000000000000060
:103048001400000000000000140000000000000050
:103058000204060804080C1008101820102030403C
:1030680020406080010203040506070801020304EA
:10307800050607080000000000000000000000002E
:10308800000000000000000000000000FFFFFFFF3C
:10309800FFFFFFFFFFFFFFFFFFFFFFFF0000000034
:1030A8000100000000000000082D0000282D00008D
:1030B800E82C0000000000000000000000000000F4
:1030C80000000000000000000000000000000000F8
:1030D80000000000000000000000000000000000E8
:1030E80000000000000000000000000000000000D8
:1030F80000000000000000000000000000000000C8
:1031080000000000000000009C030020006CDC02AE
:10311800940100200004080C040040000004000092
:10312800010010000001001002040810020104034D
:00000001FF
