:100000006F10405F000000003C1000004010000036
:1000100000000000000000000000000000000000E0
:1000200000000000000000000000000000000000D0
:10003000AC0D000000000000C4150000000000002E
:10004000C6150000C8150000CA150000CC15000038
:100050004A0E0000D0150000D2150000D415000093
:10006000D6150000D8150000DA150000DC150000D8
:10007000DE150000E0150000E2150000E4150000A8
:10008000E6150000E8150000EA150000E80B000086
:10009000EE150000820C0000900C00000000000033
:1000A000511126C022C206C4828282441244A24058
:1000B000310182802A86014593F6150091C232955E
:1000C00085810606F5F9828000000000634E050276
:1000D00063C305042E86AA857D5515C285466378BF
:1000E000B6006356C00006068606E36CB6FE014500
:1000F00063E4C500918D558D85820582F5FA828075
:100100008682C93F2E8582823305A04063D70500D1
:10011000B305B040C1B7B305B0408682653F330533
:10012000A0408282868263C70500634905005D376F
:100130002E858282B305B040E35B05FE3305A04007
:10014000513F3305B04082820000EFF27FF5938784
:1001500001830384070003C541807111A285993F83
:100160001374F40F1317240005043A949387018342
:1001700080A3138421831E2003D7418383C6118368
:10018000BA97C207C1831EA0A187096793F7070F1B
:10019000130747E6D58FBA97138681839314050119
:1001A00083D6A18388231E2283C5C183B697C20745
:1001B000C18383C661831EA2A18793F7070FD58FE2
:1001C000BA979C239386E1833E9503D701849E22B0
:1001D00013838184BA97C207C1839EA2A18793F734
:1001E000070FCD8F8965938545F6AE979C230357FE
:1001F0000300C1843E9593558740620593C5F50F72
:1002000061853AC0453D83D7A18402471383818429
:100210003E97420741832310E30026972185635CC4
:10022000F700138681839386E18323100400231053
:1002300006002390060013050508B737014023AADE
:10024000A7C211019DB5EFF2BFE51C418297B1BD78
:1002500085476307F60089476306F60001458280FB
:100260000CC1EDBF9C411CC1D5BFB7170240944FD4
:10027000056713060782D18E94CFB716014003A6F7
:10028000064013070780419A23A0C64003A60640F4
:100290001366960123A0C640D4470D66558FD8C774
:1002A000D847FD769386F67F758FD8C737370140DC
:1002B000231407C29306F00F2316D7C2835647C1F3
:1002C00093E61600231AD7C0835607C293E6C600EA
:1002D0002310D7C2835607C2D18E2310D7C28356AC
:1002E00087C1216693E60606231CD7C09306000843
:1002F000232AD7C2835647C4D18E2312D7C483572B
:1003000007C093E717002310F7C08280EFF25FD990
:100310004111A13FA1650946938525A113858186D9
:10032000EF008065B70700009387A7143EC0B707AA
:100330000000938767243EC6B70700009387072510
:100340008A85138581863EC4EF00B002A24789C723
:100350008A850D462E858297138581866923410102
:10036000A9B3EFF2FFD31307600323A2E184096767
:10037000130181F913074706938741843AC03ED69B
:1003800082478433942363820424BC23139436006D
:100390003ED28247B306D44091073EC0B707002043
:1003A00013870700824783C7F7FF8607BA979E2304
:1003B0003EC882479C233ED48247BC3386073E9783
:1003C0001E233ED8C2472395F1848967138707C44B
:1003D000B2573304D7000C209A233A853AC4D9394E
:1003E00022470C3093170501C183239AF1823A8585
:1003F0003EC23AC6C13132472C2093170501C18352
:10040000239DF1823A853EC4753193170501C1835E
:100410002390F1843EC63C30A388F1823ECA5C2022
:10042000238BF1823ECC5C30238EF1823ECE7C2049
:100430001387C183138441833ED02382F180938745
:10044000A184BEC4A2C689671384A1839385018455
:100450001386118393866183BAD013874180A2C823
:10046000938707C4AECAB2CCB6CEBAD23704002046
:10047000FD1493F4F40F1307F00F638AE4000325CF
:100480008417EF10E0588967938707C4D5B71257D0
:10049000E30807EE1304F7FF22571374F40F9314C5
:1004A0003700998CBE94B2578C209E233E853ED453
:1004B000113192478C301D8D93170501C1873ED2B3
:1004C000A2573E853EDAFD36A247AC201D8D93171C
:1004D0000501C1873ED4D2573E85E93EB247524717
:1004E0001D8D93170501C1873EDABC30998FE20755
:1004F000E18762473EDCDC20998FE207E1877247A3
:100500003EDEDC308544998FE207E187BEC042477A
:10051000C257998FC207C1873ED88257B307F040B0
:10052000E207E187BEC2E34D94E41255A685593631
:10053000A285693E9247A6853E95B6478AA3225575
:10054000953EA2856136A247A6853E95C6478AA3F9
:1005500052558D36A2859D3EB247A6853E95D6471B
:100560008AA36255813EA2859536D247A6853E95DF
:10057000E64788A372553D3EA285893EE247A6859F
:100580003E95F64788A306453536A2858136F24763
:10059000A6853E95865788A34255293EA2853D36BD
:1005A000C247A68585043E95A6478AA316451936F7
:1005B000A285293E82573E95965788A3B70700200B
:1005C00003A58717EF10C044B9BF13018106F1BC22
:1005D000EFF21FADB7050040138581860123F1B40A
:1005E000EFF21FAC138581861129C1B401458280C9
:1005F00082807D558280EFF2BFAA1C417111CC81AF
:10060000DC439305310005468297110179BCEFF276
:100610003FA97111930531004105EF10203A01E522
:100620008881110159B47D55EDBFEFF27FA72E856A
:10063000B285EF10602895BC13F7F50FC54763ED41
:10064000E70089679387873B0A073E9793F7057012
:100650000C43CD8F5CD5828093F6050C1306000CFD
:10066000FD57E399C6FE9306700CE3E5E6FE93F7AB
:10067000F5030967130787398A07BA979C43096707
:100680001307873B8A07BA9793F505709C43D1B748
:1006900013F7F50FC54763EDE70089679387873B3D
:1006A0000A073E9793F705700C43CD8F1CD58280C7
:1006B00093F6050C1306000CFD57E399C6FE93064E
:1006C000700CE3E5E6FE93F7F50309671307873936
:1006D0008A07BA979C4309671307873B8A07BA972B
:1006E00093F505709C43D1B7EFF29F9B9307803E33
:1006F0001CC58967938787401CC10CC9232205004C
:100700009305600C2A840D3F9305500C22854937D0
:1007100058541C546314F700FD575CD4FD571CD883
:100720005CD86FF09F98EFF2BF97B7450140938573
:1007300005801385C18E4D3F6FF03F97EFF25F96B6
:100740001C452A8481CB0D46AA8582972324040068
:100750002326040022856FF05F95EFF27F9431111C
:100760000A8502C002C202C402C602C8EF00700DB0
:10077000124551016FF07F931C4581CBEFF25F92E0
:10078000AA850D4682976FF05F928280FD152E95A7
:100790001C2199CB89477D5563E7B7008605938770
:1007A0004181BE958A2182808D477D55E3EDB7FE5C
:1007B00086059387C181F5B79387F5FF0D47636E73
:1007C000F700EFF2FF8D51113EC02A84AE847D3FC9
:1007D0007D5782476314E50001A001A09204938431
:1007E0004403A2949444138701813E97182385C63D
:1007F00093864182BE969422084C3AC4B6853EC286
:1008000036C0EF00F01E8246084C0546B685EF0064
:1008100030172247924793962700A296D44231463A
:100820006369D60A09668A061306C642B2969442DE
:10083000084C8286A2979C2393150701C18199CF0A
:100840001146EF00F018084C216783574504D98FF3
:100850002312F5048545EF003011A5A80546EF00E9
:100860003015D5B70546BA853EC0EF0070148247F3
:1008700013878182BA97838707002285BE853EC091
:10088000313793150501084C0546C181EF00501220
:10089000084CA166854503574504558F2312E5048E
:1008A000EF00900C984415C782470D47084CFD1780
:1008B000FD546366F70093854182BE958421C2048E
:1008C000C180A685EF00D012084C0546A685EF0032
:1008D000300B31016FF06FFD0546BA8549B71E2117
:1008E000858BE5FB85BFEFF2AFFB5C5D2A8491CF82
:1008F000084D8545EF00D00F084C85450546EF00B3
:100900003008084C8545EF003006228585456D3559
:1009100022858945553522858D45793D914522852C
:10092000613D6FF08FF8EFF2AFF7084D8545EF00AE
:1009300050066FF08FF71C4D8A2305898280EFF2F5
:100940002FF62A84CD3F05E5084C5E25858B95C39F
:1009500001468545EF00D0022285F137084C8545D8
:10096000EF001009084C05468545EF0070016FF057
:10097000CFF322854D3FE5BFEFF28FF28547AA8482
:100980002E846301F60289476304F604814719C087
:100990009307F4FF8C4CC207C183DEB5268545372B
:1009A0006FF0AFF05D3BB7450F0093850524EFF086
:1009B0006FF2A285EFF00FF0935505019C4C139751
:1009C000050141839AB78505EFF0CFF02A847DBFFA
:1009D0006933A285EFF00FF0C5B7B73701409387B1
:1009E00007C06308F500B70700406316F50005452A
:1009F00082800145828041657D158280EFF24FEA59
:100A00002A84084DD93FAA8413058401EF00B04A17
:100A10008A041385C1842695232A0400930444087C
:100A2000232005001304440363868400C114268533
:100A3000A133DDBF6FF06FE7EFF28FE671112A840B
:100A4000C1642E852EC0FD14493F82456313950075
:100A500001A01C4C91C301A0931725001385C184EC
:100A60003E95930744011CC1930700085CD493078B
:100A700000041CD80CCC1305840140C8232E0400AC
:100A80002320040223120402EF00903F13054403C5
:100A90007531130544045D311305440545311305D3
:100AA00044066939130544075139084C23200400D2
:100AB0002322040023240400232604002328040006
:100AC000232E040004D08545EF00E06C084C93050C
:100AD000C401EF00806411016FF02FDDEFF24FDCF5
:100AE000232E050223260504232E050423260506AE
:100AF000232E0506232C05008137B7E700E02147A8
:100B000023A2E7101307000223A2E7101307000433
:100B100023A2E7106FF06FD9232405009C4589CFED
:100B2000EFF20FD809462A84AE848297DC445CC475
:100B30009C441CC46FF06FD78280EFF26FD62111F6
:100B40002A842800D13FB24714402247280036C4E7
:100B500054405CC0C24718C018441CC4D2473AC8AD
:100B600058445CC436C63ACA0139228561016FF027
:100B7000CFD3EFF2EFD22A845C5C1305450381C723
:100B80006D3F6FF08FD2AE844D3F9C44FDDB084C2F
:100B90008545B92D084C05468545DD23DDB7EFF2C7
:100BA0002FD0184519E3EF00B0685C4582976FF0CD
:100BB000CFCF11E101A0EFF2AFCE2A8408418545E5
:100BC000352D0DC11C40DE27858B89CF2285EF0096
:100BD000F02A08415C5D81C713054503C937084009
:100BE00085450D2D6FF06FCC03A5C18419C111058A
:100BF000C9377300203011E101A01C41DA27098BAD
:100C000011EBDA27118B19E7DA27218B01E7DA27B5
:100C1000418B3DC7EFF2CFC82A8489453E85F92B29
:100C20001C4015C189453E85F52385442285EF008A
:100C3000F024084192049384440326951C4591C3F3
:100C4000B93F6FF08FC63E8591454D2B1C4011C5B5
:100C500091453E85C1238944D1BF3E85A145792B6D
:100C60001C4011C5A1453E8575238D44C1B7C145C2
:100C70003E85692345DD0840C1459144612B7DB720
:100C8000828003A5C18419C11105B53773002030D6
:100C9000711122C01384C184484011C51105113F50
:100CA00048401105893F0244110173002030EFF2E2
:100CB0002FBF2A84EF00105548C41C402285DC4B0E
:100CC0008297635A0500EF00F0535C441D8D1C446D
:100CD000E365F5FE7D556FF04FBDEFF26FBC61111E
:100CE000AA8401442EC232C0630DC4002685C137D8
:100CF0006349050092450246B387850088A3050431
:100D0000D5B7228521016FF04FBAEFF26FB95111BB
:100D1000014495C6B684AA8701443E8532C42EC2DA
:100D20003EC07137634D05009245630AB500224607
:100D300082473307860008A30504E39084FE2285DA
:100D400031016FF08FB6EFF2AFB5E1206FF0EFB584
:100D5000EFF20FB585476301F50219C589476303B3
:100D6000F50201456FF06FB4114585458D2E37159D
:100D7000014013050580FDB7414585458D26371592
:100D80000140CDB7130500028545912E371501406E
:100D900013050540C1BF03A5818583A5C185828058
:100DA0008280EFF2EFAFC53F6FF02FB09387818560
:100DB00003A3070083A3470013071300333567001D
:100DC00098C3B3067500D4C3E13FB7F700E023A290
:100DD000070073002030EFF2AFAC37F400E02322BD
:100DE0000400232004002324040003A5818093052C
:100DF000803EEFF02FAE7D1508C8BD471CC07D5763
:100E0000B7E700E02386E740056723A0E7106FF00F
:100E1000CFA9EFF2EFA8C1376FF02FA9814705479F
:100E20006307E5008507058193F7F70FD5BF3707FF
:100E300000208E0713070708BA97DC4391C7EFF22B
:100E40002FA682976FF06FA68280611122C226C002
:100E50000544A1442285152019C52285352813157E
:100E600004014181653FFD140604EDF412448244FF
:100E700021017300203082808280B70701401387F0
:100E8000074083A70740584B698F09C77D8D3335CD
:100E9000A000828001458280B707014023AAA740B5
:100EA00082809C45611122C226C013F7070113F30B
:100EB000F70001C7D8413363E30092211377F60F9F
:100EC00029C783230500014713048002930480048B
:100ED0008546B395E600B376B6006392D5029312C9
:100EE0002700BD46B396560093C6F6FFB3F37600CF
:100EF000B3125300B3E37200639787064CC905072A
:100F0000A146E317D7FC232075001307F00F637881
:100F1000C70483234500A146130480029304800480
:100F20000547B312D700337756006394E202139754
:100F300026000117BD45B395E50093C5F5FFB3F352
:100F400075003317E300B363770063928702232AA7
:100F5000550085064147E395E6FC232275001244BF
:100F6000824421018280E39C97F80CC949BFE39237
:100F700097FE23285500F1BF3703014003274300A4
:100F80009317350063D00702B707C0FFF517F98F35
:100F900037070007D98FD9CD370700F07D17798D36
:100FA000C98F49A8635D0500B707E0FFED17F98F0A
:100FB00037070007D98FBDCD06050581D5B7B7071F
:100FC0003000931605013376F500C1826313F602F3
:100FD000370600F97D16B377C70003274300798EE3
:100FE0002322C300A1C95581131745003395E6009C
:100FF00045BF9317B50063D407029357050113F655
:10100000F7008D47B397C70093C7F7FFF98F3707EE
:101010000007D98F85C1135755011207C1BF5581EC
:1010200012053395A6009347F5FFF98F37070007A0
:10103000D98FBDF5370701405CC382807300203033
:1010400001A0EFF2EF85371702405C4391462A84F6
:10105000B18B6385D700A146638DD706B7376E0184
:10106000938707601CC0B7160240DC42918313F7D8
:10107000F700B70700209387470DBA978C23DC420F
:10108000184093F5F50F93F707083355B70081E73C
:101090003A85EFF02F8448C008C448C4B71702400F
:1010A000DC43AD83FD8B13D737008A07F18BD98FD3
:1010B00093F637010D476373D700D1173707002028
:1010C0001307070CBA978C23EFF0CF8008C86FE0A6
:1010D000DFFD5C43B777DC02938707C061B799C532
:1010E000371702401C4F5D8D08CF8280B717024032
:1010F000984F1345F5FF798D88CF828099C53717B2
:1011000002405C4F5D8D48CF8280B7170240D84FB8
:101110001345F5FF798DC8CF82801E2137370140F6
:10112000130707C0C207C1836306E5003707004005
:101130006316E500BA2193F7F7F8D98FFA2193F7F0
:10114000F7CFC207C183D98F1EA1DE215EB59E21D4
:101150001EB5B7370140938707C06314F5009C257F
:101160001EB985475EA982801E2189C593E71700B5
:101170001EA18280C207C183F99BC207C183CDBF74
:101180005E2501C6DD8D4EA5828093C5F5FFFD8DE0
:10119000DDBF4EA982801E2189C593E707081EA1E5
:1011A0008280C207C18393F7F7F7C207C183C5BF27
:1011B0001A318547B397B70093C7F7FFF98F1EB170
:1011C0001E31B315B600DD8DC205C1810EB182801E
:1011D0001A319147B397B70093C7F7FFF98F1EB144
:1011E0001E31B315B600DD8DC205C1810EB18280FE
:1011F00093C5F5FFC205C1810EA982801E294A252B
:10120000ED8F4205418189C76D8D3335A000828005
:101210000145828093C5F5FFC205C1810EA9828078
:10122000EFE21FE81629F577FD17F58FF621DA258D
:101230002111D58F1EA95625FD779387379FF58FEE
:10124000D6212A842EC0D58F9625D58FB625D58F49
:101250005EA55E29C207C18393F7F7CF5D8F5AA9B8
:101260004800C533B7470140938707808245631222
:10127000F406C2475A24139517003E9542070E05FF
:1012800041873E958C41635807048605EFE09FE453
:10129000930540062AC0EFE0FFE382479314450020
:1012A000930540063E85EFE0BFE55E24C207C18797
:1012B00063D507020E059305400613052503EFE0ED
:1012C0007FE11D89C98CC204C18006A461016FE061
:1012D000DFDDB24745B78A0555BF120593054006C5
:1012E00013052503EFE01FDF3D89E9BF91C55E25AA
:1012F0000967D98F5EA582805A25F977FD17F98F86
:10130000D5BF93F5F51F4EA182804A211375F51FB5
:1013100082805E2989C593E787005EA98280C20723
:10132000C183DD9BC207C183CDBF0A216D8D3335DB
:10133000A0008280B71702409843B706FFFC1367EE
:10134000170098C3D843758FD8C39843B706F7FEE4
:10135000FD16758F98C39843B706FCFFFD16758F71
:1013600098C3D44341777D17F98ED4C3B7069F0045
:1013700094C7B72602409042719A90C29042136679
:10138000160090C2D443D4C3D443758FD8C3D84376
:10139000B7060001D8C39843558F98C39843931656
:1013A0006700E3DD06FED843B7160240719BD8C341
:1013B000D84313672700D8C32147DC42B18BE39E93
:1013C000E7FE8280EFE2DFCD311102C402C602C81F
:1013D000FD576313F50001A093D7854093F4F707F9
:1013E0009377F5001397270089679387C74CBA97BF
:1013F0009C4311813D892E843EC0EFF07F952AC227
:101400008DC485450545EFF09FCD9387F4FF69476F
:10141000636DF70009678A0713070746BA979C436D
:10142000828785450545EFF03FB5935724401377F4
:1014300034008D8B7DC73AC609476380E70E0D47A0
:10144000638FE70C05476388E70CC1473EC8EDA0F2
:101450008145C9BF8545370500100905E9B78545B0
:1014600037054010DDBF8145E5BF85453705008064
:10147000110555BF85453705208075B7854537056A
:101480002080FDB78145E5BF37051600854513056A
:10149000050451BF8545370516001305050861B7DA
:1014A0008545370516001305050CB5BF8145D5BF29
:1014B00037051800854513050510B5B73705180021
:1014C00085451305052085B78545370518001305A3
:1014D000053091BF8145D5BF85452165A9B78145B7
:1014E000EDBF8545370520008DBF8145E5BF8545AA
:1014F00037052000B5BF8145E5BF8545370520008C
:1015000069BF8145E5BF85453705300013050540B6
:1015100019BF8145D5BFD14715BFE14705BFF14789
:1015200035B705476383E70299C789466381D702C8
:101530009307800221BF02C8824712452C007C8499
:10154000EFF03F9651016FE05FB6914701B711840C
:101550000D8893078004E31DE4FCCDBDFD577D5746
:10156000631CF50082806398A700EFE27FB38C458F
:10157000913D6FE09FB3B1059C41E396E7FE01A06A
:101580007D579C416394E700014582806394A700E6
:10159000C8418280B105F5B7FD576307F500EFE25A
:1015A0003FB0F93F6FE07FB0014582806305B50031
:1015B00019C181E5AA852E8582808145EDBF01A0F4
:1015C00001A001A001A001A001A001A001A001A013
:1015D00001A001A001A001A001A001A001A001A003
:1015E00001A001A001A001A001A001A001A001A0F3
:1015F00001A001A097F1FF1F93814138138181E879
:10160000171500001305C5F597F5FF1F9385859FF6
:101610001386018363FAC5008322050023A05500C9
:1016200011059105E3EAC5FE138501839385419C6D
:101630006377B500232005001105E36DB5FE930225
:101640000008739002308D427390428097F2FFFF42
:101650009382429B93E23200739052301705000050
:101660001305053FF92E0521EFF0DFCC97020000AE
:101670009382623873901234730020307115828027
:10168000EFE21FA21841B7370140938707C02A84B1
:101690006318F7000565854513050580EFF03FA445
:1016A0001840B70700406316F70085450545EFF081
:1016B000FFA46FE09F9FEFE2BF9E1841B737014044
:1016C000938707C02A846318F700056581451305D1
:1016D0000580EFF0DFA01840B70700406316F70061
:1016E00081450545EFF09FA16FE03F9CEFE25F9BD6
:1016F0001301C1FDAA84084D32C609662EC49305A4
:1017000006383ACA36C8493D2AD0C84C89669385FE
:10171000863659352A848850896593850535AD3DCF
:101720002AC0C850896593858533BD35025709663F
:1017300089662AC232CC36CE6304070ED04CFD56E1
:101740006304D600630E040C9050FD566305D6006A
:1017500082476387070CD050FD566305D600924739
:101760006380070C3A85A2859135824588C03D3D4E
:10177000924588C0253D88C045C5374701401307BD
:101780000780631BE50085451165EFF05F95130742
:1017900000022386040298D4E247884C93850738D8
:1017A000753B11C4F247C84C93858736453B824749
:1017B000814681CB885089659385053545339306ED
:1017C0000010924791CBC850896593E60620938517
:1017D000853336C061338246A24703C7C4028840BE
:1017E0009CC4B24713162700DEA4D2471387018694
:1017F0003297FEA4C2471386440010C33147C8C0C5
:101800009EA8BAA8D6A801E48545EFF09FB0C840CD
:1018100093858400EFF0DFA0C8408545EFF01FAD51
:10182000130141026FE07F88EFE29F87896783A7FA
:10183000C73A09671307873B8A07BA9780438965C8
:10184000938505382285EFF03FD519CD3705002067
:10185000F1659307450E01478146014693850520B2
:101860001305450E80CF59356FE03F84EFE25F836B
:101870008347C502930500021397270093870186CB
:10188000BA979C438843EFF05FAA133515006FE0C9
:10189000DF81EFE2FF808347C502930500041397C1
:1018A000270093870186BA979C438843EFF0FFA7F0
:1018B000133515006FE06FFFEFE28FFE4111370423
:1018C0000020AA842EC2EFF00FCD9307440E83C7E9
:1018D000C7022AC41304440E85E70347C402938752
:1018E00001860A07BA979C43F1173EC09387018689
:1018F0003EC68247D9EB02C2124541016FE0EFFAC2
:10190000896783A7C73A09671307873B8A07BA978E
:101910009C438966938506383E853EC0EFF0DFC75D
:10192000896671D923060402138701861C4391EF4F
:101930008347C402850793F7F70F2306F402FDD708
:10194000E5358347C402D1DB7DB702459385063870
:10195000EFF09FC40346C402138701869317260045
:10196000BA979C4389669C43E394A7FC3DD6C9BFC4
:10197000EFF06FC2A247B307F5403335F500E39CA3
:10198000A5F61307703EE368F7F6024519376DF1C7
:101990009247A6973EC4A247E380F4F60245D53DA0
:1019A00075FD8347C402324785048A07BA979C4372
:1019B00083C5F4FF8843EFF0DF94F1BF11E57D5557
:1019C00082807D556FE06FEEEFE28FEDAA842E846A
:1019D000713D65F983C7C402139727009387018679
:1019E000BA979C438843EFF05F9208A00145D9BFA6
:1019F0008280EFE2EFEAEFF00FB5EFE03F91EFE02A
:101A00005F96F5BFEFE2CFE9EFF0AFB96FE0EFE936
:101A100019CDEFE2EFE82A84EFF0AFB8AA84C93F0E
:101A2000EFF02FB8058DE36C85FE6FE00FE8828044
:101A3000511106C409205111194506C40D2205454E
:101A4000FD2AAA85814601460145A9A25111971791
:101A500000009387A7B022C217140000130444B0FB
:101A60001D8C26C006C40984BE8419E41244A24019
:101A7000824431016FF02FC07D1493172400A69784
:101A80009C438297DDB7511122C2971700009387BC
:101A900027AC171400001304A4AB1D8C26C006C489
:101AA0000984814463968402EFF00FBD971700000C
:101AB000938707AA17140000130444AA1D8C0984F5
:101AC000814463928402A2401244824431018280A4
:101AD000139724003E971843850402979717000038
:101AE000938707A7C1B7139724003E97184385042F
:101AF0000297971700009387A7A5E1B7FD4763F604
:101B0000B700D9471CC17D5582807C41411122C458
:101B100006C62E862A8491C713972500BA97984344
:101B200019EB228532C0B520AA85228522440246BF
:101B3000B240410115A8854601456308D700FD560E
:101B40006319D700D9471CC00545B2402244410162
:101B500082802E8523A0070002970145FDB7938759
:101B6000C180AA85884359BF511122C22A842E857B
:101B7000B28523A0019C06C46D28FD576317F500AC
:101B80009387019C9C4391C31CC0A2401244310125
:101B9000828051A8938741869C43AA8399EF13873B
:101BA000419323A2E18617E5FFFF1305A545BA87F8
:101BB00009C51C4123AEF19ABA87D8437D437D55B0
:101BC0006346E304638D030203A3870863000304F1
:101BD000931227009A9223A0C20003250310054602
:101BE0003316E600518D2320A31023A0D208894686
:101BF0006397D30083264310558E2322C310930688
:101C000017000A07D4C3BA978CC70145828097E7AB
:101C1000FFFF9387273F99C717050000130545E38A
:101C20006FF03FE282809307800523A0F19C7D55F1
:101C300082809307800523A0F19C7D55828001A0BE
:101C40000000000000000013435B0000000013438D
:101C50005B0000000013435B0000000013435B00C7
:101C60000000000A546E0D0A08000E495D0D0807B9
:101C70000013435B0E0D0800183F580F0E08001BA1
:101C800028590F0D0100172C570F0C0100151F5874
:101C90000F0C00001025520F0B0100142C570E0BD7
:101CA00000000E495D0D0B070012313E0C0B0500C4
:101CB0000E24520F0C0100121E580F0C000012339C
:101CC0003E0D0C060010256E0D0801000D1D500D77
:101CD0000800000F455D0E0C07000B185A0D080098
:101CE0000012323C0C0A05000E1E6E0D0801000B9E
:101CF000185A0D08000009536E0D0A0800062E51EF
:101D00000C0300000636790909000006566509062D
:101D100003000636790000000011435B000000005C
:101D2000064963070A0D0F064F6A00000000061AF5
:101D3000510303030F064279000000000E495D00C5
:101D40000000001025520000000009335D0F030061
:101D5000030A42670B05010008284C0B0300000A28
:101D60002F5D0B040000064F6500000000064F6564
:101D700000000000064279010000000542790100E0
:101D80000000066E79000A0E000000000202010049
:101D900013485A0E0E09001B27580F0D0100151F7E
:101DA000580F0C00001B2B580F0D0100121E580F6E
:101DB0000C00000D22520D080000061A510200000E
:101DC00000061A510401000F061A51000000000617
:101DD0004279020000000642790401000F064279B0
:101DE00000000000066E7001000000066E6E040127
:101DF000000F066E6E0000000006545E0100000039
:101E000006545E0401000F06545E00000000061A2E
:101E10005100000000061A5100000000061A51008F
:101E20000000000642790000000006427900000030
:101E30000006427900000000066D65000000000AFF
:101E400056650C0A07000A6D700000000006545E1B
:101E50000000000006545E000A050006545E000003
:101E60000000000000000000000000000000000072
:101E700000000000000202030304050607080A0C24
:101E80000E111418000404050607090B0D0F121695
:101E90001A1F252D00050607080A0C0E1114181C20
:101EA0002229313A00050607090A0C0F12151A1FDC
:101EB000252C353F00050607080A0C0E1114181CC6
:101EC0002229313A000404050607090B0D0F1216EA
:101ED0001A1F252D000202030304050607080A0C39
:101EE0000E111418000000000000000000000000A7
:101EF0000000000000FEFEFDFDFCFBFAF9F8F6F420
:101F0000F2EFECE800FCFCFBFAF9F7F5F3F1EEEA8E
:101F1000E6E1DBD300FBFAF9F8F6F4F2EFECE8E4E3
:101F2000DED7CFC600FBFAF9F7F6F4F1EEEBE6E107
:101F3000DBD4CBC100FBFAF9F8F6F4F2EFECE8E4FD
:101F4000DED7CFC600FCFCFBFAF9F7F5F3F1EEEAB9
:101F5000E6E1DBD300FEFEFDFDFCFBFAF9F8F6F44A
:101F6000F2EFECE800010202020303040505060893
:101F7000090B0D1000010202020303040505060807
:101F8000090B0D10000102020203030405050608F7
:101F9000090B0D10000102020203030405050608E7
:101FA000090B0D10000102020203030405050608D7
:101FB000090B0D10000102020203030405050608C7
:101FC000090B0D10000102020203030405050608B7
:101FD000090B0D10000102020203030405050608A7
:101FE000090B0D1000FFFEFEFEFDFDFCFBFBFAF8E9
:101FF000F7F5F3F000FFFEFEFEFDFDFCFBFBFAF83B
:10200000F7F5F3F000FFFEFEFEFDFDFCFBFBFAF82A
:10201000F7F5F3F000FFFEFEFEFDFDFCFBFBFAF81A
:10202000F7F5F3F000FFFEFEFEFDFDFCFBFBFAF80A
:10203000F7F5F3F000FFFEFEFEFDFDFCFBFBFAF8FA
:10204000F7F5F3F000FFFEFEFEFDFDFCFBFBFAF8EA
:10205000F7F5F3F000FFFEFEFEFDFDFCFBFBFAF8DA
:10206000F7F5F3F0390300273A0100273B01032776
:102070003008062715140327260A00240523032405
:10208000390300203A0100203B01032030080620DC
:1020900015140320260A001B0523031B3C02001D08
:1020A0003D02001D3E02001D060A031D2805001DFD
:1020B0001B02001F050A031F150500200B0A002044
:1020C000120500200A19001D1D05001D0802002030
:1020D0000F0A0020120300203903001B3A01001BE5
:1020E0003B01031B1050031B1405001B3105142278
:1020F000150A00221B080022240500270D1E0027B8
:10210000220A002748030024490300244A0400242B
:1021100017050024301E0024260500200528002075
:102120000B0A001D1305001D2205001F0B0A001FCE
:10213000290500200A0A0020020500220A140022B4
:1021400028050022090A0024280500241A0A002272
:1021500010500022060A00244502002446010024F3
:102160004702002419020025110A00250401002558
:1021700045010025460100254701002536020024BF
:102180003701002438020024050A00240A0F002227
:1021900008020027450200274602002747020027C1
:1021A00031010A27150A002702030024060A002429
:1021B000210200241B050022080A00221705002026
:1021C000063C00202C0200202D0200202E020020C0
:1021D00031050A2215050022480200244902002484
:1021E0004A0200240A1400240402002445020024A8
:1021F0004602001A470200240D0F00202205001D90
:102200000B14001D1702001D3901001D3A01001DAD
:102210003B01001D0D0F00204801001D4901001D5C
:102220004A01001D080C001D1705001B062D001B90
:102230002C02001B2D02001B2E02001B3601001B6E
:102240003701001B3801001B0A0A001B4501001B57
:102250004601001B4701001B1A0500200C0A0A203A
:1022600002050020020300240C0A00244801002477
:10227000490100244A010024080200221902002218
:1022800005140022450200224602002247020022D5
:102290000D0F001B48020020490200204A020020C6
:1022A0001702002009140020080500202905002439
:1022B0000A0A002408020022050A00224502002220
:1022C0004602002247020022090A002428050024B1
:1022D000080F0025360200273702002738020027A2
:1022E000310505271505002708050024060A0024E6
:1022F00048020020490200204A0200200209002072
:102300001B02002230050A22150A0022390200228F
:102310003A0200223B0200222205001B3201051B6B
:102320001205001B45020020460200204702002043
:10233000103200204500003D23000000003801401D
:1023400018000000FFFFFFFF000000000000000079
:1023500012000000003801400B000000FFFFFFFFEB
:1023600000000000000000002600000000380140CE
:1023700018000000FFFFFFFF000000000000000049
:1023800025000000003801400B000000FFFFFFFFA8
:10239000000000000000000001000000000000003C
:1023A000060000000C0000000D0000000F000000FF
:1023B000100000000E0000000100000002000000FC
:1023C00010000000110000001200000013000000C7
:1023D00014000000150000001600000017000000A7
:1023E0002000000021000000220000002300000067
:1023F0002400000025000000260000002700000047
:102400000000000000000000F60500002A060000A1
:10241000EC050000F0050000F20500000E060000CB
:10242000F2050000DA0C00000A0D0000DE080000D2
:10243000DE08000034080000340800003408000002
:10244000340800003408000034080000340800009C
:10245000D8080000D8080000D80800006408000070
:102460002214000050140000541400005E140000F8
:10247000661400006A140000741400007C1400004C
:10248000841400008814000094140000A0140000BC
:10249000AC140000B0140000BC140000C81400000C
:1024A000D4140000D8140000DE140000E214000070
:1024B000EA140000EE140000F6140000FA14000004
:1024C00002150000061500001215000001000000B2
:1024D00002000000040000000800000010000000DE
:1024E000200000004000000080000000000000000C
:1024F00000000000000000000000000000000000DC
:1025000000000000000000000000000000000000CB
:1025100000000000000000000000000000000000BB
:1025200000000000000000000000000000000000AB
:10253000000000000000000000000000000000009B
:0C2540000000000000000000000000008F
:0C254C000E1C0000D00500002607000057
:04255800E00500009A
:10255C003A003D004100450049004D005200560034
:10256C005C00610067006D0073007A0081008900D7
:10257C0091009A00A300AD00B700C200CE00DA00B3
:10258C00E700F400030112012301340146015A0152
:10259C006E0184019B01B301CD01E9010602250204
:1025AC00450268028C02B302DC020803360367039F
:1025BC009B03D2030C0449048B04D0041905670552
:1025CC00B90510066C06CE063507A3071708930845
:1025DC0014000000000000001400000000000000C7
:1025EC0014000000000000001400000000000000B7
:1025FC0014000000000000001400000000000000A7
:10260C001400000000000000140000000000000096
:10261C000204060804080C10081018201020304082
:10262C002040608001020304050607080102030430
:10263C000506070800000000000000000000000074
:10264C00000000000000000000000000FFFFFFFF82
:10265C00FFFFFFFFFFFFFFFFFFFFFFFF000000007A
:10266C0001000000000000000C2500002C250000DB
:10267C00EC2400000000000000000000000000003E
:10268C00000000000000000000000000000000003E
:10269C00000000000000000000000000000000002E
:1026AC00000000000000000000000000000000001E
:1026BC00000000000000000000000000000000000E
:1026CC0000000000000000000F0000000A000000E5
:1026DC00006CDC02140100200004080C0400400013
:1026EC00000400000100100000010010020408109A
:0826FC000201040300000000CC
:00000001FF
