:100000006F10602D00000000200D0000240D000086
:1000100000000000000000000000000000000000E0
:1000200000000000000000000000000000000000D0
:100030008C0A000000000000A61200000000000072
:10004000A8120000AA120000AC120000AE120000BC
:100050002E0B0000B2120000B4120000B612000015
:10006000B8120000BA120000BC120000BE1200005C
:10007000C0120000C2120000C4120000C61200002C
:10008000C8120000CA120000CC120000C80800000C
:10009000D01200006209000070090000000000009A
:1000A000511126C022C206C4828282441244A24058
:1000B000310182802A86014593F6150091C232955E
:1000C00085810606F5F9828000000000634E050276
:1000D00063C305042E86AA857D5515C285466378BF
:1000E000B6006356C00006068606E36CB6FE014500
:1000F00063E4C500918D558D85820582F5FA828075
:100100008682C93F2E8582823305A04063D70500D1
:10011000B305B040C1B7B305B0408682653F330533
:10012000A0408282868263C70500634905005D376F
:100130002E858282B305B040E35B05FE3305A04007
:10014000513F3305B04082820000EFF27FF51C4141
:100150008297A1BF85476307F60089476306F600CB
:10016000014582800CC1EDBF9C411CC1D5BF184127
:10017000935787019356F701858B13569701B58FD7
:100180009356D701B18E858AB58F0607D98F1CC1CA
:1001900013F5F70F8280EFF2BFF013850184D924A5
:1001A000370500201305850FD937B737014023AA3B
:1001B000A7C2138501840521CDBDB7170240944F16
:1001C000056713060782D18E94CFB716014003A6A8
:1001D000064013070780419A23A0C64003A60640A5
:1001E0001366960123A0C640D4470D66558FD8C725
:1001F000D847FD769386F67F758FD8C7373701408D
:10020000231407C29306F00F2316D7C2835647C1A3
:1002100093E61600231AD7C0835607C293E6C6009A
:100220002310D7C2835607C2D18E2310D7C283565C
:1002300087C1216693E60606231CD7C093060008F3
:10024000232AD7C2835647C4D18E2312D7C48357DB
:1002500007C093E717002310F7C08280EFF25FE436
:100260004111A13FAD650946938545C413850184BD
:10027000CD2EB7070000938767193EC0B70700006F
:100280009387A7143EC6B7070000938747158A8552
:10029000138501843EC4EF00C05BA24789C78A85ED
:1002A0000D462E8582971385018435264101F5BBC5
:1002B0008280EFF2FFDEB705004013850184FD293F
:1002C000EDB3EFF2FFDD138501840929F9BB014588
:1002D000828082807D558280EFF29FDC1C4171110B
:1002E000CC81DC439305310005468297110175BB33
:1002F000EFF21FDB7111930531004105EF10003A59
:1003000001E58881110155B37D55EDBFEFF25FD94D
:100310002E85B285EF10402849BB13F7F50FC5476E
:1003200063EDE70089679387C7970A073E9793F7BE
:1003300005700C43CD8F5CD5828093F6050C1306B7
:10034000000CFD57E399C6FE9306700CE3E5E6FE4C
:1003500093F7F50309671307C7958A07BA979C4374
:1003600009671307C7978A07BA9793F505709C43E7
:10037000D1B713F7F50FC54763EDE700896793879A
:10038000C7970A073E9793F705700C43CD8F1CD58E
:10039000828093F6050C1306000CFD57E399C6FE08
:1003A0009306700CE3E5E6FE93F7F5030967130780
:1003B000C7958A07BA979C4309671307C7978A07A7
:1003C000BA9793F505709C43D1B7EFF27FCD9307B1
:1003D000803E1CC589679387C79C1CC10CC923221A
:1003E00005009305600C2A840D3F9305500C22856F
:1003F000493758541C546314F700FD575CD4FD571B
:100400001CD85CD85DB1EFF2BFC9B74501409385F8
:1004100005801385418C553F49B9EFF27FC81C45D3
:100420002A8481CB0D46AA858297232404002326A3
:10043000040022859DB9EFF2BFC631110A8502C0C2
:1004400002C202C402C602C8EF00F00D12455101FB
:10045000A9B91C4599C7EFF2BFC4AA850D4682977A
:10046000A9B18280EFF2DFC32A84084D0146FD4521
:10047000EF00501F084C8145EF00501D3DB1FD15A8
:100480002E951C2199CB89477D5563E7B7008605DA
:1004900093870181BE958A2182808D477D55E3ED4A
:1004A000B7FE860593878181F5B79387F5FF0D47E2
:1004B000636EF700EFF2DFBE51113EC02A84AE84B6
:1004C0007D3F7D5782476314E50001A001A092049F
:1004D00093844403A29494441387C1803E971823C5
:1004E00085C693860182BE969422084C3AC4B6858E
:1004F0003EC236C0EF00101E8246084C0546B68547
:10050000EF0050162247924793962700A296D442B6
:1005100031466369D60A09668A061306069FB296B3
:100520009442084C8286A2979C2393150701C181AF
:1005300099CF1146EF001018084C216783574504E6
:10054000D98F2312F5048545EF005010A5A8054664
:10055000EF005014D5B70546BA853EC0EF009013A2
:10056000824713874182BA97838707002285BE8519
:100570003EC0313793150501084C0546C181EF0097
:100580007011084CA166854503574504558F231209
:10059000E504EF00B00B984415C782470D47084C9F
:1005A000FD17FD546366F70093850182BE95842193
:1005B000C204C180A685EF00F011084C0546A6854F
:1005C000EF00500A3101D5B40546BA8551B71E2156
:1005D000858BEDFB8DBFEFF2BFAC5C5D2A8491CFC4
:1005E000084D8545EF00100F084C85450546EF0086
:1005F0007007084C8545EF007005228585457535E7
:10060000228589455D3522858D4545359145228573
:10061000693D61BCEFF2DFA8084D8545EF00B005EC
:1006200069B41C4D8A2305898280EFF27FA72A8452
:10063000CD3F05E5084C5E25858B8DC3014685457C
:10064000EF0050022285F937084C8545EF009008ED
:10065000084C05468545EF00F00081BC22855D3FD2
:10066000EDBFEFF2FFA38547AA842E846300F60254
:1006700089476300F604814719C09307F4FF8C4C47
:10068000C207C183DEB526854D3705B46D33B74546
:100690000F00938505243D3CA285293C9355050117
:1006A0009C4C1397050141839AB7850525342A840C
:1006B000D9B75133A285393CD5B7B73701409387B5
:1006C00007C06308F500B70700406316F50005454D
:1006D00082800145828041657D158280EFF25F9CBA
:1006E0002A84084DD93FAA8413058401EF00D04A1B
:1006F0008A04138581822695232A040093044408E2
:10070000232005001304440363868400C114268556
:100710008933DDBF6FF07F99EFF29F9871112A84C2
:10072000C1642E852EC0FD14493F82456313950098
:1007300001A01C4C91C301A0931725001385818251
:100740003E95930744011CC1930700085CD49307AE
:1007500000041CD80CCC1305840140C8232E0400CF
:100760002320040223120402EF00B03F13054403C8
:100770006D311305440455311305440579391305CA
:1007800044066139130544074939084C2320040005
:100790002322040023240400232604002328040029
:1007A000232E040004D08545EF00206D084C9305EE
:1007B000C401EF00C06411016FF03F8FEFF25F8E54
:1007C000232E050223260504232E050423260506D1
:1007D000232E0506232C05008137B7E700E02147CB
:1007E00023A2E7101307000223A2E7101307000457
:1007F00023A2E7106FF07F8B232405009C4589CF4F
:10080000EFF21F8A09462A84AE848297DC445CC4D6
:100810009C441CC46FF07F898280EFF27F88211195
:100820002A842800D13FB24714402247280036C40A
:1008300054405CC0C24718C018441CC4D2473AC8D0
:1008400058445CC436C63ACA2931228561016FF02A
:10085000DF85EFF2FF842A845C5C1305450381C7C2
:100860006D3F6FF09F84AE844D3F9C44FDDB084C90
:1008700085458D25084C05468545ED23DDB7EFF20E
:100880003F82184519E3EF0090665C4582976FF050
:10089000DF8111E101A0EFF2BF802A840841854584
:1008A00081250DC11C40DE27858B89CF2285EF0075
:1008B000102B08415C5D81C713054503C93708400B
:1008C00085451D2D6FF06FFE03A5818219C11105AD
:1008D000C9377300203011E101A01C41DA27098BD0
:1008E00011EBDA27118B19E7DA27218B01E7DA27D9
:1008F000418B3DC7EFF2CFFA2A8489453E85CD234F
:100900001C4015C189453E85C52B85442285EF00D5
:100910001025084192049384440326951C4591C3F5
:10092000B93F6FF08FF83E8591455D2B1C4011C596
:1009300091453E85D1238944D1BF3E85A1454D23B4
:100940001C4011C5A1453E85452B8D44C1B7C1450D
:100950003E85792345DD0840C1459144712B7DB723
:10096000828003A5818219C11105B537730020303B
:10097000711122C013848182484011C51105113FB5
:1009800048401105893F0244110173002030EFF205
:100990002FF12A84EF00F05448C41C402285DC4B20
:1009A0008297635A0500EF00D0535C441D8D1C44B0
:1009B000E365F5FE7D556FF04FEFEFF26FEE6111DD
:1009C000AA8401442EC232C0630DC4002685C137FB
:1009D0006349050092450246B387850088A3050454
:1009E000D5B7228521016FF04FECEFF26FEB51117B
:1009F000014495C6B684AA8701443E8532C42EC2FE
:100A00003EC07137634D05009245630AB50022462A
:100A100082473307860008A30504E39084FE2285FD
:100A200031016FF08FE8EFF2AFE7F1206FF0EFE701
:100A3000EFF20FE785476301F50219C589476303A4
:100A4000F50201456FF06FE6114585459D2E37157E
:100A5000014013050580FDB7414585459D263715A5
:100A60000140CDB7130500028545A12E3715014081
:100A700013050540C1BF03A5018383A5418382807F
:100A80008280EFF2EFE1C53F6FF02FE293870183A1
:100A900003A3070083A34700130713003335670040
:100AA00098C3B3067500D4C3E13FB7F700E023A2B3
:100AB000070073002030EFF2AFDE37F400E02322AE
:100AC00004002320040023240400B707002003A50A
:100AD000C70F9305803EEFF0EFDF7D1508C8BD47D7
:100AE0001CC07D57B7E700E02386E740056723A0D9
:100AF000E7106FF08FDBEFF2AFDA753F6FF0EFDAF0
:100B0000814705476307E5008507058193F7F70FE0
:100B1000D5BF370700208E0713070700BA97DC43BD
:100B200091C7EFF2EFD782976FF02FD882806111D3
:100B300022C226C00544A1442285152019C522855C
:100B40003528131504014181653FFD140604EDF4B9
:100B50001244824421017300203082808280B707D2
:100B600001401387074083A70740584B698F09C787
:100B70007D8D3335A000828001458280B70701401A
:100B800023AAA74082809C45611122C226C013F788
:100B9000070113F3F70001C7D8413363E300922143
:100BA0001377F60F29C7832305000147130480023A
:100BB000930480048546B395E600B376B60063924D
:100BC000D50293122700BD46B396560093C6F6FF92
:100BD000B3F37600B3125300B3E372006397870652
:100BE0004CC90507A146E317D7FC2320750013075E
:100BF000F00F6378C70483234500A14613048002E5
:100C0000930480040547B312D700337756006394EA
:100C1000E202139726000117BD45B395E50093C581
:100C2000F5FFB3F375003317E300B3637700639206
:100C30008702232A550085064147E395E6FC2322D7
:100C400075001244824421018280E39C97F80CC90C
:100C500049BFE39297FE23285500F1BF37030140B7
:100C6000032743009317350063D00702B707C0FF7F
:100C7000F517F98F37070007D98FD9CD370700F05F
:100C80007D17798DC98F49A8635D0500B707E0FF1F
:100C9000ED17F98F37070007D98FBDCD0605058100
:100CA000D5B7B7073000931605013376F500C1823A
:100CB0006313F602370600F97D16B377C7000327E2
:100CC0004300798E2322C300A1C955811317450023
:100CD0003395E60045BF9317B50063D407029357D9
:100CE000050113F6F7008D47B397C70093C7F7FFC9
:100CF000F98F37070007D98F85C1135755011207A0
:100D0000C1BF558112053395A6009347F5FFF98FB2
:100D100037070007D98FBDF5370701405CC38280D4
:100D20007300203001A0EFF2AFB7371702405C43E9
:100D300091462A84B18B6385D700A146638DD7067F
:100D4000B7376E01938707601CC0B7160240DC42BC
:100D5000918313F7F700B707002093874705BA97E9
:100D60008C23DC42184093F5F50F93F707083355B1
:100D7000B70081E73A85EFF0EFB548C008C448C432
:100D8000B7170240DC43AD83FD8B13D737008A07CA
:100D9000F18BD98F93F637010D476373D700D117C5
:100DA0003707002013070704BA978C23EFF08FB2A0
:100DB00008C86FF08FAF5C43B777DC02938707C03A
:100DC00061B799C5371702401C4F5D8D08CF8280EF
:100DD000B7170240984F1345F5FF798D88CF828071
:100DE00099C5371702405C4F5D8D48CF8280B71799
:100DF0000240D84F1345F5FF798DC8CF82801E2160
:100E000037370140130707C0C207C1836306E500F7
:100E1000370700406316E500BA2193F7F7F8D98F3A
:100E2000FA2193F7F7CFC207C183D98F1EA1DE2124
:100E30005EB59E211EB5B7370140938707C0631486
:100E4000F5009C251EB985475EA982801E2189C5B3
:100E500093E717001EA18280C207C183F99BC207D6
:100E6000C183CDBF5E2501C6DD8D4EA5828093C5B1
:100E7000F5FFFD8DDDBF4EA982801E2189C593E758
:100E800007081EA18280C207C18393F7F7F7C20744
:100E9000C183C5BF1A318547B397B70093C7F7FF22
:100EA000F98F1EB11E31B315B600DD8DC205C181AB
:100EB0000EB182801A319147B397B70093C7F7FFFD
:100EC000F98F1EB11E31B315B600DD8DC205C1818B
:100ED0000EB1828093C5F5FFC205C1810EA9828043
:100EE0001E294A25ED8F4205418189C76D8D333515
:100EF000A00082800145828093C5F5FFC205C181B3
:100F00000EA98280EFF2CF991629F577FD17F58F9C
:100F1000F621DA252111D58F1EA95625FD77938755
:100F2000379FF58FD6212A842EC0D58F9625D58F51
:100F3000B625D58F5EA55E29C207C18393F7F7CF8B
:100F40005D8F5AA94800C533B74701409387078092
:100F500082456312F406C2475A24139517003E9542
:100F600042070E0541873E958C416358070486056C
:100F7000EFF04F96930540062AC0EFF0AF958247F9
:100F800093144500930540063E85EFF06F975E246D
:100F9000C207C18763D507020E05930540061305F6
:100FA0002503EFF02F931D89C98CC204C18006A4CC
:100FB00061016FF08F8FB24745B78A0555BF1205A3
:100FC0009305400613052503EFF0CF903D89E9BF57
:100FD00091C55E250967D98F5EA582805A25F9776C
:100FE000FD17F98FD5BF93F5F51F4EA182804A21D9
:100FF0001375F51F82805E2989C593E787005EA976
:101000008280C207C183DD9BC207C183CDBF0A2195
:101010006D8D3335A0008280B71702409843B70624
:10102000FFFC1367170098C3D843758FD8C3984344
:10103000B706F7FEFD16758F98C39843B706FCFFF9
:10104000FD16758F98C3D44341777D17F98ED4C3AD
:10105000B7069F0094C7B72602409042719A90C28B
:1010600090421366160090C2D443D4C3D443758F04
:10107000D8C3D843B7060001D8C39843558F98C347
:10108000984393166700E3DD06FED843B716024087
:10109000719BD8C3D84313672700D8C32147DC42CC
:1010A000B18BE39EE7FE8280EFE29FFF311102C425
:1010B00002C602C8FD576313F50001A093D785400F
:1010C00093F4F7079377F5001397270089679387C1
:1010D00007A9BA979C4311813D892E843EC0EFF049
:1010E0003F952AC285C485450545E1399387F4FFBC
:1010F0006947636DF70009678A07130747A2BA9724
:101100009C43828785450545EFF05FB593572440A2
:10111000137734008D8B7DC73AC609476380E70E8D
:101120000D47638FE70C05476388E70CC1473EC84E
:10113000EDA08145C9BF8545370500100905E9B710
:10114000854537054010DDBF8145E5BF854537053D
:101150000080110555BF85453705208075B7854549
:1011600037052080FDB78145E5BF37051600854569
:101170001305050451BF85453705160013050508FD
:1011800061B78545370516001305050CB5BF8145C8
:10119000D5BF37051800854513050510B5B73705C8
:1011A000180085451305052085B7854537051800C6
:1011B0001305053091BF8145D5BF85452165A9B788
:1011C0008145EDBF8545370520008DBF8145E5BFD1
:1011D000854537052000B5BF8145E5BF8545370505
:1011E000200069BF8145E5BF8545370530001305FF
:1011F000054019BF8145D5BFD14715BFE14705BFA0
:10120000F14735B705476383E70299C7894663818C
:10121000D7029307800221BF02C8824712452C00E3
:101220007C84EFF05F9651016FE03FE8914701B792
:1012300011840D8893078004E31DE4FCCDBDFD57A8
:101240007D57631CF50082806398A700EFE25FE59D
:101250008C45993D6FE07FE5B1059C41E396E7FE43
:1012600001A07D579C416394E7000145828063940F
:10127000A700C8418280B105F5B7FD576307F500A7
:10128000EFE21FE2F93F6FE05FE201458280630514
:10129000B50019C181E5AA852E8582808145EDBF03
:1012A00001A001A001A001A001A001A001A001A036
:1012B00001A001A001A001A001A001A001A001A026
:1012C00001A001A001A001A001A001A001A001A016
:1012D00001A001A001A097F1FF1F9381216213815A
:1012E00081F0171500001305E58397F5FF1F93851F
:1012F00065D11386818263FAC5008322050023A08D
:10130000550011059105E3EAC5FE13858182938599
:10131000C1996377B500232005001105E36DB5FE83
:1013200093020008739002308D427390428097F2CE
:10133000FFFF938222CD93E2320073905230170563
:1013400000001305C53C6D2EF52EEFF0FFCC970283
:10135000000093822238739012347300203071158C
:101360008280EFE2FFD31841B7370140938707C06F
:101370002A846318F7000565854513050580EFF09D
:101380005FA41840B70700406316F7008545054580
:10139000EFF01FA56FE07FD1EFE29FD01841B73784
:1013A0000140938707C02A846318F70005658145CB
:1013B00013050580EFF0FFA01840B7070040631643
:1013C000F70081450545EFF0BFA16FE01FCEEFE2CA
:1013D0003FCD1301C1FDAA84084D32C609662EC453
:1013E000930546943ACA36C8493D2AD0C84C896606
:1013F0009385C69259352A8488508965938545918D
:10140000AD3D2AC0C85089659385C58FBD3502574B
:10141000096689662AC232CC36CE6304070ED04CE8
:10142000FD566304D600630E040C9050FD56630510
:10143000D60082476387070CD050FD566305D6005F
:1014400092476380070C3A85A2859135824588C012
:101450003D3D924588C0253D88C045C53747014080
:1014600013070780631BE50085451165EFF07F9545
:10147000130700022386040298D4E247884C938520
:101480004794753B11C4F247C84C9385C792453BBE
:101490008247814681CB8850896593854591453344
:1014A00093060010924791CBC850896593E60620B9
:1014B0009385C58F36C061338246A24703C7C402F5
:1014C00088409CC4B24713162700DEA4D247138776
:1014D00081833297FEA4C2471386440010C331476C
:1014E000C8C09EA8BAA8D6A801E48545EFF0BFB051
:1014F000C84093858400EFF0FFA0C8408545EFF019
:101500003FAD130141026FE05FBAEFE27FB9896737
:1015100083A7079709671307C7978A07BA97804376
:101520008965938545942285893B19CD370500202F
:10153000F1659307450601478146014693850520DD
:101540001305450680CF61356FE03FB6EFE25FB52A
:101550008347C50293050002139727009387818371
:10156000BA979C438843EFF09FAA133515006FE0AC
:10157000DFB3EFE2FFB28347C50293050004139780
:10158000270093878183BA979C438843EFF03FA855
:10159000133515006FE07FB1EFE29FB041113704C2
:1015A0000020AA842EC2EFF00FCD9307440683C714
:1015B000C7022AC41304440685E70347C40293877D
:1015C00081830A07BA979C43F1173EC093878183B2
:1015D0003EC68247D9EB02C2124541016FE0FFAC23
:1015E000896783A7079709671307C7978A07BA9779
:1015F0009C438966938546943E853EC0EFF0FFC7C5
:10160000896671D923060402138781831C4391EFF5
:101610008347C402850793F7F70F2306F402FDD72B
:10162000ED358347C402D1DB7DB7024593854694EF
:10163000EFF0BFC40346C4021387818393172600CB
:10164000BA979C4389669C43E394A7FC3DD6C9BFE7
:10165000EFF06FC2A247B307F5403335F500E39CC6
:10166000A5F61307703EE368F7F6024519376DF1EA
:101670009247A6973EC4A247E380F4F60245D53DC3
:1016800075FD8347C402324785048A07BA979C4395
:1016900083C5F4FF8843EFF01F95F1BF11E57D5539
:1016A00082807D556FE07FA0EFE29F9FAA842E8409
:1016B000713D65F983C7C40213972700938781831F
:1016C000BA979C438843EFF09F9208A00145D9BF89
:1016D000EFE21F9DEFF02FB5EFE05FB8EFE05FBDE9
:1016E000F5BFEFE2FF9BEFF0CFB96FE01F9C511108
:1016F00006C409205111194506C40D220545F52AD5
:10170000AA85814601460145A9A25111970700000B
:101710009387074122C2170400001304A4401D8CC4
:1017200026C006C40984BE8419E41244A24082443F
:1017300031016FF08FC27D1493172400A6979C434C
:101740008297DDB7511122C2970700009387873C2B
:10175000170400001304043C1D8C26C006C4098431
:10176000814463968402EFF06FBF97070000938770
:10177000673A170400001304A43A1D8C09848144BD
:1017800063928402A2401244824431018280139702
:1017900024003E971843850402979707000093871B
:1017A0006737C1B7139724003E9718438504029703
:1017B0009707000093870736E1B7FD4763F6B70048
:1017C000D9471CC17D5582807C41411122C406C687
:1017D0002E862A8491C713972500BA97984319EB50
:1017E000228532C0B520AA85228522440246B24015
:1017F000410115A8854601456308D700FD566319C8
:10180000D700D9471CC00545B2402244410182801F
:101810002E8523A0070002970145FDB7938781809D
:10182000AA85884359BF511122C22A842E85B285C8
:1018300023AC019806C46528FD576317F50093870C
:1018400081999C4391C31CC0A24012443101828003
:1018500049A89387C1839C43AA8399EF1387C190BA
:1018600023AEE18217E5FFFF1305C579BA8709C5E5
:101870001C4123AAF198BA87D8437D437D5563461E
:10188000E304638D030203A3870863000304931238
:1018900027009A9223A0C2000325031005463316A1
:1018A000E600518D2320A31023A0D2088946639718
:1018B000D30083264310558E2322C31093061700AE
:1018C0000A07D4C3BA978CC70145828097E7FFFF08
:1018D0009387477391C717050000130545E30DB5BE
:1018E00082809307800523ACF1987D558280930711
:1018F000800523ACF1987D55828001A02300000073
:101900000038014018000000FFFFFFFF000000004A
:101910000000000012000000003801400B00000031
:10192000FFFFFFFF00000000000000002600000095
:101930000038014018000000FFFFFFFF000000001A
:101940000000000025000000003801400B000000EE
:10195000FFFFFFFF0000000000000000010000008A
:1019600000000000060000000C0000000D00000058
:101970000F000000100000000E0000000100000039
:101980000200000010000000110000001200000022
:1019900013000000140000001500000016000000F5
:1019A00017000000200000002100000022000000BD
:1019B0002300000024000000250000002600000095
:1019C000270000000000000000000000D802000016
:1019D0000C030000CE020000D2020000D40200007E
:1019E000F0020000D4020000BA090000EA09000079
:1019F000CE050000CE0500002605000026050000EB
:101A0000260500002605000026050000260500002A
:101A100026050000C8050000C8050000C805000034
:101A200056050000041100003211000036110000BC
:101A300040110000481100004C1100005611000038
:101A40005E110000661100006A11000076110000AE
:101A5000821100008E110000921100009E11000002
:101A6000AA110000B6110000BA110000C011000058
:101A7000C4110000CC110000D0110000D8110000EA
:101A8000DC110000E4110000E8110000F411000076
:101A90000100000002000000040000000800000037
:101AA0001000000020000000400000008000000046
:101AB0000000000000000000000000000000000026
:101AC0000000000000000000000000000000000016
:101AD0000000000000000000000000000000000006
:101AE00000000000000000000000000000000000F6
:101AF00000000000000000000000000000000000E6
:101B000000000000000000000000000000000000D5
:0C1B1000CC180000B20200000604000027
:041B1C00C202000001
:101B2000140000000000000014000000000000008D
:101B3000140000000000000014000000000000007D
:101B4000140000000000000014000000000000006D
:101B5000140000000000000014000000000000005D
:101B60000204060804080C10081018201020304049
:101B700020406080010203040506070801020304F7
:101B8000050607080000000000000000000000003B
:101B9000000000000000000000000000FFFFFFFF49
:101BA000FFFFFFFFFFFFFFFFFFFFFFFF0000000041
:101BB0000100000000000000D01A0000F01A000030
:101BC000B01A00000000000000000000000000004B
:101BD0000000000000000000000000000000000005
:101BE00000000000000000000000000000000000F5
:101BF00000000000000000000000000000000000E5
:101C000000000000000000000000000000000000D4
:101C10000000000000000000AA55AA55006CDC027C
:101C2000940000200004080C0400400000040000A0
:101C3000010010000001001002040810020104035A
:00000001FF
