:100000006F10204F000000003C0F0000400F000068
:1000100000000000000000000000000000000000E0
:1000200000000000000000000000000000000000D0
:10003000820C000000000000C2140000000000005C
:10004000C4140000C6140000C8140000CA14000044
:10005000240D0000CE140000D0140000D2140000C3
:10006000D4140000D6140000D8140000DA140000E4
:10007000DC140000DE140000E0140000E2140000B4
:10008000E4140000E6140000E81400008A0A0000EE
:10009000EC140000240B0000320B000000000000F4
:1000A000511126C022C206C4828282441244A24058
:1000B000310182802A86014593F6150091C232955E
:1000C00085810606F5F9828000000000634E050276
:1000D00063C305042E86AA857D5515C285466378BF
:1000E000B6006356C00006068606E36CB6FE014500
:1000F00063E4C500918D558D85820582F5FA828075
:100100008682C93F2E8582823305A04063D70500D1
:10011000B305B040C1B7B305B0408682653F330533
:10012000A0408282868263C70500634905005D376F
:100130002E858282B305B040E35B05FE3305A04007
:10014000513F3305B04082820000EFF27FF55C45FD
:10015000511132C04CC52A846388F50813D3F54188
:10016000377622002E852EC41306761C9A8581468A
:100170001AC2EF10B032C20541814D8D4185124344
:100180002247635305000145FD4763D3A7007D4522
:1001900089669314250093860642A69688423A867D
:1001A0009A869355F5413AC41AC2EF10302F8966EA
:1001B0009386063AA6961356050188422247C20541
:1001C00012434D8E32959A863A869355F541EF103B
:1001D000F02C096713070732B30797009C43C20549
:1001E00041814D8DAA971CC00247A16763C9E700F2
:1001F000230404005C401840BA975CC011A81C247A
:1002000081C785471CA4FDB785471CA42322040091
:100210005C40370700046354F700998F5CC0484086
:100220003101298559B5EFF2BFE751112A8432C057
:10023000610501462EC4113F0247032304005C48B8
:1002400008C03303A340AA84135517401D8D81466F
:10025000130670149355F5411AC23EC0EF101024D6
:1002600082471243A242C20541814D8DB385A7004A
:100270001A864CC8130544009695C13D1357F541A5
:10028000BA8537067F0081463AC02AC2EF10102196
:10029000C20541814D8D41850247124363530500DC
:1002A00001459307F00763D4A7001305F00789679A
:1002B0001314250093870712A29788431A86BA86DB
:1002C0009355F5411AC23AC0EF10501D89679387C4
:1002D00007F2A29793560501884312430247C205CD
:1002E000CD8E36951A86BA869355F541EF10101BC0
:1002F0008967938707D23E94135705010840C205CA
:100300004D8F41663A95058E9356F6419355F541CA
:10031000EF10D018C20541814D8D310179B3EFF254
:100320003FD81C41829751B385476307F600894740
:100330006306F600014582800CC1EDBF9C411CC1E3
:10034000D5BFEFF2FFD503D6A18283D58182138575
:10035000418DD13D258513050508B737014023AAF6
:10036000A7C2A1B3B7170240944F056713060782CF
:10037000D18E94CFB716014003A60640130707801D
:10038000419A23A0C64003A606401366960123A007
:10039000C640D4470D66558FD8C7D847FD7693869B
:1003A000F67F758FD8C737370140231407C29306ED
:1003B000F00F2316D7C2835647C193E61600231ABF
:1003C000D7C0835607C293E6C6002310D7C2835610
:1003D00007C2D18E2310D7C2835687C1216693E608
:1003E0000606231CD7C093060008232AD7C28356CB
:1003F00047C4D18E2312D7C4835707C093E7170091
:100400002310F7C08280EFF2BFC94111A13F95656B
:1004100009469385256213850185FD2EB7070000E7
:10042000938727343EC0B70700009387E7313EC665
:10043000B7070000938787328A85138501853EC4FC
:10044000EF00205DA24789C78A850D462E858297D9
:10045000138501850D2E410189B9EFF27FC4A16595
:100460001165EF00207A2394A18261771305D007EC
:100470002395E182EF1080490DB9EFF27FC2B705F5
:10048000004013850185DD290DB1EFF27FC1138591
:100490000185292119B90145828082807D5582809C
:1004A000EFF21FC01C417111CC81DC439305310078
:1004B000054682971101D5BEEFF29FBE71119305DB
:1004C00031004105EF10403F01E588811101F1BE87
:1004D0007D55EDBFEFF2DFBC2E85B285EF10802D8C
:1004E000E9B613F7F50FC54763EDE7008967938712
:1004F00007520A073E9793F705700C43CD8F5CD5E2
:10050000828093F6050C1306000CFD57E399C6FE96
:100510009306700CE3E5E6FE93F7F503096713070E
:1005200007508A07BA979C430967130707528A073F
:10053000BA9793F505709C43D1B713F7F50FC547EC
:1005400063EDE7008967938707520A073E9793F7A1
:1005500005700C43CD8F1CD5828093F6050C1306D5
:10056000000CFD57E399C6FE9306700CE3E5E6FE2A
:1005700093F7F5030967130707508A07BA979C4357
:100580000967130707528A07BA9793F505709C43CA
:10059000D1B7EFF2FFB09307803E1CC58967938700
:1005A00007571CC10CC9232205009305600C2A843F
:1005B0000D3F9305500C2285493758541C54631441
:1005C000F700FD575CD4FD571CD85CD8F9BCEFF29E
:1005D0003FADB7450140938505801385C18F553FD9
:1005E000E9B4EFF2FFAB1C452A8481CB0D46AA8506
:1005F0008297232404002326040022857DB4EFF291
:100600003FAA31110A8502C002C202C402C602C852
:10061000EF0030131245510149BC1C4599C7EFF258
:100620003FA8AA850D46829749B48280FD152E9574
:100630001C2199CB89477D5563E7B70086059387D1
:100640000181BE958A2182808D477D55E3EDB7FEFD
:10065000860593878181F5B79387F5FF0D47636E14
:10066000F700EFF2FFA351113EC02A84AE847D3F14
:100670007D5782476314E50001A001A09204938492
:100680004403A29494441387C1803E97182385C6DF
:1006900093860182BE969422084C3AC4B6853EC227
:1006A00036C0EF00F0248246084C0546B685EF00C0
:1006B000301D2247924793962700A296D442314696
:1006C0006369D60A09668A0613064659B2969442A9
:1006D000084C8286A2979C2393150701C18199CF6C
:1006E0001146EF00F01E084C216783574504D98F4F
:1006F0002312F5048545EF003017A5A80546EF0045
:10070000301BD5B70546BA853EC0EF00701A824748
:1007100013874182BA97838707002285BE853EC032
:10072000313793150501084C0546C181EF0050187B
:10073000084CA166854503574504558F2312E504EF
:10074000EF009012984415C782470D47084CFD17DB
:10075000FD546366F70093850182BE958421C2042F
:10076000C180A685EF00D018084C0546A685EF008D
:10077000301131016FF07F930546BA8549B71E21CC
:10078000858BE5FB85BFEFF2BF915C5D2A8491CF3D
:10079000084D8545EF00D015084C85450546EF000E
:1007A000300E084C8545EF00300C228585456D35AF
:1007B00022858945553522858D45793D914522858E
:1007C000613D6FF09F8EEFF2BF8D084D8545EF00C4
:1007D000500C6FF09F8D1C4D8A2305898280EFF2AB
:1007E0003F8C2A84CD3F05E5084C5E25858B95C35B
:1007F00001468545EF00D0082285F137084C854534
:10080000EF00100F084C05468545EF0070076FF0AC
:10081000DF8922854D3FE5BFEFF29F888547AA8497
:100820002E846301F60289476304F604814719C0E8
:100830009307F4FF8C4CC207C183DEB5268545378C
:100840006FF0BF866D3BB7450F0093850524EFF031
:100850007F88A285EFF01F86935505019C4C139766
:10086000050141839AB78505EFF0DF862A847DBFB5
:100870007933A285EFF01F86C5B7B737014093875C
:1008800007C06308F500B70700406316F50005458B
:1008900082800145828041657D158280EFF25F8014
:1008A0002A84084DD93FAA8413058401EF00905093
:1008B0008A041385C1822695232A040093044408E0
:1008C000232005001304440363868400C114268595
:1008D000A933DDBF6FF06FFDEFF28FFC71112A8439
:1008E000C1642E852EC0FD14493F824563139500D7
:1008F00001A01C4C91C301A0931725001385C18250
:100900003E95930744011CC1930700085CD49307EC
:1009100000041CD80CCC1305840140C8232E04000D
:100920002320040223120402EF0070451305440340
:100930004D39130544047531130544055D31130524
:1009400044064531130544076939084C2320040047
:100950002322040023240400232604002328040067
:10096000232E040004D08545EF00E072084C930567
:10097000C401EF00806A11016FF02FF3EFF24FF224
:10098000232E050223260504232E0504232605060F
:10099000232E0506232C05008137B7E700E0214709
:1009A00023A2E7101307000223A2E7101307000495
:1009B00023A2E7106FF06FEF232405009C4589CF39
:1009C000EFF20FEE09462A84AE848297DC445CC4C1
:1009D0009C441CC46FF06FED8280EFF26FEC21112C
:1009E0002A842800D13FB24714402247280036C449
:1009F00054405CC0C24718C018441CC4D2473AC80F
:100A000058445CC436C63ACA0939228561016FF080
:100A1000CFE9EFF2EFE82A845C5C1305450381C758
:100A20006D3F6FF08FE8AE844D3F9C44FDDB084C7A
:100A30008545EF00E06B084C054685459125D5B707
:100A4000EFF20FE6184519E3EF00506E5C45829710
:100A50006FF0AFE511E101A0EFF28FE42A840841C5
:100A60008545692D0DC11C40DE27858B89CF2285E8
:100A7000EF00B03008415C5D81C713054503C937FD
:100A800008408545412D6FF04FE203A5C18219C191
:100A90001105C9377300203011E101A01C41DA278C
:100AA000098B11EBDA27118B19E7DA27218B01E784
:100AB000DA27418B3DC7EFF2AFDE2A8489453E85B8
:100AC000352D1C4015C189453E85A92585442285C3
:100AD000EF00B02A084192049384440326951C45F4
:100AE00091C3B93F6FF06FDC3E859145012D1C40ED
:100AF00011C591453E85392D8944D1BF3E85A1451B
:100B0000F52B1C4011C5A1453E8529258D44C1B753
:100B1000C1453E85E52345DD0840C1459144DD2BB7
:100B20007DB7828003A5C18219C11105B537730055
:100B30002030711122C01384C182484011C51105B3
:100B4000113F48401105893F0244110173002030D4
:100B5000EFF20FD52A84EF00B05A48C41C4022851A
:100B6000DC4B8297635A0500EF0090595C441D8D61
:100B70001C44E365F5FE7D556FF02FD3EFF24FD2A5
:100B80006111AA8401442EC232C0630DC4002685BF
:100B9000C1376349050092450246B387850088A3A3
:100BA0000504D5B7228521016FF02FD0EFF24FCF8A
:100BB0005111014495C6B684AA8701443E8532C4CA
:100BC0002EC23EC07137634D05009245630AB500E1
:100BD000224682473307860008A30504E39084FE7B
:100BE000228531016FF06FCC09CDEFF26FCB71111F
:100BF0002AC0EF00506E8245EFF0CFD211016FF0A6
:100C0000CFCA8280EFF2CFC92A846356B5003385FC
:100C1000A540D93F2A9422856FF02FC9EFF24FC823
:100C2000F1206FF08FC8EFF2AFC785476301F5027F
:100C300019C589476303F50201456FF00FC71145D8
:100C40008545712E3715014013050580FDB74145D7
:100C50008545712637150140CDB71305000285453E
:100C6000BD2E3715014013050540C1BF03A5818383
:100C700083A5C18382808280EFF28FC2C53F6FF06F
:100C8000CFC29387818303A3070083A34700130781
:100C900013003335670098C3B3067500D4C3E13F32
:100CA000B7F700E023A2070073002030EFF24FBF38
:100CB00037F400E02322040023200400232404004E
:100CC000B707002003A5C70F9305803EEFF08FC044
:100CD0007D1508C8BD471CC07D57B7E700E02386D7
:100CE000E740056723A0E7106FF02FBCEFF24FBB82
:100CF000753F6FF08FBB814705476307E5008507A8
:100D0000058193F7F70FD5BF370700208E0713072C
:100D10000700BA97DC4391C7EFF28FB882976FF064
:100D2000CFB88280611122C226C00544A144228529
:100D3000A92019C522858D20131504014181653F25
:100D4000FD140604EDF412448244210173002030A6
:100D5000370700201307870F1C439386419D3E955C
:100D60006369D500938681D463E5A60008C33E85F8
:100D70008280FD57EDBF82808280B70701401387D4
:100D8000074083A70740584B698F09C77D8D3335CE
:100D9000A000828001458280B707014023AAA740B6
:100DA00082809C45611122C226C013F7070113F30C
:100DB000F70001C7D8413363E30092211377F60FA0
:100DC00029C783230500014713048002930480048C
:100DD0008546B395E600B376B6006392D5029312CA
:100DE0002700BD46B396560093C6F6FFB3F37600D0
:100DF000B3125300B3E37200639787064CC905072B
:100E0000A146E317D7FC232075001307F00F637882
:100E1000C70483234500A146130480029304800481
:100E20000547B312D700337756006394E202139755
:100E300026000117BD45B395E50093C5F5FFB3F353
:100E400075003317E300B363770063928702232AA8
:100E5000550085064147E395E6FC232275001244C0
:100E6000824421018280E39C97F80CC949BFE39238
:100E700097FE23285500F1BF3703014003274300A5
:100E80009317350063D00702B707C0FFF517F98F36
:100E900037070007D98FD9CD370700F07D17798D37
:100EA000C98F49A8635D0500B707E0FFED17F98F0B
:100EB00037070007D98FBDCD06050581D5B7B70720
:100EC0003000931605013376F500C1826313F602F4
:100ED000370600F97D16B377C70003274300798EE4
:100EE0002322C300A1C95581131745003395E6009D
:100EF00045BF9317B50063D407029357050113F656
:100F0000F7008D47B397C70093C7F7FFF98F3707EF
:100F10000007D98F85C1135755011207C1BF5581ED
:100F200012053395A6009347F5FFF98F37070007A1
:100F3000D98FBDF5370701405CC382807300203034
:100F400001A0EFF2EF95371702405C4391462A84E7
:100F5000B18B6385D700A146638DD706B7376E0185
:100F6000938707601CC0B7160240DC42918313F7D9
:100F7000F700B707002093874705BA978C23DC4218
:100F8000184093F5F50F93F707083355B70081E73D
:100F90003A85EFF02F9448C008C448C4B717024000
:100FA000DC43AD83FD8B13D737008A07F18BD98FD4
:100FB00093F637010D476373D700D1173707002029
:100FC00013070704BA978C23EFF0CF9008C86FF08F
:100FD000CF8D5C43B777DC02938707C061B799C5B3
:100FE000371702401C4F5D8D08CF8280B717024033
:100FF000984F1345F5FF798D88CF828099C53717B3
:1010000002405C4F5D8D48CF8280B7170240D84FB9
:101010001345F5FF798DC8CF82801E2137370140F7
:10102000130707C0C207C1836306E5003707004006
:101030006316E500BA2193F7F7F8D98FFA2193F7F1
:10104000F7CFC207C183D98F1EA1DE215EB59E21D5
:101050001EB5B7370140938707C06314F5009C2580
:101060001EB985475EA982801E2189C593E71700B6
:101070001EA18280C207C183F99BC207C183CDBF75
:101080005E2501C6DD8D4EA5828093C5F5FFFD8DE1
:10109000DDBF4EA982801E2189C593E707081EA1E6
:1010A0008280C207C18393F7F7F7C207C183C5BF28
:1010B0001A318547B397B70093C7F7FFF98F1EB171
:1010C0001E31B315B600DD8DC205C1810EB182801F
:1010D0001A319147B397B70093C7F7FFF98F1EB145
:1010E0001E31B315B600DD8DC205C1810EB18280FF
:1010F00093C5F5FFC205C1810EA982801E294A252C
:10110000ED8F4205418189C76D8D3335A000828006
:101110000145828093C5F5FFC205C1810EA9828079
:10112000EFE21FF81629F577FD17F58FF621DA257E
:101130002111D58F1EA95625FD779387379FF58FEF
:10114000D6212A842EC0D58F9625D58FB625D58F4A
:101150005EA55E29C207C18393F7F7CF5D8F5AA9B9
:101160004800C533B7470140938707808245631223
:10117000F406C2475A24139517003E9542070E0500
:1011800041873E958C41635807048605EFE09FF444
:10119000930540062AC0EFE0FFF382479314450011
:1011A000930540063E85EFE0BFF55E24C207C18788
:1011B00063D507020E059305400613052503EFE0EE
:1011C0007FF11D89C98CC204C18006A461016FE052
:1011D000DFEDB24745B78A0555BF120593054006B6
:1011E00013052503EFE01FEF3D89E9BF91C55E259B
:1011F0000967D98F5EA582805A25F977FD17F98F87
:10120000D5BF93F5F51F4EA182804A211375F51FB6
:1012100082805E2989C593E787005EA98280C20724
:10122000C183DD9BC207C183CDBF0A216D8D3335DC
:10123000A0008280B71702409843B706FFFC1367EF
:10124000170098C3D843758FD8C39843B706F7FEE5
:10125000FD16758F98C39843B706FCFFFD16758F72
:1012600098C3D44341777D17F98ED4C3B7069F0046
:1012700094C7B72602409042719A90C2904213667A
:10128000160090C2D443D4C3D443758FD8C3D84377
:10129000B7060001D8C39843558F98C39843931657
:1012A0006700E3DD06FED843B7160240719BD8C342
:1012B000D84313672700D8C32147DC42B18BE39E94
:1012C000E7FE8280EFE2DFDD311102C402C602C810
:1012D000FD576313F50001A093D7854093F4F707FA
:1012E0009377F50013972700896793874763BA9729
:1012F0009C4311813D892E843EC0EFF0DF922AC2CB
:1013000085C485450545E1399387F4FF6947636DD9
:10131000F70009678A071307875CBA979C4382879F
:1013200085450545EFF05FB59357244013773400AA
:101330008D8B7DC73AC609476380E70E0D47638FE3
:10134000E70C05476388E70CC1473EC8EDA081451F
:10135000C9BF8545370500100905E9B7854537053B
:101360004010DDBF8145E5BF85453705008011058B
:1013700055BF85453705208075B7854537052080E1
:10138000FDB78145E5BF3705160085451305050402
:1013900051BF8545370516001305050861B785451A
:1013A000370516001305050CB5BF8145D5BF3705B8
:1013B0001800854513050510B5B737051800854594
:1013C0001305052085B78545370518001305053039
:1013D00091BF8145D5BF85452165A9B78145EDBF41
:1013E0008545370520008DBF8145E5BF854537051B
:1013F0002000B5BF8145E5BF85453705200069BFA1
:101400008145E5BF8545370530001305054019BF07
:101410008145D5BFD14715BFE14705BFF14735B776
:1014200005476383E70299C789466381D70293071B
:10143000800221BF02C8824712452C007C84EFF055
:101440005F9651016FE07FC6914701B711840D8807
:1014500093078004E31DE4FCCDBDFD577D57631C5D
:10146000F50082806398A700EFE29FC38C45993D09
:101470006FE0BFC3B1059C41E396E7FE01A07D5735
:101480009C416394E700014582806394A700C841B2
:101490008280B105F5B7FD576307F500EFE25FC045
:1014A000F93F6FE09FC0014582806305B50019C117
:1014B00081E5AA852E8582808145EDBF01A001A02E
:1014C00001A001A001A001A001A001A001A001A014
:1014D00001A001A001A001A001A001A001A001A004
:1014E00001A001A001A001A001A001A001A001A0F4
:1014F00001A097F1FF1F93816140138181F01715BF
:1015000000001305251D97F5FF1F9385A5AF1386D2
:10151000818263FAC5008322050023A055001105CE
:101520009105E3EAC5FE138581829385419D63772A
:10153000B500232005001105E36DB5FE93020008F8
:10154000739002308D427390428097F2FFFF938236
:1015500062AB93E23200739052301705000013051E
:10156000E53EF12E3929EFF0FFCC9702000093827F
:101570004238739012347300203071158280EFE28C
:101580003FB21841B7370140938707C02A846318D8
:10159000F7000565854513050580EFF05FA4184049
:1015A000B70700406316F70085450545EFF01FA516
:1015B0006FE0BFAFEFE2DFAE1841B737014093876E
:1015C00007C02A846318F700056581451305058067
:1015D000EFF0FFA01840B70700406316F700814501
:1015E0000545EFF0BFA16FE05FACEFE27FAB130109
:1015F000C1FDAA84084D32C609662EC49305864EE5
:101600003ACA36C8493D2AD0C84C89669385064DEA
:1016100059352A84885089659385854BAD3D2AC00C
:10162000C85089659385054ABD35025709668966A4
:101630002AC232CC36CE6304070ED04CFD5663046A
:10164000D600630E040C9050FD566305D600824709
:101650006387070CD050FD566305D6009247638020
:10166000070C3A85A2859135824588C03D3D92455B
:1016700088C0253D88C045C537470140130707800E
:10168000631BE50085451165EFF07F9513070002A8
:101690002386040298D4E247884C9385874E753B95
:1016A00011C4F247C84C9385074D453B824781469C
:1016B00081CB885089659385854B4533930600100F
:1016C000924791CBC850896593E606209385054AD9
:1016D00036C061338246A24703C7C40288409CC417
:1016E000B24713162700DEA4D2471387018432972E
:1016F000FEA4C2471386440010C33147C8C09EA849
:10170000BAA8D6A801E48545EFF0BFB0C8409385DC
:101710008400EFF0FFA0C8408545EFF03FAD130116
:1017200041026FE09F98EFE2BF97896783A7475117
:101730000967130707528A07BA978043896593851B
:10174000854E2285893B19CD37050020F165930729
:101750004506014781460146938505201305450648
:1017600080CF61356FE07F94EFE29F938347C5029E
:10177000930500021397270093870184BA979C432F
:101780008843EFF09FAA133515006FE01F92EFE238
:101790003F918347C5029305000413972700938761
:1017A0000184BA979C438843EFF03FA81335150096
:1017B0006FE0BF8FEFE2DF8E411137040020AA8473
:1017C0002EC2EFF0AFCA9307440683C7C7022AC4EC
:1017D0001304440685E70347C402938701840A077C
:1017E000BA979C43F1173EC0938701843EC6824757
:1017F000D9EB02C2124541016FE03F8B896783A795
:1018000047510967130707528A07BA979C438966AD
:101810009385864E3E853EC0EFF0FFC7896671D93D
:1018200023060402138701841C4391EF8347C402FB
:10183000850793F7F70F2306F402FDD7ED358347AD
:10184000C402D1DB7DB702459385864EEFF0BFC45D
:101850000346C4021387018493172600BA979C435A
:1018600089669C43E394A7FC3DD6C9BFEFF00FC047
:10187000A247B307F5403335F500E39CA5F61307FF
:10188000703EE368F7F6024519376DF19247A69767
:101890003EC4A247E380F4F60245D53D75FD83477B
:1018A000C402324785048A07BA979C4383C5F4FF74
:1018B0008843EFF01F95F1BF11E57D5582807D557E
:1018C0006FE0AFFEEFE2CFFDAA842E84713D65F993
:1018D00083C7C4021397270093870184BA979C4358
:1018E0008843EFF09F9208A00145D9BF8280EFE2C4
:1018F0002FFBEFF0AFB2EFE01FB1EFE01FB6F5BF87
:10190000EFE20FFAEFF04FB76FE02FFA19CDEFE2E9
:101910002FF92A84EFF04FB6AA84C93FEFF0CFB574
:10192000058DE36C85FE6FE04FF88280511106C48F
:1019300009205111194506C4612C0545CD26AA85FB
:10194000814601460145C1A45111971700009387B4
:1019500027D822C2171400001304C4D71D8C26C038
:1019600006C40984BE8419E41244A24082443101B1
:101970006FF06FC07D1493172400A6979C43829745
:10198000DDB7511122C2971700009387A7D3171410
:101990000000130424D31D8C26C006C4098481448E
:1019A00063968402EFF04FBD97170000938787D1AD
:1019B000171400001304C4D11D8C09848144639260
:1019C0008402A24012448244310182801397240091
:1019D0003E9718438504029797170000938787CE98
:1019E000C1B7139724003E971843850402979717B1
:1019F0000000938727CDE1B793878180AA8588432C
:101A000009A0411126C293843500F19806C622C46C
:101A1000A104B14763F5F404B14463E4B4042AC0FB
:101A2000A52C1387418414438247368439E01387F9
:101A30008184184301EB3E8581453EC0212223A4C9
:101A4000A18482473E85A6853EC0ED287D5782470A
:101A50006314E506314798C33E85812429A0E3DE5F
:101A600004FAB1471CC10145B240224492444101ED
:101A700082801840058F634E07022D466376E6008C
:101A800018C03A9404C031A058406392860223A241
:101A9000E1843E8519241305B400130744006199BD
:101AA000B307E540F1D33E94098F18C075BFD8C283
:101AB000CDB7A28640409DBF130435007198E30363
:101AC00085FCB305A4403E853EC0AD287D578247C6
:101AD000E31AE5FA41B751119387818022C280430E
:101AE00006C41C5C8DEB6145013FB737CDAB08DC0C
:101AF0009387E7301CC1B7176DE6938747235CC116
:101B0000B7E705009387C7EE1CC5AD475EA505473F
:101B1000814718C95CC9005C97170000938707B418
:101B2000904308484C48D443952A9307150033B591
:101B3000A7002E9548C81CC8A2401244060505817E
:101B400031018280511122C22A842E8523A8019C52
:101B500006C4EFF0EF9FFD576317F5009387019DD3
:101B60009C4391C31CC0A240124431018280FD47B6
:101B700063F6B700D9471CC17D5582807C41411175
:101B800022C406C62E862A8491C713972500BA97C9
:101B9000984319EB228532C0B520AA8522852244BC
:101BA0000246B240410115A8854601456308D700A9
:101BB000FD566319D700D9471CC00545B2402244E1
:101BC000410182802E8523A0070002970145FDB7C1
:101BD00093878180AA85884359BF511122C22A84E4
:101BE0002E85B28523A8019C06C42522FD576317C4
:101BF000F5009387019D9C4391C31CC0A2401244F1
:101C00003101828009A29387C1849C43AA8399EF02
:101C10001387419423A6E18417E5FFFF1305853E52
:101C2000BA8709C51C4123A6F19CBA87D8437D43D6
:101C30007D556346E304638D030203A387086300B5
:101C40000304931227009A9223A0C20003250310D5
:101C500005463316E600518D2320A31023A0D20899
:101C600089466397D30083264310558E2322C310E1
:101C7000930617000A07D4C3BA978CC70145828020
:101C800097E7FFFF9387073899C7170500001305EB
:101C9000E5CB6FF0DFCA82808280828021112AC268
:101CA00036C006CAAA8622C826C6328732C48147F1
:101CB0000145014333866600937317003304F50032
:101CC00093D2F6010583B33466008607638503006B
:101CD0003385840032838606B3E7570061FFAA8705
:101CE00089C52245EFE00FBDAA97024711C71245EB
:101CF000BA85EFE02FBCAA97D2404244B2441A857D
:101D0000BE85610182809307800523A8F19C7D55E3
:101D100082809307800523A8F19C7D55828001A0D5
:101D200000000000FDFFFFFFEDFFFFFFCBFFFFFF07
:101D30008EFFFFFF30FFFFFFABFEFFFFF8FDFFFF51
:101D400013FDFFFFF7FBFFFFA1FAFFFF0FF9FFFFF6
:101D500040F7FFFF32F5FFFFE7F2FFFF61F0FFFF03
:101D6000A4EDFFFFB4EAFFFF98E7FFFF57E4FFFF92
:101D7000FAE0FFFF8CDDFFFF18DAFFFFACD6FFFFB4
:101D800056D3FFFF27D0FFFF2FCDFFFF81CAFFFFF4
:101D900031C8FFFF54C6FFFFFFC4FFFF49C4FFFF68
:101DA00049C4FFFF19C5FFFFD1C6FFFF8BC9FFFF65
:101DB0005FCDFFFF69D2FFFFC2D8FFFF85E0FFFFC5
:101DC000CBE9FFFFADF4FFFF43010000A70F0000C8
:101DD000F01F00003432000087460000FC5C000069
:101DE000A775000095900000D7AD000078CD0000E9
:101DF00081EF0000FA130100E93A01004E6401008E
:101E00002A90010079BE010035EF01005222020044
:101E1000C55702007D8F020066C9020068050300F5
:101E2000694303004A830300E9C403002008040057
:101E3000C64C0400AF920400A9D90400812105001A
:101E4000016A0500ECB2050006FC05000E4506001F
:101E5000C08D0600D5D50600051D070004630700E8
:101E600084A7070035EA0700C62A0800E3680800CF
:101E700039A4080071DC080036110900314209005C
:101E80000B6F09006E97090004BB090077D90900A0
:101E900074F20900A7050A00C1120A0073190A00AA
:101EA00071190A0071120A002F040A0068EE090075
:101EB000DDD0090056AB09009C7D09007F47090071
:101EC000D508090078C10800497108002D180800DC
:101ED00013B60700EE4A0700B9D606007759060088
:101EE00030D30500F6430500E2AB0400150B0400F7
:101EF000B6610300F8AF020014F601004B34010094
:101F0000E76A00003B9AFFFF9FC2FEFF77E4FDFFF8
:101F10002E00FDFF3716FCFF0D27FBFF3133FAFFC4
:101F2000D1480600B04C060066540600E55F060086
:101F3000196F0600E481060023980600ACB1060084
:101F40004FCE0600D5ED0600011007008F340700C4
:101F5000385B0700AD8307009BAD0700ABD80700D7
:101F600081040800BC300800FA5C0800D48808002E
:101F7000E1B30800B4DD0800E2050900FB2B09000D
:101F80008F4F0900307009006C8D0900D6A609003A
:101F9000FEBB090078CC0900DAD70900BCDD0900D6
:101FA000B9DD090070D7090083CA090099B6090094
:101FB0005E9B090085780900C34D0900D51A090008
:101FC00081DF0800909B0800D44E080027F9070025
:101FD000699A0700853207006DC106001A4706009E
:101FE00091C30500DD36050013A10400540204006E
:101FF000C55A030099AA02000BF201005D310100ED
:10200000DE680000E598FFFFCEC1FEFF05E4FDFF9E
:10201000F9FFFCFF2416FCFF0927FBFF3133FAFF11
:102020002D3BF9FF983FF8FF1041F7FF3C40F6FFCA
:10203000CA3DF5FF6A3AF4FFD636F3FFC933F2FF23
:102040000332F1FF4A32F0FF6435EFFF1B3CEEFF35
:102050003B47EDFF9257ECFFEC6DEBFF188BEAFF6F
:10206000E4AFE9FF1ADDE8FF8513E8FFEE53E7FF71
:10207000179FE6FFC3F5E5FFAB58E5FF89C8E4FF0E
:102080000B46E4FFDDD1E3FFA26CE3FFF516E3FFAF
:102090006BD1E2FF8C9CE2FFDB78E2FFCE66E2FFD1
:1020A000D166E2FF4579E2FF829EE2FFD0D6E2FFF1
:1020B0006D22E3FF8981E3FF4AF4E3FFC57AE4FF81
:1020C0000215E5FFFEC2E5FFA384E6FFD159E7FF55
:1020D0005942E8FFFA3DE9FF694CEAFF4A6DEBFF20
:1020E00033A0ECFFABE4EDFF2B3AEFFF20A0F0FFB5
:1020F000E515F2FFCB9AF3FF142EF5FFF5CEF6FFB0
:10210000977CF8FF1536FAFF81FAFBFFDFC8FDFF69
:102110002AA0FFFF527F01003F650300CE5005005B
:10212000FF83FFFF488CFEFF7695FDFF22A0FCFF9A
:10213000E3ACFBFF4FBCFAFFF9CEF9FF75E5F8FF02
:102140005300F8FF2020F7FF6545F6FFAB70F5FF61
:1021500074A2F4FF3FDBF3FF881BF3FFC463F2FFBD
:1021600065B4F1FFD70DF1FF8070F0FFC2DCEFFF27
:10217000F852EFFF77D3EEFF8E5EEEFF84F4EDFFB3
:102180009B95EDFF0D42EDFF0FFAECFFCBBDECFF91
:10219000698DECFF0569ECFFB650ECFF8A44ECFF5B
:1021A0008A44ECFFB650ECFF0569ECFF698DECFF4B
:1021B000CBBDECFF0FFAECFF0D42EDFF9B95EDFF61
:1021C00084F4EDFF8E5EEEFF77D3EEFFF852EFFF63
:1021D000C2DCEFFF8070F0FFD70DF1FF65B4F1FFB7
:1021E000C463F2FF881BF3FF3FDBF3FF74A2F4FF2D
:1021F000AB70F5FF6545F6FF2020F7FF5300F8FFB1
:1022000075E5F8FFF9CEF9FF4FBCFAFFE3ACFBFF31
:1022100022A0FCFF7695FDFF488CFEFFFF83FFFFA9
:10222000017C0000B87301008A6A0200DE5F0300CF
:102230001D530400B1430500073106008B1A070047
:10224000ADFF0700E0DF08009BBA0900558F0A00C8
:102250008C5D0B00C1240C0078E40C003C9C0D004C
:102260009B4B0E0029F20E00808F0F003E231000C2
:1022700008AD1000892C110072A111007C0B120016
:10228000656A1200F3BD1200F10513003542130018
:1022900097721300FB9613004AAF130076BB13002E
:1022A00076BB13004AAF1300FB961300977213001E
:1022B00035421300F1051300F3BD1200656A1200E8
:1022C0007C0B120072A11100892C110008AD1000C6
:1022D0003E231000808F0F0029F20E009B4B0E0052
:1022E0003C9C0D0078E40C00C1240C008C5D0B00BC
:1022F000558F0A009BBA0900E0DF0800ADFF070018
:102300008B1A070007310600B14305001D53040076
:10231000DE5F03008A6A0200B8730100017C0000DE
:1023200065C200004BC300009CC700005DD30000E5
:10233000B5EC0000C61C0100D0700100BFFB01001D
:102340002CD80200162B04006C270600BC120900D2
:10235000574B0D0049501300CDCB1B00D5A02700D3
:1023600099FC3700476D4E0057FF6C00476396009D
:10237000281ECE00F5C718017A5B7C01949C0002F0
:10238000F29AAF02EC58960346A0C5041C115306FE
:102390007B7A5A084590FF0AFE16700EACA4E6122E
:1023A000DE3E0500BAFF040030670400B1510300AF
:1023B0008290010098E6FEFF8D04FBFF9F83F5FFEE
:1023C0003FDFEDFF086DE3FF9952D5FFCD78C2FFE7
:1023D000B77BA9FF7E9688FF248A5DFFEA7D25FFF3
:1023E000C6D7DCFEEB0A7FFE065A06FE1A8A6BFD94
:1023F0004482A5FCC2D3A8FB7A2467FADB74CEF82A
:102400003938C8F6B43438F4181DFBF0E1D3E4ECE5
:102410009842BEE7D7AB42E11E581CD92C76E0CEDD
:102420002620140023751800D5B81D009C1E24001A
:10243000ECE42B00A3573500FAD2400001C74E0050
:10244000E6BB5F0029577400E8618D008DD0AB00BA
:102450001CCCD00089BDFD00795B3401FDBA76014A
:10246000E163C701646929023788A002F84A310391
:102470008536E103DBFFB6048ACDBA054187F6064F
:102480007E367608057C480AAB1E7F0CCDB82F0F30
:10249000338B7412447D6D166A54411B7B2E1F21B1
:1024A000230000000038014018000000FFFFFFFF7C
:1024B0000000000000000000120000000038014091
:1024C0000B000000FFFFFFFF000000000000000005
:1024D000260000000038014018000000FFFFFFFF49
:1024E000000000000000000025000000003801404E
:1024F0000B000000FFFFFFFF0000000000000000D5
:102500000100000000000000060000000C000000B8
:102510000D0000000F000000100000000E00000081
:102520000100000002000000100000001100000087
:10253000120000001300000014000000150000004D
:10254000160000001700000020000000210000001D
:1025500022000000230000002400000025000000ED
:10256000260000002700000000000000000000001E
:10257000A0040000D4040000960400009A040000A7
:102580009C040000B80400009C0400007C0B0000C8
:10259000AC0B00007E0700007E070000D4060000A0
:1025A000D4060000D4060000D4060000D4060000C3
:1025B000D4060000D4060000780700007807000069
:1025C0007807000004070000201300004E130000ED
:1025D000521300005C130000641300006813000035
:1025E000721300007A1300008213000086130000AB
:1025F000921300009E130000AA130000AE13000007
:10260000BA130000C6130000D2130000D613000056
:10261000DC130000E0130000E8130000EC130000DE
:10262000F4130000F813000000140000041400006C
:10263000101400000100000002000000040000006F
:102640000800000010000000200000004000000012
:1026500080000000000000002D7F954C2DF45158A3
:10266000000000000000000000000000000000006A
:10267000000000000000000000000000000000005A
:10268000000000000000000000000000000000004A
:10269000000000000000000000000000000000003A
:1026A000000000000000000000000000000000002A
:1026B000000000000000000000000000000000001A
:0C26C000801C00007A040000CE05000021
:0426CC008A0400007C
:1026D00014000000000000001400000000000000D2
:1026E00014000000000000001400000000000000C2
:1026F00014000000000000001400000000000000B2
:1027000014000000000000001400000000000000A1
:102710000204060804080C1008101820102030408D
:10272000204060800102030405060708010203043B
:10273000050607080000000000000000000000007F
:10274000000000000000000000000000FFFFFFFF8D
:10275000FFFFFFFFFFFFFFFFFFFFFFFF0000000085
:10276000010000000000000080260000A0260000FC
:1027700060260000000000000000000000000000D3
:102780000000000000000000000000000000000049
:102790000000000000000000000000000000000039
:1027A0000000000000000000000000000000000029
:1027B0000000000000000000000000000000000019
:1027C0000000000000000000CC020020006CDC02D1
:1027D000940000200004080C0400400000040000E5
:1027E000010010000001001002040810020104039F
:00000001FF
