:100000006F10603D00000000200E0000240E000074
:1000100000000000000000000000000000000000E0
:1000200000000000000000000000000000000000D0
:100030008C0B000000000000A61300000000000070
:10004000A8130000AA130000AC130000AE130000B8
:100050002E0C0000B2130000B4130000B613000011
:10006000B8130000BA130000BC130000BE13000058
:10007000C0130000C2130000C4130000C613000028
:10008000C8130000CA130000CC130000C809000008
:10009000D0130000620A0000700A00000000000097
:1000A000511126C022C206C4828282441244A24058
:1000B000310182802A86014593F6150091C232955E
:1000C00085810606F5F9828000000000634E050276
:1000D00063C305042E86AA857D5515C285466378BF
:1000E000B6006356C00006068606E36CB6FE014500
:1000F00063E4C500918D558D85820582F5FA828075
:100100008682C93F2E8582823305A04063D70500D1
:10011000B305B040C1B7B305B0408682653F330533
:10012000A0408282868263C70500634905005D376F
:100130002E858282B305B040E35B05FE3305A04007
:10014000513F3305B04082820000EFF27FF51C4141
:100150008297A1BF85476307F60089476306F600CB
:10016000014582800CC1EDBF9C411CC1D5BFEFF29F
:100170003FF36111AA85AA84EF10F04BB727000066
:1001800083A5075F2A842685EF10F04AA285EF1029
:10019000904AAA852AC22685EF10F072B726000081
:1001A000924783A5465F2AC03E85EF10D048A285BE
:1001B000EF1070480247AA84AA853A85EF10F00E26
:1001C000372700008325875F2AC02685EF10B046B9
:1001D000A285EF1050468247AA84AA853E85EF107B
:1001E000906E372700008325C75F2AC02685EF1051
:1001F0009044A285EF1030448247AA84AA853E85A8
:10020000EF10B00A37270000832507602AC0268533
:10021000EF107042A285EF1010428247AA853E85FA
:10022000EF10706A210151B5EFF29FE7711113854C
:1002300001840D26370400200327840F1304840F44
:100240003A853AC02D37B727000083A5475DEF10E8
:10025000903EB727000083A5875DEF101005EF20C3
:10026000E01E0247B737014023AAA7C23A85EF2014
:100270004023B727000003A6875E83A6C75EEF1062
:10028000C0766357A000B727000083A7C75D1CC0D6
:10029000B7270000084083A5075EEF10100108C0D3
:1002A000138501840D21110109B5B7170240944F40
:1002B000056713060782D18E94CFB716014003A6B7
:1002C000064013070780419A23A0C64003A60640B4
:1002D0001366960123A0C640D4470D66558FD8C734
:1002E000D847FD769386F67F758FD8C7373701409C
:1002F000231407C29306F00F2316D7C2835647C1B3
:1003000093E61600231AD7C0835607C293E6C600A9
:100310002310D7C2835607C2D18E2310D7C283566B
:1003200087C1216693E60606231CD7C09306000802
:10033000232AD7C2835647C4D18E2312D7C48357EA
:1003400007C093E717002310F7C08280EFF25FD554
:100350004111A13FAD650946938545C413850184CC
:10036000E52EB7070000938787223EC0B70700003D
:100370009387A7143EC6B7070000938747158A8561
:10038000138501843EC4EF00C05CA24789C78A85FB
:100390000D462E858297138501843526410131B3A0
:1003A0008280EFF2FFCFB705004013850184392327
:1003B000EDB9EFF2FFCE138501840D21FDB10145AA
:1003C000828082807D558280EFF29FCD1C41711129
:1003D000CC81DC4393053100054682971101F1B1D0
:1003E000EFF21FCC7111930531004105EF10003B76
:1003F00001E58881110155B97D55EDBFEFF25FCA66
:100400002E85B285EF1040294DB113F7F50FC54782
:1004100063EDE7008967938747680A073E9793F77C
:1004200005700C43CD8F5CD5828093F6050C1306C6
:10043000000CFD57E399C6FE9306700CE3E5E6FE5B
:1004400093F7F5030967130747668A07BA979C4332
:100450000967130747688A07BA9793F505709C43A5
:10046000D1B713F7F50FC54763EDE70089679387A9
:1004700047680A073E9793F705700C43CD8F1CD54C
:10048000828093F6050C1306000CFD57E399C6FE17
:100490009306700CE3E5E6FE93F7F503096713078F
:1004A00047668A07BA979C430967130747688A0714
:1004B000BA9793F505709C43D1B7EFF27FBE9307CF
:1004C000803E1CC589679387476D1CC10CC92322D8
:1004D00005009305600C2A840D3F9305500C22857E
:1004E000493758541C546314F700FD575CD4FD572A
:1004F0001CD85CD85DBEEFF2BFBAB745014093850A
:1005000005801385418C553F4DB6EFF27FB91C45F0
:100510002A8481CB0D46AA858297232404002326B2
:100520000400228559B6EFF2BFB731110A8502C027
:1005300002C202C402C602C8EF00F00E1245510109
:10054000ADB61C4599C7EFF2BFB5AA850D46829797
:10055000A9BE8280EFF2DFB42A84084D0146FD4532
:10056000EF005020084C8145EF00501E3DBEFD15A8
:100570002E951C2199CB89477D5563E7B7008605E9
:1005800093870181BE958A2182808D477D55E3ED59
:10059000B7FE860593878181F5B79387F5FF0D47F1
:1005A000636EF700EFF2DFAF51113EC02A84AE84D4
:1005B0007D3F7D5782476314E50001A001A09204AE
:1005C00093844403A29494441387C1803E971823D4
:1005D00085C693860182BE969422084C3AC4B6859D
:1005E0003EC236C0EF00101F8246084C0546B68555
:1005F000EF0050172247924793962700A296D442C5
:1006000031466369D60A09668A061306866FB29672
:100610009442084C8286A2979C2393150701C181BE
:1006200099CF1146EF001019084C216783574504F4
:10063000D98F2312F5048545EF005011A5A8054672
:10064000EF005015D5B70546BA853EC0EF009014AF
:10065000824713874182BA97838707002285BE8528
:100660003EC0313793150501084C0546C181EF00A6
:100670007012084CA166854503574504558F231217
:10068000E504EF00B00C984415C782470D47084CAD
:10069000FD17FD546366F70093850182BE958421A2
:1006A000C204C180A685EF00F012084C0546A6855D
:1006B000EF00500B3101D5BA0546BA8551B71E215E
:1006C000858BEDFB8DBFEFF2BF9D5C5D2A8491CFE2
:1006D000084D8545EF001010084C85450546EF0094
:1006E0007008084C8545EF007006228585457535F4
:1006F000228589455D3522858D4545359145228583
:10070000693D6FF09F9AEFF2BF99084D8545EF0064
:1007100090066FF09F991C4D8A2305898280EFF225
:100720003F982A84CD3F05E5084C5E25858B95C30F
:1007300001468545EF0010032285F137084C8545B9
:10074000EF005009084C05468545EF00B0016FF0F9
:10075000DF9522854D3FE5BFEFF29F948547AA8440
:100760002E846301F60289476304F604814719C0A9
:100770009307F4FF8C4CC207C183DEB5268545374D
:100780006FF0BF924D33B7450F0093850524EFF00E
:100790007F94A285EFF01F92935505019C4C13970F
:1007A000050141839AB78505EFF0DF922A847DBF6A
:1007B0009D3BA285EFF01F92C5B7B73701409387E5
:1007C00007C06308F500B70700406316F50005454C
:1007D00082800145828041657D158280EFF25F8CC9
:1007E0002A84084DD93FAA8413058401EF00D04A1A
:1007F0008A04138581822695232A040093044408E1
:10080000232005001304440363868400C114268555
:100810000D3BDDBF6FF07F89EFF29F8871112A8455
:10082000C1642E852EC0FD14493F82456313950097
:1008300001A01C4C91C301A0931725001385818250
:100840003E95930744011CC1930700085CD49307AD
:1008500000041CD80CCC1305840140C8232E0400CE
:100860002320040223120402EF00B03F13054403C7
:1008700069391305440451391305440579311305C9
:1008800044066131130544074931084C2320040014
:100890002322040023240400232604002328040028
:1008A000232E040004D08545EF00206D084C9305ED
:1008B000C401EF00C06411016FF02FFFEFF24FFE93
:1008C000232E050223260504232E050423260506D0
:1008D000232E0506232C05008137B7E700E02147CA
:1008E00023A2E7101307000223A2E7101307000456
:1008F00023A2E7106FF06FFB232405009C4589CFEE
:10090000EFF20FFA09462A84AE848297DC445CC475
:100910009C441CC46FF06FF98280EFF26FF82111D4
:100920002A842800D13FB24714402247280036C409
:1009300054405CC0C24718C018441CC4D2473AC8CF
:1009400058445CC436C63ACAED3E228561016FF058
:10095000CFF5EFF2EFF42A845C5C1305450381C701
:100960006D3F6FF08FF4AE844D3F9C44FDDB084C2F
:1009700085458D25084C05468545ED23DDB7EFF20D
:100980002FF2184519E3EF0090665C4582976FF0EF
:10099000CFF111E101A0EFF2AFF02A8408418545C3
:1009A00081250DC11C40DE27858B89CF2285EF0074
:1009B000102B08415C5D81C713054503C93708400A
:1009C00085451D2D6FF06FEE03A5818219C11105BC
:1009D000C9377300203011E101A01C41DA27098BCF
:1009E00011EBDA27118B19E7DA27218B01E7DA27D8
:1009F000418B3DC7EFF2CFEA2A8489453E85CD235E
:100A00001C4015C189453E85C52B85442285EF00D4
:100A10001025084192049384440326951C4591C3F4
:100A2000B93F6FF08FE83E8591455D2B1C4011C5A5
:100A300091453E85D1238944D1BF3E85A1454D23B3
:100A40001C4011C5A1453E85452B8D44C1B7C1450C
:100A50003E85792345DD0840C1459144712B7DB722
:100A6000828003A5818219C11105B537730020303A
:100A7000711122C013848182484011C51105113FB4
:100A800048401105893F0244110173002030EFF204
:100A90002FE12A84EF00F05448C41C402285DC4B2F
:100AA0008297635A0500EF00D0535C441D8D1C44AF
:100AB000E365F5FE7D556FF04FDFEFF26FDE6111FC
:100AC000AA8401442EC232C0630DC4002685C137FA
:100AD0006349050092450246B387850088A3050453
:100AE000D5B7228521016FF04FDCEFF26FDB51119A
:100AF000014495C6B684AA8701443E8532C42EC2FD
:100B00003EC07137634D05009245630AB500224629
:100B100082473307860008A30504E39084FE2285FC
:100B200031016FF08FD8EFF2AFD7F1206FF0EFD730
:100B3000EFF20FD785476301F50219C589476303B3
:100B4000F50201456FF06FD6114585459D2E37158D
:100B5000014013050580FDB7414585459D263715A4
:100B60000140CDB7130500028545A12E3715014080
:100B700013050540C1BF03A5018383A5418382807E
:100B80008280EFF2EFD1C53F6FF02FD293870183C0
:100B900003A3070083A3470013071300333567003F
:100BA00098C3B3067500D4C3E13FB7F700E023A2B2
:100BB000070073002030EFF2AFCE37F400E02322BD
:100BC00004002320040023240400B707002003A509
:100BD000C70F9305803EEFF0EFCF7D1508C8BD47E6
:100BE0001CC07D57B7E700E02386E740056723A0D8
:100BF000E7106FF08FCBEFF2AFCA753F6FF0EFCA1F
:100C0000814705476307E5008507058193F7F70FDF
:100C1000D5BF370700208E0713070700BA97DC43BC
:100C200091C7EFF2EFC782976FF02FC882806111F2
:100C300022C226C00544A1442285152019C522855B
:100C40003528131504014181653FFD140604EDF4B8
:100C50001244824421017300203082808280B707D1
:100C600001401387074083A70740584B698F09C786
:100C70007D8D3335A000828001458280B707014019
:100C800023AAA74082809C45611122C226C013F787
:100C9000070113F3F70001C7D8413363E300922142
:100CA0001377F60F29C78323050001471304800239
:100CB000930480048546B395E600B376B60063924C
:100CC000D50293122700BD46B396560093C6F6FF91
:100CD000B3F37600B3125300B3E372006397870651
:100CE0004CC90507A146E317D7FC2320750013075D
:100CF000F00F6378C70483234500A14613048002E4
:100D0000930480040547B312D700337756006394E9
:100D1000E202139726000117BD45B395E50093C580
:100D2000F5FFB3F375003317E300B3637700639205
:100D30008702232A550085064147E395E6FC2322D6
:100D400075001244824421018280E39C97F80CC90B
:100D500049BFE39297FE23285500F1BF37030140B6
:100D6000032743009317350063D00702B707C0FF7E
:100D7000F517F98F37070007D98FD9CD370700F05E
:100D80007D17798DC98F49A8635D0500B707E0FF1E
:100D9000ED17F98F37070007D98FBDCD06050581FF
:100DA000D5B7B7073000931605013376F500C18239
:100DB0006313F602370600F97D16B377C7000327E1
:100DC0004300798E2322C300A1C955811317450022
:100DD0003395E60045BF9317B50063D407029357D8
:100DE000050113F6F7008D47B397C70093C7F7FFC8
:100DF000F98F37070007D98F85C11357550112079F
:100E0000C1BF558112053395A6009347F5FFF98FB1
:100E100037070007D98FBDF5370701405CC38280D3
:100E20007300203001A0EFF2AFA7371702405C43F8
:100E300091462A84B18B6385D700A146638DD7067E
:100E4000B7376E01938707601CC0B7160240DC42BB
:100E5000918313F7F700B707002093874705BA97E8
:100E60008C23DC42184093F5F50F93F707083355B0
:100E7000B70081E73A85EFF0EFA548C008C448C441
:100E8000B7170240DC43AD83FD8B13D737008A07C9
:100E9000F18BD98F93F637010D476373D700D117C4
:100EA0003707002013070704BA978C23EFF08FA2AF
:100EB00008C86FF08F9F5C43B777DC02938707C049
:100EC00061B799C5371702401C4F5D8D08CF8280EE
:100ED000B7170240984F1345F5FF798D88CF828070
:100EE00099C5371702405C4F5D8D48CF8280B71798
:100EF0000240D84F1345F5FF798DC8CF82801E215F
:100F000037370140130707C0C207C1836306E500F6
:100F1000370700406316E500BA2193F7F7F8D98F39
:100F2000FA2193F7F7CFC207C183D98F1EA1DE2123
:100F30005EB59E211EB5B7370140938707C0631485
:100F4000F5009C251EB985475EA982801E2189C5B2
:100F500093E717001EA18280C207C183F99BC207D5
:100F6000C183CDBF5E2501C6DD8D4EA5828093C5B0
:100F7000F5FFFD8DDDBF4EA982801E2189C593E757
:100F800007081EA18280C207C18393F7F7F7C20743
:100F9000C183C5BF1A318547B397B70093C7F7FF21
:100FA000F98F1EB11E31B315B600DD8DC205C181AA
:100FB0000EB182801A319147B397B70093C7F7FFFC
:100FC000F98F1EB11E31B315B600DD8DC205C1818A
:100FD0000EB1828093C5F5FFC205C1810EA9828042
:100FE0001E294A25ED8F4205418189C76D8D333514
:100FF000A00082800145828093C5F5FFC205C181B2
:101000000EA98280EFF2CF891629F577FD17F58FAB
:10101000F621DA252111D58F1EA95625FD77938754
:10102000379FF58FD6212A842EC0D58F9625D58F50
:10103000B625D58F5EA55E29C207C18393F7F7CF8A
:101040005D8F5AA94800C533B74701409387078091
:1010500082456312F406C2475A24139517003E9541
:1010600042070E0541873E958C416358070486056B
:10107000EFF04F86930540062AC0EFF0AF85824718
:1010800093144500930540063E85EFF06F875E247C
:10109000C207C18763D507020E05930540061305F5
:1010A0002503EFF02F831D89C98CC204C18006A4DB
:1010B00061016FE09FFFB24745B78A0555BF120532
:1010C0009305400613052503EFF0CF803D89E9BF66
:1010D00091C55E250967D98F5EA582805A25F9776B
:1010E000FD17F98FD5BF93F5F51F4EA182804A21D8
:1010F0001375F51F82805E2989C593E787005EA975
:101100008280C207C183DD9BC207C183CDBF0A2194
:101110006D8D3335A0008280B71702409843B70623
:10112000FFFC1367170098C3D843758FD8C3984343
:10113000B706F7FEFD16758F98C39843B706FCFFF8
:10114000FD16758F98C3D44341777D17F98ED4C3AC
:10115000B7069F0094C7B72602409042719A90C28A
:1011600090421366160090C2D443D4C3D443758F03
:10117000D8C3D843B7060001D8C39843558F98C346
:10118000984393166700E3DD06FED843B716024086
:10119000719BD8C3D84313672700D8C32147DC42CB
:1011A000B18BE39EE7FE8280EFE29FEF311102C434
:1011B00002C602C8FD576313F50001A093D785400E
:1011C00093F4F7079377F5001397270089679387C0
:1011D0008779BA979C4311813D892E843EC0EFF0F8
:1011E0003F952AC285C485450545E1399387F4FFBB
:1011F0006947636DF70009678A071307C772BA97D3
:101200009C43828785450545EFF05FB593572440A1
:10121000137734008D8B7DC73AC609476380E70E8C
:101220000D47638FE70C05476388E70CC1473EC84D
:10123000EDA08145C9BF8545370500100905E9B70F
:10124000854537054010DDBF8145E5BF854537053C
:101250000080110555BF85453705208075B7854548
:1012600037052080FDB78145E5BF37051600854568
:101270001305050451BF85453705160013050508FC
:1012800061B78545370516001305050CB5BF8145C7
:10129000D5BF37051800854513050510B5B73705C7
:1012A000180085451305052085B7854537051800C5
:1012B0001305053091BF8145D5BF85452165A9B787
:1012C0008145EDBF8545370520008DBF8145E5BFD0
:1012D000854537052000B5BF8145E5BF8545370504
:1012E000200069BF8145E5BF8545370530001305FE
:1012F000054019BF8145D5BFD14715BFE14705BF9F
:10130000F14735B705476383E70299C7894663818B
:10131000D7029307800221BF02C8824712452C00E2
:101320007C84EFF05F9651016FE03FD8914701B7A1
:1013300011840D8893078004E31DE4FCCDBDFD57A7
:101340007D57631CF50082806398A700EFE25FD5AC
:101350008C45993D6FE07FD5B1059C41E396E7FE52
:1013600001A07D579C416394E7000145828063940E
:10137000A700C8418280B105F5B7FD576307F500A6
:10138000EFE21FD2F93F6FE05FD201458280630533
:10139000B50019C181E5AA852E8582808145EDBF02
:1013A00001A001A001A001A001A001A001A001A035
:1013B00001A001A001A001A001A001A001A001A025
:1013C00001A001A001A001A001A001A001A001A015
:1013D00001A001A001A097F1FF1F93812152138169
:1013E00081F0171500001305655897F5FF1F9385C9
:1013F00065C11386818263FAC5008322050023A09C
:10140000550011059105E3EAC5FE13858182938598
:10141000C1996377B500232005001105E36DB5FE82
:1014200093020008739002308D427390428097F2CD
:10143000FFFF938222BD93E2320073905230170572
:1014400000001305E53C752EFD2EEFF0FFCC970252
:10145000000093822238739012347300203071158B
:101460008280EFE2FFC31841B7370140938707C07E
:101470002A846318F7000565854513050580EFF09C
:101480005FA41840B70700406316F700854505457F
:10149000EFF01FA56FE07FC1EFE29FC01841B737A3
:1014A0000140938707C02A846318F70005658145CA
:1014B00013050580EFF0FFA01840B7070040631642
:1014C000F70081450545EFF0BFA16FE01FBEEFE2D9
:1014D0003FBD1301C1FDAA84084D32C609662EC462
:1014E0009305C6643ACA36C8493D2AD0C84C8966B5
:1014F0009385466359352A84885089659385C561EB
:10150000AD3D2AC0C850896593854560BD350257F9
:10151000096689662AC232CC36CE6304070ED04CE7
:10152000FD566304D600630E040C9050FD5663050F
:10153000D60082476387070CD050FD566305D6005E
:1015400092476380070C3A85A2859135824588C011
:101550003D3D924588C0253D88C045C5374701407F
:1015600013070780631BE50085451165EFF07F9544
:10157000130700022386040298D4E247884C93851F
:10158000C764753B11C4F247C84C93854763453B1C
:101590008247814681CB885089659385C5614533F3
:1015A00093060010924791CBC850896593E60620B8
:1015B0009385456036C061338246A24703C7C402A3
:1015C00088409CC4B24713162700DEA4D247138775
:1015D00081833297FEA4C2471386440010C331476B
:1015E000C8C09EA8BAA8D6A801E48545EFF0BFB050
:1015F000C84093858400EFF0FFA0C8408545EFF018
:101600003FAD130141026FE05FAAEFE27FA9896756
:1016100083A787670967130747688A07BA978043D4
:1016200089659385C5642285893B19CD37050020DE
:10163000F1659307450601478146014693850520DC
:101640001305450680CF61356FE03FA6EFE25FA549
:101650008347C50293050002139727009387818370
:10166000BA979C438843EFF09FAA133515006FE0AB
:10167000DFA3EFE2FFA28347C5029305000413979F
:10168000270093878183BA979C438843EFF03FA854
:10169000133515006FE07FA1EFE29FA041113704E1
:1016A0000020AA842EC2EFF00FCD9307440683C713
:1016B000C7022AC41304440685E70347C40293877C
:1016C00081830A07BA979C43F1173EC093878183B1
:1016D0003EC68247D9EB02C2124541016FE0FF9C32
:1016E000896783A787670967130747688A07BA97D7
:1016F0009C4389669385C6643E853EC0EFF0FFC774
:10170000896671D923060402138781831C4391EFF4
:101710008347C402850793F7F70F2306F402FDD72A
:10172000ED358347C402D1DB7DB702459385C6649E
:10173000EFF0BFC40346C4021387818393172600CA
:10174000BA979C4389669C43E394A7FC3DD6C9BFE6
:10175000EFF06FC2A247B307F5403335F500E39CC5
:10176000A5F61307703EE368F7F6024519376DF1E9
:101770009247A6973EC4A247E380F4F60245D53DC2
:1017800075FD8347C402324785048A07BA979C4394
:1017900083C5F4FF8843EFF01F95F1BF11E57D5538
:1017A00082807D556FE07F90EFE29F8FAA842E8428
:1017B000713D65F983C7C40213972700938781831E
:1017C000BA979C438843EFF09F9208A00145D9BF88
:1017D000EFE21F8DEFF02FB5EFE05FB7EFE05FBCFA
:1017E000F5BFEFE2FF8BEFF0CFB96FE01F8C511127
:1017F00006C409205111194506C415220545EF00FC
:10180000505DAA85814601460145B9A2511197173D
:1018100000009387671522C21714000013040415F3
:101820001D8C26C006C40984BE8419E41244A2405B
:10183000824431016FF06FC27D1493172400A69784
:101840009C438297DDB7511122C2971700009387FE
:10185000E71017140000130464101D8C26C006C482
:101860000984814463968402EFF04FBF971700000C
:101870009387C70E171400001304040F1D8C0984EE
:10188000814463928402A2401244824431018280E6
:10189000139724003E97184385040297971700007A
:1018A0009387C70BC1B7139724003E97184385044D
:1018B0000297971700009387670AE1B7FD4763F621
:1018C000B700D9471CC17D5582807C41411122C49B
:1018D00006C62E862A8491C713972500BA97984387
:1018E00019EB228532C0BD20AA85228522440246FA
:1018F000B240410115A8854601456308D700FD5651
:101900006319D700D9471CC00545B24022444101A4
:1019100082802E8523A0070002970145FDB793879B
:101920008180AA85884359BF511122C22A842E85FD
:10193000B28523AC019806C4EF00F048FD57631749
:10194000F500938781999C4391C31CC0A240124427
:10195000310182806F0070469387C1839C43AA83C4
:1019600099EF1387C19023AEE18217E5FFFF1305BE
:101970006569BA8709C51C4123AAF198BA87D8437B
:101980007D437D556346E304638D030203A387080B
:1019900063000304931227009A9223A0C200032538
:1019A000031005463316E600518D2320A31023A013
:1019B000D20889466397D30083264310558E23228D
:1019C000C310930617000A07D4C3BA978CC7014502
:1019D000828097E7FFFF9387E76299C717050000AA
:1019E000130505E36FF0FFE18280611113D7450114
:1019F000B7071000FD1713D3460122C226C0137784
:101A0000F77F9302F07FB3F3B7002A84F58FFD814F
:101A1000B2841373F37FFD82630B57026303530297
:101A200005EFB3E2A300631403005D8E25C2638C4F
:101A30000204638BD5020545A1E9124482442101C9
:101A40008280B3E2C700E38D02FC7955FDB733E530
:101A5000A30065FD6300E304631403005D8E61DE93
:101A6000E39BD5FCE349E3FC63496700E3E577FCCE
:101A70006386F3020145E3F2F3FC99C51244824404
:101A8000054521018280FDFA7D5545BF0145E3866C
:101A900002FA55B75D8E69D6795545B7E3ED84F8FE
:101AA0000145E37C94F8F9F9C5B7370780007D1745
:101AB00041113373A70013D675019312330022C46A
:101AC000135475011374F40F6D8F26C21376F60F3D
:101AD0009354F50116C006C6FD819A87A286268515
:101AE00093133700B302C440638EB40E6352500C9C
:101AF000630806149307F00F630DF414B70700048E
:101B0000B3E3F300ED4763C8572893070002B38798
:101B10005740B397F300B3D25300B337F000B3E7A5
:101B2000F2000247B307F74013975700635F0718A7
:101B3000370300047D13B3F767003E853EC0EF0016
:101B4000F02082476D15B397A7006346851A018D73
:101B50000505130300023303A340339367003333B7
:101B60006000B3D7A700B3E76700014413F777001D
:101B700019C713F7F70091466303D700910713972E
:101B800057006358071405041307F00F26856300F8
:101B9000E4169A07A5839376F40FB2402244A60771
:101BA000DE06A5837E05DD8E9244558D410182803F
:101BB0006399020A130614001376E60F63180614DD
:101BC00063160422024663020620E38803FC0247F0
:101BD000B307774013965700635A0622B387E34052
:101BE000AE8469B76359500A49CE9307F00F630278
:101BF000F406B7070004B3E3F300ED4763C45720CE
:101C000093070002B3875740B397F300B3D2530052
:101C1000B337F000B3E7F2000247BA9713975700C3
:101C20006355070A05041307F00F6302E40CB706B7
:101C3000007E13D71700FD16858B758FD98F3DB7A2
:101C4000638B0308FD12638702189307F00FE31BF1
:101C5000F4EA630D030801459306F00FB70740004F
:101C60002DBFB307864065EC824663850614FD17D9
:101C70006383071A9306F00F631CD60EAE843A8373
:101C8000C9BF638A0304FD12638302129307F00F36
:101C9000E315F4F67DBF6398020805041376E40F9C
:101CA000631E0612639C06100246630B0616E3864B
:101CB00003EEB307760013975700014463570700FC
:101CC000370700FC7D17F98F054413F77700E312FF
:101CD00007EA13D337009307F00FE30CF4F69317DA
:101CE0009300A5839376F40F268545BD268593063C
:101CF000F00F81475DB5370300FC7D13B3F7670034
:101D000013F77700098CE31607E6E1B78247B3873C
:101D10007740139757006342070EE39007E20145AF
:101D2000814681479DBDB307864025E88246FDCAAE
:101D3000FD17F5CF9306F00FE303D6F46D47634626
:101D4000F70E8246130700021D8F3397E600B3D7C4
:101D5000F6003337E000D98F9E973284C1B59306E1
:101D6000F00FE30DD6F0824637070004558F3AC0D6
:101D70006D47634BF7088246130700021D8F3397A8
:101D8000E600B3D7F6003337E000D98FB387F340CE
:101D90003284AE8451BB854769B39306F00FE300EC
:101DA000D6EE824637070004558F3AC041BF8247BE
:101DB0009E97ADB53A833284AE8431BF931733001A
:101DC000E38F07EAE38703E879B5638303042E858D
:101DD000BA87E1B38247B3877740B9B39307F00F6F
:101DE000E307F4F082479E978583C5B593173300C8
:101DF000F1FBE38203E6AE8459B58247AE84B38734
:101E0000F34025BB854709BD854749B7E39F07EAEE
:101E10000145814759B3B387D3403284AE8429B397
:101E2000BA87A5BB3A8332847DB5854735B7B3877A
:101E300076003284E5B3011122CC1354750126CA11
:101E400006CE931495001374F40FA5809356F501F4
:101E50004DCC9307F00F630CF40CB70700048E040D
:101E6000DD8C130414F88147014613D575011397CF
:101E700095001375F50F2583FD814DC51303F00FF4
:101E8000630D65020E07130515F837030004336769
:101E900067002A9481431305140033C3B6002AC097
:101EA0003D459A826362F5101715000013050597EA
:101EB0008A07AA979C433E9502851304F40F61EBB1
:101EC00093E727008943C1BF01431307F00FB7070A
:101ED0004000F2406244A6075E07A5831315F30194
:101EE000D98FD2445D8D05618280AE82BA841E8610
:101EF00089476306F60A8D47E308F6FC8547168393
:101F0000631EF61A01478147E9B7B5E013D575019D
:101F1000139795001375F50F9147014405462583E6
:101F2000FD8129FD19EB93E717008543ADB79DE8C7
:101F3000A1471304F00F09460DBF3A8532C83EC6CB
:101F40002EC436C23AC0192502471303B5FF098CC7
:101F5000331767001304A4F881439246A245B247A1
:101F6000424615BFB1471304F00F0D46FDBD26854F
:101F70002EC236C0E12B9307B5FF1304A0F8B3942B
:101F8000F400098C8147014682469245F9BD93E7EA
:101F900037008D4309B78947B682E31EF6F41683EE
:101FA0001307F00F814735B7C167FD17B3F3F4008E
:101FB000F98FC18041831E85BE85EFE0AF8FAA8275
:101FC000BA851E85EFE00F8FAA83BE852685EFE0D8
:101FD0006F8EAA87BA852685EFE0CF8D13D70201D1
:101FE000BE93BA9363F4F300C1673E95C167FD17D2
:101FF000B3F4F300C204B3F2F200A6929394620029
:1020000093D30301B334900093D2A201AA93B3E215
:10201000540093946300B3E454009397440063D74F
:102020000700024493D714008588DD8C1307F4075A
:10203000635FE00293F7740099C793F7F400914649
:102040006383D70091049397440063D80700B707D0
:1020500000F8FD17FD8C130704089307E00F63CB0E
:10206000E70493976400A5831377F70F9DB5854721
:10207000B386E74011C76D4601478147E34BD6E47D
:102080001304E40933948400B3D7D400B33480003C
:10209000C58F13F7770019C713F7F700914663034D
:1020A000D700910713975700634C07009A07A58341
:1020B000014705B51307F00F814721BD0244BDB7A5
:1020C0000547814739B5B7068000FD163111B3F7D2
:1020D000A6001357750113D675017D811377F70F8D
:1020E000ED8E22C626C41376F60F06C89303F00FB2
:1020F0003EC22AC03A8493943700FD819392360001
:102100003303C7406303761093C51500630EB51003
:102110006354600C631106106388021E7D13B3873D
:102120005440630703029307F00F630BF716ED4764
:1021300063CA672893070002B3876740B397F2002A
:1021400033D36200B337F000B367F300B387F440D2
:10215000139757006354071AB7040004FD14E58F62
:102160003E853EC2E52692476D15B397A7006341B1
:10217000851C018D050593020002B382A240B39233
:102180005700B3325000B3D7A700B3E7570001445C
:1021900013F7770019C713F7F70091466303D700C9
:1021A000910713975700635F0714824605041307CE
:1021B000F00F13F516006309E4169A07A583137749
:1021C000F40FC2403244A6075E07A5837E055D8FEB
:1021D000A244598D510182806315030A130617002A
:1021E0001376E60F6311061663130722638004203B
:1021F000E38902FCB38754409396570063D20622CA
:10220000B387924001442EC061B7E38F02EE630DA5
:10221000B50AE35360FC9307F00F6303F708B707B1
:102220000004B3E2F20021B76350600A51C2930781
:10223000F00F6307F706B7070004B3E2F200ED47BB
:1022400063CC671C93070002B3876740B397F20023
:1022500033D36200B337F000B367F300A697139748
:102260005700635D070805041307F00F630EE40AC7
:10227000B706007E13D71700FD16858B758FD98F93
:1022800001BFB307E6406316071063880414FD1707
:10229000638E07181307F00F6314E6102EC036C2C2
:1022A0009247C1C301451307F00FB707400011BFA4
:1022B000638C02047D13B3875400E30203FA93078F
:1022C000F00FE31EF7F6E9BF631B030813041700C2
:1022D0001376E40F6311061263150710638D04145F
:1022E000E38102EEB387540013975700014463570C
:1022F0000700370700FC7D17F98F054413F77700B7
:10230000E31B07E88D833EC29307F00FE30AF4F85E
:10231000924782461377F40FA607A58313F516009C
:102320004DB5824713F517001307F00F814751BDD4
:10233000B70200FCFD12B3F7570013F77700098CC2
:10234000E31B07E4C1B7B387544013975700634CAE
:10235000070AE39707E00145014781479DB5B307A9
:10236000E6403DC31307F00FE30BE6F23707000426
:10237000D98C6D476346F70C130700021D8F339706
:10238000E400B3D7F4003337E000D98F9697328456
:10239000F9B51307F00FE303E6F037070004D98C13
:1023A0006D47634DF706130700021D8F3397E40056
:1023B000B3D7F4003337E000D98FB387F2403284CB
:1023C0002EC079B3854759B3ADC8FD17A5CF130704
:1023D000F00FE310E6FA36C2E1B536C232842EC001
:1023E00025B7E38E04EAE38D02EA6DBD638D020238
:1023F0002E85B687F9B39307F00FE307F4F2B3879E
:1024000054008583E5BDB38792402EC091BBE1FCAB
:10241000E38A02E82EC061B5854789B5854771BF5B
:102420000144E39D07EC0145814761BBB3879240BE
:1024300032842EC031BBB68769B336C23284E9B567
:102440008547A9B7B3875400328411BD135775016E
:10245000370680009307F6FF1377F70F9305E00721
:10246000B3F6A7009357F501014563F4E50099C35E
:10247000828082809307E0097D55E3EBE7FE9305B8
:102480005009B3E7C60063D7E5001307A7F63395F5
:10249000E7008280130560093307E54033D5E70084
:1024A0008280135775011377F70F511193061700A8
:1024B00022C226C01314950006C493F6E60F2580A9
:1024C0009354F5019DC293573400130707387604DF
:1024D000B2072285A24012445207B183FE04D98F6D
:1024E000C58FBE8582443101828005EB39C42285C7
:1024F000B128A94763C6A7042D47098F9307550143
:102500003357E4003314F4009317C70013079038CF
:10251000098FB1831377F77F65BF01CC1357340060
:10252000B7070800D98FB2077604B1831307F07F8D
:1025300045B71307F07F814761BF0147814749BF16
:10254000130755FF3317E40001447DBFC167637C67
:10255000F5029307F00F1307000263EBA70097073C
:1025600000009387A72FAA9788233305A74082806E
:102570002181970700009387672EAA9788236147D8
:102580003305A7408280B7070001636DF5006181C4
:10259000970700009387872CAA9788232147330544
:1025A000A74082804181970700009387272BAA9735
:1025B000882341473305A74082809307800523ACD9
:1025C000F1987D5582809307800523ACF1987D5565
:1025D000828001A00000FE4200000043DB0F49C0E2
:1025E000CDCCCC3D00000000182D4454FB21094007
:1025F000ABAA2A3ECDCC4C3D310CC33C398E633C5A
:1026000009F2143C230000000038014018000000CB
:10261000FFFFFFFF000000000000000012000000AC
:10262000003801400B000000FFFFFFFF000000002A
:1026300000000000260000000038014018000000E3
:10264000FFFFFFFF00000000000000002500000069
:10265000003801400B000000FFFFFFFF00000000FA
:102660000000000001000000000000000600000063
:102670000C0000000D0000000F0000001000000022
:102680000E00000001000000020000001000000029
:1026900011000000120000001300000014000000F0
:1026A00015000000160000001700000020000000C8
:1026B0002100000022000000230000002400000090
:1026C0002500000026000000270000000000000098
:1026D00000000000C8030000FC030000BE0300006F
:1026E000C2030000C4030000E0030000C4030000B4
:1026F000BA0A0000EA0A0000BE060000BE0600009A
:102700001606000016060000160600001606000059
:10271000160600001606000016060000B8060000A7
:10272000B8060000B80600004606000004120000CB
:102730003212000036120000401200004812000061
:102740004C120000561200005E12000066120000DB
:102750006A12000076120000821200008E12000041
:10276000921200009E120000AA120000B612000091
:10277000BA120000C0120000C4120000CC12000007
:10278000D0120000D8120000DC120000E412000099
:10279000E8120000F4120000010000000200000036
:1027A00004000000080000001000000020000000ED
:1027B0004000000080000000000000000000000059
:1027C0000000000000000000000000000000000009
:1027D00000000000000000000000000000000000F9
:1027E00000000000000000000000000000000000E9
:1027F00000000000000000000000000000000000D9
:1028000000000000000000000000000000000000C8
:10281000000000000000000090F7FFFFD4F6FFFF6B
:10282000D4F6FFFFD2F6FFFFD8F6FFFFD8F6FFFF82
:10283000B0F6FFFFD2F6FFFFD8F6FFFFB0F6FFFFBE
:10284000D8F6FFFFD2F6FFFF7EF7FFFF7EF7FFFF10
:102850007EF7FFFFB0F6FFFF000102020303030350
:102860000404040404040404050505050505050520
:102870000505050505050505060606060606060600
:1028800006060606060606060606060606060606E8
:1028900006060606060606060707070707070707D0
:1028A00007070707070707070707070707070707B8
:1028B00007070707070707070707070707070707A8
:1028C0000707070707070707070707070707070798
:1028D0000707070707070707080808080808080880
:1028E0000808080808080808080808080808080868
:1028F0000808080808080808080808080808080858
:102900000808080808080808080808080808080847
:102910000808080808080808080808080808080837
:102920000808080808080808080808080808080827
:102930000808080808080808080808080808080817
:102940000808080808080808080808080808080807
:0829500008080808080808083F
:0C295800D2190000A2030000F6040000E9
:04296400B2030000BA
:102968001400000000000000140000000000000037
:102978001400000000000000140000000000000027
:102988001400000000000000140000000000000017
:102998001400000000000000140000000000000007
:1029A8000204060804080C100810182010203040F3
:1029B80020406080010203040506070801020304A1
:1029C80005060708000000000000000000000000E5
:1029D800000000000000000000000000FFFFFFFFF3
:1029E800FFFFFFFFFFFFFFFFFFFFFFFF00000000EB
:1029F8000100000000000000D8270000F8270000B0
:102A0800B8270000000000000000000000000000DF
:102A180000000000000000000000000000000000AE
:102A2800000000000000000000000000000000009E
:102A3800000000000000000000000000000000008E
:102A4800000000000000000000000000000000007E
:102A58000000000000000000DB0F49C0006CDC0231
:102A6800940000200004080C04004000000400004A
:102A78000100100000010010020408100201040304
:00000001FF
