:100000006F10E03000000000580D00005C0D000093
:1000100000000000000000000000000000000000E0
:1000200000000000000000000000000000000000D0
:10003000C80A000000000000DE12000000000000FE
:10004000E0120000E2120000E4120000E6120000DC
:10005000660B0000EA120000EC120000EE12000035
:10006000F0120000F2120000F4120000F61200007C
:10007000F8120000FA120000FC120000FE1200004C
:100080000013000002130000041300000409000024
:10009000081300009E090000AC09000000000000E9
:1000A000511126C022C206C4828282441244A24058
:1000B000310182802A86014593F6150091C232955E
:1000C00085810606F5F9828000000000634E050276
:1000D00063C305042E86AA857D5515C285466378BF
:1000E000B6006356C00006068606E36CB6FE014500
:1000F00063E4C500918D558D85820582F5FA828075
:100100008682C93F2E8582823305A04063D70500D1
:10011000B305B040C1B7B305B0408682653F330533
:10012000A0408282868263C70500634905005D376F
:100130002E858282B305B040E35B05FE3305A04007
:10014000513F3305B04082820000EFF27FF51C4141
:100150008297A1BF85476307F60089476306F600CB
:10016000014582800CC1EDBF9C411CC1D5BFEFF29F
:100170003FF37111138581841D2613844180370755
:1001800000200440372600000327870F0325066B55
:10019000B70700803D8FA6853AC0EF20000B0247CD
:1001A000AA853A85EF107061A685EF101061372699
:1001B00000008325466BB70700802AC013C5F7FFF0
:1001C000658DEF10E0750247AA853A85EF10102E75
:1001D000B727000083A5876B08C0EF10105EEF20E3
:1001E000203FB737014023AAA7C2138581840D2180
:1001F000110165BDB7170240944F056713060782CA
:10020000D18E94CFB716014003A60640130707808E
:10021000419A23A0C64003A606401366960123A078
:10022000C640D4470D66558FD8C7D847FD7693860C
:10023000F67F758FD8C737370140231407C293065E
:10024000F00F2316D7C2835647C193E61600231A30
:10025000D7C0835607C293E6C6002310D7C2835681
:1002600007C2D18E2310D7C2835687C1216693E679
:100270000606231CD7C093060008232AD7C283563C
:1002800047C4D18E2312D7C4835707C093E7170002
:100290002310F7C08280EFF2BFE04111A13FAD65AE
:1002A0000946938545C413858184CD2EB707000088
:1002B0009387E7163EC0B70700009387A7143EC692
:1002C000B7070000938747158A85138581843EC44C
:1002D000EF00E05BA24789C78A850D462E8582978D
:1002E0001385818435264101C9B38280EFF25FDB3B
:1002F000B705004013858184012345BBEFF25FDA27
:1003000013858184112955B30145828082807D55F2
:100310008280EFF2FFD81C417111CC81DC43930540
:10032000310005468297110149B3EFF27FD7711171
:10033000930531004105EF10E03901E58881110195
:10034000ADB37D55EDBFEFF2BFD52E85B285EF1071
:100350002028A1BB13F7F50FC54763EDE7008967B8
:100360009387C7730A073E9793F705700C43CD8FA9
:100370005CD5828093F6050C1306000CFD57E399BB
:10038000C6FE9306700CE3E5E6FE93F7F5030967F6
:100390001307C7718A07BA979C4309671307C77386
:1003A0008A07BA9793F505709C43D1B713F7F50FF9
:1003B000C54763EDE70089679387C7730A073E97D0
:1003C00093F705700C43CD8F1CD5828093F6050CF6
:1003D0001306000CFD57E399C6FE9306700CE3E587
:1003E000E6FE93F7F50309671307C7718A07BA9703
:1003F0009C4309671307C7738A07BA9793F505707B
:100400009C43D1B7EFF2DFC99307803E1CC58967D3
:100410009387C7781CC10CC9232205009305600C83
:100420002A840D3F9305500C2285493758541C549B
:100430006314F700FD575CD4FD571CD85CD8B5B1E8
:10044000EFF21FC6B7450140938505801385C18C27
:10045000553FA1B9EFF2DFC41C452A8481CB0D467C
:10046000AA8582972324040023260400228535B917
:10047000EFF21FC331110A8502C002C202C402C6D4
:1004800002C8EF00D00D1245510105B11C4599C7B6
:10049000EFF21FC1AA850D46829701B98280EFF263
:1004A0003FC02A84084D0146FD45EF00301F084C2F
:1004B0008145EF00301DD5BEFD152E951C2199CB31
:1004C00089477D5563E7B700860593874181BE95CF
:1004D0008A2182808D477D55E3EDB7FE860593879F
:1004E000C181F5B79387F5FF0D47636EF700EFF213
:1004F0003FBB51113EC02A84AE847D3F7D57824769
:100500006314E50001A001A0920493844403A29423
:100510009444138701813E97182385C693864182B0
:10052000BE969422084C3AC4B6853EC236C0EF004F
:10053000F01D8246084C0546B685EF00301622476E
:10054000924793962700A296D44231466369D60A11
:1005500009668A061306067BB2969442084C828688
:10056000A2979C2393150701C18199CF1146EF00F3
:10057000F017084C216783574504D98F2312F504DF
:100580008545EF003010A5A80546EF003014D5B71B
:100590000546BA853EC0EF007013824713878182FB
:1005A000BA97838707002285BE853EC031379315F1
:1005B0000501084C0546C181EF005011084CA166A9
:1005C000854503574504558F2312E504EF00900B32
:1005D000984415C782470D47084CFD17FD546366C4
:1005E000F70093854182BE958421C204C180A6850F
:1005F000EF00D011084C0546A685EF00300A310106
:100600006DB40546BA8551B71E21858BEDFB8DBFB4
:10061000EFF21FA95C5D2A8491CF084D8545EF005C
:10062000F00E084C85450546EF005007084C8545FF
:10063000EF005005228585457535228589455D3554
:1006400022858D45453591452285693DB9BCEFF23E
:100650003FA5084D8545EF00900581BC1C4D8A23C0
:1006600005898280EFF2DFA32A84CD3F05E5084C9F
:100670005E25858B8DC301468545EF0030022285BE
:10068000F937084C8545EF007008084C054685454C
:10069000EF00D00019BC22855D3FEDBFEFF25FA0F7
:1006A0008547AA842E846300F60289476301F60415
:1006B000814719C09307F4FF8C4CC207C183DEB594
:1006C00026854D37DDB26D33B7450F009385052480
:1006D0001134A285EFF01F9E935505019C4C139792
:1006E000050141839AB78505F5322A84D1B749338C
:1006F000A285CD32D5B7B7370140938707C06308CD
:10070000F500B70700406316F500054582800145F6
:10071000828041657D158280EFF29F982A84084D82
:10072000D93FAA8413058401EF00904A8A041385F7
:1007300001832695232A04009304440823200500FE
:100740001304440363868400C11426858133DDBF0E
:100750006FF0BF95EFF2DF9471112A84C1642E858A
:100760002EC0FD14493F82456313950001A01C4C27
:1007700091C301A093172500138501833E9593072C
:1007800044011CC1930700085CD4930700041CD8E3
:100790000CCC1305840140C8232E0400232004023E
:1007A00023120402EF00703F130544036531130563
:1007B00044044D3113054405713913054406593974
:1007C000130544074139084C232004002322040068
:1007D000232404002326040023280400232E0400DD
:1007E00004D08545EF00E06C084C9305C401EF0090
:1007F000806411016FF07F8BEFF29F8A232E050238
:1008000023260504232E050423260506232E05068C
:10081000232C05008137B7E700E0214723A2E7102A
:100820001307000223A2E7101307000423A2E71016
:100830006FF0BF87232405009C4589CFEFF25F86C8
:1008400009462A84AE848297DC445CC49C441CC460
:100850006FF0BF858280EFF2BF8421112A842800C7
:10086000D13FB24714402247280036C454405CC0F0
:10087000C24718C018441CC4D2473AC858445CC484
:1008800036C63ACA2131228561016FF01F82EFF22C
:100890003F812A845C5C1305450381C76D3F6FF07F
:1008A000DF80AE844D3F9C44FDDB084C8545B92D6F
:1008B000084C05468545DD23DDB7EFF26FFE184590
:1008C00019E3EF0050665C4582976FF00FFE11E16F
:1008D00001A0EFF2EFFC2A8408418545352D0DC1BA
:1008E0001C40DE27858B89CF2285EF00D02A084166
:1008F0005C5D81C713054503C937084085450D2D4B
:100900006FF0AFFA03A5018319C11105C937730050
:10091000203011E101A01C41DA27098B11EBDA2705
:10092000118B19E7DA27218B01E7DA27418B3DC7C5
:10093000EFF20FF72A8489453E85F92B1C4015C13B
:1009400089453E85F52385442285EF00D024084162
:1009500092049384440326951C4591C3B93F6FF0DC
:10096000CFF43E8591454D2B1C4011C591453E85E8
:10097000C1238944D1BF3E85A145792B1C4011C5B7
:10098000A1453E8575238D44C1B7C1453E85692388
:1009900045DD0840C1459144612B7DB7828003A5A8
:1009A000018319C11105B53773002030711122C0C0
:1009B00013840183484011C51105113F48401105BA
:1009C000893F0244110173002030EFF26FED2A8459
:1009D000EF00B05448C41C402285DC4B8297635A18
:1009E0000500EF0090535C441D8D1C44E365F5FE4B
:1009F0007D556FF08FEBEFF2AFEA6111AA840144ED
:100A00002EC232C0630DC4002685C137634905007C
:100A100092450246B387850088A30504D5B7228591
:100A200021016FF08FE8EFF2AFE75111014495C655
:100A3000B684AA8701443E8532C42EC23EC07137B7
:100A4000634D05009245630AB5002246824733078D
:100A5000860008A30504E39084FE228531016FF02F
:100A6000CFE4EFF2EFE3E1206FF02FE4EFF24FE39A
:100A700085476301F50219C589476303F5020145FE
:100A80006FF0AFE2114585458D2E371501401305F6
:100A90000580FDB7414585458D2637150140CDB709
:100AA000130500028545912E3715014013050540B9
:100AB000C1BF03A5818383A5C18382808280EFF2B9
:100AC0002FDEC53F6FF06FDE9387818303A307009E
:100AD00083A34700130713003335670098C3B30699
:100AE0007500D4C3E13FB7F700E023A2070073000D
:100AF0002030EFF2EFDA37F400E023220400232065
:100B000004002324040003A581809305803EEFF0B8
:100B10006FDC7D1508C8BD471CC07D57B7E700E0F6
:100B20002386E740056723A0E7106FF00FD8EFF2A8
:100B30002FD7C1376FF06FD7814705476307E500AF
:100B40008507058193F7F70FD5BF370700208E077C
:100B500013070700BA97DC4391C7EFF26FD482976F
:100B60006FF0AFD48280611122C226C00544A14437
:100B70002285152019C522853528131504014181C8
:100B8000653FFD140604EDF4124482442101730014
:100B9000203082808280B70701401387074083A7F7
:100BA0000740584B698F09C77D8D3335A00082807F
:100BB00001458280B707014023AAA74082809C4557
:100BC000611122C226C013F7070113F3F70001C712
:100BD000D8413363E30092211377F60F29C78323AB
:100BE0000500014713048002930480048546B395F1
:100BF000E600B376B6006392D50293122700BD4695
:100C0000B396560093C6F6FFB3F37600B3125300C3
:100C1000B3E37200639787064CC90507A146E31743
:100C2000D7FC232075001307F00F6378C7048323D4
:100C30004500A14613048002930480040547B312C3
:100C4000D700337756006394E2021397260001170A
:100C5000BD45B395E50093C5F5FFB3F375003317B4
:100C6000E300B363770063928702232A5500850669
:100C70004147E395E6FC232275001244824421019A
:100C80008280E39C97F80CC949BFE39297FE232822
:100C90005500F1BF37030140032743009317350088
:100CA00063D00702B707C0FFF517F98F37070007B2
:100CB000D98FD9CD370700F07D17798DC98F49A815
:100CC000635D0500B707E0FFED17F98F37070007F1
:100CD000D98FBDCD06050581D5B7B707300093166E
:100CE00005013376F500C1826313F602370600F979
:100CF0007D16B377C70003274300798E2322C300F4
:100D0000A1C95581131745003395E60045BF9317D8
:100D1000B50063D407029357050113F6F7008D471A
:100D2000B397C70093C7F7FFF98F37070007D98F2D
:100D300085C1135755011207C1BF5581120533955F
:100D4000A6009347F5FFF98F37070007D98FBDF548
:100D5000370701405CC382807300203001A0EFF2AE
:100D60002FB4371702405C4391462A84B18B6385C8
:100D7000D700A146638DD706B7376E01938707600A
:100D80001CC0B7160240DC42918313F7F700B70787
:100D9000002093874705BA978C23DC42184093F5CF
:100DA000F50F93F707083355B70081E73A85EFF061
:100DB0006FB248C008C448C4B7170240DC43AD83D3
:100DC000FD8B13D737008A07F18BD98F93F6370144
:100DD0000D476373D700D1173707002013070704A7
:100DE000BA978C23EFF00FAF08C86FF00FAC5C43DD
:100DF000B777DC02938707C061B799C53717024000
:100E00001C4F5D8D08CF8280B7170240984F134565
:100E1000F5FF798D88CF828099C5371702405C4FE6
:100E20005D8D48CF8280B7170240D84F1345F5FF3C
:100E3000798DC8CF82801E2137370140130707C044
:100E4000C207C1836306E500370700406316E5006B
:100E5000BA2193F7F7F8D98FFA2193F7F7CFC207A2
:100E6000C183D98F1EA1DE215EB59E211EB5B73785
:100E70000140938707C06314F5009C251EB9854780
:100E80005EA982801E2189C593E717001EA182807A
:100E9000C207C183F99BC207C183CDBF5E2501C6CE
:100EA000DD8D4EA5828093C5F5FFFD8DDDBF4EA97A
:100EB00082801E2189C593E707081EA18280C20790
:100EC000C18393F7F7F7C207C183C5BF1A318547BE
:100ED000B397B70093C7F7FFF98F1EB11E31B31553
:100EE000B600DD8DC205C1810EB182801A319147F5
:100EF000B397B70093C7F7FFF98F1EB11E31B31533
:100F0000B600DD8DC205C1810EB1828093C5F5FFAB
:100F1000C205C1810EA982801E294A25ED8F420596
:100F2000418189C76D8D3335A00082800145828063
:100F300093C5F5FFC205C1810EA98280EFF24F96DD
:100F40001629F577FD17F58FF621DA252111D58FB2
:100F50001EA95625FD779387379FF58FD6212A84C2
:100F60002EC0D58F9625D58FB625D58F5EA55E2947
:100F7000C207C18393F7F7CF5D8F5AA94800C533E5
:100F8000B74701409387078082456312F406C24742
:100F90005A24139517003E9542070E0541873E954A
:100FA0008C41635807048605EFF0CF929305400605
:100FB0002AC0EFF02F928247931445009305400614
:100FC0003E85EFF0EF935E24C207C18763D5070229
:100FD0000E059305400613052503EFF0AF8F1D891D
:100FE000C98CC204C18006A461016FF00F8CB247A6
:100FF00045B78A0555BF120593054006130525031D
:10100000EFF04F8D3D89E9BF91C55E250967D98F06
:101010005EA582805A25F977FD17F98FD5BF93F524
:10102000F51F4EA182804A211375F51F82805E292B
:1010300089C593E787005EA98280C207C183DD9BD3
:10104000C207C183CDBF0A216D8D3335A0008280D8
:10105000B71702409843B706FFFC1367170098C301
:10106000D843758FD8C39843B706F7FEFD16758F22
:1010700098C39843B706FCFFFD16758F98C3D443F9
:1010800041777D17F98ED4C3B7069F0094C7B72662
:1010900002409042719A90C290421366160090C22C
:1010A000D443D4C3D443758FD8C3D843B706000103
:1010B000D8C39843558F98C3984393166700E3DDD0
:1010C00006FED843B7160240719BD8C3D8431367B6
:1010D0002700D8C32147DC42B18BE39EE7FE828024
:1010E000EFE21FFC311102C402C602C8FD576313B0
:1010F000F50001A093D7854093F4F7079377F500A7
:10110000139727008D6793870785BA979C431181B2
:101110003D892E843EC0EFF07F952AC285C4854567
:101120000545E1399387F4FF6947636DF700096767
:101130008A071307477EBA979C43828785450545F2
:10114000EFF05FB593572440137734008D8B7DC744
:101150003AC609476380E70E0D47638FE70C0547E2
:101160006388E70CC1473EC8EDA08145C9BF8545EE
:10117000370500100905E9B7854537054010DDBF83
:101180008145E5BF854537050080110555BF85457B
:101190003705208075B7854537052080FDB7814527
:1011A000E5BF3705160085451305050451BF854584
:1011B000370516001305050861B785453705160084
:1011C0001305050CB5BF8145D5BF3705180085450A
:1011D00013050510B5B7370518008545130505201B
:1011E00085B78545370518001305053091BF814542
:1011F000D5BF85452165A9B78145EDBF8545370533
:1012000020008DBF8145E5BF854537052000B5BF6E
:101210008145E5BF85453705200069BF8145E5BFAC
:101220008545370530001305054019BF8145D5BFF9
:10123000D14715BFE14705BFF14735B70547638380
:10124000E70299C789466381D7029307800221BFCD
:1012500002C8824712452C007C84EFF05F96510152
:101260006FE0BFE4914701B711840D8893078004B4
:10127000E31DE4FCCDBDFD577D57631CF500828066
:101280006398A700EFE2DFE18C45993D6FE0FFE155
:10129000B1059C41E396E7FE01A07D579C41639414
:1012A000E700014582806394A700C8418280B105B0
:1012B000F5B7FD576307F500EFE29FDEF93F6FE0FA
:1012C000DFDE014582806305B50019C181E5AA858D
:1012D0002E8582808145EDBF01A001A001A001A063
:1012E00001A001A001A001A001A001A001A001A0F6
:1012F00001A001A001A001A001A001A001A001A0E6
:1013000001A001A001A001A001A001A001A097F1EE
:10131000FF1F9381A15E138181F017150000130553
:10132000657897F5FF1F9385E5CD1386018363FAF2
:10133000C5008322050023A0550011059105E3EAAD
:10134000C5FE138501839385419A6377B5002320F9
:1013500005001105E36DB5FE93020008739002309D
:101360008D427390428097F2FFFF9382A2C993E26D
:10137000320073905230170500001305E53C752EBE
:10138000FD2EEFF0FFCC970200009382223873907D
:1013900012347300203071158280EFE27FD0184143
:1013A000B7370140938707C02A846318F7000565A3
:1013B000854513050580EFF05FA41840B70700408E
:1013C0006316F70085450545EFF01FA56FE0FFCDDB
:1013D000EFE21FCD1841B7370140938707C02A8439
:1013E0006318F7000565814513050580EFF0FFA040
:1013F0001840B70700406316F70081450545EFF038
:10140000BFA16FE09FCAEFE2BFC91301C1FDAA846B
:10141000084D32C609662EC4930546703ACA36C8CE
:10142000493D2AD0C84C89669385C66E59352A84B1
:10143000885089659385456DAD3D2AC0C850896542
:101440009385C56BBD350257096689662AC232CCC1
:1014500036CE6304070ED04CFD566304D600630EEF
:10146000040C9050FD566305D60082476387070C35
:10147000D050FD566305D60092476380070C3A852D
:10148000A2859135824588C03D3D924588C0253D65
:1014900088C045C53747014013070780631BE50037
:1014A00085451165EFF07F9513070002238604023E
:1014B00098D4E247884C93854770753B11C4F24736
:1014C000C84C9385C76E453B8247814681CB885087
:1014D00089659385456D453393060010924791CBFE
:1014E000C850896593E606209385C56B36C0613385
:1014F0008246A24703C7C40288409CC4B247131661
:101500002700DEA4D247138701843297FEA4C24786
:101510001386440010C33147C8C09EA8BAA8D6A8F5
:1015200001E48545EFF0BFB0C84093858400EFF03B
:10153000FFA0C8408545EFF03FAD130141026FE0C9
:10154000DFB6EFE2FFB5896783A707730967130763
:10155000C7738A07BA97804389659385457022854A
:10156000893B19CD37050020F165930745060147F2
:1015700081460146938505201305450680CF6135D8
:101580006FE0BFB2EFE2DFB18347C502930500020F
:101590001397270093870184BA979C438843EFF001
:1015A0009FAA133515006FE05FB0EFE27FAF83476E
:1015B000C502930500041397270093870184BA9707
:1015C0009C438843EFF03FA8133515006FE0FFAD53
:1015D000EFE21FAD411137040020AA842EC2EFF0C4
:1015E0004FCD9307440683C7C7022AC41304440699
:1015F00085E70347C402938701840A07BA979C438F
:10160000F1173EC0938701843EC68247D9EB02C2E0
:10161000124541016FE07FA9896783A707730967B6
:101620001307C7738A07BA979C43896693854670E8
:101630003E853EC0EFF0FFC7896671D923060402DC
:10164000138701841C4391EF8347C402850793F7F6
:10165000F70F2306F402FDD7ED358347C402D1DB33
:101660007DB7024593854670EFF0BFC40346C402C0
:101670001387018493172600BA979C4389669C437D
:10168000E394A7FC3DD6C9BFEFF0AFC2A247B307B2
:10169000F5403335F500E39CA5F61307703EE3688B
:1016A000F7F6024519376DF19247A6973EC4A24757
:1016B000E380F4F60245D53D75FD8347C402324709
:1016C00085048A07BA979C4383C5F4FF8843EFF0EB
:1016D0001F95F1BF11E57D5582807D556FE0FF9C20
:1016E000EFE21F9CAA842E84713D65F983C7C40272
:1016F0001397270093870184BA979C438843EFF0A0
:101700009F9208A00145D9BFEFE29F99EFF06FB516
:10171000EFE07FB8EFE07FBDF5BFEFE27F98EFF03D
:101720000FBA6FE09F98511106C409205111194555
:1017300006C415220545EF007077AA85814601464B
:101740000145B9A25111971700009387673522C24E
:1017500017140000130404351D8C26C006C4098428
:10176000BE8419E41244A240824431016FF06FC27A
:101770007D1493172400A6979C438297DDB75111DF
:1017800022C2971700009387E73017140000130454
:1017900064301D8C26C006C409848144639684028B
:1017A000EFF04FBF971700009387C72E1714000064
:1017B0001304042F1D8C0984814463928402A24087
:1017C0001244824431018280139724003E971843CB
:1017D00085040297971700009387C72BC1B713970B
:1017E00024003E97184385040297971700009387BB
:1017F000672AE1B7FD4763F6B700D9471CC17D559D
:1018000082807C41411122C406C62E862A8491C75B
:1018100013972500BA97984319EB228532C0BD2053
:10182000AA85228522440246B240410115A8854678
:1018300001456308D700FD566319D700D9471CC07E
:101840000545B2402244410182802E8523A0070035
:1018500002970145FDB79387C180AA85884359BF88
:10186000511122C22A842E85B28523A0019A06C472
:10187000EF001063FD576317F5009387019A9C43AF
:1018800091C31CC0A2401244310182806F0090605D
:10189000938741849C43AA8399EF1387419123A2A4
:1018A000E18417E5FFFF1305E575BA8709C51C41FB
:1018B00023AEF198BA87D8437D437D556346E30450
:1018C000638D030203A387086300030493122700B8
:1018D0009A9223A0C2000325031005463316E600A2
:1018E000518D2320A31023A0D20889466397D300EB
:1018F00083264310558E2322C310930617000A0730
:10190000D4C3BA978CC70145828097E7FFFF9387BE
:10191000676F91C717050000130505E339BD828085
:10192000370780007D1741113373A70013D6750167
:101930009312330022C4135475011374F40F6D8F86
:1019400026C21376F60F9354F50116C006C6FD8124
:101950009A87A286268593133700B302C440638E0C
:10196000B40E6352500C630806149307F00F630D16
:10197000F414B7070004B3E3F300ED4763C8572836
:1019800093070002B3875740B397F300B3D25300D5
:10199000B337F000B3E7F2000247B307F7401397FD
:1019A0005700635F0718370300047D13B3F7670020
:1019B0003E853EC0EF00304782476D15B397A700C4
:1019C0006346851A018D0505130300023303A34006
:1019D0003393670033336000B3D7A700B3E76700E2
:1019E000014413F7770019C713F7F7009146630313
:1019F000D70091071397570063580714050413077E
:101A0000F00F26856300E4169A07A5839376F40FFA
:101A1000B2402244A607DE06A5837E05DD8E9244F1
:101A2000558D410182806399020A130614001376D2
:101A3000E60F6318061463160422024663020620AA
:101A4000E38803FC0247B307774013965700635AB5
:101A50000622B387E340AE8469B76359500A49CE82
:101A60009307F00F6302F406B7070004B3E3F30033
:101A7000ED4763C4572093070002B3875740B397DD
:101A8000F300B3D25300B337F000B3E7F2000247DC
:101A9000BA97139757006355070A05041307F00F09
:101AA0006302E40CB706007E13D71700FD16858B82
:101AB000758FD98F3DB7638B0308FD1263870218BA
:101AC0009307F00FE31BF4EA630D03080145930647
:101AD000F00FB70740002DBFB307864065EC824684
:101AE00063850614FD176383071A9306F00F631CC2
:101AF000D60EAE843A83C9BF638A0304FD126383A2
:101B000002129307F00FE315F4F67DBF6398020805
:101B100005041376E40F631E0612639C061002464A
:101B2000630B0616E38603EEB307760013975700A0
:101B3000014463570700370700FC7D17F98F054400
:101B400013F77700E31207EA13D337009307F00F78
:101B5000E30CF4F693179300A5839376F40F268590
:101B600045BD26859306F00F81475DB5370300FC20
:101B70007D13B3F7670013F77700098CE31607E6C8
:101B8000E1B78247B3877740139757006342070E48
:101B9000E39007E20145814681479DBDB30786403A
:101BA00025E88246FDCAFD17F5CF9306F00FE30343
:101BB000D6F46D476346F70E8246130700021D8F69
:101BC0003397E600B3D7F6003337E000D98F9E97FE
:101BD0003284C1B59306F00FE30DD6F08246370785
:101BE0000004558F3AC06D47634BF70882461307D0
:101BF00000021D8F3397E600B3D7F6003337E000BD
:101C0000D98FB387F3403284AE8451BB854769B323
:101C10009306F00FE300D6EE824637070004558F97
:101C20003AC041BF82479E97ADB53A833284AE84B5
:101C300031BF93173300E38F07EAE38703E879B5F1
:101C4000638303042E85BA87E1B38247B387774065
:101C5000B9B39307F00FE307F4F082479E978583AB
:101C6000C5B593173300F1FBE38203E6AE8459B5A3
:101C70008247AE84B387F34025BB854709BD8547BE
:101C800049B7E39F07EA0145814759B3B387D3407A
:101C90003284AE8429B3BA87A5BB3A8332847DB53A
:101CA000854735B7B38776003284E5B31301C1FDAC
:101CB0009356750126CC131695009354F50106D062
:101CC00022CE93F6F60F2582A682638B0610930729
:101CD000F00F638CF6100E06B70700045D8E938636
:101CE00016F80144814393D775011393950093F738
:101CF000F70F13539300FD81E5C31307F00F6386BD
:101D0000E702938717F80E03370700049D8E3363AD
:101D1000E30081475D8C171500001305A5BB0A047D
:101D20002A940040AD8C22950285938616F06314A8
:101D3000030C89475D8C171500001305A5BD0A0427
:101D40002A9403230400AD8C1A95028581449305DF
:101D5000F00FB70740001395970082507244939795
:101D600075012581FE045D8D458DE244130141021C
:101D700082809305F00F8147F9BF1A86AE82BE8339
:101D800089476386F3228D47E382F3FC85476386A8
:101D9000F30C9385F60793F412006358B018937709
:101DA000760099C79377F60011456383A700110663
:101DB0009317460063D80700B70700F8FD177D8E1C
:101DC000938506089307E00FE3C5B7FA93176600FB
:101DD000A58393F5F50F41B763190304854799BFB0
:101DE00015E2114481468543FDBD01EA2144930675
:101DF000F00F8943CDBD8D4731BF31449306F00FBD
:101E00008D43D5B532852EC432C026C2EF00B00155
:101E100002469307B5FF9306A0F83316F600898EA5
:101E2000014481439242A2457DBD1A8536CA16C837
:101E300032C61EC42EC21AC0EF00E07ED246024354
:101E40009307B5FFAA963313F3009386660781477D
:101E50009245A2433246C24275BD93F412008145B9
:101E60008147D5BDC16713175300FD17F98F3ACAD3
:101E70003EC213540701637D660E3285A28536C6C5
:101E800032C4EFE02FA592452AC0EFE0AFA2224670
:101E9000B246AA873283FD160146A2851A8536C846
:101EA0003EC632C4EFE0CFA52246B2474205518D6F
:101EB000C246637FF500524782453A951386F5FF87
:101EC0006362E50E6370F50E1386E5FF32C03A9546
:101ED000B307F5403E85A28536C83EC6EFE08F9F2A
:101EE00092452AC4EFE00F9DB2472AC2A2853E85E3
:101EF000EFE00FA1124642052243C246637CC500B3
:101F000052479307F3FF3A95636CE508637AC50877
:101F100079133A9582473306C5403336C000C2076D
:101F2000B3E767005D8EA682ADB505433303B340CA
:101F300091C56D4581458147E34F65E09386E6098C
:101F4000B316D600B35766003336D000D18F93F660
:101F5000770099C693F6F70011466383C600910790
:101F600013975700634207049A07A5838145E5B399
:101F7000135316001A85A28536C832C61AC4EFE07C
:101F80006F9592452AC0EFE0EF923246AA87C2468B
:101F90007E064182224311B7AE82BE830146CDB395
:101FA0003E838DBF32C02DB7854581476DB393F415
:101FB00012009305F00F814779BB011122CC135415
:101FC000750126CA06CE931495001374F40FA580EC
:101FD0009356F5014DCC9307F00F630CF40CB70743
:101FE00000048E04DD8C130414F88147014613D5D8
:101FF0007501139795001375F50F2583FD814DC568
:102000001303F00F630D65020E07130515F8370370
:102010000004336767002A9481431305140033C317
:10202000B6002AC03D459A826362F510171500007C
:10203000130545928A07AA979C433E95028513048F
:10204000F40F61EB93E727008943C1BF01431307F6
:10205000F00FB7074000F2406244A6075E07A58371
:102060001315F301D98FD2445D8D05618280AE8254
:10207000BA841E8689476306F60A8D47E308F6FC94
:1020800085471683631EF61A01478147E9B7B5E015
:1020900013D57501139795001375F50F91470144FA
:1020A00005462583FD8129FD19EB93E7170085433C
:1020B000ADB79DE8A1471304F00F09460DBF3A855F
:1020C00032C83EC62EC436C23AC0B12B02471303F3
:1020D000B5FF098C331767001304A4F881439246B7
:1020E000A245B247424615BFB1471304F00F0D4653
:1020F000FDBD26852EC236C03D239307B5FF1304D0
:10210000A0F8B394F400098C8147014682469245B9
:10211000F9BD93E737008D4309B78947B682E31EBF
:10212000F6F416831307F00F814735B7C167FD1723
:10213000B3F3F400F98FC18041831E85BE85EFD0D3
:102140007FF7AA82BA851E85EFD0DFF6AA83BE8507
:102150002685EFD03FF6AA87BA852685EFD09FF572
:1021600013D70201BE93BA9363F4F300C1673E959F
:10217000C167FD17B3F4F300C204B3F2F200A692F4
:102180009394620093D30301B334900093D2A201DD
:10219000AA93B3E2540093946300B3E4540093977A
:1021A000440063D70700024493D714008588DD8C70
:1021B0001307F407635FE00293F7740099C793F77E
:1021C000F40091466383D70091049397440063D849
:1021D0000700B70700F8FD17FD8C130704089307E5
:1021E000E00F63CBE70493976400A5831377F70FA1
:1021F0009DB58547B386E74011C76D4601478147C6
:10220000E34BD6E41304E40933948400B3D7D40039
:10221000B3348000C58F13F7770019C713F7F700A1
:1022200091466303D700910713975700634C07004B
:102230009A07A583014705B51307F00F814721BD14
:102240000244BDB70547814739B5B7068000FD1682
:102250003111B3F7A6001357750113D675017D81AF
:102260001377F70FED8E22C626C41376F60F06C835
:102270009303F00F3EC22AC03A8493943700FD8145
:10228000939236003303C7406303761093C515005D
:10229000630EB5106354600C631106106388021E50
:1022A0007D13B3875440630703029307F00F630B5A
:1022B000F716ED4763CA672893070002B3876740A4
:1022C000B397F20033D36200B337F000B367F30083
:1022D000B387F440139757006354071AB7040004F8
:1022E000FD14E58F3E853EC23D2E92476D15B39796
:1022F000A7006341851C018D050593020002B3828E
:10230000A240B3925700B3325000B3D7A700B3E74F
:102310005700014413F7770019C713F7F7009146E8
:102320006303D700910713975700635F0714824632
:1023300005041307F00F13F516006309E4169A0756
:10234000A5831377F40FC2403244A6075E07A58326
:102350007E055D8FA244598D510182806315030A69
:10236000130617001376E60F631106166313072290
:1023700063800420E38902FCB3875440939657009E
:1023800063D20622B387924001442EC061B7E38F27
:1023900002EE630DB50AE35360FC9307F00F63038D
:1023A000F708B7070004B3E2F20021B76350600AF0
:1023B00051C29307F00F6307F706B7070004B3E2B3
:1023C000F200ED4763CC671C93070002B3876740B8
:1023D000B397F20033D36200B337F000B367F30072
:1023E000A69713975700635D070805041307F00FBE
:1023F000630EE40AB706007E13D71700FD16858B1F
:10240000758FD98F01BFB307E64063160710638845
:102410000414FD17638E07181307F00F6314E610FA
:102420002EC036C29247C1C301451307F00FB7074C
:10243000400011BF638C02047D13B3875400E30294
:1024400003FA9307F00FE31EF7F6E9BF631B0308D7
:10245000130417001376E40F6311061263150710B7
:10246000638D0414E38102EEB38754001397570081
:10247000014463570700370700FC7D17F98F0544B7
:1024800013F77700E31B07E88D833EC29307F00F35
:10249000E30AF4F8924782461377F40FA607A58360
:1024A00013F516004DB5824713F517001307F00F0B
:1024B000814751BDB70200FCFD12B3F7570013F777
:1024C0007700098CE31B07E4C1B7B3875440139727
:1024D0005700634C070AE39707E00145014781472E
:1024E0009DB5B307E6403DC31307F00FE30BE6F2DB
:1024F00037070004D98C6D476346F70C13070002B9
:102500001D8F3397E400B3D7F4003337E000D98F41
:1025100096973284F9B51307F00FE303E6F0370717
:102520000004D98C6D47634DF706130700021D8F19
:102530003397E400B3D7F4003337E000D98FB38783
:10254000F24032842EC079B3854759B3ADC8FD1728
:10255000A5CF1307F00FE310E6FA36C2E1B536C295
:1025600032842EC025B7E38E04EAE38D02EA6DBD06
:10257000638D02022E85B687F9B39307F00FE30748
:10258000F4F2B38754008583E5BDB38792402EC033
:1025900091BBE1FCE38A02E82EC061B5854789B5AD
:1025A000854771BF0144E39D07EC0145814761BB4D
:1025B000B387924032842EC031BBB68769B336C22E
:1025C0003284E9B58547A9B7B3875400328411BD79
:1025D00013577501370680009307F6FF1377F70F3F
:1025E0009305E007B3F6A7009357F501014563F49F
:1025F000E50099C3828082809307E0097D55E3EB73
:10260000E7FE93055009B3E7C60063D7E50013075B
:10261000A7F63395E7008280130560093307E5408C
:1026200033D5E7008280C167637CF5029307F00F22
:102630001307000263EBA700970700009387873515
:10264000AA9788233305A74082802181970700003D
:1026500093874734AA97882361473305A740828030
:10266000B7070001636DF50061819707000093874C
:102670006732AA97882321473305A740828041818A
:102680009707000093870731AA97882341473305AE
:10269000A74082809307800523A0F19A7D55828010
:1026A0009307800523A0F19A7D55828001A0000048
:1026B0000000803F0AD7233C0000B84223000000FE
:1026C0000038014018000000FFFFFFFF000000007D
:1026D0000000000012000000003801400B00000064
:1026E000FFFFFFFF000000000000000026000000C8
:1026F0000038014018000000FFFFFFFF000000004D
:102700000000000025000000003801400B00000020
:10271000FFFFFFFF000000000000000001000000BC
:1027200000000000060000000C0000000D0000008A
:102730000F000000100000000E000000010000006B
:102740000200000010000000110000001200000054
:102750001300000014000000150000001600000027
:1027600017000000200000002100000022000000EF
:1027700023000000240000002500000026000000C7
:10278000270000000000000000000000120300000D
:1027900046030000080300000C0300000E030000C5
:1027A0002A0300000E030000F6090000260A0000BC
:1027B0000806000008060000600500006005000033
:1027C0006005000060050000600500006005000075
:1027D000600500000206000002060000020600007C
:1027E000900500003C1100006A1100006E1100000D
:1027F0007811000080110000841100008E1100008B
:10280000961100009E110000A2110000AE11000000
:10281000BA110000C6110000CA110000D611000054
:10282000E2110000EE110000F2110000F8110000AA
:10283000FC11000004120000081200001012000039
:10284000141200001C120000201200002C120000C4
:102850000100000002000000040000000800000069
:102860001000000020000000400000008000000078
:102870000000000000000000000000000000000058
:102880000000000000000000000000000000000048
:102890000000000000000000000000000000000038
:1028A0000000000000000000000000000000000028
:1028B0000000000000000000000000000000000018
:1028C0000000000000000000000000000000000008
:1028D00094F5FFFFA2F4FFFF8EF5FFFFAAF4FFFFC0
:1028E0008EF5FFFF7CF4FFFF8EF5FFFFAAF4FFFFDC
:1028F000A2F4FFFFA2F4FFFF7CF4FFFFAAF4FFFFA6
:10290000B0F4FFFFB0F4FFFFB0F4FFFF7CF4FFFF73
:1029100062F4FFFF62F4FFFF4EF5FFFF88F6FFFF52
:102920004EF5FFFF3CF4FFFF4EF5FFFF88F6FFFF7B
:1029300062F4FFFF62F4FFFF3CF4FFFF88F6FFFF45
:1029400070F4FFFF70F4FFFF70F4FFFF3CF4FFFF33
:10295000DCF7FFFF20F7FFFF20F7FFFF1EF7FFFF69
:1029600024F7FFFF24F7FFFFFCF6FFFF1EF7FFFF32
:1029700024F7FFFFFCF6FFFF24F7FFFF1EF7FFFF22
:10298000CAF7FFFFCAF7FFFFCAF7FFFFFCF6FFFF1A
:102990000001020203030303040404040404040406
:1029A00005050505050505050505050505050505D7
:1029B00006060606060606060606060606060606B7
:1029C00006060606060606060606060606060606A7
:1029D0000707070707070707070707070707070787
:1029E0000707070707070707070707070707070777
:1029F0000707070707070707070707070707070767
:102A00000707070707070707070707070707070756
:102A10000808080808080808080808080808080836
:102A20000808080808080808080808080808080826
:102A30000808080808080808080808080808080816
:102A40000808080808080808080808080808080806
:102A500008080808080808080808080808080808F6
:102A600008080808080808080808080808080808E6
:102A700008080808080808080808080808080808D6
:102A800008080808080808080808080808080808C6
:0C2A90000A190000EC02000040040000E5
:042A9C00FC02000038
:102AA00014000000000000001400000000000000FE
:102AB00014000000000000001400000000000000EE
:102AC00014000000000000001400000000000000DE
:102AD00014000000000000001400000000000000CE
:102AE0000204060804080C100810182010203040BA
:102AF0002040608001020304050607080102030468
:102B000005060708000000000000000000000000AB
:102B1000000000000000000000000000FFFFFFFFB9
:102B2000FFFFFFFFFFFFFFFFFFFFFFFF00000000B1
:102B3000010000000000000090280000B028000004
:102B400070280000000000000000000000000000ED
:102B50000000000000000000000000000000000075
:102B60000000000000000000000000000000000065
:102B70000000000000000000000000000000000055
:102B80000000000000000000000000000000000045
:102B900000000000000000006666A63F9A99193EFA
:102BA000006CDC02940000200004080C04004000CB
:102BB00000040000010010000001001002040810D1
:082BC000020104030000000003
:00000001FF
